:1000000015C1000044C1000042C1000040C1000011
:100010003EC100003CC100003AC1000038C10000F0
:1000200036C1000034C1000032C1000030C1000000
:100030002EC100002CC100002AC1000028C1000010
:1000400026C1000024C1000022C1000020C1000020
:100050000C9433111CC100001AC100000C94A21AA8
:1000600016C100000C949F180C94D51810C1000004
:100070000EC100000CC100000AC1000008C1000050
:1000800006C1000004C1000002C1000000C1000060
:10009000FEC00000FCC00000FAC00000F8C0000074
:1000A000F6C00000F4C00000F2C00000F0C0000084
:1000B000EEC00000ECC00000EAC00000E8C0000094
:1000C000E6C00000E4C00000E2C00000E0C00000A4
:1000D000DEC00000DCC00000DAC00000D8C00000B4
:1000E000D6C00000E91BEC1BDB1BDF1BE51B231C40
:1000F000F01BF41BFA1BFE1B021C081C0C1C101C22
:10010000231C161C1A1C1E1C00000A0B02090C0DD5
:100110000E080703040100000000000000000000BA
:1001200000000000000000000000000000000000CF
:10013000000000001211100000000000000000008C
:1001400000000000000000000000000000000102AC
:1001500010202008081020401020408002010201D9
:100160000804020101020408102040808040201091
:1001700008040201800402018040201008040201EA
:100180000804020101020408102040800102040852
:10019000102040800505050507050808080802022B
:1001A00002020A0A08080404040401010101010111
:1001B00001010303030303030303040707070C0CF4
:1001C0000C0C0C0C0C0C02020202060606060606BB
:1001D00006060B0B0B0B0B0B0B0B00002000230078
:1001E000260029002C002F0032000001000003012E
:1001F0000601090100002200250028002B002E0026
:100200003100340002010000050108010B0100006B
:100210002100240027002A002D00300033000101B6
:100220000000040107010A01D30F071911241FBEA2
:10023000CFEFD1E2DEBFCDBF00E00CBF15E0A0E004
:10024000B2E0EEE1F0E400E00BBF02C007900D92D7
:10025000AC3AB107D9F72AE0ACEAB5E001C01D928B
:10026000A535B207E1F712E0CCE2D2E000E006C02B
:1002700022970109FE010BBF0E94BF1EC832D107A1
:1002800080E00807A9F70E94951A0C940D20B8CEBB
:1002900061E085E20E94241C60E085E20C945D1C14
:1002A00080912F09882319F0833038F505C06091BB
:1002B000AD05611105C01BC06091AD05662399F0C5
:1002C0008091AC059FEF980F9093AC058230A8F415
:1002D00061506093AD05617085E20E945D1C8AE00B
:1002E0008093AC05089580911809811106C060E0E3
:1002F00085E20E945D1C109227090895DF92EF921B
:10030000FF920F931F93CF93DF93EC01C9318CEFD2
:10031000D8073CF0C031E7E2DE075CF4D7FF0BC042
:1003200002C0C9E1DCEFD195C195D1099AE0D92E7F
:100330000CC0CFE0D7E2CE0160E177E20E947E1EE2
:1003400068EE73E00E947E1ED62E61E086E10E9478
:100350005D1C8AE0E82EF12CCE01B7010E947E1EC2
:100360008D589B4FFC01208140E068E18AE10E94AA
:10037000BA1C04E610E0CE01B8010E947E1EB7014F
:100380000E947E1E6D587B4FFB01208140E068E19A
:100390008AE10E94BA1CCE0168EE73E00E947E1EC4
:1003A000B8010E947E1E6D587B4FFB01208140E00A
:1003B00068E18AE10E94BA1CED2DF0E0ED58FB4F98
:1003C000208140E068E18AE10E94BA1C60E086E199
:1003D0000E945D1C64E070E080E090E0DF91CF91CE
:1003E0001F910F91FF90EF90DF900C941B1B0F93C8
:1003F0001F93CF93DF938C01FC01E454FE4F2081C7
:100400003181EC01CE52DE4F2115310509F41882FD
:100410008881811106C0F801E654FE4F80819181E8
:1004200001C0C9016BDFF801EF52FE4F80818230BD
:1004300018F0815080830BC088E2808388818330EC
:1004400020F0833021F4188202C08F5F8883DF910F
:10045000CF911F910F910895CF93DF93EC0184EB1F
:1004600091E0E7E0F2E0DE0101900D920197E1F703
:100470000FDFFE01E053FE4F10827497118210824D
:10048000329611821082349711821082389611822E
:1004900010823F96108231961082339710823197E6
:1004A0001082319710823D97118210823B96118203
:1004B0001082379784E090E0918380833E9710828A
:1004C000329711821082339610823F9610823E97A7
:1004D0001082319610823E961082319610823196AB
:1004E0001082C653DE4F1882DF91CF9108958BE1C1
:1004F0000E94921C21E0892B09F420E0822F0895AC
:10050000FC01E454FE4F1182108232971182108256
:1005100010920C0710920B0760E085E20C945D1CB2
:1005200082539E4FFC0160830895FC01E454FE4F0A
:10053000DC01A254BE4F8D919C91918380830895DC
:10054000FF920F931F93CF93DF93EC01F62E8C0154
:1005500003531E4FF801608368EE73E08BEA99E065
:100560000E9488194AE050E06F2D8BEA99E00E94C2
:100570007F1AF8018081823039F0833031F18111A6
:1005800084C0CE52DE4F6AC0FE01E253FE4F80812E
:10059000882319F081E076978083FE01E053FE4FB7
:1005A00088E080837097DE01AE53BE4F8D919C91A1
:1005B0009183808332971182108232971182108248
:1005C000CE52DE4F84E0888360C060E085E20E9406
:1005D0005D1CFE01E253FE4F808181507297823094
:1005E00050F4DE01A254BE4F8D919C9111979183DE
:1005F000808319961C9280819181FE01E654FE4F02
:100600002081318128173907A4F4918380833C9697
:10061000808181110EC081E0808384E08093AD05EC
:100620008AE08093AC056EEF73E08BEA99E00E945C
:10063000A219FE01EE52FE4F10823A978081C753F5
:10064000DE4F81110DC0888181110AC084E399E0D9
:10065000DF91CF911F910F91FF9027C6188215C08F
:1006600088818111FBCF63E082E097E00E9425132F
:10067000AC014150510962E082E097E0DF91CF91F7
:100680001F910F91FF900C94C314DF91CF911F9194
:100690000F91FF900895EF92FF920F931F93CF93C6
:1006A000DF93EC017C0182E3E81A8EEFF80AF70190
:1006B00080818E010C531E4F811103C085E090E0B4
:1006C00002C088E090E0F80191838083CE010FDFC3
:1006D000882309F45EC0FE01E353FE4F40814423AA
:1006E00009F457C080918209882309F452C081E03F
:1006F00080937E09809176099091770910927E0906
:10070000413071F5FE01E553FE4F208131817C01BE
:10071000E21AF30A39979183808340937E09F801A6
:10072000808191818E159F05A4F583E597E00E9455
:10073000610D81112EC06EE974E08BEA99E00E9490
:10074000A21910927E09F0920C07E0920B0762E06A
:10075000CE01DF91CF911F910F91FF90EF90F0CEDE
:100760004230B9F4F7012081222379F0233088F454
:10077000FE01E254FE4F2081318132974081518148
:100780004217530714F431832083CE53DE4F9983ED
:100790008883DF91CF911F910F91FF90EF90089583
:1007A0000F931F93CF93DF931F92CDB7DEB78C01CA
:1007B00069839DDE6981882331F0611115C08BE169
:1007C0000E945D1C09C0662379F061E08BE10E9404
:1007D0005D1C80E090E092DD60E0C8010F90DF9149
:1007E000CF911F910F91ACCE0F90DF91CF911F91C0
:1007F0000F91089560E0A4CE61E0A2CE8F929F9207
:10080000AF92BF92CF92DF92EF92FF920F931F931E
:10081000CF93DF93EC0144DDCE01E9DD6E0123E3EC
:10082000C21A2EEFD20AF6018081823021F0833085
:1008300009F4F3C101C280917609909177097E0194
:10084000F5E3EF1AFEEFFF0AF70120813181821BE9
:10085000930B97FF02C080E090E0FC01EE0FFF1FBA
:10086000EC0FFD1F008111815E01F2E3AF1AFEEF74
:10087000BF0AF5019080F1E09F1689F09F1628F0DD
:1008800022E0921609F445C0D0C0FE01E454FE4FA8
:1008900080819181801791070CF0C7C0C4C00C33D0
:1008A00011050CF4C2C060E082E097E00E942513BD
:1008B00024E6AC01249FC001259F900D11248017D0
:1008C0009107BCF04E0159E4851A5EEF950AF401D8
:1008D0008081882309F477C060E085E20E945D1C76
:1008E0006FE074E08BEA99E00E94A219F401108293
:1008F0006AC0FE01E854FE4F8081882309F483C05A
:1009000061E085E20E945D1CFE01E954FE4F908289
:100910008CC00C3311050CF488C061E082E097E0D4
:100920000E94251324E6AC01249FC001259F900D51
:100930001124801791070CF452C04E0159E4851A16
:100940005EEF950AF40180818823E9F160E085E299
:100950000E945D1C81E080937E096BE274E08BEA6B
:1009600099E00E94A21910927E09F401108267E3B7
:1009700074E08BEA99E00E9488194AE050E0B801DF
:100980008BEA99E00E94501A63E474E08BEA99E0E4
:100990000E94881960917609709177094AE050E0C9
:1009A0008BEA99E00E94501A6EE474E08BEA99E0B9
:1009B0000E948819F701608171814AE050E08BEA5A
:1009C00099E00E94571AFE01E153FE4F808188236F
:1009D00061F1769780818823B1F0108214C0FE0106
:1009E000E854FE4F8081882371F061E085E20E9427
:1009F0005D1C81E080937E0910927E09FE01E9541E
:100A0000FE4F808312C0FE01E254FE4F808191812F
:100A10008017910754F4118300833297808191816C
:100A20008017910714F411830083F50180818111EF
:100A30001CC081E080937E098091760990917709AE
:100A400010927E09FE01E454FE4F2081318112167E
:100A500013060CF0F1C0F70120813181821B930B4A
:100A600006970CF0E9C063E0D9C0FE01E053FE4FE9
:100A70009081992311F091509083813021F0823040
:100A800009F453C0D9C04E01F2E48F1AFEEF9F0A59
:100A9000F401808191815E01F4E4AF1AFEEFBF0A98
:100AA000F50120813181281739071CF49183808357
:100AB00025DCF6018081823009F0BEC06E01F1E3D1
:100AC000CF1AFEEFDF0AF6018081882309F181E069
:100AD00080937E09209176093091770910927E09E2
:100AE000F50180819181181619060CF0A5C0F70157
:100AF00040815181241B350B263031050CF09CC000
:100B0000081719070CF098C063E0CE0119DD3BC04F
:100B1000F5018081918197FD0196959587958017C4
:100B200091070CF489C0F4016FC05E01F2E4AF1AC2
:100B3000FEEFBF0AF501808191817E01F4E4EF1A96
:100B4000FEEFFF0AF70120813181281739071CF4D5
:100B500091838083D3DBF6018081823009F06CC001
:100B60006E01F1E3CF1AFEEFDF0AF60180818823E0
:100B700009F43FC080917F09882341F063E0CE01F2
:100B8000DFDC10927F09F601108256C0F7018081E8
:100B9000918197FD019695958795801791070CF4A3
:100BA0004BC0F50111821082FE01E853FE4F81E037
:100BB0008083F601108263E0CE01C2DC68E873E155
:100BC00080E090E00E941B1B63E082E097E00E94BF
:100BD000B71361E08CE497E0DF91CF911F910F9103
:100BE000FF90EF90DF90CF90BF90AF909F908F904D
:100BF00092C7F7018081918197FD01969595879520
:100C000080179107CCF0F50111821082FE01E854A3
:100C1000FE4F1082719681E0808361E0CE01DF910A
:100C2000CF911F910F91FF90EF90DF90CF90BF90E9
:100C3000AF909F908F9084CCDF91CF911F910F91B7
:100C4000FF90EF90DF90CF90BF90AF909F908F90EC
:100C5000089582539E4FFC018081089583539E4FD7
:100C6000FC018081089581539E4FFC0160830895AB
:100C70000F931F93CF93DF93CEE7D9E021E0288332
:100C800020917609309177098C0105531E4FF801A8
:100C9000318320836EE574E08BEA99E00E94881925
:100CA000F801608171814AE050E08BEA99E00E948E
:100CB000571A1882DF91CF911F910F910895FC016F
:100CC00010828CEB92E0928381838CEA93E0948390
:100CD000838315820895CF93DF93EC0161E084E371
:100CE0000E94241C60E084E30E945D1C60E08EE1B1
:100CF0000E94241C18821982DF91CF910895CF930E
:100D0000FC012081211102C0C18101C0C1E08EE13E
:100D10000E94921CCC2369F081110DC061E08FE12B
:100D20000E945D1C84E30E94921C892B71F461E097
:100D300008C08111F7CF84E30E94921C892B29F00F
:100D400060E084E3CF910C945D1CCF910895FC0189
:100D5000608389E497E00E949A10811104C089E4BD
:100D600097E00C946A1008951F93CF93DF93EC01E2
:100D700087E30E94AC1B29813A81A901445651099D
:100D8000841795070CF4C90118811130B9F028F0C7
:100D9000123031F11330E1F146C08217930764F449
:100DA00061E085E597E0D3DF61E080E30E945D1CB0
:100DB00082E08D8381E023C060E024C08D81823099
:100DC00050F58EE10E94921C892B69F160E080E36E
:100DD0000E945D1C61E087E10E945D1C82E00FC003
:100DE0002B813C812817390764F460E087E10E9479
:100DF0005D1C60E085E597E0AADF1D8383E08883C2
:100E000012C061E087E1DF91CF911F910C945D1CCE
:100E10008D81823018F081508D8305C060E080E3C1
:100E20000E945D1C1882DF91CF911F910895FC01F3
:100E300061830895FC0110820895CF92DF92EF92B2
:100E4000FF92CF93DF93EC016A017B018B859C8538
:100E5000AD85BE859A01AB01281B390B4A0B5B0B94
:100E6000DA01C90149815A816B817C818417950718
:100E7000A607B707D8F08881813019F0823029F0B1
:100E80000CC0E985FA85199508C061E08885811153
:100E900060E068878F810E945D1CCB86DC86ED86D2
:100EA000FE868F8598890196988B8F878D819E818C
:100EB00097FD06C02F853889281739070CF018824E
:100EC000DF91CF91FF90EF90DF90CF900895FF9248
:100ED0000F931F93CF93DF93CDB7DEB7AD970FB6C8
:100EE000F894DEBF0FBECDBF60E08DE10E94241CF0
:100EF0008DE2EBEBF3E0DE01119601900D928A9505
:100F0000E1F710E0812F90E0E1E0F0E0EC0FFD1F51
:100F1000E80FF91FF0802FEFF21689F0E2E0F0E021
:100F2000EC0FFD1FE80FF91F008161E0802F0E9488
:100F3000241C6F2D802F0E945D1C1E5FE3CFAD9699
:100F40000FB6F894DEBF0FBECDBFDF91CF911F91DA
:100F50000F91FF900895CF93DF9389E497E00E946B
:100F60009A10813019F4C8ECD0E002C0C8E5D2E094
:100F70008DE30E94AC1B21E08C179D070CF020E054
:100F8000822FDF91CF910895CF93DF93EC016D2FE6
:100F9000661F6627661F81E20E945D1C61E01C16C9
:100FA0001D060CF060E082E3DF91CF910C945D1C94
:100FB000CF93DF93EC0181309105D1F460E086E2BC
:100FC0000E945D1C61E088E20E945D1C62E370E0AB
:100FD00080E090E00E941B1B60E088E20E945D1CA4
:100FE00062E370E080E090E0DF91CF910C941B1BF6
:100FF0006D2F661F6627661F86E20E945D1C61E0FA
:101000001C161D060CF060E088E2DF91CF910C9475
:101010005D1C682F89E10E945D1C81E08093280996
:101020000895FC0113821282118210820895CF93D9
:10103000DF93EC018EE30E94AC1B2881213019F074
:10104000223061F010C02A813B81821793075CF047
:10105000188280E090E0DF91CF9196CF2A813B818A
:1010600028173907ACF7DF91CF910895CF93DF931D
:10107000EC018981662349F081110EC0188280E05D
:1010800090E082DF81E0898307C0882329F01882FD
:1010900080E090E079DF1982DF91CF910895CF93BE
:1010A000DF93EC016536710514F064E670E077FFBC
:1010B00002C060E070E0882777FD8095982F0E943D
:1010C0008F1D23E333E343E350E40E941B1E20E023
:1010D00030E040E253E40E94F81C0E945C1D7B83D8
:1010E0006A838EE30E94AC1B2A813B81821793079F
:1010F0002CF481E0888381E090E007C0281739074D
:101100003CF482E088838FEF9FEFDF91CF913CCF5B
:10111000DF91CF910895FC01DC01AE5ABF4F82E010
:101120008C931C971D921D921D921C9213975296A0
:101130001C92108211821282138214971D921D92AA
:101140001D921C92139713971C9212968C93118ADE
:10115000108A17861686178E168E158E148E1F9778
:1011600011961C921E92129711961C921E9215A611
:1011700014A613A612A61D9611961C921E921597E0
:101180001C9211961C9211961C9211961C92E25B75
:10119000FF4F108208951F93CF93DF93EC01DBDEA6
:1011A000FE01ED5AFF4F882361F080818230D1F03B
:1011B00082E0808360E082E097E00E94B71360E005
:1011C0000EC08081813071F081E08083FE01EE5A93
:1011D000FF4F608182E097E00E94B71361E08BE1EE
:1011E0000E945D1C82E097E00E94B413182F89E4EE
:1011F00097E0A0D7112371F0813061F461E081E6BE
:1012000097E0CEDA61E08CE497E074D4133098F084
:1012100061E00EC08DE10E94921C892B61F460E0B8
:1012200081E697E0BDDA60E08CE497E063D460E0AB
:1012300087E597E01BDF89E497E07CD761E08130A8
:1012400009F060E08EE20E945D1CFE01EF5AFF4F44
:101250008081882319F0853089F01BC060E08AE224
:101260000E945D1C87E30E94AC1BAC0164E082E03D
:1012700097E0DF91CF911F910C94DD12C45BDF4F9B
:101280008881882331F063E082E097E00E94B71301
:101290001882DF91CF911F9108958A5B9F4FFC01C7
:1012A00010821182128213820895FC01EA5BFF4FC3
:1012B00010821182128213823C966081623021F08A
:1012C00082E097E00C94B7130895CF93DF93EC017D
:1012D000FC01EF5AFF4F60838FEF860F833010F4CD
:1012E000319660836330C1F058F4613079F0623038
:1012F00009F050C026E430E04DE350E060E023C048
:10130000643031F1653009F43DC044C026E430E07A
:101310004DE350E061E017C061E087E597E0A6DEAD
:1013200062E082E097E00E9425132AE0289FB00146
:10133000299F700D112487E597E0B1DE2DE330E0A1
:101340004CE350E062E08CE497E0DF91CF9159C428
:101350000E94EC1AFE01EC5AFF4F60837183828376
:10136000938363E082E097E00E94251328EE33E048
:10137000DC010E94B91ECA5BDF4F688379838A83D0
:101380009B8308C080912909811104C0C85ADF4F8E
:1013900088E08883DF91CF910895623049F48AE034
:1013A000849FB001859F700D112487E597E077CE6B
:1013B0000895FC011786168660E070E0DB01129646
:1013C000AA0FBB1FAE0FBF1F2D913C91868597853D
:1013D000820F931F978786876F5F7F4F65307105F8
:1013E00069F7868597850E947E1ECB010895FC01D2
:1013F000158E148E60E070E0DB011996AA0FBB1FFA
:10140000AE0FBF1F2D913C91848D958D820F931F40
:10141000958F848F6F5F7F4F6530710569F7848D7D
:10142000958D0E947E1ECB0108950F931F93CF933D
:10143000DF93EC010889198982E40E94AC1BF80152
:101440003296EE0FFF1FEC0FFD1F91838083E8891A
:10145000F9893296EE0FFF1FEC0FFD1F80819181FD
:10146000893791055CF4E889F9893296EE0FFF1F00
:10147000EC0FFD1F80819181CA977CF4888999893E
:10148000892BB9F4E889F9898C859D853296EE0F10
:10149000FF1FEC0FFD1F9183808388899989019636
:1014A000998B888B88899989059779F4198A188A84
:1014B0000CC0E889F989A889B9891196AA0FBB1FC0
:1014C000AC0FBD1F8D919C91E1CFDF91CF911F910A
:1014D0000F9108950F931F93CF93DF93EC010E8D1F
:1014E0001F8D83E40E94AC1BF8013996EE0FFF1F9D
:1014F000EC0FFD1F91838083EE8DFF8D3996EE0FEB
:10150000FF1FEC0FFD1F80819181893791055CF4ED
:10151000EE8DFF8D3996EE0FFF1FEC0FFD1F8081C2
:101520009181CA977CF48E8D9F8D892BB9F4EE8DB5
:10153000FF8D8A8D9B8D3996EE0FFF1FEC0FFD1FDF
:10154000918380838E8D9F8D01969F8F8E8F8E8D40
:101550009F8D059779F41F8E1E8E0CC0EE8DFF8D2A
:10156000AE8DBF8D1896AA0FBB1FAC0FBD1F8D91FE
:101570009C91E1CFDF91CF911F910F910895CF9270
:10158000DF92EF92FF920F931F93CF93DF93EC01C3
:1015900082E097E00E94B413843009F03FC081E6F6
:1015A00097E057DB8230D1F581E697E057DB823058
:1015B000A9F5E0916009F0916109EE0FFF1FEC5A67
:1015C000F64F808191818F34910544F110927A0910
:1015D00010927B0910927C0910927D0960E081E6EF
:1015E00097E041DB6EE774E08BEA99E00E94A21974
:1015F00040E050E061E082E097E00E94C31468E8B8
:1016000073E180E090E00E941B1B63E081E697E0BD
:101610000E94A00261E08CE497E07DD283E597E030
:1016200050D2882321F0CE0100DFCE0153DFFE012E
:10163000E35BFF4F8081882309F499C086E30E9411
:10164000AC1B7C01E0917809F0917909EE0FFF1F46
:10165000EE59F64F8081918120917609309177097A
:101660000AE010E0B8010E947E1E261B370B309363
:10167000770920937609E0917809F0917909EE0FC6
:10168000FF1FEE59F64FF182E082E0917809F09168
:101690007909EE0FFF1FEE59F64F8081918120915D
:1016A000760930917709B8010E947E1E260F371FF8
:1016B0003093770920937609809178099091790980
:1016C00001969093790980937809FE01E25BFF4FC0
:1016D0000A9731F4109279091092780981E0808399
:1016E0008081882309F443C080912B09882309F461
:1016F0003EC068EE73E080E090E00E941B1B00E0BB
:1017000010E04AE0E42EF12C86E30E94AC1B6C0151
:10171000F801EE0FFF1FEE59F64F80819181209165
:10172000760930917709B7010E947E1E261B370B80
:101730003093770920937609D182C082808191818C
:101740002091760930917709B7010E947E1E260FFD
:10175000371F30937709209376090F5F1F4F0A30A8
:10176000110591F681E697E083DA10922B098E013C
:101770000A5B1F4FF80180819181A281B381892B7F
:101780008A2B8B2B09F466C086E30E94AC1B0E9457
:10179000EC1AFE01EC5AFF4FC080D180E280F3804A
:1017A0006C157D058E059F0568F4C080D180E280B0
:1017B000F380C094D094E094F094C60ED71EE81E37
:1017C000F91E0CC0C080D180E280F3809B01AC0187
:1017D0002C193D094E095F0969017A016083718303
:1017E00082839383F80180819181A281B3818C19D6
:1017F0009D09AE09BF0980839183A283B383808151
:101800009181A281B381C297A105B10518F510821B
:1018100011821282138261E083E20E945D1C1092A9
:1018200080090E94EC1A688379838A839B8340E055
:1018300050E064E082E097E00E94C31481E697E004
:10184000DF91CF911F910F91FF90EF90DF90CF909C
:101850000C949502DF91CF911F910F91FF90EF9023
:10186000DF90CF900895CF92DF92EF92FF920F9387
:101870001F93CF93DF938C01CC24CA94DC2CE12CF2
:10188000F12C82E40E94AC1BE701CC0FDD1FC00FDE
:10189000D11F9D838C8383E40E94AC1B9B8B8A8B1E
:1018A0008C819D818937910524F48C819D81CA9713
:1018B00044F4E114F10449F5F80184859585958394
:1018C00084838A899B898937910524F48A899B8935
:1018D000CA9744F4E114F10419F5F801828D938D4F
:1018E000938B828BFFEFEF1AFF0A8FEFC81AD80A8B
:1018F000E5E0EE16F10429F6DF91CF911F910F91EB
:10190000FF90EF90DF90CF900895F6013296EE0FA2
:10191000FF1FE00FF11F808191819D838C83D1CFC8
:10192000F6013996EE0FFF1FE00FF11F80819181C4
:101930009B8B8A8BD7CF8F5A9F4FFC018081089554
:10194000FC01118221E0208308950895CF93DF9355
:10195000EC0189818823A1F061111AC019828BE200
:101960000E945D1C60E08DE20E945D1C60E089E2E7
:101970000E945D1C60E087E2DF91CF910C945D1CBA
:10198000662331F081E0898384E399E06CDF18827B
:10199000DF91CF910895FF920F931F93CF93DF9321
:1019A00000D01F92CDB7DEB78C01FC018081811180
:1019B00005C08CE497E035D1882359F0F801818186
:1019C000882309F474C08CE497E02BD18823D9F0E4
:1019D0006EC061E08DE20E945D1C61E087E20E94C2
:1019E0005D1C62E370E080E090E00E941B1B60E001
:1019F0008DE20E945D1C60E087E20E945D1C81E038
:101A0000F8018083DBCF84E399E0D3DC9C838B8374
:101A100084E399E0ECDC9A8389838B819C8118169E
:101A200019060CF044C089819A81181619060CF029
:101A30003EC08B819C8129813A81821B930B8F3F11
:101A40009F4FACF461E08DE20E945D1C62E370E0A8
:101A500080E090E00E941B1B60E08DE20E945D1C14
:101A600066E970E080E090E00E941B1B20C08B8143
:101A70009C8129813A81821B930B02972CF060E0B4
:101A80008DE20E945D1C13C081E697E00E94FC037A
:101A900064EF71E080E090E00E941B1BFF24F39450
:101AA000F0922B0960E0C80151DFF09281090F909C
:101AB0000F900F900F90DF91CF911F910F91FF909A
:101AC0000895FC01818108951092810960E08AE205
:101AD0000E945D1C81E697E00E94FA038FEF9FEF62
:101AE00067CAFC011482138212821182108216824C
:101AF00015820895FC018581662329F081110AC0B1
:101B000081E085830895882329F01582148280E07E
:101B100090E04ECA0895CF93DF93EC016C8361305F
:101B200099F078F0623099F06330B1F480E090E0A1
:101B30003FDA82E08E8361E083E597E0DF91CF9129
:101B400005CF80E090E005C0DF91CF91BDCF81E06F
:101B500090E0DF91CF912CCADF91CF9108950F9340
:101B60001F93CF93DF931F921F92CDB7DEB78C01E7
:101B700081E080937E0980915E0990915F099A834C
:101B8000898310927E09F8014481423099F04330F4
:101B900019F1413079F589819A81208131812817A5
:101BA000390744F161E08AE20E945D1C82E0F8019D
:101BB00084830EC089819A81F80122813381821742
:101BC000930724F063E0C801A6DF14C0F801448342
:101BD00081E090E0EDD90EC0F80186819FEF980F6B
:101BE0009683811107C0148280E090E0E1D984E3FC
:101BF00099E053DB0F900F90DF91CF911F910F91E0
:101C00000895CF93DF93EC01598348833B832A8364
:101C100081E697E00E94900281E08C83DF91CF9172
:101C200053CFFC01848108958CE20E94921C61E0F4
:101C3000892B09F060E08CE20C945D1CCF92DF925E
:101C4000EF92FF920E94EC1A6B017C0181E697E013
:101C50000E94FE038BE597E087D887E597E0E7D9F8
:101C600085E597E04CD884E399E095DA83E597E041
:101C70006CDE8CE497E073DF89E497E04AD282E07F
:101C800097E057D50E94EC1A6C197D0970930507EF
:101C900060930407FF90EF90DF90CF9008958091BC
:101CA0007E09811195C0E0916009F0916109EE0F04
:101CB000FF1FEC5AF64F8081918120915E0930918F
:101CC0005F0965E070E00E947E1E261B370B309393
:101CD0005F0920935E0984E40E94AC1B9C012A5397
:101CE000310927313105D0F0809160099091610967
:101CF000E0916009F0916109892B29F480915C09D8
:101D000090915D090FC0A0916009B0916109AA0F7F
:101D1000BB1FAE5AB64F8D919C9104C0E0916009F3
:101D2000F0916109EE0FFF1FEC5AF64F918380830B
:101D3000E0916009F0916109EE0FFF1FEC5AF64F38
:101D40008081918120915E0930915F0965E070E0AA
:101D50000E947E1E260F371F30935F0920935E0975
:101D600080911909882321F18FE30E94AC1B8634EE
:101D7000910534F080E40E94AC1B86349105C4F4D4
:101D800061E081E697E00E9433061092190981E034
:101D900080931A0981E697E00E942906823041F477
:101DA00064E084E399E091DA64E082E097E0DFD4D4
:101DB00080916009909161090196909361098093E7
:101DC0006009059729F4109261091092600908953D
:101DD00008958F929F92AF92BF92CF92DF92EF922F
:101DE000FF920F931F930E94EC1A6B017C0182E01B
:101DF00097E01ED681E697E00E944B0383E597E0CB
:101E000060DE882319F083E597E0C5DD8091340911
:101E100090913509A0913609B0913709892B8A2B09
:101E20008B2B09F446C00E94EC1A009134091091E2
:101E30003509209136093091370906171707280709
:101E4000390788F400913409109135092091360939
:101E5000309137094B015C01801A910AA20AB30A3A
:101E60009501840110C00091340910913509209129
:101E70003609309137090095109520953095060F59
:101E8000171F281F391F093813412105310588F014
:101E900060E083E20E945D1C1092340910923509C3
:101EA000109236091092370981E080937F09809360
:101EB000800984E399E063DB0E94EC1A6C197D09C8
:101EC000709303076093020788E596E069D18EEA74
:101ED00095E01F910F91FF90EF90DF90CF90BF9012
:101EE000AF909F908F905CC1EF92FF920F931F93E2
:101EF000CF93DF93C0E0D0E005E010E08AE0E82E69
:101F0000F12C84E40E94AC1BFE01EE0FFF1FEC5A83
:101F1000F64F918380838081918120915E09309179
:101F20005F09B8010E947E1E260F371F30935F099C
:101F300020935E0983E40E94AC1BFE01EE0FFF1F9D
:101F4000EA5BF64F9183808382E40E94AC1BFE0122
:101F5000EE0FFF1FE85CF64F9183808386E30E94BB
:101F6000AC1BFE01EE0FFF1FEE59F64F91838083ED
:101F7000808191812091760930917709B7010E9483
:101F80007E1E260F371F30937709209376092196FE
:101F9000C530D10509F0B5CFDF91CF911F910F91D9
:101FA000FF90EF900895CF92EF920F9397E0C92E94
:101FB00026E0E22E05E024E043E062E08DE899E0CF
:101FC0002BD784E399E0A7D881E697E00E942C0202
:101FD0008BE597E00E945F0687E597E022D885E5CC
:101FE00097E00E946B0683E597E0AADC8CE497E01B
:101FF00078DD89E497E072D06DE879E082E097E0DF
:102000005CD288E596E099D08EEA95E00F91EF904A
:10201000CF9093C00E94670726E040E855E260E059
:1020200070E08BEA99E00E943F188BEA99E0A2D712
:1020300020E044E064E18DE899E068D62EE13EE0DE
:1020400049E150E060E070E088E596E004D124E1E9
:102050003EE040E85EEE66E370E08EEA95E0FBD09D
:1020600043DF40E75BE062E070E085EA99E08ED113
:102070002FEF3FEFA9016FE47EE085EA99E095D16B
:1020800078940895CF93DF93EC0182E097E06CD3CE
:10209000833028F061E085E597E00E94170761E052
:1020A0008FE10E945D1C80E596E49A8389838DE12F
:1020B0000E94921C019759F48DE30E94AC1B01977A
:1020C00031F461E08BE1DF91CF910C945D1CDF91E5
:1020D000CF91089521E0FC012083D4CFFBCFFC01F8
:1020E0006083662319F0613099F0089560E08BE118
:1020F0000E945D1C8EE10E94921C892B29F060E0F9
:1021000085E597E00E94170760E08FE10C945D1C65
:10211000B9CFFC012081213061F421813281121676
:1021200013062CF42150310932832183089560E095
:10213000D6CF0895FC01808108950F931F93CF930C
:10214000DF93EC018C0106551F4FCE010E941A0748
:102150006196C017D107C9F7DF91CF911F910F91F9
:102160000895CF92DF92EF92FF921F93CF93DF9368
:102170006A017B01EC011AE08881882329F0B7010C
:10218000A601CE010E941D07115061961111F4CFD6
:10219000DF91CF911F91FF90EF90DF90CF90089546
:1021A000CF93DF93EC010E94EC1AAB01BC01CE018E
:1021B000DF91CF91D6CF20E0FC013081332331F085
:1021C0002F5F41962A30C1F78FEF0895822F08952F
:1021D000CF92DF92EF92FF920F931F93CF93DF93F3
:1021E00000D01F92CDB7DEB76C01790149835A83C5
:1021F0006B837C83E0DF282F49815A816B817C814E
:102200008F3FD9F081E12802C00CD11C112481E05C
:10221000F60180834183528363837483168305832D
:10222000F286E18629830E94EC1AF601638774879F
:1022300085879687108A17862981822F0F900F90A5
:102240000F900F90DF91CF911F910F91FF90EF9022
:10225000DF90CF9008950F931F930FEF1FEFB8DF1C
:102260001F910F9108951F920F920FB60F92112494
:102270000BB60F922F933F934F935F936F937F9380
:102280008F939F93AF93BF93EF93FF93E091A9092F
:10229000F091AA091995FF91EF91BF91AF919F918C
:1022A0008F917F916F915F914F913F912F910F90FF
:1022B0000BBE0F900FBE0F901F901895FC01A3E06E
:1022C000440F551F661F771FAA95D1F74115510579
:1022D00081E06807710514F481E00EC033E0759564
:1022E0006795579547953A95D1F74115510581E086
:1022F000680771051CF482E0828331C023E0759584
:102300006795579547952A95D1F74115510581E075
:102310006807710514F483E0EFCF92E07595679537
:10232000579547959A95D1F74115510581E0680772
:10233000710514F484E0E0CF82E0759567955795B8
:1023400047958A95D1F785E082834115510581E053
:102350006807710524F04FEF5FEF60E070E08FB722
:102360008383F89451834083509387004093860081
:1023700083818FBF80918100887F809381008091CD
:1023800081009281892B80938100089510928000B2
:1023900020E12093810092CFE1E8F0E02081DC0190
:1023A00012968C91282B208308950F931F93CF931F
:1023B000DF93EC018B01BA01A9011416150616066C
:1023C00017060CF47BDF1D830C8381E080936F0084
:1023D000CE01DF91CF911F910F91DECFCF93DF938D
:1023E000EC01862F688362E00E94241C1A821B8203
:1023F0001C821D821982DF91CF910895EF92FF9286
:102400000F931F93CF93DF9300D01F92CDB7DEB70A
:102410007C01FC01808149835A836B837C830E9409
:10242000921CF701028113812481358149815A81EF
:102430006B817C81892BF1F4400F511F621F731F48
:102440004283538364837583413A564861407105E2
:102450003CF140EA56E861E070E0F70142835383C3
:1024600064837583818181111BC081E0818381E058
:1024700090E018C0041B150B260B370BF7010283E5
:1024800013832483358337FF0BC012821382148297
:1024900015828181882321F011828FEF9FEF02C086
:1024A00080E090E00F900F900F900F90DF91CF9110
:1024B0001F910F91FF90EF900895EF92FF920F936D
:1024C0001F93CF93DF93EC017B0186E090E00E94A5
:1024D000A11A8C016BE082DF1A8B098B86E090E0F9
:1024E0000E94A11A8C016AE079DF1C8B0B8B86E0BD
:1024F00090E00E94A11A8C0169E070DF1E8B0D8BA9
:1025000086E090E00E94A11A8C0168E067DF188FD6
:102510000F8BFA8EE98E5FE05B8F61E068A342E08B
:102520004DA38AE090E09BA78AA723E030E03DAB73
:102530002CAB9DAF8CAF5C8F69A34EA39DA78CA7DE
:102540003FAB2EAB9FAF8EAF5D8F4AA34FA322E070
:1025500030E03FA72EA721E030E039AF28AFFE01E1
:10256000E05CFF4F918380835E8F83E08BA348A75D
:1025700085E090E099AB88AB3BAF2AAF329684E11F
:1025800090E09183808387E08F8F4CA384E089A7BC
:1025900087E30E94AC1B9BAB8AAB898D9A8D93D34A
:1025A000898D9A8DA6D318861A861986DF91CF91C8
:1025B0001F910F91FF90EF900895CF93FC017385C9
:1025C000262F30E0711114C0F901EE0FFF1FE80F44
:1025D000F91FA4A9B5A94A175B0714F455AB44AB7E
:1025E000A4ADB5ADA417B507CCF455AF44AF16C034
:1025F000D901AA0FBB1FA80FB91FD496ED91FC916A
:10260000D597E417F5070CF4FA01DC960D90BC9110
:10261000A02DAF01AE17BF070CF4AD01F901EE0F0D
:10262000FF1FE80FF91FC1E022A533A524173507C6
:1026300009F4C0E053A742A7CC2321F084E399E03A
:102640000E94CD098C2FCF910895860F911D860F82
:10265000911DFC0182A593A50895DF92EF92FF9250
:102660000F931F93CF93DF93EC01D62E062F10E02C
:102670007C01E00EF11EF70140A1638D898D9A8DDA
:1026800027D3F8017596EE0FFF1FEC0FFD1F008199
:102690001181F701E5A0F12C81E090E00A301105ED
:1026A00014F480E090E0E81AF90A81E090E0043642
:1026B000110514F480E090E0E81AF90A81E090E056
:1026C000083EF3E01F0714F480E090E0E81AF90AEE
:1026D00021E0E21AF108898D9A8D1E141F041CF462
:1026E00060E217D6F5CF4AE050E0B801D9D682E0D3
:1026F000D81659F0D81630F0E3E0DE1212C065EAC1
:1027000074E005C06FE974E002C062EA74E0898D8C
:102710009A8DDF91CF911F910F91FF90EF90DF90F5
:10272000F7C5DF91CF911F910F91FF90EF90DF9050
:102730000895CF93DF93EC018B85813069F050F0E1
:10274000833079F461E0CE0188DF62E0CE0185DF7D
:1027500063E003C064E001C060E0CE01DF91CF918F
:102760007CCFDF91CF910895FC01838508950F936D
:102770001F93CF93DF93EC01162F8FEF8C8789E4A3
:1027800097E0D8DC811103C089E497E0A3DC898D50
:102790009A8DB5D2898D9A8D96D21B87123091F180
:1027A000B8F41123E9F0113009F0D9C060E085E5F3
:1027B00097E00E9417076FEC74E0898D9A8DA8D579
:1027C00041E063E0898D9A8D83D263EE74E02BC083
:1027D000143009F455C058F1153009F466C0BFC073
:1027E00060E085E597E00E94170767EA74E0898D4D
:1027F0009A8D8ED541E060E0898D9A8D69D26BEB20
:1028000074E011C060E085E597E00E9417076EEE66
:1028100074E0898D9A8D7CD541E060E0898D9A8D38
:1028200057D263E075E0898D9A8D72D598C080E0AB
:102830000E94090861E085E597E00E94170768E1BA
:1028400075E0898D9A8D64D541E062E0898D9A8D1D
:102850003FD263EE74E0898D9A8D5AD542E062E0F2
:10286000898D9A8D35D26CE275E0898D9A8D50D51F
:1028700043E062E0898D9A8D2BD268E375E0D3CF77
:1028800060E087E597E00E94360881E00E94090831
:1028900068E175E0898D9A8D3BD542E066E0898DCF
:1028A0009A8D16D262E475E0BECF80E00E940908DE
:1028B00060E085E597E00E94170768E175E0898D83
:1028C0009A8D26D58E010C5B1F4FF8012081898DD2
:1028D0009A8D243031F442E066E0FAD16CE475E080
:1028E000A2CF41E066E0F4D164E575E0898D9A8D70
:1028F0000FD542E060E0898D9A8DEAD1F801208100
:10290000898D9A8D223039F0233041F0213049F4FD
:102910006DE575E014C06DE675E011C06FE775E018
:102920000EC067E875E0F4D44AE050E0F801608139
:10293000898D9A8DDED56BE875E0898D9A8DE8D406
:1029400043E068E0898D9A8DC3D1FE01EB5BFF4FB8
:10295000608171814AE050E0898D9A8DA1D584E330
:1029600099E00E949B0C6B85861741F084E399E007
:10297000DF91CF911F910F910C946509DF91CF9159
:102980001F910F910895FC01EC5BFF4F608331961E
:102990005183408365E0EBCE1F93CF93DF93EC012F
:1029A000162F8C858F3FE9F0FE01E80FF11D638D36
:1029B0006F5F40A1898D9A8D8BD16DE974E0898D0F
:1029C0009A8DA6D48C85FE01E80FF11D638D6C5F96
:1029D00040A1898D9A8D7CD16DE974E0898D9A8DA5
:1029E00097D41C871F3F01F1FE01E10FF11D638D9C
:1029F0006F5F40A1898D9A8D6BD16FE875E0898DED
:102A00009A8D86D48C85FE01E80FF11D638D6C5F75
:102A100040A1898D9A8D5CD161E975E0898D9A8D8F
:102A2000DF91CF911F9174C4DF91CF911F910895D1
:102A3000AF92BF92CF92DF92EF92FF920F931F93CC
:102A4000CF93DF93EC01D4D5CD84DE84EF84F88876
:102A50009B01AC012C193D094E095F0969017A01FE
:102A600057FF06C031E0C31AD108E108F10804C0DD
:102A70006D877E878F87988BB701A60189899A8990
:102A8000BDDCAA24A394181619060CF0A12CB701DA
:102A9000A6018F89988DB2DCBB24B3941816190651
:102AA0000CF0B12CB701A6018B899C89A7DC31E021
:102AB00020E0181619060CF030E0032F122FB70192
:102AC000A6018D899E899ADC1816190614F4015006
:102AD0001109AA2071F0BB2091F00115110559F0E0
:102AE00089E497E027DB811106C089E497E0F2DAF8
:102AF00002C0BB2021F081E697E00E9480028B8516
:102B0000813019F0823091F015C0AA2041F081E6A1
:102B100097E00E94800263E0CE0129DE29C0BB203D
:102B200039F18C858823F9F060E020C0AA2001F1FA
:102B300061E003C0AA2041F062E0CE0118DE81E628
:102B400097E00E94800214C0833091F4BB2081F092
:102B50008C85823031F0833031F0813031F462E0A5
:102B600005C063E003C06FEF01C061E0CE0114DF78
:102B700001151105C1F06C856F3FA9F0FE01E60F4C
:102B8000F11DE60FF11D42A553A5400F511FCE01C7
:102B9000DF91CF911F910F91FF90EF90DF90CF9039
:102BA000BF90AF900ACDDF91CF911F910F91FF9011
:102BB000EF90DF90CF90BF90AF900895CF93DF93C9
:102BC000EC0160E08E8179D681E090E059D561E03A
:102BD0008E8173D681E090E053D560E08E816DD612
:102BE00084E690E0DF91CF914BC5EF92FF920F9377
:102BF0001F93CF93DF938C01C0E0D0E0E62EF12C41
:102C0000B7010C2E02C0759567950A94E2F76170C2
:102C1000F801EC0FFD1F878150D62196C430D105F5
:102C200079F7C801DF91CF911F910F91FF90EF903D
:102C3000C5CFEF92FF920F931F93CF93DF938C0139
:102C4000C0E0D0E0E62EF12CB7010C2E02C0759545
:102C500067950A94E2F76170F801EC0FFD1F878118
:102C60002CD62196C830D10579F7C801DF91CF91D4
:102C70001F910F91FF90EF90A1CF1F93CF93DF9300
:102C8000EC01162F642F8C8118D68D818F3F11F0A7
:102C900060E013D68F85612F84FF05C0CE01DF91E0
:102CA000CF911F91C6CF70E084E0759567958A95A6
:102CB000E1F7CE019ADF612FCE01DF91CF911F9115
:102CC00094CF40E0DACF61E0FCDF80ED97E0D8C43C
:102CD000443008F043E0FC012389421710F04FEF25
:102CE000420FFC01E40FF11D2489260F2068622F9A
:102CF000E8CFFC0160896B7F608B6860E2CFFC01EC
:102D00006089262F2460208B6C60DBCF0F931F938C
:102D1000CF93DF93EC01423018F08F8588608F8766
:102D20004B8B1C8A80E48D8B6E8B70E0605C7F4FD8
:102D30006F8B222329F0413019F48F8584608F87AF
:102D400061E08C8181D58D818F3F11F061E07CD570
:102D500061E08E8179D500E010E08F8584FF03C0AB
:102D600088E090E002C084E090E0081719074CF476
:102D7000FE01E00FF11F61E0878166D50F5F1F4FF5
:102D8000ECCF80E593EC7CD460E08C8196D560E05C
:102D90008E8193D58D818F3F11F060E08ED56F8548
:102DA00064FD16C063E0CE0120DF84E991E168D4C0
:102DB00063E0CE011ADF84E991E162D463E0CE01E1
:102DC00014DF86E990E05CD462E0CE010EDF11C032
:102DD0006062CE0176DF84E991E152D46F85606252
:102DE000CE016FDF86E990E04BD46F856062CE0143
:102DF00068DF6F856062CE0164DF84E0888BCE017E
:102E00007EDFCE0160DF82E0898B66E0CE01DF915C
:102E1000CF911F910F9155CFCF92EF920F93FC015D
:102E20001382128287E995E09183808364838FEF18
:102E30008583468327830087E186C28613861486AE
:102E400015861686178620E041E060E1CF010F91DC
:102E5000EF90CF905BCF41E010DF81E090E00895EC
:102E6000FC01818D228D90E0805C9F4F821B910937
:102E70008F7399270895FC01918D828D981731F0F9
:102E8000828DE80FF11D858D90E008958FEF9FEF03
:102E90000895FC01918D828D981761F0828DDF017C
:102EA000A80FB11D5D968C91928D9F5F9F73928F3D
:102EB00090E008958FEF9FEF08958EEF98E1892BB2
:102EC00039F080E090E0892B19F098D1811125C06C
:102ED00080E090E0892B41F080E090E0892B21F0A8
:102EE0000E94000081111CC080E090E0892B41F01D
:102EF00080E090E0892B21F00E940000811113C036
:102F000080E090E0892BA1F080E090E0892B81F0B7
:102F10000E94000081110AC008950E940000D8CFCD
:102F20000E940000E1CF0E940000EACF0C94000054
:102F30000895FC01848DDF01A80FB11DA35ABF4F76
:102F40002C91848D90E001968F739927848FA689A8
:102F5000B7892C93A089B1898C9180648C93938DCF
:102F6000848D981306C00288F389E02D80818F7DBF
:102F700080830895CF93DF93EC01888D8823C1F07F
:102F8000EA89FB89808185FD05C0A889B9898C9172
:102F900086FD0EC00FB607FCF5CF808185FFF2CF0E
:102FA000A889B9898C9185FFEDCFCE01C2DFE8CF2A
:102FB000DF91CF910895CF92DF92FF920F931F93ED
:102FC000CF93DF931F92CDB7DEB76C01DC015B9628
:102FD0009C915B975C968C915C97981307C0509678
:102FE000ED91FC915197808185FD31C0F601038DF3
:102FF00010E00F5F1F4F0F731127F02EF601848D25
:10300000F81210C00FB607FCF9CFD6015096ED911B
:10301000FC915197808185FFF1CFC601698389DFDB
:103020006981ECCF838DE80FF11DE35AFF4F608378
:10303000D6015B960C935B975296ED91FC9153975A
:1030400080818062808381E058968C930DC0D60188
:103050005696ED91FC91579760835096ED91FC91B7
:10306000519780818064808381E090E00F90DF91B0
:10307000CF911F910F91FF90DF90CF900895BF9255
:10308000CF92DF92EF92FF92CF93DF93EC016A0130
:103090007B01B22EE889F98982E08083411581EEB7
:1030A00058076105710599F060E079E08DE390E0E3
:1030B000A701960136D6215031094109510956958B
:1030C000479537952795211580E1380790F0E889D5
:1030D000F989108260E874E88EE190E0A70196011A
:1030E00020D6215031094109510956954795379508
:1030F0002795EC85FD853083EE85FF852083188E2E
:10310000EC89FD89B082EA89FB89808180618083B6
:10311000EA89FB89808188608083EA89FB898081D4
:1031200080688083EA89FB8980818F7D8083DF913D
:10313000CF91FF90EF90DF90CF90BF9008951F92B6
:103140000F920FB60F9211240BB60F922F938F93FD
:103150009F93EF93FF93E091BB09F091BC098081AD
:10316000E091C109F091C20982FD12C09081809165
:10317000C4098F5F8F732091C509821751F0E091C8
:10318000C409F0E0E555F64F958F8093C40901C05E
:103190008081FF91EF919F918F912F910F900BBEA6
:1031A0000F900FBE0F901F9018951F920F920FB6A1
:1031B0000F9211240BB60F922F933F934F935F936F
:1031C0006F937F938F939F93AF93BF93EF93FF93EF
:1031D0008BEA99E0AEDEFF91EF91BF91AF919F91A5
:1031E0008F917F916F915F914F913F912F910F90B0
:1031F0000BBE0F900FBE0F901F9018958BEA99E0B1
:103200002FDE21E0892B09F420E0822F089510920F
:10321000AE091092AD0988EE93E0A0E0B0E0809393
:10322000AF099093B009A093B109B093B2098FE9A7
:1032300095E09093AC098093AB0985EC90E0909376
:10324000B8098093B70984EC90E09093BA09809311
:10325000B90980EC90E09093BC098093BB0981ECA4
:1032600090E09093BE098093BD0982EC90E090932A
:10327000C0098093BF0986EC90E09093C2098093C7
:10328000C1091092C4091092C5091092C609109282
:10329000C7090895CF92DF92EF92FF920F931F9389
:1032A000CF93DF936C017A01EB01E60EF71E00E08D
:1032B00010E0CE15DF0561F06991D601ED91FC912A
:1032C0000190F081E02DC6011995080F191FF1CF6B
:1032D000C801DF91CF911F910F91FF90EF90DF9088
:1032E000CF9008956115710581F0DB010D900020EC
:1032F000E9F7AD0141505109461B570BDC01ED9137
:10330000FC910280F381E02D199480E090E0089513
:10331000E9CFDC01ED91FC910190F081E02D199451
:103320000F931F93CF93DF93EC016DE0F2DF8C01DD
:103330006AE0CE01EEDF800F911FDF91CF911F91E8
:103340000F9108950F931F93CF93DF93EC01CADF82
:103350008C01CE01E5DF800F911FDF91CF911F918E
:103360000F9108958F929F92AF92BF92CF92DF926A
:10337000EF92FF920F931F93CF93DF93CDB7DEB7FA
:10338000A1970FB6F894DEBF0FBECDBF7C01C42E4F
:10339000E52FCB01D22E19A221E02D1510F02AE045
:1033A000D22E8E010F5D1F4F8D2C912CA12CB12C94
:1033B0006C2D7E2FA5019401B4D48C2DD29E801942
:1033C0001124015011098A3014F4805D01C0895C18
:1033D000F8018083211531054105510521F0C22EE8
:1033E000E32FCA01E5CFB801C7017CDFA1960FB674
:1033F000F894DEBF0FBECDBFDF91CF911F910F912B
:10340000FF90EF90DF90CF90BF90AF909F908F9004
:103410000895CF92DF92EF92FF920F931F93CF9375
:10342000DF93EC016A017B012115310579F4E88114
:10343000F9810190F081E02D642FDF91CF911F91F0
:103440000F91FF90EF90DF90CF9019942A303105C3
:10345000D9F477FF18C06DE25CDF8C014427552753
:10346000BA014C195D096E097F092AE0CE017ADFA5
:10347000800F911FDF91CF911F910F91FF90EF90DF
:10348000DF90CF9008952AE0B701A601CE01DF9129
:10349000CF911F910F91FF90EF90DF90CF9062CF6F
:1034A0009A01AB01662757FD6095762FB2CF0F9337
:1034B0001F93CF93DF93EC019A01AB01662757FD71
:1034C0006095762FA6DF8C01CE012ADF800F911F39
:1034D000DF91CF911F910F9108952115310541F48E
:1034E000DC01ED91FC910190F081E02D642F1994A5
:1034F00039CF9A01462F50E060E070E0EECF0F9395
:103500001F93CF93DF93EC019A01462F50E060E0C8
:1035100070E0E3DF8C01CE0103DF800F911FDF91AC
:10352000CF911F910F9108950895B4D0FDDF0E94AF
:103530000A10CDE5D7E10E94E90E2097E1F3BDDC4A
:10354000FACF44C41F920F920FB60F9211242F93FB
:103550003F938F939F93AF93BF938091490A90912C
:103560004A0AA0914B0AB0914C0A3091480A23E0D4
:10357000230F2D3720F40196A11DB11D05C026E8AB
:10358000230F0296A11DB11D2093480A8093490A7A
:1035900090934A0AA0934B0AB0934C0A80914D0A2B
:1035A00090914E0AA0914F0AB091500A0196A11D28
:1035B000B11D80934D0A90934E0AA0934F0AB09389
:1035C000500ABF91AF919F918F913F912F910F9092
:1035D0000FBE0F901F9018952FB7F8946091490A6D
:1035E00070914A0A80914B0A90914C0A2FBF08951E
:1035F0003FB7F89480914D0A90914E0AA0914F0ADE
:10360000B091500A26B5A89B05C02F3F19F001962E
:10361000A11DB11D3FBF6627782F892F9A2F620FFA
:10362000711D811D911D42E0660F771F881F991F34
:103630004A95D1F70895CF92DF92EF92FF92CF9300
:10364000DF936B017C01D4DFEB01C114D104E104F1
:10365000F10479F0CBD1CCDF6C1B7D0B683E73405D
:10366000A0F381E0C81AD108E108F108C851DC4F85
:10367000ECCFDF91CF91FF90EF90DF90CF90089546
:10368000019739F0880F991F880F991F02970197AA
:10369000F1F70895789484B5826084BD84B5816023
:1036A00084BD85B5826085BD85B5816085BDEEE64A
:1036B000F0E0808181608083E1E8F0E01082808129
:1036C00082608083808181608083E0E8F0E0808197
:1036D00081608083E1EBF0E0808184608083E0EBB7
:1036E000F0E0808181608083E1E9F0E080818260A8
:1036F0008083808181608083E0E9F0E08081816067
:103700008083E1EAF0E08081826080838081816053
:103710008083E0EAF0E0808181608083E1E2F1E093
:10372000808182608083808181608083E0E2F1E03B
:10373000808181608083EAE7F0E08081846080831B
:1037400080818260808380818160808380818068C5
:1037500080831092C1000895863308F0865320912B
:103760007B00982F9870277F922B90937B00877017
:103770002091060290E4299F90011124822B8093CE
:103780007C0080917A00806480937A0080917A0036
:1037900086FDFCCF809178002091790090E0922BFB
:1037A000089590E0FC013197E231F10508F04BC03B
:1037B000EE58FF4FD8C2809180008F7703C0809170
:1037C00080008F7D80938000089580918000877FA6
:1037D000F9CF84B58F7702C084B58F7D84BD0895FD
:1037E0008091B0008F7703C08091B0008F7D80936F
:1037F000B0000895809190008F7707C0809190006D
:103800008F7D03C080919000877F80939000089502
:103810008091A0008F7707C08091A0008F7D03C0AA
:103820008091A000877F8093A0000895809120015F
:103830008F7707C0809120018F7D03C08091200188
:10384000877F809320010895CF93DF9390E0FC0160
:10385000E25BFE4F2491FC01EC56FE4F84918823DD
:1038600049F190E0880F991FFC01E25FFD4FA5919F
:10387000B4918C509E4FFC01C591D4919FB76111BA
:1038800008C0F8948C91209582238C9388818223A0
:103890000AC0623051F4F8948C91322F3095832312
:1038A0008C938881822B888304C0F8948C91822B1E
:1038B0008C939FBFDF91CF9108950F931F93CF9368
:1038C000DF931F92CDB7DEB7282F30E0F901E85F14
:1038D000FE4F8491F901E25BFE4F1491F901EC5621
:1038E000FE4F04910023C1F0882319F0698359DF4A
:1038F0006981E02FF0E0EE0FFF1FEC50FE4FA59125
:10390000B4919FB7F8948C91611103C010958123F5
:1039100001C0812B8C939FBF0F90DF91CF911F919E
:103920000F910895CF93DF93282F30E0F901E85FDE
:10393000FE4F8491F901E25BFE4FD491F901EC5600
:10394000FE4FC491CC2389F081112BDFEC2FF0E0E6
:10395000EE0FFF1FE652FE4FA591B4912C912D233F
:1039600081E090E021F480E002C080E090E0DF910F
:10397000CF910895BF92CF92DF92EF92FF920F9373
:103980001F93CF93DF93C82ED62EB42EC7E0D0E07E
:10399000022F10E087E0E82EF12CB1100AC0F701E9
:1039A000EC1BFD0BB80102C075956795EA95E2F72F
:1039B00007C0B8010C2E02C0759567950A94E2F70E
:1039C000617077278C2D79DF61E08D2D76DF60E0E7
:1039D0008D2D73DF219708F7DF91CF911F910F9104
:1039E000FF90EF90DF90CF90BF90089508955058CA
:1039F000BB27AA270ED0E5C0D6D030F0DBD020F010
:103A000031F49F3F11F41EF4CBC00EF4E095E7FBB8
:103A1000C1C0E92FE7D080F3BA17620773078407A4
:103A2000950718F071F49EF5FFC00EF4E0950B2E8B
:103A3000BA2FA02D0B01B90190010C01CA01A00100
:103A40001124FF27591B99F0593F50F4503E68F15B
:103A50001A16F040A22F232F342F4427585FF3CF9C
:103A6000469537952795A795F0405395C9F77EF46D
:103A70001F16BA0B620B730B840BBAF09150A1F0B6
:103A8000FF0FBB1F661F771F881FC2F70EC0BA0F3C
:103A9000621F731F841F48F4879577956795B795C4
:103AA000F7959E3F08F0B3CF9395880F08F09927BC
:103AB000EE0F97958795089504D06894B111B5C01D
:103AC000089598D088F09F5790F0B92F9927B75153
:103AD000A0F0D1F0660F771F881F991F1AF0BA95D2
:103AE000C9F712C0B13081F09FD0B1E008959CC0F9
:103AF000672F782F8827B85F39F0B93FCCF38695C8
:103B000077956795B395D9F73EF490958095709524
:103B100061957F4F8F4F9F4F0895E89409C097FBA1
:103B20003EF490958095709561957F4F8F4F9F4F94
:103B30009923A9F0F92F96E9BB279395F6958795D8
:103B400077956795B795F111F8CFFAF4BB0F11F49B
:103B500060FF1BC06F5F7F4F8F4F9F4F16C0882342
:103B600011F096E911C0772321F09EE8872F762F78
:103B700005C0662371F096E8862F70E060E02AF0B9
:103B80009A95660F771F881FDAF7880F96958795A5
:103B900097F9089597F99F6780E870E060E00895CD
:103BA0009FEF80EC089500240A9416161706180655
:103BB0000906089500240A94121613061406050631
:103BC0000895092E0394000C11F4882352F0BB0FC2
:103BD00040F4BF2B11F460FF04C06F5F7F4F8F4F25
:103BE0009F4F089557FD9058440F551F59F05F3F60
:103BF00071F04795880F97FB991F61F09F3F79F00F
:103C000087950895121613061406551FF2CF469590
:103C1000F1DF08C0161617061806991FF1CF869512
:103C20007105610508940895E894BB2766277727F6
:103C3000CB0197F908950BD0C4CFB5DF28F0BADFD8
:103C400018F0952309F0A6CFABCF1124EECFCADF31
:103C5000A0F3959FD1F3950F50E0551F629FF0019F
:103C6000729FBB27F00DB11D639FAA27F00DB11DF8
:103C7000AA1F649F6627B00DA11D661F829F222781
:103C8000B00DA11D621F739FB00DA11D621F839F08
:103C9000A00D611D221F749F3327A00D611D231FDE
:103CA000849F600D211D822F762F6A2F11249F572C
:103CB00050408AF0E1F088234AF0EE0FFF1FBB1F4F
:103CC000661F771F881F91505040A9F79E3F5105EE
:103CD00070F060CFAACF5F3FECF3983EDCF386959F
:103CE00077956795B795F795E7959F5FC1F7FE2B99
:103CF000880F911D9695879597F9089597FB072E44
:103D000016F4009406D077FD08D03DD007FC05D00E
:103D10003EF4909581959F4F0895709561957F4FE2
:103D20000895A1E21A2EAA1BBB1BFD010DC0AA1FFC
:103D3000BB1FEE1FFF1FA217B307E407F50720F014
:103D4000A21BB30BE40BF50B661F771F881F991F8F
:103D50001A9469F760957095809590959B01AC01D8
:103D6000BD01CF010895EE0FFF1F0590F491E02DE6
:103D700019941DD0B7FF0895821B930B08950790E7
:103D8000F691E02D1994AA1BBB1B51E107C0AA1F95
:103D9000BB1FA617B70710F0A61BB70B881F991FEC
:103DA0005A95A9F780959095BC01CD010895A29FE1
:103DB000B001B39FC001A39F700D811D1124911DFF
:103DC000B29F700D811D1124911D0895CF93DF9333
:103DD0008230910510F482E090E0E091530AF09176
:103DE000540A20E030E0A0E0B0E0309739F14081A3
:103DF000518148175907B8F04817590771F4828163
:103E00009381109729F013969C938E9312972CC050
:103E10009093540A8093530A27C02115310531F03D
:103E20004217530718F0A901DB0101C0EF019A0105
:103E3000BD01DF010280F381E02DD7CF21153105CF
:103E4000F9F0281B390B2430310580F48A819B81DD
:103E50006115710521F0FB019383828304C0909367
:103E6000540A8093530AFE01329644C0FE01E20FC9
:103E7000F31F8193919322503109398328833AC0EB
:103E80002091510A3091520A232B41F420910202D1
:103E9000309103023093520A2093510A209100027C
:103EA000309101022115310541F42DB73EB7409103
:103EB000040250910502241B350BE091510AF09148
:103EC000520AE217F307A0F42E1B3F0B28173907FD
:103ED00078F0AC014E5F5F4F2417350748F04E0F66
:103EE0005F1F5093520A4093510A8193919302C0ED
:103EF000E0E0F0E0CF01DF91CF910895CF93DF9321
:103F0000009709F487C0FC01329713821282C09196
:103F1000530AD091540A209781F420813181280FCF
:103F2000391F8091510A9091520A8217930779F5AF
:103F3000F093520AE093510A6DC0DE0120E030E0B8
:103F4000AE17BF0750F412964D915C9113979D01E7
:103F50004115510509F1DA01F3CFB383A283408102
:103F60005181840F951F8A179B0771F48D919C9145
:103F70001197840F951F02969183808312968D91DD
:103F80009C911397938382832115310529F4F09333
:103F9000540AE093530A3EC0D9011396FC93EE9362
:103FA00012974D915D91A40FB51FEA17FB0779F4A5
:103FB00080819181840F951F0296D90111969C935F
:103FC0008E938281938113969C938E931297E0E057
:103FD000F0E08A819B81009719F0FE01EC01F9CF96
:103FE000CE01029628813981820F931F2091510AB8
:103FF0003091520A2817390769F4309729F4109242
:10400000540A1092530A02C013821282D093520AA9
:0E401000C093510ADF91CF910895F894FFCF2D
:10401E000000550A80000100000A0014001D002750
:10402E000031003B0045004E00580062006C0076E7
:10403E00007F00890093009D00A000A300A600A9A8
:10404E0000AC00AF00B200B500B800BB00BE00C1AE
:10405E0000C400D300E200F10000010F011E012E8A
:10406E00013D014C015B016A01790188019901A9A9
:10407E0001BA01CA01DA01EA01FB010B021B022B94
:10408E00023B024C02630278028F02A402BA02D0F3
:10409E0002E502FB02110325033B03510367037D77
:1040AE00039303A903BF03D503FD0323044B04723B
:1040BE00049904B504D104ED040905250541055DF7
:1040CE000576058E05A705BF05D805F105F3050391
:1040DE00061306230633064306530663067306834A
:1040EE00069306A306B306E6060E0735075C07839E
:1040FE0007AA07C607E207FE071A08360852086E17
:10410E000887089F08B808D008E90801091A09327B
:10411E0009450959096D0980099409A709BB09CEFA
:10412E0009E209F609650A6F0A7A0A830A8E0A9865
:10413E000AA20AAC0ABA0ACD0ADC0AEB0AFA0A0982
:10414E000B180B280B370B460B550B640B730B7FA1
:10415E000B900B9D0BAB0BB80BC50BD20BDF0BEC07
:10416E000BF90B060C130C200C2D0C3B0C430C5CAA
:10417E000C720C880C9E0CB40CCA0CDF0CF50C07E0
:10418E000D110D210D320D420D520D620D730D8369
:10419E000D930DA40DB40DCB0DD50DE60DF60D063C
:1041AE000E170E270E370E480E580E690E790E900A
:1041BE000EA30EB30EC20ED10EE00EEF0EFE0E0DBE
:1041CE000F1C0F2B0F3A0F490F540F00260028001B
:1041DE002A002C002E0030003200210034011F0076
:1041EE0023002500170019001B0016001A001800E6
:1041FE00270029002D002BFF4163637573746174D2
:10420E0020656E74657253746174653A20002041A6
:10421E00535F504F535449485420626565700020D7
:10422E00646973703C7468726573682C207475725F
:10423E006E206F6666206265657000202074757250
:10424E006E206F66662000206F666620646973704C
:10425E003A2000096F6666204156453A2000092033
:10426E006F6666204E41545F5052453A2000206ED4
:10427E0061747572616C20707265636861726765D6
:10428E003A2000FC60DAF266B6BEE0FEF6022020AE
:10429E0020202020454D455247454E435920534836
:1042AE005554444F574E20202020202020200030EF
:1042BE00300030250073003D3D3D20544F57494E90
:1042CE0047204D4F4445203D3D3D0052657365727C
:1042DE00766F69722050726573737572653A002A33
:1042EE002A20504F5745522044524956494E472096
:1042FE002A2A005468726573686F6C643A002B2B1F
:10430E002B2B20494E444956494455414C202B2BCA
:10431E002B2B002B2B2B2B2020545241494E494E38
:10432E004720202B2B2B2B0020535452454E475405
:10433E004820545241494E494E4720004469666612
:10434E006963756C74793A004475726174696F6E45
:10435E003A004348415247494E4720005355434384
:10436E004553530053485554444F574E00526564BD
:10437E00756365204475726174696F6E00486F6C69
:10438E006420736372756D206C6F6E676572005278
:10439E00656475636520003F3F2000203F3F003E6F
:1043AE00003C00000000002B174A1900000000DB43
:0C43BE00174A19301749173B17BA1700AF
:00000001FF
