:1000000015C1000044C1000042C1000040C1000011
:100010003EC100003CC100003AC1000038C10000F0
:1000200036C1000034C1000032C1000030C1000000
:100030002EC100002CC100002AC1000028C1000010
:1000400026C1000024C1000022C1000020C1000020
:100050000C940A111CC100001AC100000C94251B4D
:1000600016C100000C9422190C94581910C10000FC
:100070000EC100000CC100000AC1000008C1000050
:1000800006C1000004C1000002C1000000C1000060
:10009000FEC00000FCC00000FAC00000F8C0000074
:1000A000F6C00000F4C00000F2C00000F0C0000084
:1000B000EEC00000ECC00000EAC00000E8C0000094
:1000C000E6C00000E4C00000E2C00000E0C00000A4
:1000D000DEC00000DCC00000DAC00000D8C00000B4
:1000E000D6C000006C1C6F1C5E1C621C681CA61C29
:1000F000731C771C7D1C811C851C8B1C8F1C931C06
:10010000A61C991C9D1CA11C00000A0B02090C0DC9
:100110000E080703040100000000000000000000BA
:1001200000000000000000000000000000000000CF
:10013000000000001211100000000000000000008C
:1001400000000000000000000000000000000102AC
:1001500010202008081020401020408002010201D9
:100160000804020101020408102040808040201091
:1001700008040201800402018040201008040201EA
:100180000804020101020408102040800102040852
:10019000102040800505050507050808080802022B
:1001A00002020A0A08080404040401010101010111
:1001B00001010303030303030303040707070C0CF4
:1001C0000C0C0C0C0C0C02020202060606060606BB
:1001D00006060B0B0B0B0B0B0B0B00002000230078
:1001E000260029002C002F0032000001000003012E
:1001F0000601090100002200250028002B002E0026
:100200003100340002010000050108010B0100006B
:100210002100240027002A002D00300033000101B6
:100220000000040107010A01E20F8A1911241FBE10
:10023000CFEFD1E2DEBFCDBF00E00CBF18E0A0E001
:10024000B2E0ECE5F1E400E00BBF02C007900D92D4
:10025000AE31B107D9F72CE0AEE1B8E001C01D9294
:10026000A23BB207E1F712E0CCE2D2E000E006C028
:1002700022970109FE010BBF0E945E1FC832D10701
:1002800080E00807A9F70E94181B0C94AC20B8CE98
:1002900061E085E20E94A71C60E085E20C94E01C0E
:1002A000CF93DF938091AB0B882321F0833008F04C
:1002B00071C024C060911F08662309F465C0809155
:1002C0001E089FEF980F90931E08823008F062C0BE
:1002D000615060931F08617085E20E94E01C68EE27
:1002E00073E088E09CE00E940B1A4AE050E06091C5
:1002F0001F0888E09CE00E94021B42C080919A0B7C
:10030000882359F187E89BE06CD52091A80B3091A8
:10031000A90B821B930B880F991F8D52964FFC01DE
:10032000C081D18160E084E799E00E94FC1224E65C
:10033000AC01249FC001259F900D1124C817D90737
:1003400064F460E085E20E94E01C10929A0B65EF75
:1003500073E088E09CE00E94251A60911F086623E4
:1003600099F080911E089FEF980F90931E0882309D
:1003700088F4615060931F08617085E20E94E01C60
:100380008AE080931E0806C060E085E20E94E01CBF
:100390001092A70BDF91CF910895DF92EF92FF9219
:1003A0000F931F93CF93DF93EC01C9318CEFD807E4
:1003B0003CF0C031E7E2DE075CF4D7FF0BC002C0BF
:1003C000C9E1DCEFD195C195D1094AE0D42E0CC02A
:1003D000CFE0D7E2CE0160E177E20E94011F68EE34
:1003E00073E00E94011FD62E61E086E10E94E01CAE
:1003F0003AE0E32EF12CCE01B7010E94011F8D5887
:100400009A4FFC01208140E068E18AE10E943D1D95
:1004100004E610E0CE01B8010E94011FB7010E945E
:10042000011F6D587A4FFB01208140E068E18AE1AD
:100430000E943D1DCE0168EE73E00E94011FB801CD
:100440000E94011F6D587A4FFB01208140E068E156
:100450008AE10E943D1DED2DF0E0ED58FA4F20811C
:1004600040E068E18AE10E943D1D60E086E10E9473
:10047000E01C64E070E080E090E0DF91CF911F919C
:100480000F91FF90EF90DF900C949E1B0F931F93A2
:10049000CF93DF938C01FC01E453FE4F2081318127
:1004A000EC01C452DE4F2115310509F41882888110
:1004B000811106C0F801E653FE4F8081918101C091
:1004C000C9016BDFF801E552FE4F8081823018F0E0
:1004D000815080830BC088E280838881833020F044
:1004E000833021F4188202C08F5F8883DF91CF911F
:1004F0001F910F910895CF93DF93EC0184EB91E06E
:10050000E7E0F2E0DE0101900D920197E1F7CE0104
:100510008C549E4F65D4BCDEFE01E652FE4F108225
:100520003E97118210823296118210823497118286
:10053000108238961182108239961082319610827C
:10054000339710823197108231971082379711823A
:1005500010823596118210823F9710823297118255
:100560001082339610823D9610823C971082C753BA
:10057000DE4F1882DF91CF9108958BE10E94151D07
:1005800021E0892B09F420E0822F0895FC01E45337
:10059000FE4F1182108232971182108210927E09D2
:1005A00010927D0964E174E088E09CE00E94251AC5
:1005B00060E085E20C94E01C88529E4FFC01608351
:1005C0000895FC01E453FE4FDC01A253BE4F8D9110
:1005D0009C91918380830895FF920F931F93CF93F3
:1005E000DF93EC01F62E8C0109521E4FF801608357
:1005F00065E474E088E09CE00E940B1A4AE050E059
:100600006F2D88E09CE00E94021BF8018081813000
:1006100051F028F0823081F08330A9F17AC0C452C1
:10062000DE4F188276C0CE018C549E4FDF91CF9161
:100630001F910F91FF90C2C3FE01E852FE4F8081CF
:10064000882319F081E0709780836BE574E088E07F
:100650009CE00E94251AFE01E652FE4F88E080834E
:100660003A97DE01AE52BE4F8D919C91918380836B
:10067000329711821082329711821082C452DE4F5B
:1006800084E0888346C060E085E20E94E01CFE01B1
:10069000E852FE4F808181503C97823038F4DE0171
:1006A000A253BE4F8D919C919183808380819181D3
:1006B000FE01E653FE4F2081318128173907F4F4FB
:1006C000918380836FE674E088E09CE00E940B1ABF
:1006D0008E010C521E4FF801808181110FC06AE912
:1006E00074E088E09CE00E94251A81E0F801808394
:1006F00084E080931F088AE080931E08C452DE4F76
:10070000188280EB9BE0DF91CF911F910F91FF90BA
:100710009CC6DF91CF911F910F91FF900895CF92CA
:10072000DF92EF92FF920F931F93CF93DF93EC0131
:100730008BEB99E00E94711081111AC086E30E9430
:100740002F1C84319140A4F08BEB99E00E94411062
:1007500063EA74E088E09CE00E940B1A86E30E9442
:100760002F1C4AE050E0BC0188E09CE00E94DA1AAD
:10077000CE0103DF882309F48EC07E0189E2E81AE6
:100780008EEFF80AF7018081882309F484C086E39C
:100790000E942F1CBC018E010C541E4FC801CED2EA
:1007A000C8011FD38C01F7018081813009F044C05A
:1007B0006E01FBE2CF1AFEEFDF0AF6018081918124
:1007C0007801E81AF90A339711830083F7E0EF16EE
:1007D000F1040CF460C085EC99E00E94700D811169
:1007E0005AC06FED74E088E09CE00E940B1A4AE06A
:1007F00050E0B80188E09CE00E94D31A66EE74E0F5
:1008000088E09CE00E940B1AF601608171814AE049
:1008100050E088E09CE00E94DA1AF0927E09E092B3
:100820007D0962E0CE01DF91CF911F910F91FF9082
:10083000EF90DF90CF90D0CE823069F5FE01E85284
:10084000FE4F8081882319F1833028F5FE01E253A1
:10085000FE4F808191817E0124E3E21A2EEFF20A9D
:10086000F70120813181281739078CF49183808327
:1008700060ED74E088E09CE00E940B1AF701608153
:1008800071814AE050E088E09CE00E94DA1ACE5282
:10089000DE4F19830883DF91CF911F910F91FF9055
:1008A000EF90DF90CF9008950F931F93CF93DF9336
:1008B0001F92CDB7DEB78C0169835FDE6981882323
:1008C00031F0611115C08BE10E94E01C09C0662364
:1008D00079F061E08BE10E94E01C80E090E05DDD5A
:1008E00060E0C8010F90DF91CF911F910F9174CEFE
:1008F0000F90DF91CF911F910F91089560E06CCE22
:1009000061E06ACE6F927F928F929F92AF92BF9278
:10091000CF92DF92EF92FF920F931F93CF93DF93CB
:10092000EC01BEDCCE01B2DD6E0129E2C21A2EEF6F
:10093000D20AF6018081823029F0833009F0A8C103
:1009400061E096C15E01FEE2AF1AFEEFBF0A7E01D2
:100950002BE2E21A2EEFF20AF50180819181F70174
:1009600020813181821B930B97FF02C080E090E0D1
:10097000FC01EE0FFF1FEC0FFD1F608071808E01E8
:1009800008521E4FF8018081813049F120F08230F9
:1009900009F449C08CC0FE01E453FE4F808191816F
:1009A0008615970514F47182608280819181FE0121
:1009B000E653FE4F20813181281739070CF077C0AC
:1009C000918380833A968081811171C081E0808318
:1009D00084E080931F088AE080931E0868C0FCE3CF
:1009E0006F1671040CF463C060E084E799E00E9424
:1009F000FC1224E6AC01249FC001259F900D112418
:100A0000FE018615970524F5E853FE4F8081882363
:100A1000A9F161E085E20E94E01C81E0FE01E9535A
:100A2000FE4F808344C0FCE36F1671040CF43FC09A
:100A300060E084E799E00E94FC1224E6AC01249F68
:100A4000C001259F900D1124FE0186159705D4F055
:100A5000E752FE4F8081882351F14E0157E3851AFA
:100A60005EEF950AF4018081882341F06AEF74E01B
:100A700088E09CE00E94251AF4011082FE01E253F6
:100A8000FE4F06C0E853FE4F80818111C2CF3696DB
:100A9000808191818615970554F471826082329726
:100AA000808191818615970514F47182608286E3B6
:100AB0000E942F1C4E01FCE48F1AFEEF9F0ABC011E
:100AC000C4013CD1F8018081FE01811114C0E453BE
:100AD000FE4F80819181181619060CF0D9C0C4010F
:100AE00080D1F70120813181821B930B06970CF096
:100AF000CFC063E0BDC0E652FE4F9081992311F054
:100B0000915090838150823008F0C2C0FE01E253C0
:100B1000FE4F808191818E0104531E4FF801208188
:100B200031812817390724F59183808360ED74E0C3
:100B300088E09CE00E940B1AF801608171814AE014
:100B400050E088E09CE00E94D31A65E075E088E000
:100B50009CE00E940B1AF501608171814AE050E02F
:100B600088E09CE00E94DA1AF8018081918115DC0E
:100B7000F6018081823009F08BC06E01F7E2CF1A56
:100B8000FEEFDF0AF6018081882309F481C0F801B5
:100B900080819181181619060CF07AC0C40121D108
:100BA000F70120813181821B930B06970CF070C0F6
:100BB000F80180819181681679060CF069C065E1C1
:100BC00075E088E09CE00E940B1AF601608170E0FD
:100BD0004AE050E088E09CE00E94D31A63E275E0AE
:100BE00088E09CE00E940B1AF501608171814AE067
:100BF00050E088E09CE00E94D31A60E375E088E052
:100C00009CE00E940B1AF701608171814AE050E07C
:100C100088E09CE00E94D31A6CE375E088E09CE0D9
:100C20000E940B1AF801608171814AE050E088E06F
:100C30009CE00E94D31A69E475E088E09CE00E9481
:100C40000B1AFE01E853FE4F608170E04AE050E06D
:100C500088E09CE00E94DA1A63E0CE01BDDC67E523
:100C600075E088E09CE00E94251AF601108210C011
:100C7000CE01DF91CF911F910F91FF90EF90DF9008
:100C8000CF90BF90AF909F908F907F906F90A4CCAB
:100C9000DF91CF911F910F91FF90EF90DF90CF9058
:100CA000BF90AF909F908F907F906F9008958852E3
:100CB0009E4FFC018081089589529E4FFC018081E6
:100CC000089587529E4FFC0160830895EF92FF9232
:100CD0000F931F93CF93DF937C01EC01CC54DE4F35
:100CE000CE016CD005E010E086E30E942F1CBC0111
:100CF000CE0124D001501109B9F7CE0172D0E7011D
:100D0000CB52DE4F998388836BE675E088E09CE0E8
:100D10000E940B1A688179814AE050E088E09CE0EB
:100D2000DF91CF911F910F91FF90EF900C94DA1A01
:100D30008B529E4FFC01808191810895CF92DF926A
:100D4000EF92FF920F931F93FC018B018181DF01D2
:100D5000A80FB11DA80FB11D1296CD90DC9013976E
:100D6000EE24D7FCE094FE2C448555856685778576
:100D70004C195D096E097F0913961C930E93129707
:100D8000222717FD2095322F400F511F621F731F1E
:100D900044875587668777879081953010F49F5FE9
:100DA00090838F5F853010F4818301C011821F9181
:100DB0000F91FF90EF90DF90CF900895FC0110828B
:100DC0001182138212821582148217821682118672
:100DD0001086138612861486158616861786089541
:100DE000EDCFFC01208130E040E050E06485758566
:100DF000868597850E94361FC9010895FC011082DF
:100E00008CEB92E0928381838CEA93E094838383DA
:100E1000158208951F93CF93DF93EC0187E30E941F
:100E20002F1C18811130E9F030F0123061F11330CD
:100E300009F443C04DC029813A81821793077CF49D
:100E400011E01093C7098BEB99E00E94411061E01B
:100E500080E30E94E01C82E08D83188339C060E04B
:100E600026C08D81823060F58EE10E94151D892B90
:100E700079F160E080E30E94E01C61E087E10E947C
:100E8000E01C82E011C02B813C812817390774F4E3
:100E900060E087E10E94E01C1092C7098BEB99E0AB
:100EA0000E9441101D8383E0888312C061E087E1C6
:100EB000DF91CF911F910C94E01C8D81823018F04E
:100EC00081508D8305C060E080E30E94E01C1882A1
:100ED000DF91CF911F910895CF93DF93EC0161E0F3
:100EE00084E30E94A71C60E084E30E94E01C60E0B1
:100EF0008EE10E94A71C18821982DF91CF9108957C
:100F0000CF93FC012081211102C0C18101C0C1E049
:100F10008EE10E94151DCC2369F081110DC061E0A6
:100F20008FE10E94E01C84E30E94151D892B71F45F
:100F300061E008C08111F7CF84E30E94151D892B61
:100F400029F060E084E3CF910C94E01CCF910895E8
:100F5000FC0161830895FC0110820895CF92DF9215
:100F6000EF92FF92CF93DF93EC016A017B018B85B7
:100F70009C85AD85BE859A01AB01281B390B4A0BB8
:100F80005B0BDA01C90149815A816B817C8184172D
:100F90009507A607B707D8F08881813019F082300D
:100FA00029F00CC0E985FA85199508C061E08885AB
:100FB000811160E068878F810E94E01CCB86DC860F
:100FC000ED86FE868F8598890196988B8F878D8117
:100FD0009E8197FD06C02F853889281739070CF0A8
:100FE0001882DF91CF91FF90EF90DF90CF9008951E
:100FF000FF920F931F93CF93DF93CDB7DEB7AD97DB
:101000000FB6F894DEBF0FBECDBF60E08CE00E944B
:10101000A71C8DE2EBEBF3E0DE01119601900D923F
:101020008A95E1F710E0812F90E0E1E0F0E0EC0F2D
:10103000FD1FE80FF91FF0802FEFF21689F0E2E0B4
:10104000F0E0EC0FFD1FE80FF91F008161E0802F39
:101050000E94A71C6F2D802F0E94E01C1E5FE3CF13
:10106000AD960FB6F894DEBF0FBECDBFDF91CF9126
:101070001F910F91FF9008958DE30E942F1C21E096
:10108000883C91050CF020E0822F0895CF93DF93E8
:10109000EC016D2F661F6627661F81E20E94E01C2F
:1010A00061E01C161D060CF060E082E3DF91CF9139
:1010B0000C94E01CCF93DF93EC0181309105D1F4C7
:1010C00060E086E20E94E01C61E088E20E94E01C91
:1010D00062E370E080E090E00E949E1B60E088E2A6
:1010E0000E94E01C62E370E080E090E0DF91CF912D
:1010F0000C949E1B6D2F661F6627661F86E20E945A
:10110000E01C61E01C161D060CF060E088E2DF9137
:10111000CF910C94E01CCF93C82F682F89E10E94D7
:10112000E01CC13039F46EE775E088E09CE0CF91B7
:101130000C94251ACF910895FC011382128211821A
:10114000108208951F93CF93DF93EC01162F6CE864
:1011500075E088E09CE00E940B1A4AE050E0612FA5
:1011600088E09CE00E94021B1883113049F028F0AF
:10117000123061F48FEF9FEF05C080E090E002C075
:1011800081E090E0DF91CF911F9180CFDF91CF91EF
:101190001F910895CF93DF93EC018EE30E942F1CE3
:1011A0002881213019F0223059F00FC02A813B816B
:1011B0008217930754F060E0CE01DF91CF91C2CF48
:1011C0002A813B8128173907B4F7DF91CF91089521
:1011D000CF93DF93EC018981662341F081110CC02C
:1011E00060E0CE01AFDF81E0898306C0882321F073
:1011F00060E0CE01A7DF1982DF91CF910895EF92D1
:10120000FF920F931F93CF93DF93EC016536710527
:1012100014F064E670E08B0177FF02C000E010E09C
:10122000B801882777FD8095982F0E94121E23E32E
:1012300033E343E350E40E949E1E20E030E040E2AE
:1012400053E40E947B1D0E94DF1D7B836A838EE333
:101250000E942F1C7C016CEA75E088E09CE00E94F3
:101260000B1A4AE050E0B80188E09CE00E94D31AD3
:1012700060EC75E088E09CE00E940B1A6A817B813B
:101280004AE050E088E09CE00E94DA1A62ED75E0E6
:1012900088E09CE00E940B1A4AE050E0B70188E029
:1012A0009CE00E94D31A8A819B81E816F90614F407
:1012B00061E004C08E159F054CF462E0CE01DF9121
:1012C000CF911F910F91FF90EF903CCFDF91CF9185
:1012D0001F910F91FF90EF900895FC0182E087A786
:1012E00015AA16AA17AA10AE11AE10821182128288
:1012F000138211AA12AA13AA14AA16A680AB1582E9
:101300001482138A128A17821682178E168E13A6DB
:1013100012A615A614A608950F931F93CF93DF93DB
:10132000EC01AADE8823A9F0A7DE882331F188A981
:10133000823019F182E088AB69EE75E088E09CE0CC
:101340000E94251A60E084E799E00E948E1360E015
:1013500011C088A9813089F081E088AB6FA584E74E
:1013600099E00E948E136EEF75E088E09CE00E9489
:10137000251A61E08BE10E94E01C84E799E00E945D
:101380008B13082F8BEB99E0ACD6182F002391F02C
:10139000813081F461E083ED99E086DA61E08EEBE3
:1013A00099E0B5D3033008F443C061E089EC99E0DB
:1013B0000FDF3EC08CE00E94151D892B61F460E0B8
:1013C00083ED99E071DA60E08EEB99E0A0D360E004
:1013D00089EC99E0FDDE61E0111101C060E08EE270
:1013E0000E94E01C8EA5882319F0853091F022C060
:1013F00060E08AE20E94E01C87E30E942F1CAC019F
:1014000064E084E799E0DF91CF911F910F910C94F4
:10141000B41289AD9FEF980F99AF823058F463E012
:1014200084E799E0DF91CF911F910F910C948E1377
:1014300061E0D5CFDF91CF911F910F910895FC010D
:1014400015AA16AA17AA10AE0895CF93DF93EC0140
:101450001DAA1EAA1FAA18AE6FA5623021F184E74B
:1014600099E00E948E1361E276E088E09CE00E94A1
:101470000B1A4AE050E06FA588E09CE00E94FC1A3D
:101480006EE276E088E09CE00E940B1A84E799E027
:101490000E948B134AE050E0682F88E09CE0DF91C7
:1014A000CF910C94021BDF91CF910895CF93DF93DE
:1014B000EC016EA78FEF860F833008F46FA76330BF
:1014C000C9F058F4613081F0623009F043C026E47D
:1014D00030E04DE350E060E024C0643039F1653025
:1014E000C9F588E089AF36C026E430E04DE350E02E
:1014F00061E017C061E089EC99E06ADE62E084E7B0
:1015000099E00E94FC122AE0289FB001299F700DEB
:10151000112489EC99E073DE2CE330E04DE350E0D8
:1015200062E08EEB99E0DF91CF9177C30E946F1B51
:1015300069AB7AAB8BAB9CAB63E084E799E00E942C
:10154000FC1220E137E2DC010E94581F6DAB7EAB3C
:101550008FAB98AFDF91CF910895623049F48AE064
:10156000849FB001859F700D112489EC99E047CECE
:101570000895FC01138A128A60E070E0DB01149682
:10158000AA0FBB1FAE0FBF1F2D913C91828993897B
:10159000820F931F938B828B6F5F7F4F6530710536
:1015A00069F7828993890E94011FCB010895FC018C
:1015B000178E168E60E070E0DB011A96AA0FBB1F33
:1015C000AE0FBF1F2D913C91868D978D820F931F7B
:1015D000978F868F6F5F7F4F6530710569F7868DB6
:1015E000978D0E94011FCB0108950F931F93CF93F6
:1015F000DF93EC010C811D8182E40E942F1CF80115
:101600003496EE0FFF1FEC0FFD1F91838083EC815A
:10161000FD813496EE0FFF1FEC0FFD1F808191813D
:10162000893791055CF4EC81FD813496EE0FFF1F44
:10163000EC0FFD1F80819181CA977CF48C819D8184
:10164000892BB9F4EC81FD81888999893496EE0F54
:10165000FF1FEC0FFD1F918380838C819D8101967C
:101660009D838C838C819D81059779F41D821C82DA
:101670000CC0EC81FD81AC81BD811396AA0FBB1F0C
:10168000AC0FBD1F8D919C91E1CFDF91CF911F9148
:101690000F9108950F931F93CF93DF93EC010E8169
:1016A0001F8183E40E942F1CF8013A96EE0FFF1F62
:1016B000EC0FFD1F91838083EE81FF813A96EE0F40
:1016C000FF1FEC0FFD1F80819181893791055CF42C
:1016D000EE81FF813A96EE0FFF1FEC0FFD1F808118
:1016E0009181CA977CF48E819F81892BB9F4EE8118
:1016F000FF818C8D9D8D3A96EE0FFF1FEC0FFD1F25
:10170000918380838E819F8101969F838E838E81BA
:101710009F81059779F41F821E820CC0EE81FF81A4
:10172000AE81BF811996AA0FBB1FAC0FBD1F8D9153
:101730009C91E1CFDF91CF911F910F9108958F92EE
:101740009F92AF92BF92CF92DF92EF92FF920F9350
:101750001F93CF93DF931F921F92CDB7DEB78C01FB
:1017600085EC99E0BDD1882321F0C8013EDFC80196
:1017700091DFF80185A996A9A7A9B0AD1816190699
:101780001A061B060CF070C0F894F80182A593A508
:101790009A838983789486E30E942F1C29813A8159
:1017A0002F3431055CF0F80115AA16AA17AA10AE5D
:1017B00049815A814E54510961E00DC08139F1E0EF
:1017C0009F0774F0F80115AA16AA17AA10AEAC016B
:1017D0004059514063E084E799E00E94C71444C037
:1017E0000E946F1BF80181A892A8A3A8B4A86B015E
:1017F0007C01C818D908EA08FB0886169706A806CF
:10180000B9062CF0F1E0CF1AD108E108F108F8018F
:1018100061AB72AB83AB94AB45A956A967A970AD18
:101820004C195D096E097F0945AB56AB67AB70AFCC
:1018300077FF1AC015AA16AA17AA10AE61E083E2B4
:101840000E94E01C0E946F1BF801608371838283F9
:10185000938340E050E064E084E799E00E94C7147D
:1018600083ED99E00E94E1020F900F90DF91CF91FC
:101870001F910F91FF90EF90DF90CF90BF90AF90AE
:101880009F908F900895CF92DF92EF92FF920F93E7
:101890001F93CF93DF938C01CC24CA94DC2CE12CD2
:1018A000F12C82E40E942F1CE701CC0FDD1FC00F3A
:1018B000D11F9987888783E40E942F1C9D8B8C8B76
:1018C000888599858937910524F488859985CA97F3
:1018D00044F4E114F10449F5F80180899189918774
:1018E00080878C899D898937910524F48C899D890D
:1018F000CA9744F4E114F10419F5F801848D958D2B
:10190000958B848BFFEFEF1AFF0A8FEFC81AD80A66
:10191000E5E0EE16F10429F6DF91CF911F910F91CA
:10192000FF90EF90DF90CF900895F6013496EE0F80
:10193000FF1FE00FF11F8081918199878887D1CFA8
:10194000F6013A96EE0FFF1FE00FF11F80819181A3
:101950009D8B8C8BD7CFFC0186A50895FC0111824D
:1019600021E0208308950895CF93DF93EC018981CE
:101970008823A1F061111AC019828BE20E94E01C39
:1019800060E08DE20E94E01C60E089E20E94E01CC1
:1019900060E087E2DF91CF910C94E01C662331F088
:1019A00081E0898380EB9BE06EDF1882DF91CF912D
:1019B00008950F931F93CF93DF9300D01F92CDB75D
:1019C000DEB78C01FC018081811105C08EEB99E0AE
:1019D00034D1882359F0F8018181882309F477C034
:1019E0008EEB99E02AD18823D9F071C061E08DE2B5
:1019F0000E94E01C61E087E20E94E01C62E370E06C
:101A000080E090E00E949E1B60E08DE20E94E01C5E
:101A100060E087E20E94E01C81E0F8018083DBCF78
:101A200080EB9BE0A6DD9C838B8380EB9BE0BFDD9E
:101A30009A8389838B819C81181619060CF047C004
:101A400089819A81181619060CF041C08B819C81FE
:101A500029813A81821B930B8F3F9F4FACF461E049
:101A60008DE20E94E01C62E370E080E090E00E9462
:101A70009E1B60E08DE20E94E01C66E970E080E061
:101A800090E00E949E1B23C08B819C8129813A811A
:101A9000821B930B02972CF060E08DE20E94E01C09
:101AA00016C066E376E088E09CE00E94251A83ED8C
:101AB00099E00E94800464E670E080E090E00E947B
:101AC0009E1B83ED99E002D960E0C8014DDF0F90C5
:101AD0000F900F900F90DF91CF911F910F9108956C
:101AE000FC018181089560E08AE20E94E01C83EDA0
:101AF00099E00E947E048FEF9FEFDCCAFC01148204
:101B00001382128211821082168215820895FC01BE
:101B10008581662329F081110AC081E085830895BB
:101B2000882329F01582148280E090E0C3CA0895CA
:101B3000CF93DF93EC016C83613081F050F0623021
:101B400081F06330B9F480E090E0B4DA82E08E8313
:101B500011C080E090E0DF91CF91ACCADF91CF91CE
:101B6000C2CF81E090E0A6DA61E085EC99E0DF91F8
:101B7000CF91FACEDF91CF9108950F931F93CF931A
:101B8000DF9300D0CDB7DEB78C01F8948091DA0BEB
:101B90009091DB0B9A8389837894F80144814230D9
:101BA00081F0433021F1413081F589819A81208192
:101BB0003181281739074CF161E08AE20E94E01C6C
:101BC00012C089819A81F80122813381821793079B
:101BD00054F083E0848380E090E04B836BDA4B81A8
:101BE000F801468312C062E0C801A2DF0EC0F8010E
:101BF00086819FEF980F9683811107C0148280E041
:101C000090E058DA80EB9BE01ADC0F900F900F9079
:101C1000DF91CF911F910F910895CF93DF93EC0146
:101C2000598348833B832A8383ED99E00E94DC0239
:101C300081E08C83DF91CF9156CFFC0184810895A0
:101C40008CE20E94151D61E0892B09F060E08CE2B6
:101C50000C94E01CCF92DF92EF92FF920E946F1BD8
:101C60006B017C0183ED99E00E9482048DEC99E088
:101C7000D1D889EC99E08EDA87EC99E041D980EBF4
:101C80009BE04ADB85EC99E06EDE8EEB99E075DF38
:101C90008BEB99E015D284E799E022D50E946F1B67
:101CA0006C197D097093770960937609FF90EF9026
:101CB000DF90CF900895CF93DF93E091DC0BF0910C
:101CC000DD0BEE0FFF1FE053F44FC081D18184E4A0
:101CD0000E942F1C9C012A53310927313105D0F075
:101CE0008091DC0B9091DD0BE091DC0BF091DD0B32
:101CF000892B29F48091D80B9091D90B0FC0A0911A
:101D0000DC0BB091DD0BAA0FBB1FA253B44F8D911A
:101D10009C9104C0E091DC0BF091DD0BEE0FFF1FF6
:101D2000E053F44F91838083E091DC0BF091DD0B65
:101D3000EE0FFF1FE053F44F808191812091DA0B69
:101D40003091DB0B65E070E00E94011FFB01CE01CA
:101D50006BEF7FEF0E94011FE60FF71F2E0F3F1F53
:101D60003093DB0B2093DA0B83ED99E00E9457064A
:101D7000823029F583ED99E00E945C068230F9F407
:101D800084E799E0C8D48430D1F4E091DC0BF09181
:101D9000DD0BEE0FFF1FE053F44F808191818C34F7
:101DA00091056CF061E08EEB99E0C2DE40E050E01E
:101DB00061E084E799E0EBD581E080937C09809134
:101DC0009B0B882371F0F8948FE30E942F1C8634BC
:101DD0009105DCF080E40E942F1C86349105ACF064
:101DE00078948091DC0B9091DD0B01969093DD0B44
:101DF0008093DC0B8091DC0B9091DD0B059781F4D7
:101E00001092DD0B1092DC0B0BC061E083ED99E0CA
:101E10000E94610610929B0B81E080939C0BE0CFA7
:101E2000DF91CF910895CF92DF92EF92FF920F93BF
:101E30001F930E946F1B6B017C0184E799E0FCD526
:101E400083ED99E00E948F0385EC99E0B2DD8091EB
:101E5000B00B9091B10BA091B20BB091B30B1816CF
:101E600019061A061B062CF50E946F1B0091B00B79
:101E70001091B10B2091B20B3091B30B601B710B21
:101E8000820B930B97FF04C061507109810991097E
:101E9000693E73408105910564F060E083E20E9431
:101EA000E01C1092B00B1092B10B1092B20B10927A
:101EB000B30B80EB9BE043DC0E946F1B6C197D0928
:101EC00070937509609374098AEC98E040D180E2C0
:101ED00098E01F910F91FF90EF90DF90CF9037C166
:101EE0000F931F93CF93DF93C0E0D0E005E010E0A5
:101EF00084E40E942F1CFE01EE0FFF1FE053F44FFD
:101F000091838083808191812091DA0B3091DB0B6A
:101F1000B8010E94011F260F371F3093DB0B20935F
:101F2000DA0B83E40E942F1CFE01EE0FFF1FEC531F
:101F3000F44F9183808382E40E942F1CFE01EE0FF8
:101F4000FF1FE854F44F918380832196C530D1055B
:101F500079F6DF91CF911F910F91089549D826E02E
:101F600040E855E260E070E088E09CE00E94C21822
:101F700020E044E064E18AEE9BE04BD72AE23EE0B9
:101F800049E150E060E070E08AEC98E03BD120E26B
:101F90003EE040E85EEE66E370E080E298E032D139
:101FA0009FDF40E75BE062E070E082E09CE0C5D14B
:101FB0002FEF3FEFA9016BE57EE082E09CE0CCD102
:101FC00078940895CF92EF920F93B7E0CB2E06E06E
:101FD000E02E05E024E043E062E08AEE9BE09FD73C
:101FE00080EB9BE07AD983ED99E00E947B028DEC37
:101FF00099E00E94FE0689EC99E09ED887EC99E072
:102000000E946C0785EC99E0A9DC8EEB99E076DD07
:102010008BEB99E03AD06AEE7BE084E799E024D23A
:102020008AEC98E061D080E298E00F91EF90CF9039
:102030005BC0CF93DF93EC0184E799E06CD38330EE
:1020400028F061E087EC99E00E94A80761E08FE149
:102050000E94E01C80E596E49A8389838CE00E94CC
:10206000151D019759F48DE30E942F1C019731F43F
:1020700061E08BE1DF91CF910C94E01CDF91CF9177
:10208000089521E0FC012083D4CFFBCFFC016083C5
:10209000662319F0613099F0089560E08BE10E94A9
:1020A000E01C8EE10E94151D892B29F060E087EC71
:1020B00099E00E94A80760E08FE10C94E01CB9CF82
:1020C000FC012081213061F4218132811216130636
:1020D0002CF42150310932832183089560E0D6CF5A
:1020E0000895FC01808108950F931F93CF93DF9390
:1020F000EC018C0106551F4FCE010E94AB07619683
:10210000C017D107C9F7DF91CF911F910F910895A3
:10211000CF92DF92EF92FF921F93CF93DF936A01EA
:102120007B01EC011AE08881882329F0B701A60120
:10213000CE010E94AE07115061961111F4CFDF91CC
:10214000CF911F91FF90EF90DF90CF900895CF93A4
:10215000DF93EC010E946F1BAB01BC01CE01DF914C
:10216000CF91D6CF20E0FC013081332331F02F5FB7
:1021700041962A30C1F78FEF0895822F0895CF92AC
:10218000DF92EF92FF920F931F93CF93DF9300D0D4
:102190001F92CDB7DEB76C01790149835A836B83F7
:1021A0007C83E0DF282F49815A816B817C818F3FBE
:1021B000D9F081E12802C00CD11C112481E0F60184
:1021C0008083418352836383748316830583F286FD
:1021D000E18629830E946F1BF601638774878587D8
:1021E0009687108A17862981822F0F900F900F9063
:1021F0000F90DF91CF911F910F91FF90EF90DF90A3
:10220000CF9008950F931F930FEF1FEFB8DF1F912B
:102210000F9108951F920F920FB60F9211240BB6D3
:102220000F922F933F934F935F936F937F938F936F
:102230009F93AF93BF93EF93FF93E091060CF091C0
:10224000070C1995FF91EF91BF91AF919F918F91DD
:102250007F916F915F914F913F912F910F900BBEA6
:102260000F900FBE0F901F901895FC01A3E0440F34
:10227000551F661F771FAA95D1F74115510581E0BB
:102280006807710514F481E00EC033E07595679519
:10229000579547953A95D1F74115510581E0680763
:1022A00071051CF482E0828331C023E07595679547
:1022B000579547952A95D1F74115510581E0680753
:1022C000710514F483E0EFCF92E07595679557950B
:1022D00047959A95D1F74115510581E06807710539
:1022E00014F484E0E0CF82E07595679557954795A3
:1022F0008A95D1F785E082834115510581E0680711
:10230000710524F04FEF5FEF60E070E08FB78383DB
:10231000F8945183408350938700409386008381D3
:102320008FBF80918100887F8093810080918100A0
:102330009281892B8093810008951092800020E182
:102340002093810092CFE1E8F0E02081DC01129639
:102350008C91282B208308950F931F93CF93DF93A5
:10236000EC018B01BA01A901141615061606170611
:102370000CF47BDF1D830C8381E080936F00CE0122
:10238000DF91CF911F910F91DECFCF93DF93EC01BF
:10239000862F688362E00E94A71C1A821B821C821F
:1023A0001D821982DF91CF910895EF92FF920F93D2
:1023B0001F93CF93DF9300D01F92CDB7DEB77C0180
:1023C000FC01808149835A836B837C830E94151DA5
:1023D000F701028113812481358149815A816B8102
:1023E0007C81892BF1F4400F511F621F731F4283C0
:1023F000538364837583413A5648614071053CF1CB
:1024000040EA56E861E070E0F70142835383648359
:102410007583818181111BC081E0818381E090E01F
:1024200018C0041B150B260B370BF701028313830F
:102430002483358337FF0BC01282138214821582E6
:102440008181882321F011828FEF9FEF02C080E00D
:1024500090E00F900F900F900F90DF91CF911F9110
:102460000F91FF90EF900895EF92FF920F931F93BB
:10247000CF93DF93EC017B0186E090E00E94241B68
:102480008C016BE082DF1A8B098B86E090E00E9462
:10249000241B8C016AE079DF1C8B0B8B86E090E0BB
:1024A0000E94241B8C0169E070DF1E8B0D8B86E07F
:1024B00090E00E94241B8C0168E067DF188F0F8B6F
:1024C000FA8EE98E5FE05B8F61E068A342E04DA386
:1024D0008AE090E09BA78AA723E030E03DAB2CABDD
:1024E0009DAF8CAF5C8F69A34EA39DA78CA73FAB1C
:1024F0002EAB9FAF8EAF5D8F4AA34FA322E030E09B
:102500003FA72EA721E030E039AF28AFFE01E05C05
:10251000FF4F918380835E8F83E08BA348A785E084
:1025200090E099AB88AB3BAF2AAF329684E190E064
:102530009183808387E08F8F4CA384E089A787E312
:102540000E942F1C9BAB8AAB898D9A8D3FD4898DBD
:102550009A8D52D418861A861986DF91CF911F91D1
:102560000F91FF90EF900895CF93FC017385262F74
:1025700030E0711114C0F901EE0FFF1FE80FF91FD1
:10258000A4A9B5A94A175B0714F455AB44ABA4AD95
:10259000B5ADA417B507CCF455AF44AF16C0D901FB
:1025A000AA0FBB1FA80FB91FD496ED91FC91D59728
:1025B000E417F5070CF4FA01DC960D90BC91A02D00
:1025C000AF01AE17BF070CF4AD01F901EE0FFF1F0D
:1025D000E80FF91FC1E022A533A52417350709F438
:1025E000C0E053A742A7CC2321F080EB9BE00E94E0
:1025F000AD0A8C2FCF910895860F911D860F911DE6
:10260000FC0182A593A50895DF92EF92FF920F93AC
:102610001F93CF93DF93EC01D62E062F10E07C01A1
:10262000E00EF11EF70140A1638D898D9A8DD3D301
:10263000F8017596EE0FFF1FEC0FFD1F0081118151
:10264000F701E5A0F12C81E090E00A30110514F4C7
:1026500080E090E0E81AF90A81E090E00436110584
:1026600014F480E090E0E81AF90A81E090E0083E76
:10267000F3E01F0714F480E090E0E81AF90A21E083
:10268000E21AF108898D9A8D1E141F041CF460E271
:10269000C3D6F5CF4AE050E0B80185D782E0D8161E
:1026A00059F0D81630F0E3E0DE1212C06DE476E0A7
:1026B00005C067E476E002C06AE476E0898D9A8D11
:1026C000DF91CF911F910F91FF90EF90DF90A3C604
:1026D000DF91CF911F910F91FF90EF90DF900895C0
:1026E000CF93DF93EC018B85813069F050F083301C
:1026F00079F461E0CE0188DF62E0CE0185DF63E03E
:1027000003C064E001C060E0CE01DF91CF917CCFD7
:10271000DF91CF910895FC0183850895EF92FF9298
:102720000F931F93CF93DF931F92CDB7DEB77C013A
:102730008FEFF70184878BEB99E06983A2DCF701C7
:10274000818D928D5FD3F701818D928D3FD3698109
:10275000F70163876230B1F1C8F46623F9F06130A4
:1027600009F0F6C060E087EC99E00E94A80767E7EF
:1027700076E0F701818D928D4ED641E063E0F7015E
:10278000818D928D28D36BE876E02FC0643009F4F8
:1027900060C080F1653009F478C0DAC060E087EC91
:1027A00099E00E94A8076FE476E0F701818D928D91
:1027B00032D641E060E0F701818D928D0CD363E663
:1027C00076E013C060E087EC99E00E94A80766E914
:1027D00076E0F701818D928D1ED641E060E0F70131
:1027E000818D928DF8D26BEA76E0F701818D928D22
:1027F00012D6AEC080E00E948B0861E087EC99E0C1
:102800000E94A80760EC76E0F701818D928D03D6D7
:1028100041E062E0F701818D928DDDD26BE876E0D8
:10282000F701818D928DF7D542E062E0F701818D4D
:10283000928DD1D264ED76E0F701818D928DEBD54A
:1028400043E062E0F701818D928DC5D260EE76E0C3
:10285000CCCF60E089EC99E00E94E8086AEE76E06F
:1028600088E09CE0F2D581E00E948B0860EC76E085
:10287000F701818D928DCFD542E066E0F701818D21
:10288000928DA9D266EF76E0B0CF80E00E948B08EF
:1028900060E087EC99E00E94A80760EC76E0F70121
:1028A000818D928DB8D587010C5B1F4FF801208177
:1028B000F701818D928D243031F442E066E08BD2B5
:1028C0006FEF76E092CF41E066E085D267E077E097
:1028D000F701818D928D9FD542E066E0F701818DF1
:1028E000928D79D2F8012081F701818D928D22306D
:1028F00039F0233041F0213049F460E177E016C02F
:1029000067E377E013C069E477E010C061E577E042
:1029100082D54AE050E0F8016081F701818D928D07
:102920006BD665E577E0F701818D928D74D543E034
:1029300068E0F701818D928D4ED2F701EB5BFF4F7E
:10294000608171814AE050E0F701818D928D2BD634
:1029500080EB9BE000D8F7016385861781F080EB60
:102960009BE00E94560A69E577E088E09CE00F90C2
:10297000DF91CF911F910F91FF90EF9066C50F905F
:10298000DF91CF911F910F91FF90EF900895FC017F
:10299000EC5BFF4F608331965183408365E0BECE90
:1029A0001F93CF93DF93EC01162F8C858F3FE9F0B7
:1029B000FE01E80FF11D638D6F5F40A1898D9A8D37
:1029C0000AD263E877E0898D9A8D25D58C85FE0142
:1029D000E80FF11D638D6C5F40A1898D9A8DFBD14D
:1029E00063E877E0898D9A8D16D51C871F3F01F12A
:1029F000FE01E10FF11D638D6F5F40A1898D9A8DFE
:102A0000EAD16CE677E0898D9A8D05D58C85FE013B
:102A1000E80FF11D638D6C5F40A1898D9A8DDBD12C
:102A20006EE677E0898D9A8DDF91CF911F91F3C487
:102A3000DF91CF911F910895AF92BF92CF92DF9215
:102A4000EF92FF920F931F93CF93DF93EC0143E03C
:102A500060E0898D9A8DBFD160E777E0898D9A8D8E
:102A6000DAD443E060E0898D9A8DB5D183ED99E0A9
:102A70000E9498064AE050E0BC01898D9A8D93D55A
:102A800063E877E0898D9A8DC6D460919D0B709133
:102A90009E0B4AE050E0898D9A8D85D563E877E0FA
:102AA000898D9A8DB8D460919F0B7091A00B4AE0EC
:102AB00050E0898D9A8D77D563E877E0898D9A8D7E
:102AC000AAD46091A10B7091A20B4AE050E0898DCD
:102AD0009A8D69D563E877E0898D9A8D9CD4609151
:102AE000A50B7091A60B4AE050E0898D9A8D5BD5BD
:102AF00042E060E0898D9A8D6ED160E777E0898D44
:102B00009A8D89D442E060E0898D9A8D64D186E304
:102B1000A6D64AE050E0BC01898D9A8D44D563E881
:102B200077E0898D9A8D77D469857A854AE050E07F
:102B3000898D9A8D38D58885882331F0188665E887
:102B400077E088E09CE081D4D6D5CD84DE84EF8424
:102B5000F8889B01AC012C193D094E095F096901F8
:102B60007A0157FF06C031E0C31AD108E108F10825
:102B700004C06D877E878F87988BB701A6018989EE
:102B80009A8913DCAA24A394181619060CF0A12C18
:102B9000B701A6018F89988D08DCBB24B394181661
:102BA00019060CF0B12CB701A6018B899C89FDDBBD
:102BB00031E020E0181619060CF030E0032F122F38
:102BC000B701A6018D899E89F0DB1816190614F449
:102BD00001501109AA2049F0BB2069F00115110527
:102BE00031F08BEB99E04DDA02C0BB2021F083ED90
:102BF00099E00E94C6028B85813019F0823081F005
:102C000017C0AA2031F063E0CE0188DD67E977E0E4
:102C100016C0BB2081F18C85882341F160E029C07A
:102C2000AA2049F161E0CE0179DD6CEB77E007C0C5
:102C3000AA2069F062E0CE0171DD6FED77E088E0F7
:102C40009CE003D483ED99E00E94C60214C0833057
:102C500091F4BB2081F08C85823031F0833031F0EB
:102C6000813031F462E005C063E003C06FEF01C062
:102C700061E0CE0195DE01151105C1F06C856F3F55
:102C8000A9F0FE01E60FF11DE60FF11D42A553A5C7
:102C9000400F511FCE01DF91CF911F910F91FF90F7
:102CA000EF90DF90CF90BF90AF905ECCDF91CF914F
:102CB0001F910F91FF90EF90DF90CF90BF90AF905A
:102CC0000895CF93DF93EC0160E08E8179D681E0A7
:102CD00090E059D561E08E8173D681E090E053D5C4
:102CE00060E08E816DD684E690E0DF91CF914BC598
:102CF000EF92FF920F931F93CF93DF938C01C0E06D
:102D0000D0E0E62EF12CB7010C2E02C07595679528
:102D10000A94E2F76170F801EC0FFD1F878150D62D
:102D20002196C430D10579F7C801DF91CF911F9169
:102D30000F91FF90EF90C5CFEF92FF920F931F93EB
:102D4000CF93DF938C01C0E0D0E0E62EF12CB701E9
:102D50000C2E02C0759567950A94E2F76170F80130
:102D6000EC0FFD1F87812CD62196C830D10579F74D
:102D7000C801DF91CF911F910F91FF90EF90A1CFEC
:102D80001F93CF93DF93EC01162F642F8C8118D6FD
:102D90008D818F3F11F060E013D68F85612F84FF06
:102DA00005C0CE01DF91CF911F91C6CF70E084E0C6
:102DB000759567958A95E1F7CE019ADF612FCE016F
:102DC000DF91CF911F9194CF40E0DACF61E0FCDF3B
:102DD00080ED97E0D8C4443008F043E0FC0123893B
:102DE000421710F04FEF420FFC01E40FF11D248950
:102DF000260F2068622FE8CFFC0160896B7F608B13
:102E00006860E2CFFC016089262F2460208B6C6013
:102E1000DBCF0F931F93CF93DF93EC01423018F079
:102E20008F8588608F874B8B1C8A80E48D8B6E8B9F
:102E300070E0605C7F4F6F8B222329F0413019F4E2
:102E40008F8584608F8761E08C8181D58D818F3FF4
:102E500011F061E07CD561E08E8179D500E010E071
:102E60008F8584FF03C088E090E002C084E090E09A
:102E7000081719074CF4FE01E00FF11F61E087818C
:102E800066D50F5F1F4FECCF80E593EC7CD460E0FC
:102E90008C8196D560E08E8193D58D818F3F11F026
:102EA00060E08ED56F8564FD16C063E0CE0120DF43
:102EB00084E991E168D463E0CE011ADF84E991E10D
:102EC00062D463E0CE0114DF86E990E05CD462E076
:102ED000CE010EDF11C06062CE0176DF84E991E1A0
:102EE00052D46F856062CE016FDF86E990E04BD4EB
:102EF0006F856062CE0168DF6F856062CE0164DF3E
:102F000084E0888BCE017EDFCE0160DF82E0898B9A
:102F100066E0CE01DF91CF911F910F9155CFCF92F7
:102F2000EF920F93FC01138212828AE098E0918362
:102F3000808364838FEF8583468327830087E186C0
:102F4000C2861386148615861686178620E041E011
:102F500060E1CF010F91EF90CF905BCF41E010DFA8
:102F600081E090E00895FC01818D228D90E0805CED
:102F70009F4F821B91098F7399270895FC01918DB2
:102F8000828D981731F0828DE80FF11D858D90E0CC
:102F900008958FEF9FEF0895FC01918D828D981712
:102FA00061F0828DDF01A80FB11D5D968C91928D2D
:102FB0009F5F9F73928F90E008958FEF9FEF08952A
:102FC00081E899E1892B39F080E090E0892B19F0B4
:102FD00098D1811125C080E090E0892B41F080E0FC
:102FE00090E0892B21F00E94000081111CC080E03C
:102FF00090E0892B41F080E090E0892B21F00E9445
:103000000000811113C080E090E0892BA1F080E0E6
:1030100090E0892B81F00E94000081110AC0089580
:103020000E940000D8CF0E940000E1CF0E94000063
:10303000EACF0C9400000895FC01848DDF01A80FF5
:10304000B11DA35ABF4F2C91848D90E001968F73D0
:103050009927848FA689B7892C93A089B1898C91EF
:1030600080648C93938D848D981306C00288F389B5
:10307000E02D80818F7D80830895CF93DF93EC01D5
:10308000888D8823C1F0EA89FB89808185FD05C090
:10309000A889B9898C9186FD0EC00FB607FCF5CFC3
:1030A000808185FFF2CFA889B9898C9185FFEDCF0A
:1030B000CE01C2DFE8CFDF91CF910895CF92DF92AA
:1030C000FF920F931F93CF93DF931F92CDB7DEB77D
:1030D0006C01DC015B969C915B975C968C915C9794
:1030E000981307C05096ED91FC915197808185FD12
:1030F00031C0F601038D10E00F5F1F4F0F731127D2
:10310000F02EF601848DF81210C00FB607FCF9CF2F
:10311000D6015096ED91FC915197808185FFF1CFBA
:10312000C601698389DF6981ECCF838DE80FF11DCA
:10313000E35AFF4F6083D6015B960C935B975296E0
:10314000ED91FC91539780818062808381E0589655
:103150008C930DC0D6015696ED91FC9157976083E4
:103160005096ED91FC91519780818064808381E03D
:1031700090E00F90DF91CF911F910F91FF90DF9022
:10318000CF900895BF92CF92DF92EF92FF92CF93AC
:10319000DF93EC016A017B01B22EE889F98982E0B4
:1031A0008083411581EE58076105710599F060E053
:1031B00079E08DE390E0A701960136D621503109E0
:1031C000410951095695479537952795211580E175
:1031D000380790F0E889F989108260E874E88EE198
:1031E00090E0A701960120D62150310941095109EB
:1031F0005695479537952795EC85FD853083EE8567
:10320000FF852083188EEC89FD89B082EA89FB89CD
:10321000808180618083EA89FB89808188608083E6
:10322000EA89FB89808180688083EA89FB898081C3
:103230008F7D8083DF91CF91FF90EF90DF90CF90D3
:10324000BF9008951F920F920FB60F9211240BB6E4
:103250000F922F938F939F93EF93FF93E091180C0E
:10326000F091190C8081E0911E0CF0911F0C82FDF1
:1032700012C090818091210C8F5F8F732091220C5E
:10328000821751F0E091210CF0E0E85FF34F958F49
:103290008093210C01C08081FF91EF919F918F91CC
:1032A0002F910F900BBE0F900FBE0F901F9018958F
:1032B0001F920F920FB60F9211240BB60F922F93FD
:1032C0003F934F935F936F937F938F939F93AF93AE
:1032D000BF93EF93FF9388E09CE0AEDEFF91EF9108
:1032E000BF91AF919F918F917F916F915F914F911E
:1032F0003F912F910F900BBE0F900FBE0F901F901C
:10330000189588E09CE02FDE21E0892B09F420E06D
:10331000822F089510920B0C10920A0C88EE93E005
:10332000A0E0B0E080930C0C90930D0CA0930E0CD9
:10333000B0930F0C82E198E09093090C8093080CF5
:1033400085EC90E09093150C8093140C84EC90E045
:103350009093170C8093160C80EC90E09093190CCE
:103360008093180C81EC90E090931B0C80931A0CC6
:1033700082EC90E090931D0C80931C0C86EC90E006
:1033800090931F0C80931E0C1092210C1092220C13
:103390001092230C1092240C0895CF92DF92EF929A
:1033A000FF920F931F93CF93DF936C017A01EB0190
:1033B000E60EF71E00E010E0CE15DF0561F0699122
:1033C000D601ED91FC910190F081E02DC601199597
:1033D000080F191FF1CFC801DF91CF911F910F91F5
:1033E000FF90EF90DF90CF9008956115710581F007
:1033F000DB010D900020E9F7AD0141505109461B5A
:10340000570BDC01ED91FC910280F381E02D1994C2
:1034100080E090E00895E9CFDC01ED91FC9101900E
:10342000F081E02D19940F931F93CF93DF93EC015C
:103430006DE0F2DF8C016AE0CE01EEDF800F911FBC
:10344000DF91CF911F910F9108950F931F93CF9309
:10345000DF93EC01CADF8C01CE01E5DF800F911F05
:10346000DF91CF911F910F9108958F929F92AF920C
:10347000BF92CF92DF92EF92FF920F931F93CF9361
:10348000DF93CDB7DEB7A1970FB6F894DEBF0FBEBE
:10349000CDBF7C01C42EE52FCB01D22E19A221E095
:1034A0002D1510F02AE0D22E8E010F5D1F4F8D2CAE
:1034B000912CA12CB12C6C2D7E2FA5019401B4D49C
:1034C0008C2DD29E80191124015011098A3014F4D8
:1034D000805D01C0895CF8018083211531054105BB
:1034E000510521F0C22EE32FCA01E5CFB801C70173
:1034F0007CDFA1960FB6F894DEBF0FBECDBFDF9183
:10350000CF911F910F91FF90EF90DF90CF90BF90E0
:10351000AF909F908F900895CF92DF92EF92FF929D
:103520000F931F93CF93DF93EC016A017B01211569
:10353000310579F4E881F9810190F081E02D642F63
:10354000DF91CF911F910F91FF90EF90DF90CF907F
:1035500019942A303105D9F477FF18C06DE25CDF89
:103560008C0144275527BA014C195D096E097F0962
:103570002AE0CE017ADF800F911FDF91CF911F915A
:103580000F91FF90EF90DF90CF9008952AE0B70160
:10359000A601CE01DF91CF911F910F91FF90EF9087
:1035A000DF90CF9062CF9A01AB01662757FD6095FF
:1035B000762FB2CF0F931F93CF93DF93EC019A0135
:1035C000AB01662757FD6095762FA6DF8C01CE01F3
:1035D0002ADF800F911FDF91CF911F910F910895E6
:1035E0002115310541F4DC01ED91FC910190F08150
:1035F000E02D642F199439CF9A01462F50E060E0F6
:1036000070E0EECF0F931F93CF93DF93EC019A01FD
:10361000462F50E060E070E0E3DF8C01CE0103DF75
:10362000800F911FDF91CF911F910F910895089501
:10363000B4D0FDDF0E94AE0FC0EED7E10E94130FA1
:103640002097E1F3BDDCFACF60C41F920F920FB652
:103650000F9211242F933F938F939F93AF93BF9318
:103660008091A60C9091A70CA091A80CB091A90CE8
:103670003091A50C23E0230F2D3720F40196A11DD6
:10368000B11D05C026E8230F0296A11DB11D209390
:10369000A50C8093A60C9093A70CA093A80CB093B4
:1036A000A90C8091AA0C9091AB0CA091AC0CB0919C
:1036B000AD0C0196A11DB11D8093AA0C9093AB0C8B
:1036C000A093AC0CB093AD0CBF91AF919F918F9133
:1036D0003F912F910F900FBE0F901F9018952FB70D
:1036E000F8946091A60C7091A70C8091A80C909111
:1036F000A90C2FBF08953FB7F8948091AA0C909120
:10370000AB0CA091AC0CB091AD0C26B5A89B05C03C
:103710002F3F19F00196A11DB11D3FBF6627782FDD
:10372000892F9A2F620F711D811D911D42E0660F36
:10373000771F881F991F4A95D1F70895CF92DF927E
:10374000EF92FF92CF93DF936B017C01D4DFEB010B
:10375000C114D104E104F10479F0CBD1CCDF6C1BAE
:103760007D0B683E7340A0F381E0C81AD108E108E0
:10377000F108C851DC4FECCFDF91CF91FF90EF9073
:10378000DF90CF900895019739F0880F991F880F27
:10379000991F02970197F1F70895789484B5826094
:1037A00084BD84B5816084BD85B5826085BD85B5E5
:1037B000816085BDEEE6F0E0808181608083E1E894
:1037C000F0E01082808182608083808181608083CC
:1037D000E0E8F0E0808181608083E1EBF0E08081CF
:1037E00084608083E0EBF0E0808181608083E1E9A8
:1037F000F0E0808182608083808181608083E0E965
:10380000F0E0808181608083E1EAF0E08081826085
:103810008083808181608083E0EAF0E08081816044
:103820008083E1E2F1E08081826080838081816039
:103830008083E0E2F1E0808181608083EAE7F0E06C
:1038400080818460808380818260808380818160C8
:1038500080838081806880831092C10008958633C0
:1038600008F0865320917B00982F9870277F922B29
:1038700090937B0087702091060290E4299F90012D
:103880001124822B80937C0080917A008064809345
:103890007A0080917A0086FDFCCF8091780020919B
:1038A000790090E0922B089590E0FC013197E2318D
:1038B000F10508F04BC0EE58FF4FF4C28091800034
:1038C0008F7703C0809180008F7D80938000089562
:1038D00080918000877FF9CF84B58F7702C084B54F
:1038E0008F7D84BD08958091B0008F7703C0809153
:1038F000B0008F7D8093B0000895809190008F7705
:1039000007C0809190008F7D03C080919000877FD9
:103910008093900008958091A0008F7707C08091D8
:10392000A0008F7D03C08091A000877F8093A000BE
:103930000895809120018F7707C0809120018F7DAD
:1039400003C080912001877F809320010895CF9349
:10395000DF9390E0FC01E25BFE4F2491FC01EC560A
:10396000FE4F8491882349F190E0880F991FFC0154
:10397000E25FFD4FA591B4918C509E4FFC01C59123
:10398000D4919FB7611108C0F8948C91209582233F
:103990008C93888182230AC0623051F4F8948C9110
:1039A000322F309583238C938881822B888304C0A7
:1039B000F8948C91822B8C939FBFDF91CF910895C7
:1039C0000F931F93CF93DF931F92CDB7DEB7282FAE
:1039D00030E0F901E85FFE4F8491F901E25BFE4FB0
:1039E0001491F901EC56FE4F04910023C1F0882395
:1039F00019F0698359DF6981E02FF0E0EE0FFF1FB6
:103A0000EC50FE4FA591B4919FB7F8948C91611141
:103A100003C01095812301C0812B8C939FBF0F9011
:103A2000DF91CF911F910F910895CF93DF93282FAE
:103A300030E0F901E85FFE4F8491F901E25BFE4F4F
:103A4000D491F901EC56FE4FC491CC2389F0811139
:103A50002BDFEC2FF0E0EE0FFF1FE652FE4FA5919B
:103A6000B4912C912D2381E090E021F480E002C0FC
:103A700080E090E0DF91CF910895BF92CF92DF92E6
:103A8000EF92FF920F931F93CF93DF93C82ED62E02
:103A9000B42EC7E0D0E0022F10E087E0E82EF12C32
:103AA000B1100AC0F701EC1BFD0BB80102C07595FF
:103AB0006795EA95E2F707C0B8010C2E02C075952C
:103AC00067950A94E2F7617077278C2D79DF61E0C2
:103AD0008D2D76DF60E08D2D73DF219708F7DF9164
:103AE000CF911F910F91FF90EF90DF90CF90BF90FB
:103AF000089508955058BB27AA270ED0E5C0D6D008
:103B000030F0DBD020F031F49F3F11F41EF4CBC035
:103B10000EF4E095E7FBC1C0E92FE7D080F3BA17B8
:103B2000620773078407950718F071F49EF5FFC0CC
:103B30000EF4E0950B2EBA2FA02D0B01B9019001C8
:103B40000C01CA01A0011124FF27591B99F0593F0C
:103B500050F4503E68F11A16F040A22F232F342F54
:103B60004427585FF3CF469537952795A795F040A2
:103B70005395C9F77EF41F16BA0B620B730B840BB7
:103B8000BAF09150A1F0FF0FBB1F661F771F881F6F
:103B9000C2F70EC0BA0F621F731F841F48F48795C7
:103BA00077956795B795F7959E3F08F0B3CF9395B6
:103BB000880F08F09927EE0F97958795089504D000
:103BC0006894B111B5C0089598D088F09F5790F0CF
:103BD000B92F9927B751A0F0D1F0660F771F881F32
:103BE000991F1AF0BA95C9F712C0B13081F09FD071
:103BF000B1E008959CC0672F782F8827B85F39F00F
:103C0000B93FCCF3869577956795B395D9F73EF490
:103C100090958095709561957F4F8F4F9F4F089538
:103C2000E89409C097FB3EF4909580957095619556
:103C30007F4F8F4F9F4F9923A9F0F92F96E9BB270C
:103C40009395F695879577956795B795F111F8CF88
:103C5000FAF4BB0F11F460FF1BC06F5F7F4F8F4FF3
:103C60009F4F16C0882311F096E911C0772321F0E9
:103C70009EE8872F762F05C0662371F096E8862F81
:103C800070E060E02AF09A95660F771F881FDAF7D8
:103C9000880F9695879597F9089597F99F6780E81B
:103CA00070E060E008959FEF80EC089500240A948E
:103CB0001616170618060906089500240A94121607
:103CC0001306140605060895092E0394000C11F43A
:103CD000882352F0BB0F40F4BF2B11F460FF04C0E7
:103CE0006F5F7F4F8F4F9F4F089557FD9058440F40
:103CF000551F59F05F3F71F04795880F97FB991F4B
:103D000061F09F3F79F08795089512161306140607
:103D1000551FF2CF4695F1DF08C016161706180694
:103D2000991FF1CF86957105610508940895E8946F
:103D3000BB2766277727CB0197F908950BD0C4CF0F
:103D4000B5DF28F0BADF18F0952309F0A6CFABCF86
:103D50001124EECFCADFA0F3959FD1F3950F50E069
:103D6000551F629FF001729FBB27F00DB11D639F2D
:103D7000AA27F00DB11DAA1F649F6627B00DA11DD3
:103D8000661F829F2227B00DA11D621F739FB00D79
:103D9000A11D621F839FA00D611D221F749F3327E9
:103DA000A00D611D231F849F600D211D822F762F82
:103DB0006A2F11249F5750408AF0E1F088234AF07F
:103DC000EE0FFF1FBB1F661F771F881F91505040CB
:103DD000A9F79E3F510570F060CFAACF5F3FECF38B
:103DE000983EDCF3869577956795B795F795E795B7
:103DF0009F5FC1F7FE2B880F911D9695879597F9C8
:103E0000089597FB072E16F4009406D077FD08D08E
:103E100059D007FC05D03EF4909581959F4F0895A9
:103E2000709561957F4F0895A1E21A2EAA1BBB1BC6
:103E3000FD010DC0AA1FBB1FEE1FFF1FA217B30776
:103E4000E407F50720F0A21BB30BE40BF50B661F8C
:103E5000771F881F991F1A9469F760957095809550
:103E600090959B01AC01BD01CF010895052E97FBF4
:103E700016F400940FD057FD05D0D6DF07FC02D012
:103E800046F408C050954095309521953F4F4F4FCF
:103E90005F4F089590958095709561957F4F8F4FF6
:103EA0009F4F0895EE0FFF1F0590F491E02D199498
:103EB0001DD0B7FF0895821B930B08950790F691CC
:103EC000E02D1994AA1BBB1B51E107C0AA1FBB1F01
:103ED000A617B70710F0A61BB70B881F991F5A9596
:103EE000A9F780959095BC01CD010895A29FB001DE
:103EF000B39FC001A39F700D811D1124911DB29F1E
:103F0000700D811D1124911D0895CF93DF93823090
:103F1000910510F482E090E0E091B00CF091B10CCA
:103F200020E030E0A0E0B0E0309739F140815181ED
:103F300048175907B8F04817590771F482819381DF
:103F4000109729F013969C938E9312972CC0909300
:103F5000B10C8093B00C27C02115310531F0421708
:103F6000530718F0A901DB0101C0EF019A01BD015F
:103F7000DF010280F381E02DD7CF21153105F9F063
:103F8000281B390B2430310580F48A819B8161150F
:103F9000710521F0FB019383828304C09093B10CDF
:103FA0008093B00CFE01329644C0FE01E20FF31F75
:103FB0008193919322503109398328833AC020910B
:103FC000AE0C3091AF0C232B41F4209102023091C2
:103FD00003023093AF0C2093AE0C2091000230917D
:103FE00001022115310541F42DB73EB7409104027D
:103FF00050910502241B350BE091AE0CF091AF0CF3
:10400000E217F307A0F42E1B3F0B2817390778F0AF
:10401000AC014E5F5F4F2417350748F04E0F5F1F0E
:104020005093AF0C4093AE0C8193919302C0E0E0AB
:10403000F0E0CF01DF91CF910895CF93DF93009708
:1040400009F487C0FC01329713821282C091B00C30
:10405000D091B10C209781F420813181280F391F34
:104060008091AE0C9091AF0C8217930779F5F09385
:10407000AF0CE093AE0C6DC0DE0120E030E0AE1777
:10408000BF0750F412964D915C9113979D01411515
:10409000510509F1DA01F3CFB383A2834081518145
:1040A000840F951F8A179B0771F48D919C9111972E
:1040B000840F951F02969183808312968D919C9117
:1040C0001397938382832115310529F4F093B10C62
:1040D000E093B00C3EC0D9011396FC93EE93129777
:1040E0004D915D91A40FB51FEA17FB0779F480810C
:1040F0009181840F951F0296D90111969C938E93FE
:104100008281938113969C938E931297E0E0F0E066
:104110008A819B81009719F0FE01EC01F9CFCE0155
:10412000029628813981820F931F2091AE0C309125
:10413000AF0C2817390769F4309729F41092B10CA5
:104140001092B00C02C013821282D093AF0CC093B5
:0C415000AE0CDF91CF910895F894FFCFE2
:10415C000000B20C80000100000A0014001D0027B2
:10416C000031003B0045004E00580062006C0076A8
:10417C00007F00890093009D00A000A300A600A969
:10418C0000AC00AF00B200B500B800BB00BE00C16F
:10419C0000C400D300E200F10000010F011E012E4B
:1041AC00013D014C015B016A01790188019901A96A
:1041BC0001BA01CA01DA01EA01FB010B021B022B55
:1041CC00023B024C02630278028F02A402BA02D0B4
:1041DC0002E502FB02110325033B03510367037D38
:1041EC00039303A903BF03D503FD0323044B0472FC
:1041FC00049904B504D104ED040905250541055DB8
:10420C000576058E05A705BF05D805F105F3050351
:10421C00061306230633064306530663067306830A
:10422C00069306A306B306E6060E0735075C07835E
:10423C0007AA07C607E207FE071A08360852086ED7
:10424C000887089F08B808D008E90801091A09323C
:10425C0009450959096D0980099409A709BB09CEBB
:10426C0009E209F609650A6F0A7A0A830A8E0A9826
:10427C000AA20AAC0ABA0ACD0ADC0AEB0AFA0A0943
:10428C000B180B280B370B460B550B640B730B7F62
:10429C000B900B9D0BAB0BB80BC50BD20BDF0BECC8
:1042AC000BF90B060C130C200C2D0C3B0C430C5C6B
:1042BC000C720C880C9E0CB40CCA0CDF0CF50C07A1
:1042CC000D110D210D320D420D520D620D730D832A
:1042DC000D930DA40DB40DCB0DD50DE60DF60D06FD
:1042EC000E170E270E370E480E580E690E790E90CB
:1042FC000EA30EB30EC20ED10EE00EEF0EFE0E0D7F
:10430C000F1C0F2B0F3A0F490F540F0026002800DB
:10431C002A002C002E0030003200210034011F0036
:10432C0023002500170019001B0016001A001800A6
:10433C00270029002D002BFF626565706572546F94
:10434C00446F203A0020202624252324255E206556
:10435C0061726C7920707573682062656570206F6E
:10436C0066662000414343555354415420524553F3
:10437C004554205448452053455353494F4E2050E3
:10438C0045414B20414E442043555252454E5420FA
:10439C005045414B00416363757374617420656EC5
:1043AC0074657253746174653A2000206C6F6F6B86
:1043BC00466F7242616C6C203D20747275650041D1
:1043CC00535F504F535448495420494E5349444528
:1043DC0020454E54455253544154452043414C4C76
:1043EC004544206265657028290062656570464CFD
:1043FC004147002020616E616C6F675265616428D3
:10440C006169416368696576656450696E292069E4
:10441C00732077616B65696E672069742075700015
:10442C002063757272656E745065616B3A20002062
:10443C006176673A2000206E61747572616C7072DF
:10444C00656368617267653A20002062616C6C205C
:10445C00747275650020206C6173745265616469B7
:10446C006E673A200020205365656E2042616C6CAB
:10447C003A200020206C617374526561643A20000C
:10448C0020204E41545F5052453A20002020637545
:10449C0072725065616B3A200020204C6F6F6B205C
:1044AC00466C61673A2000206861735365656E62E3
:1044BC00616C6C2066616C736520004E41545F50DA
:1044CC00524500FC60DAF266B6BEE0FEF602202031
:1044DC004149522044554D5045442000496E697461
:1044EC00204368617267652053797374656D206E23
:1044FC0065772073746174653A20200020736574AD
:10450C0054617267657450657263656E743A20000D
:10451C002074617267657450726573737572653A55
:10452C002000206169507265636861726765507222
:10453C006573737572653A20004D41535F4C54534B
:10454C005F4F4E2066726F6D2068657265006578EE
:10455C00697420746F772073776974636820636162
:10456C006C6C2075692E656E74657253746174651C
:10457C0000206C6173745374617465203A00554962
:10458C0053746174650020696E42616C616E636581
:10459C0046616C7365200030300030250073003D9F
:1045AC003D3D20544F57494E47204D4F4445203DEB
:1045BC003D3D005265736572766F6972205072656D
:1045CC0073737572653A002A2A20504F5745522052
:1045DC0044524956494E47202A2A00546872657342
:1045EC00686F6C643A002B2B2B2B20494E44495698
:1045FC00494455414C202B2B2B2B002B2B2B2B20A8
:10460C0020545241494E494E4720202B2B2B2B0036
:10461C0020535452454E47544820545241494E4918
:10462C004E472000446966666963756C74793A007C
:10463C004475726174696F6E3A005549203D204390
:10464C006861726765004348415247494E470053C1
:10465C005543434553530053485554444F574E000C
:10466C00446966666963756C747920697320736537
:10467C007420746F2068696768206164756A75734B
:10468C007420646F776E00486F6C6420736372756E
:10469C006D206C6F6E676572005265647563652082
:1046AC00003F3F2000203F3F0075692E4946286C93
:1046BC00617374213D537461746529003E003C00A4
:1046CC0020202020202020202020202020202020DE
:1046DC002020202000456D657267656E63795368F4
:1046EC007574446F776E005549535F534352554D63
:1046FC005F504F5745522063616C6C65642075693F
:10470C002E656E7465725374617465005549535F00
:10471C00534352554D5F494E442063616C6C656444
:10472C002075692E656E74657253746174650064CE
:10473C00656661756C74207569206C6F6F70206391
:10474C006173652063616C6C656420656E74657261
:10475C0053746174650000000000AE17CD190000A1
:0E476C0000005E18CD19B317CC17BE173D180C
:00000001FF
