:1000000015C1000044C1000042C1000040C1000011
:100010003EC100003CC100003AC1000038C10000F0
:1000200036C1000034C1000032C1000030C1000000
:100030002EC100002CC100002AC1000028C1000010
:1000400026C1000024C1000022C1000020C1000020
:100050000C94880F1CC100001AC100000C94601998
:1000600016C100000C945D170C94931710C100008A
:100070000EC100000CC100000AC1000008C1000050
:1000800006C1000004C1000002C1000000C1000060
:10009000FEC00000FCC00000FAC00000F8C0000074
:1000A000F6C00000F4C00000F2C00000F0C0000084
:1000B000EEC00000ECC00000EAC00000E8C0000094
:1000C000E6C00000E4C00000E2C00000E0C00000A4
:1000D000DEC00000DCC00000DAC00000D8C00000B4
:1000E000D6C00000A71AAA1A991A9D1AA31AE11AD3
:1000F000AE1AB21AB81ABC1AC01AC61ACA1ACE1A3E
:10010000E11AD41AD81ADC1A00000A0B02090C0DE5
:100110000E080703040100000000000000000000BA
:1001200000000000000000000000000000000000CF
:10013000000000001211100000000000000000008C
:1001400000000000000000000000000000000102AC
:1001500010202008081020401020408002010201D9
:100160000804020101020408102040808040201091
:1001700008040201800402018040201008040201EA
:100180000804020101020408102040800102040852
:10019000102040800505050507050808080802022B
:1001A00002020A0A08080404040401010101010111
:1001B00001010303030303030303040707070C0CF4
:1001C0000C0C0C0C0C0C02020202060606060606BB
:1001D00006060B0B0B0B0B0B0B0B00002000230078
:1001E000260029002C002F0032000001000003012E
:1001F0000601090100002200250028002B002E0026
:100200003100340002010000050108010B0100006B
:100210002100240027002A002D00300033000101B6
:100220000000040107010A01600EC51711241FBE5A
:10023000CFEFD1E2DEBFCDBF00E00CBF17E0A0E002
:10024000B2E0E2EDFDE300E00BBF02C007900D92CB
:10025000AA35B107D9F72BE0AAE5B7E001C01D9296
:10026000AE3EB207E1F712E0CCE2D2E000E006C019
:1002700022970109FE010BBF0E94991DC832D107C8
:1002800080E00807A9F70E9453190C94E71EB8CE26
:10029000CF93DF93EC0160E085E20E941B1BFE011F
:1002A000E152FE4F808181503B97823038F4DE016D
:1002B000AA52BE4F8D919C919183808380819181C0
:1002C000FE01EE52FE4F208131812817390744F498
:1002D0009183808384E080935B0781E080935A0759
:1002E000CD51DE4F18828CEE9AE0DF91CF915FC73F
:1002F00061E085E20E94E21A60E085E20C941B1B3B
:10030000CF93DF938091E70A882321F0833008F0B0
:1003100060C02EC060915B07662321F180915A076F
:100320009FEF980F90935A07823008F052C06150A7
:1003300060935B07617085E20E941B1B68EE73E0AF
:1003400084E49BE00E94461860915B0761704AE07C
:1003500050E070E084E49BE00E94151981E08093F6
:100360005A0737C060E085E2DF91CF910C941B1BE8
:100370008091D90A882369F18CEB9AE000D420910E
:10038000E40A3091E50A821B930B880F991F885F5E
:10039000964FFC01C081D18160E080EB98E00E9423
:1003A0007B1124E6AC01249FC001259F900D1124F0
:1003B000C817D90774F460E085E20E941B1B1092F5
:1003C000D90A65EF73E084E49BE0DF91CF910C9450
:1003D0006018DF91CF910895DF92EF92FF920F9313
:1003E0001F93CF93DF93EC01C9318CEFD8073CF01A
:1003F000C031E7E2DE075CF4D7FF0BC002C0C9E101
:10040000DCEFD195C195D1094AE0D42E0CC0CFE0E4
:10041000D7E2CE0160E177E20E943C1D68EE73E016
:100420000E943C1DD62E61E086E10E941B1B3AE033
:10043000E32EF12CCE01B7010E943C1D83559B4F4A
:10044000FC01208140E068E18AE10E94781B04E61B
:1004500010E0CE01B8010E943C1DB7010E943C1D76
:1004600063557B4FFB01208140E068E18AE10E94F7
:10047000781BCE0168EE73E00E943C1DB8010E941B
:100480003C1D63557B4FFB01208140E068E18AE120
:100490000E94781BED2DF0E0E355FB4F208140E0FA
:1004A00068E18AE10E94781B60E086E10E941B1BE4
:1004B00064E070E080E090E0DF91CF911F910F91B8
:1004C000FF90EF90DF900C94D9190F931F93CF9367
:1004D000DF938C01EC01CD51DE4F8881F801811151
:1004E00003C0EE52FE4F02C0EC52FE4F808191815C
:1004F00073DFF801EE51FE4F8081823018F0815099
:1005000080830BC084E080838881833020F0833037
:1005100021F4188202C08F5F8883DF91CF911F91F1
:100520000F910895CF93DF93EC0184EB91E0E7E026
:10053000F2E0DE0101900D920197E1F7CE018C54BB
:100540009E4F1CD3D5DEFE01EF51FE4F10823D972A
:100550001182108232961182108234971182108299
:100560003896118210823896108231961082339715
:100570001082319710823197108236971182108243
:100580003496118210823C97108232971182108229
:10059000CF52DE4F1882DF91CF9108958BE10E94F8
:1005A000501B21E0892B09F420E0822F08950F933E
:1005B0001F93CF93DF931F92CDB7DEB78C01698372
:1005C000EDDF6981882331F0611113C08BE10E9456
:1005D0001B1B09C0662369F061E08BE10E941B1BB5
:1005E00080E090E0F9DEF801E252FE4F108235968D
:1005F00010820F90DF91CF911F910F910895FC0110
:10060000EC52FE4F1182108232971182108264E107
:1006100074E084E49BE00E94601860E085E20C9442
:100620001B1BFC01E252FE4F10823596108208958A
:10063000FC01E252FE4F21E020838C549E4F89C280
:1006400081529E4FFC0160830895FC01EC52FE4FE5
:10065000DC01AA52BE4F8D919C91918380830895B5
:10066000FC01E252FE4F6083613059F028F06230A5
:1006700059F0633011F10895FC01ED51FE4F1082E5
:1006800008958C549E4F65C2FC01E052FE4F1082CB
:10069000319628E020833997DC01A652BE4F2D9178
:1006A0003C913183208332971182108232971182DC
:1006B00010823F9624E020830895EACDEF92FF92C6
:1006C0000F931F93CF93DF93EC0180EF98E00E948C
:1006D000EF0E81111AC086E30E946A1A843191409C
:1006E000A4F080EF98E00E94BF0E65E474E084E41B
:1006F0009BE00E94461886E30E946A1A4AE050E096
:10070000BC0184E49BE00E941519CE0147DF8823D9
:1007100009F453C07E0132E2E31A3EEFF30AF70117
:100720008081882309F449C086E30E946A1ABC01CB
:100730008E010C541E4FC801CCD1C80120D28C01AF
:10074000F70180818130F9F4FE01E452FE4F80818F
:1007500091819801281B390B32977F012430310594
:100760004CF18AEF98E00E94030C811123C0F7013D
:100770001183008362E0CE01DF91CF911F910F9131
:10078000FF90EF906DCF8230C1F4FE01E152FE4F39
:100790008081882329F0833080F4C652DE4F07C061
:1007A000C652DE4F888199818017910734F41983EE
:1007B000088303C0F70111830083DF91CF911F915C
:1007C0000F91FF90EF9008957F928F929F92AF923A
:1007D000BF92CF92DF92EF92FF920F931F93CF932E
:1007E000DF93EC018DDDCE0170DE7E0142E2E41A82
:1007F0004EEFF40AF70180818230B9F0833009F0BE
:100800001BC181E0F7018083CE018C549E4FDF91A4
:10081000CF911F910F91FF90EF90DF90CF90BF90FD
:10082000AF909F908F907F9094C15E01F4E2AF1AD9
:10083000FEEFBF0AFE01E652FE4F00811181F50175
:1008400080819181081B190B17FF02C000E010E0A6
:1008500062E774E084E49BE00E9446184AE050E0BE
:10086000B80184E49BE00E940E19F801EE0FFF1F0F
:10087000EC0FFD1F008111816AE774E084E49BE0C6
:100880000E9446184AE050E0B80184E49BE00E94D0
:100890000E1965E874E084E49BE00E94461886E344
:1008A0000E946A1A4AE050E0BC0184E49BE00E9486
:1008B00015194E01F1E28F1AFEEF9F0AF4017080C4
:1008C000AE014C525E4F6A0151E0751641F075164B
:1008D00020F082E07816C9F168C0F6011BC0073924
:1008E00011050CF462C060E080EB98E00E947B117F
:1008F00024E6AC01249FC001259F900D1124FE0128
:10090000E052FE4F8017910774F08081882309F42C
:100910004CC03A9780819181801791070CF045C0B7
:100920001183008342C0808181113FC061E085E274
:100930000E941B1B65E974E084E49BE00E9446185A
:10094000FE01EF52FE4F708230C0073911056CF185
:1009500061E080EB98E00E947B1124E6FC012E9F71
:10096000C0012F9F900D112480179107F4F4FE0110
:10097000E052FE4F80818823A1F03A9780819181D7
:100980008017910794F41183008380EB98E00E9414
:100990000912833051F464E080EB98E00E940C125D
:1009A00004C061E085E20E941B1BF60180819181F9
:1009B000FE01EE52FE4F208131812817390744F4A1
:1009C0009183808324E020935B0721E020935A07E2
:1009D000F401208121110FC0181619066CF5CE0103
:1009E0008C549E4FCCD0F50120813181821B930B1A
:1009F000069784F021C0FE01EF51FE4F80818823CD
:100A000019F08150808318C021502230A8F402339D
:100A1000110594F483E0F7018083CE01DF91CF913B
:100A20001F910F91FF90EF90DF90CF90BF90AF900C
:100A30009F908F907F902CCCDF91CF911F910F9141
:100A4000FF90EF90DF90CF90BF90AF909F908F90EE
:100A50007F90089581529E4FFC01808108958252BB
:100A60009E4FFC018081089580529E4FFC01808141
:100A7000089580529E4FFC0160830895EF92FF928B
:100A80000F931F93CF93DF937C01EC01CC54DE4F87
:100A9000CE015FD00AE010E086E30E946A1ABC0132
:100AA000CE0117D001501109B9F7CE0168D0F70176
:100AB000E452FE4F91838083DF91CF911F910F917C
:100AC000FF90EF90089584529E4FFC0180819181A8
:100AD0000895CF92DF92EF92FF920F931F93FC0144
:100AE0008B018181DF01A80FB11DA80FB11D1296E6
:100AF000CD90DC901397EE24D7FCE094FE2C468931
:100B00005789608D718D4C195D096E097F091396A7
:100B10001C930E931297222717FD2095322F400F1A
:100B2000511F621F731F468B578B608F718F90818F
:100B30009A3010F49F5F90838F5F8A3010F4818326
:100B400001C011821F910F91FF90EF90DF90CF9025
:100B50000895FC011082118280E090E0DF01A80F6F
:100B6000B91F13961C921E9212970296843191051A
:100B7000A9F7168A178A108E118E0895EACFFC0104
:100B8000208130E040E050E066897789808D918D4A
:100B90000E94711DC9010895FC0110828CEB92E046
:100BA000928381838CEA93E09483838315820895F2
:100BB0001F93CF93DF93EC0187E30E946A1A188199
:100BC0001130E9F030F0123061F1133009F443C014
:100BD0004DC029813A81821793077CF411E010936C
:100BE000FC0880EF98E00E94BF0E61E080E30E9465
:100BF0001B1B82E08D83188339C060E026C08D8185
:100C0000823060F58EE10E94501B892B79F160E003
:100C100080E30E941B1B61E087E10E941B1B82E0B6
:100C200011C02B813C812817390774F460E087E1FB
:100C30000E941B1B1092FC0880EF98E00E94BF0EE0
:100C40001D8383E0888312C061E087E1DF91CF914B
:100C50001F910C941B1B8D81823018F081508D8365
:100C600005C060E080E30E941B1B1882DF91CF91DA
:100C70001F910895CF93DF93EC0161E084E30E941C
:100C8000E21A60E084E30E941B1B60E08EE10E9498
:100C9000E21A18821982DF91CF910895CF93FC0157
:100CA0002081211102C0C18101C0C1E08EE10E94FA
:100CB000501BCC2369F081110DC061E08FE10E94CF
:100CC0001B1B84E30E94501B892B71F461E008C058
:100CD0008111F7CF84E30E94501B892B29F060E03B
:100CE00084E3CF910C941B1BCF910895FC01618389
:100CF0000895FC0110820895CF92DF92EF92FF9247
:100D0000CF93DF93EC016A017B018B859C85AD85D8
:100D1000BE859A01AB01281B390B4A0B5B0BDA012C
:100D2000C90149815A816B817C8184179507A60787
:100D3000B707D8F08881813019F0823029F00CC0D3
:100D4000E985FA85199508C061E08885811160E020
:100D500068878F810E941B1BCB86DC86ED86FE8612
:100D60008F8598890196988B8F878D819E8197FDBD
:100D700006C02F853889281739070CF01882DF91B3
:100D8000CF91FF90EF90DF90CF900895FF920F9357
:100D90001F93CF93DF93CDB7DEB7AD970FB6F8941F
:100DA000DEBF0FBECDBF62E08CE00E94E21A8DE292
:100DB000EBEBF3E0DE01119601900D928A95E1F7DD
:100DC00010E0812F90E0E1E0F0E0EC0FFD1FE80F74
:100DD000F91FF0802FEFF21689F0E2E0F0E0EC0F5F
:100DE000FD1FE80FF91F008161E0802F0E94E21AC9
:100DF0006F2D802F0E941B1B1E5FE3CFAD960FB699
:100E0000F894DEBF0FBECDBFDF91CF911F910F9140
:100E1000FF9008958DE30E946A1A21E08A3F9105B0
:100E20000CF020E0822F0895CF93DF93EC016D2F1B
:100E3000661F6627661F81E20E941B1B61E01C166D
:100E40001D060CF060E082E3DF91CF910C941B1B38
:100E5000CF93DF93EC018130910579F460E086E275
:100E60000E941B1B61E088E20E941B1B6BE470E088
:100E700080E090E00E94D9190BC06D2F661F662795
:100E8000661F86E20E941B1B61E01C161D060CF00B
:100E900060E088E2DF91CF910C941B1B682F89E101
:100EA0000C941B1BFC011382128211821082089584
:100EB0001F93CF93DF93EC01162F68EB74E084E46B
:100EC0009BE00E9446184AE050E0612F84E49BE0DA
:100ED0000E943D191883113049F028F0123061F456
:100EE0008FEF9FEF05C080E090E002C081E090E0CE
:100EF000DF91CF911F9198CFDF91CF911F910895EE
:100F0000CF93DF93EC018EE30E946A1A288121308F
:100F100019F0223059F00FC02A813B8182179307C4
:100F200054F060E0CE01DF91CF91C2CF2A813B81A6
:100F300028173907B4F7DF91CF910895CF93DF9346
:100F4000EC018981662341F081110CC060E0CE0183
:100F5000AFDF81E0898306C0882321F060E0CE0105
:100F6000A7DF1982DF91CF910895EF92FF920F933F
:100F70001F93CF93DF93EC016536710514F064E69F
:100F800070E08B0177FF02C000E010E0B801882715
:100F900077FD8095982F0E944D1C23E333E343E3B4
:100FA00050E40E94D91C20E030E040E253E40E946B
:100FB000B61B0E941A1C7B836A838EE30E946A1A06
:100FC0007C0168ED74E084E49BE00E9446184AE0EE
:100FD00050E0B80184E49BE00E940E196CEE74E0CE
:100FE00084E49BE00E9446186A817B814AE050E0DD
:100FF00084E49BE00E9415196EEF74E084E49BE0AA
:101000000E9446184AE050E0B70184E49BE00E9449
:101010000E198A819B81E816F90614F461E004C078
:101020008E159F054CF462E0CE01DF91CF911F91A8
:101030000F91FF90EF903CCFDF91CF911F910F91D7
:10104000FF90EF900895FC0182E087A715AA16AAE9
:1010500017AA10AE11AE108211821282138211AA49
:1010600012AA13AA14AA16A680AB15821482138A98
:10107000128A17821682178E168E13A612A615A62E
:1010800014A608950F931F93CF93DF93EC01C2DE54
:1010900098A9882389F0923011F182E088AB65E14C
:1010A00075E084E49BE00E94601860E080EB98E0CB
:1010B0000E940C1260E010C0913089F081E088AB92
:1010C0006FA580EB98E00E940C126AE275E084E460
:1010D0009BE00E94601861E08BE10E941B1B80EB8B
:1010E00098E00E940912082F80EF98E078D6182F18
:1010F000002391F0813081F461E088E099E057DAD3
:1011000061E083EF98E0EBD3033008F443C061E083
:101110008EEF98E013DF3EC08CE00E94501B892BBD
:1011200061F460E088E099E042DA60E083EF98E003
:10113000D6D360E08EEF98E001DF61E0111101C0CD
:1011400060E08EE20E941B1B8EA5882319F085307B
:1011500091F022C060E08AE20E941B1B87E30E949C
:101160006A1AAC0164E080EB98E0DF91CF911F91A7
:101170000F910C942A1189AD9FEF980F99AF82308F
:1011800058F463E080EB98E0DF91CF911F910F91CD
:101190000C940C1261E0D5CFDF91CF911F910F918C
:1011A0000895FC0115AA16AA17AA10AE0895FC010D
:1011B00015AA16AA17AA10AE67A5623051F080EBE7
:1011C00098E00E940C126DE475E084E49BE00C94BE
:1011D00060180895CF93DF93EC016EA78FEF860F11
:1011E000833008F46FA76330C9F058F4613081F0A0
:1011F000623009F043C02BE430E04DE350E060E0A2
:1012000024C0643039F16530C9F588E089AF36C053
:101210002BE430E04DE350E061E017C061E08EEF79
:1012200098E08CDE62E080EB98E00E947B112AE07F
:10123000289FB001299F700D11248EEF98E095DE54
:1012400021E430E04DE350E062E083EF98E0DF918D
:10125000CF917DC30E94AA1969AB7AAB8BAB9CABD3
:1012600063E080EB98E00E947B1128EE33E0DC0124
:101270000E94931D6DAB7EAB8FAB98AFDF91CF918A
:101280000895623049F48AE0849FB001859F700D13
:1012900011248EEF98E069CE0895FC01138A128A1A
:1012A00060E070E0DB011496AA0FBB1FAE0FBF1FFA
:1012B0002D913C9182899389820F931F938B828B0E
:1012C0006F5F7F4F6530710569F7828993890E944E
:1012D0003C1DCB010895FC01178E168E60E070E076
:1012E000DB011A96AA0FBB1FAE0FBF1F2D913C91B9
:1012F000868D978D820F931F978F868F6F5F7F4F9D
:101300006530710569F7868D978D0E943C1DCB0174
:1013100008950F931F93CF93DF93EC010C811D81F0
:1013200082E40E946A1AF8013496EE0FFF1FEC0F58
:10133000FD1F91838083EC81FD813496EE0FFF1FAA
:10134000EC0FFD1F80819181893791055CF4EC8160
:10135000FD813496EE0FFF1FEC0FFD1F8081918100
:10136000CA977CF48C819D81892BB9F4EC81FD8135
:10137000888999893496EE0FFF1FEC0FFD1F91832A
:1013800080838C819D8101969D838C838C819D813E
:10139000059779F41D821C820CC0EC81FD81AC8123
:1013A000BD811396AA0FBB1FAC0FBD1F8D919C91E1
:1013B000E1CFDF91CF911F910F9108950F931F936C
:1013C000CF93DF93EC010E811F8183E40E946A1AA0
:1013D000F8013A96EE0FFF1FEC0FFD1F91838083FB
:1013E000EE81FF813A96EE0FFF1FEC0FFD1F80810B
:1013F0009181893791055CF4EE81FF813A96EE0F79
:10140000FF1FEC0FFD1F80819181CA977CF48E81B4
:101410009F81892BB9F4EE81FF818C8D9D8D3A9649
:10142000EE0FFF1FEC0FFD1F918380838E819F8144
:1014300001969F838E838E819F81059779F41F8209
:101440001E820CC0EE81FF81AE81BF811996AA0F6A
:10145000BB1FAC0FBD1F8D919C91E1CFDF91CF9150
:101460001F910F9108958F929F92AF92BF92CF924A
:10147000DF92EF92FF920F931F93CF93DF931F9210
:101480001F92CDB7DEB78C018AEF98E0BCD18823DC
:1014900021F0C8013EDFC80191DFF80185A996A9B6
:1014A000A7A9B0AD181619061A061B060CF06FC0D6
:1014B000F894F80182A593A59A838983789486E3AA
:1014C0000E946A1A29813A812F3431055CF0F801B3
:1014D00015AA16AA17AA10AE49815A814E5451096D
:1014E00061E00DC08139F1E09F0774F0F80115AAA1
:1014F00016AA17AA10AEAC014059514063E080EB28
:1015000098E00E94311343C00E94AA19F80181A8F3
:1015100092A8A3A8B4A86B017C01C818D908EA084E
:10152000FB0886169706A806B9062CF0F1E0CF1A3C
:10153000D108E108F108F80161AB72AB83AB94AB61
:1015400045A956A967A970AD4C195D096E097F09B7
:1015500045AB56AB67AB70AF77FF19C015AA16AA9B
:1015600017AA10AE61E083E20E941B1B0E94AA1919
:10157000F801608371838283938340E050E064E0EC
:1015800080EB98E00E94311388E099E05ED80F90DC
:101590000F90DF91CF911F910F91FF90EF90DF900F
:1015A000CF90BF90AF909F908F900895CF92DF9291
:1015B000EF92FF920F931F93CF93DF938C01CC2474
:1015C000CA94DC2CE12CF12C82E40E946A1AE70117
:1015D000CC0FDD1FC00FD11F9987888783E40E943D
:1015E0006A1A9D8B8C8B888599858937910524F49F
:1015F00088859985CA9744F4E114F10449F5F80106
:1016000080899189918780878C899D898937910507
:1016100024F48C899D89CA9744F4E114F10419F5E6
:10162000F801848D958D958B848BFFEFEF1AFF0A5F
:101630008FEFC81AD80AE5E0EE16F10429F6DF911B
:10164000CF911F910F91FF90EF90DF90CF90089571
:10165000F6013496EE0FFF1FE00FF11F808191819C
:1016600099878887D1CFF6013A96EE0FFF1FE00FDA
:10167000F11F808191819D8B8C8BD7CFFC0186A53A
:101680000895FC01118221E0208308950895CF93ED
:10169000DF93EC0189818823A1F061111AC01982BE
:1016A0008BE20E941B1B60E08DE20E941B1B60E02E
:1016B00089E20E941B1B60E087E2DF91CF910C94CE
:1016C0001B1B662331F081E089838CEE9AE06EDF8C
:1016D0001882DF91CF9108950F931F93CF93DF93DB
:1016E00000D01F92CDB7DEB78C01FC018081811143
:1016F00005C083EF98E03BD1882359F0F801818140
:10170000882309F477C083EF98E031D18823D9F09A
:1017100071C061E08DE20E941B1B61E087E20E94C4
:101720001B1B62E370E080E090E00E94D91960E04A
:101730008DE20E941B1B60E087E20E941B1B81E080
:10174000F8018083DBCF8CEE9AE0A7DD9C838B834E
:101750008CEE9AE0C0DD9A8389838B819C81181678
:1017600019060CF047C089819A81181619060CF0E9
:1017700041C08B819C8129813A81821B930B8F3FD1
:101780009F4FACF461E08DE20E941B1B62E370E0AE
:1017900080E090E00E94D91960E08DE20E941B1B5E
:1017A00068EC70E080E090E00E94D91923C08B8142
:1017B0009C8129813A81821B930B02972CF060E077
:1017C0008DE20E941B1B16C06FE675E084E49BE06F
:1017D0000E94601888E099E00E94180364E670E0B7
:1017E00080E090E00E94D91988E099E047D960E054
:1017F000C8014DDF0F900F900F900F90DF91CF91A8
:101800001F910F910895FC018181089581E090E07E
:101810001FDB60E875E084E49BE00E94601861E0F3
:101820008AEF98E034CFFC01148213821282118275
:1018300010821682158208950F931F93CF93DF9322
:1018400000D0CDB7DEB78C01F8948091160B909143
:10185000170B9A8389837894F8014481423099F078
:10186000433039F1413099F589819A812081318164
:101870002817390764F161E08AE20E941B1B82E0AD
:10188000F801848314C089819A81F801228133810F
:101890008217930754F083E0848380E090E04B83C9
:1018A000D7DA4B81F801468312C0F8014483AEDFDA
:1018B0000EC0F80186819FEF980F9683811107C0B3
:1018C000148280E090E0C4DA8CEE9AE06ADC0F903B
:1018D0000F900F90DF91CF911F910F910895FC0110
:1018E0008581662329F081110AC081E085830895EE
:1018F000882329F01582148280E090E0A9CA089517
:10190000CF93DF93EC016C83613071F050F0623063
:10191000C1F06330C9F480E090E09ADA82E08E830F
:1019200013C080E090E00AC060E08AE20E941B1BC6
:1019300088E099E00E9411038FEF9FEFDF91CF9134
:1019400087CADF91CF9162CFDF91CF910895CF9376
:10195000DF93EC01598348833B832A8388E099E035
:101960000E94200361E0CE01DF91CF91C9CFFC013D
:10197000848108958CE20E94501B61E0892B09F05C
:1019800060E08CE20C941B1BCF92DF92EF92FF92EF
:101990000E94AA196B017C0188E099E00E94E4038F
:1019A00082E099E005D98EEF98E0AADA8CEF98E012
:1019B00075D98CEE9AE066DB8AEF98E067DE83EFFC
:1019C00098E03ADF80EF98E0F9D180EB98E006D517
:1019D0000E94AA196C197D097093B3086093B2082C
:1019E000FF90EF90DF90CF900895CF93DF93E09139
:1019F000180BF091190BEE0FFF1FE45FF44FC0813D
:101A0000D18184E40E946A1A9C012A53310927314A
:101A10003105D0F08091180B9091190BE091180BC3
:101A2000F091190B892B29F48091140B9091150BCF
:101A30000FC0A091180BB091190BAA0FBB1FA65F86
:101A4000B44F8D919C9104C0E091180BF091190B4B
:101A5000EE0FFF1FE45FF44F91838083E091180B3A
:101A6000F091190BEE0FFF1FE45FF44F808191811D
:101A70002091160B3091170B65E070E00E943C1D21
:101A8000FB01CE016BEF7FEF0E943C1DE60FF71FBD
:101A90002E0F3F1F3093170B2093160B8091180BBE
:101AA0009091190B01969093190B8093180B8091CC
:101AB000180B9091190B059721F41092190B1092A5
:101AC000180B88E099E00E942F05823039F588E0F4
:101AD00099E00E942A05813031F088E099E00E9467
:101AE0002A058230D9F488E099E00E9434058111FA
:101AF00015C0F8948FE30E946A1A8634910544F069
:101B000080E40E946A1A8634910514F0789406C025
:101B100061E088E099E00E943905F8CFDF91CF912C
:101B20000895CF92DF92EF92FF920F931F930E943E
:101B3000AA196B017C0180EB98E0E5D588E099E07B
:101B40000E945E038AEF98E0C7DD8091EC0A9091D5
:101B5000ED0AA091EE0AB091EF0A181619061A06BE
:101B60001B062CF50E94AA190091EC0A1091ED0AAF
:101B70002091EE0A3091EF0A601B710B820B930BE0
:101B800097FF04C06150710981099109693E734052
:101B90008105910564F060E083E20E941B1B1092B6
:101BA000EC0A1092ED0A1092EE0A1092EF0A8CEEF7
:101BB0009AE059DC0E94AA196C197D097093B1084A
:101BC0006093B00886E098E040D18CE597E01F91E3
:101BD0000F91FF90EF90DF90CF9037C10F931F933D
:101BE000CF93DF93C0E0D0E005E010E084E40E94F2
:101BF0006A1AFE01EE0FFF1FE45FF44F91838083AA
:101C0000808191812091160B3091170BB8010E94B1
:101C10003C1D260F371F3093170B2093160B83E4C0
:101C20000E946A1AFE01EE0FFF1FE050F54F9183EC
:101C3000808382E40E946A1AFE01EE0FFF1FEC50BF
:101C4000F54F918380832196C530D10579F6DF91D8
:101C5000CF911F910F91089599D826E040E855E261
:101C600060E070E084E49BE00E94FD1620E044E028
:101C700064E186E29BE008D724EC3CE04AEF50E0C8
:101C800060E070E086E098E03BD12AEB3CE040E881
:101C90005EEE66E370E08CE597E032D19FDF40E7CF
:101CA0005BE062E070E08EE39BE0C5D12FEF3FEF99
:101CB000A90165EF7CE08EE39BE0CCD17894089598
:101CC000CF92EF920F93B7E0CB2E06E0E02E05E027
:101CD00024E043E062E086E29BE05CD78CEE9AE091
:101CE000B2D988E099E00E94920282E099E00E94D5
:101CF000CC058EEF98E0D6D88CEF98E00E943A069B
:101D00008AEF98E0BEDC83EF98E08DDD80EF98E00D
:101D10003AD066E27BE080EB98E024D286E098E05F
:101D200061D08CE597E00F91EF90CF905BC0CF939F
:101D3000DF93EC0180EB98E06CD3833028F061E016
:101D40008CEF98E00E94760661E08FE10E941B1BF9
:101D500080E19EE09A8389838CE00E94501B01976A
:101D600059F48DE30E946A1A019731F461E08BE126
:101D7000DF91CF910C941B1BDF91CF91089521E04F
:101D8000FC012083D4CFFBCFFC016083662319F0D4
:101D9000613099F0089560E08BE10E941B1B8EE199
:101DA0000E94501B892B29F060E08CEF98E00E9484
:101DB000760660E08FE10C941B1BB9CFFC012081FB
:101DC000213061F421813281121613062CF4215046
:101DD000310932832183089560E0D6CF0895FC0154
:101DE000808108950F931F93CF93DF93EC018C01B3
:101DF00006551F4FCE010E9479066196C017D10784
:101E0000C9F7DF91CF911F910F910895CF92DF9283
:101E1000EF92FF921F93CF93DF936A017B01EC0156
:101E20001AE08881882329F0B701A601CE010E941B
:101E30007C06115061961111F4CFDF91CF911F9163
:101E4000FF90EF90DF90CF900895CF93DF93EC0158
:101E50000E94AA19AB01BC01CE01DF91CF91D6CF70
:101E600020E0FC013081332331F02F5F41962A308E
:101E7000C1F78FEF0895822F0895CF92DF92EF92EE
:101E8000FF920F931F93CF93DF9300D01F92CDB794
:101E9000DEB76C01790149835A836B837C83E0DF71
:101EA000282F49815A816B817C818F3FD9F081E154
:101EB0002802C00CD11C112481E0F60180834183EB
:101EC00052836383748316830583F286E1862983B4
:101ED0000E94AA19F6016387748785879687108AFE
:101EE00017862981822F0F900F900F900F90DF910E
:101EF000CF911F910F91FF90EF90DF90CF900895B9
:101F00000F931F930FEF1FEFB8DF1F910F910895ED
:101F10001F920F920FB60F9211240BB60F922F93B0
:101F20003F934F935F936F937F938F939F93AF9361
:101F3000BF93EF93FF93E091420BF091430B199500
:101F4000FF91EF91BF91AF919F918F917F916F9191
:101F50005F914F913F912F910F900BBE0F900FBE4D
:101F60000F901F901895FC01A3E0440F551F661FAA
:101F7000771FAA95D1F74115510581E068077105D2
:101F800014F481E00EC033E0759567955795479539
:101F90003A95D1F74115510581E0680771051CF4A8
:101FA00082E0828331C023E0759567955795479508
:101FB0002A95D1F74115510581E06807710514F4A0
:101FC00083E0EFCF92E075956795579547959A9581
:101FD000D1F74115510581E06807710514F484E0DB
:101FE000E0CF82E075956795579547958A95D1F72B
:101FF00085E082834115510581E06807710524F071
:102000004FEF5FEF60E070E08FB78383F894518308
:102010004083509387004093860083818FBF8091D7
:102020008100887F80938100809181009281892B3B
:102030008093810008951092800020E12093810018
:1020400092CFE1E8F0E02081DC0112968C91282B00
:10205000208308950F931F93CF93DF93EC018B019F
:10206000BA01A90114161506160617060CF47BDF33
:102070001D830C8381E080936F00CE01DF91CF91AF
:102080001F910F91DECFCF93DF93EC01862F6883F2
:1020900062E00E94E21A1A821B821C821D8219824F
:1020A000DF91CF910895EF92FF920F931F93CF93FB
:1020B000DF9300D01F92CDB7DEB77C01FC01808199
:1020C00049835A836B837C830E94501BF7010281F2
:1020D00013812481358149815A816B817C81892BCF
:1020E000F1F4400F511F621F731F428353836483B7
:1020F0007583413A5648614071053CF140EA56E823
:1021000061E070E0F70142835383648375838181CA
:1021100081111BC081E0818381E090E018C0041B25
:10212000150B260B370BF7010283138324833583AA
:1021300037FF0BC01282138214821582818188239B
:1021400021F011828FEF9FEF02C080E090E00F90AE
:102150000F900F900F90DF91CF911F910F91FF90F3
:10216000EF900895EF92FF920F931F93CF93DF9319
:10217000EC017B0186E090E00E945F198C016BE02E
:1021800082DF1B870A8786E090E00E945F198C013E
:102190006AE079DF1D870C8786E090E00E945F1976
:1021A0008C0169E070DF1F870E8786E090E00E9457
:1021B0005F198C0168E067DF198B088BFB8AEA8A5C
:1021C0005FE05C8B61E0698F42E04E8F8AE090E0D7
:1021D0009CA38BA323E030E03EA72DA79EAB8DAB45
:1021E0005D8B6A8F4F8F9EA38DA338AB2FA798AFBF
:1021F0008FAB5E8B4B8F48A322E030E038A72FA334
:1022000021E030E03AAB29AB9AAF89AF5F8B83E036
:102210008C8F49A385E090E09AA789A73CAB2BABB4
:1022200084E190E09CAF8BAF87E0888F4D8F84E096
:102230008AA387E30E946A1A9CA78BA78A899B8935
:1022400000D48A899B89DF91CF911F910F91FF90D4
:10225000EF900DC4CF93DF93FC012481862F90E093
:10226000DC01AA0FBB1FEF01CA0FDB1F211115C034
:102270002DA53EA54217530714F45EA74DA7AE0F38
:10228000BF1FD5962D913C91D69724173507B4F4EE
:10229000D6965C934E93D59711C02DA53EA52417D5
:1022A00035070CF49A01AE0FBF1FD5960D90BC9167
:1022B000A02DA901A217B3070CF4AD019C01220FB8
:1022C000331FDF01A20FB31FC1E093960D90BC91A5
:1022D000A02DA417B50709F4C0E0E20FF31F54A323
:1022E00043A3CC2321F08CEE9AE00E9441098C2F6D
:1022F000DF91CF910895860F911D860F911DFC01EE
:1023000083A194A10895DF92EF92FF920F931F9300
:10231000CF93DF93EC01D62E062F10E07C01E00E68
:10232000F11EF701418D64898A899B898FD3F80159
:10233000EE0FFF1FEC0FFD1F03A114A1F701E68CA8
:10234000F12C81E090E00A30110514F480E090E077
:10235000E81AF90A81E090E00436110514F480E0EF
:1023600090E0E81AF90A81E090E0083EF3E01F07E8
:1023700014F480E090E0E81AF90A21E0E21AF1088A
:102380008A899B891E141F041CF460E280D6F5CF55
:102390004AE050E0B80142D782E0D81659F0D8168A
:1023A00030F0E3E0DE1212C067EA75E005C061EAD2
:1023B00075E002C064EA75E08A899B89DF91CF915C
:1023C0001F910F91FF90EF90DF9060C6DF91CF914A
:1023D0001F910F91FF90EF90DF900895CF93DF93BF
:1023E000EC018C81813069F050F0833079F461E048
:1023F000CE0189DF62E0CE0186DF63E003C064E0E6
:1024000001C060E0CE01DF91CF917DCFDF91CF9110
:102410000895FC01848108950F931F93CF93DF9358
:102420001F92CDB7DEB78C018FEFF801858380EF67
:1024300098E06983A4DCF801828993891ED3F801AE
:1024400082899389FED26981F80164836230B1F197
:10245000C8F46623F9F0613009F0E8C060E08CEF61
:1024600098E00E94760661ED75E0F8018289938913
:102470000DD641E063E0F80182899389E7D265EEE9
:1024800075E02FC0643009F460C080F1653009F454
:1024900073C0CCC060E08CEF98E00E94760669EAD9
:1024A00075E0F80182899389F1D541E060E0F80197
:1024B00082899389CBD26DEB75E013C060E08CEF1D
:1024C00098E00E94760660EF75E0F80182899389B2
:1024D000DDD541E060E0F80182899389B7D265E0FB
:1024E00076E0F80182899389D1D5A0C080E00E946E
:1024F0004E0761E08CEF98E00E9476066AE176E094
:10250000F80182899389C2D541E062E0F8018289AD
:1025100093899CD265EE75E0F80182899389B6D5DE
:1025200042E062E0F8018289938990D26EE276E01F
:10253000F80182899389AAD543E062E0F801828993
:10254000938984D26AE376E0CCCF60E08EEF98E0A6
:102550000E949E0781E00E944E076AE176E0F80142
:102560008289938993D542E066E0F8018289938954
:102570006DD264E476E0B5CF80E00E944E0760E063
:102580008CEF98E00E9476066AE176E0F801828995
:1025900093897CD5F80125AD82899389243031F463
:1025A00042E066E053D26DE476E09BCF41E066E026
:1025B0004DD265E576E0F8018289938967D542E0DE
:1025C00066E0F8018289938941D2F80125AD8289BC
:1025D0009389223039F0233041F0213049F46EE5FF
:1025E00076E015C065E876E012C067E976E00FC0D6
:1025F0006FE976E04BD54AE050E0F80165AD82899D
:10260000938935D663EA76E0F801828993893ED5CD
:1026100043E068E0F8018289938918D2F80166AD39
:1026200077AD4AE050E082899389F8D58CEE9AE044
:1026300025D8F8016481861771F08CEE9AE00E942B
:10264000EA0867EA76E084E49BE00F90DF91CF919F
:102650001F910F9135C50F90DF91CF911F910F9171
:102660000895FC0165AF57AF46AF65E0D5CE1F9327
:10267000CF93DF93EC01162F8D818F3FE9F0FE01A0
:10268000E80FF11D64896F5F418D8A899B89DED1D6
:1026900061ED76E08A899B89F9D48D81FE01E80F8E
:1026A000F11D64896C5F418D8A899B89CFD161ED71
:1026B00076E08A899B89EAD41D831F3F01F1FE01E0
:1026C000E10FF11D64896F5F418D8A899B89BED1BD
:1026D0006AEB76E08A899B89D9D48D81FE01E80F67
:1026E000F11D64896C5F418D8A899B89AFD16CEB48
:1026F00076E08A899B89DF91CF911F91C7C4DF91D2
:10270000CF911F910895AF92BF92CF92DF92EF9237
:10271000FF920F931F93CF93DF93EC0143E060E0B0
:102720008A899B8993D16EEB76E08A899B89AED4A6
:1027300043E060E08A899B8989D188E099E00E9422
:1027400063054AE050E0BC018A899B8967D561ED49
:1027500076E08A899B899AD46091DA0A7091DB0AC3
:102760004AE050E08A899B8959D561ED76E08A89F3
:102770009B898CD46091DC0A7091DD0A4AE050E0BC
:102780008A899B894BD561ED76E08A899B897ED4C5
:102790006091DE0A7091DF0A4AE050E08A899B89E5
:1027A0003DD561ED76E08A899B8970D46091E20A1B
:1027B0007091E30A4AE050E08A899B892FD5D6D5EB
:1027C000CE80DF80E884F9849B01AC012C193D099F
:1027D0004E095F0969017A0157FF06C031E0C31A4B
:1027E000D108E108F10804C06E837F838887998748
:1027F000B701A6018A859B8556DCAA24A3941816E6
:1028000019060CF0A12CB701A601888999894BDC27
:10281000BB24B394181619060CF0B12CB701A6010D
:102820008C859D8540DC31E020E0181619060CF0FF
:1028300030E0032F122FB701A6018E859F8533DC70
:102840001816190614F401501109AA2049F0BB20EA
:1028500069F00115110531F080EF98E090DA02C0BF
:10286000BB2021F088E099E00E94FF028C8181303A
:1028700019F0823081F017C0AA2031F063E0CE0158
:10288000CBDD63ED76E016C0BB2081F18D8188231E
:1028900041F160E029C0AA2049F161E0CE01BCDD30
:1028A00068EF76E007C0AA2069F062E0CE01B4DDEF
:1028B0006BE177E084E49BE003D488E099E00E9438
:1028C000FF0214C0833091F4BB2081F08D818230EF
:1028D00031F0833031F0813031F462E005C063E0E3
:1028E00003C06FEF01C061E0CE01C1DE011511052B
:1028F000C1F06D816F3FA9F0FE01E60FF11DE60FFB
:10290000F11D43A154A1400F511FCE01DF91CF9182
:102910001F910F91FF90EF90DF90CF90BF90AF90FD
:1029200099CCDF91CF911F910F91FF90EF90DF90A5
:10293000CF90BF90AF900895CF93DF93EC0160E00C
:102940008E8179D681E090E059D561E08E8173D691
:1029500081E090E053D560E08E816DD684E690E012
:10296000DF91CF914BC5EF92FF920F931F93CF93BF
:10297000DF938C01C0E0D0E0E62EF12CB7010C2EE5
:1029800002C0759567950A94E2F76170F801EC0F43
:10299000FD1F878150D62196C430D10579F7C80133
:1029A000DF91CF911F910F91FF90EF90C5CFEF92E4
:1029B000FF920F931F93CF93DF938C01C0E0D0E081
:1029C000E62EF12CB7010C2E02C0759567950A947E
:1029D000E2F76170F801EC0FFD1F87812CD621967C
:1029E000C830D10579F7C801DF91CF911F910F91C0
:1029F000FF90EF90A1CF1F93CF93DF93EC01162FA1
:102A0000642F8C8118D68D818F3F11F060E013D632
:102A10008F85612F84FF05C0CE01DF91CF911F917B
:102A2000C6CF70E084E0759567958A95E1F7CE0191
:102A30009ADF612FCE01DF91CF911F9194CF40E0BB
:102A4000DACF61E0FCDF80ED97E0D8C4443008F0D5
:102A500043E0FC012389421710F04FEF420FFC01C5
:102A6000E40FF11D2489260F2068622FE8CFFC01B6
:102A700060896B7F608B6860E2CFFC016089262FE4
:102A80002460208B6C60DBCF0F931F93CF93DF9379
:102A9000EC01423018F08F8588608F874B8B1C8A41
:102AA00080E48D8B6E8B70E0605C7F4F6F8B222398
:102AB00029F0413019F48F8584608F8761E08C8123
:102AC00081D58D818F3F11F061E07CD561E08E81F1
:102AD00079D500E010E08F8584FF03C088E090E0A6
:102AE00002C084E090E0081719074CF4FE01E00FE3
:102AF000F11F61E0878166D50F5F1F4FECCF80E546
:102B000093EC7CD460E08C8196D560E08E8193D587
:102B10008D818F3F11F060E08ED56F8564FD16C00A
:102B200063E0CE0120DF84E991E168D463E0CE0167
:102B30001ADF84E991E162D463E0CE0114DF86E913
:102B400090E05CD462E0CE010EDF11C06062CE0185
:102B500076DF84E991E152D46F856062CE016FDF48
:102B600086E990E04BD46F856062CE0168DF6F85A7
:102B70006062CE0164DF84E0888BCE017EDFCE010F
:102B800060DF82E0898B66E0CE01DF91CF911F91FB
:102B90000F9155CFCF92EF920F93FC0113821282C7
:102BA00086E497E09183808364838FEF85834683F7
:102BB00027830087E186C2861386148615861686CB
:102BC000178620E041E060E1CF010F91EF90CF90B8
:102BD0005BCF41E010DF81E090E00895FC01818D42
:102BE000228D90E0805C9F4F821B91098F73992703
:102BF0000895FC01918D828D981731F0828DE80F38
:102C0000F11D858D90E008958FEF9FEF0895FC01F1
:102C1000918D828D981761F0828DDF01A80FB11D13
:102C20005D968C91928D9F5F9F73928F90E0089537
:102C30008FEF9FEF08958CEB97E1892B39F080E0BF
:102C400090E0892B19F098D1811125C080E090E0A7
:102C5000892B41F080E090E0892B21F00E94000058
:102C600081111CC080E090E0892B41F080E090E071
:102C7000892B21F00E940000811113C080E090E0B8
:102C8000892BA1F080E090E0892B81F00E94000068
:102C900081110AC008950E940000D8CF0E94000050
:102CA000E1CF0E940000EACF0C9400000895FC01DF
:102CB000848DDF01A80FB11DA35ABF4F2C91848DC5
:102CC00090E001968F739927848FA689B7892C93FA
:102CD000A089B1898C9180648C93938D848D981395
:102CE00006C00288F389E02D80818F7D808308955E
:102CF000CF93DF93EC01888D8823C1F0EA89FB89AB
:102D0000808185FD05C0A889B9898C9186FD0EC09A
:102D10000FB607FCF5CF808185FFF2CFA889B9896E
:102D20008C9185FFEDCFCE01C2DFE8CFDF91CF914F
:102D30000895CF92DF92FF920F931F93CF93DF936B
:102D40001F92CDB7DEB76C01DC015B969C915B975F
:102D50005C968C915C97981307C05096ED91FC910E
:102D60005197808185FD31C0F601038D10E00F5F22
:102D70001F4F0F731127F02EF601848DF81210C02B
:102D80000FB607FCF9CFD6015096ED91FC91519703
:102D9000808185FFF1CFC601698389DF6981ECCF2E
:102DA000838DE80FF11DE35AFF4F6083D6015B96D8
:102DB0000C935B975296ED91FC91539780818062C2
:102DC000808381E058968C930DC0D6015696ED9184
:102DD000FC91579760835096ED91FC9151978081BB
:102DE0008064808381E090E00F90DF91CF911F910C
:102DF0000F91FF90DF90CF900895BF92CF92DF9216
:102E0000EF92FF92CF93DF93EC016A017B01B22E28
:102E1000E889F98982E08083411581EE58076105D0
:102E2000710599F060E079E08DE390E0A7019601EB
:102E300036D62150310941095109569547953795A4
:102E40002795211580E1380790F0E889F9891082EB
:102E500060E874E88EE190E0A701960120D6215049
:102E60003109410951095695479537952795EC85C4
:102E7000FD853083EE85FF852083188EEC89FD89E2
:102E8000B082EA89FB89808180618083EA89FB893D
:102E9000808188608083EA89FB8980818068808363
:102EA000EA89FB8980818F7D8083DF91CF91FF90BC
:102EB000EF90DF90CF90BF9008951F920F920FB6C2
:102EC0000F9211240BB60F922F938F939F93EF9332
:102ED000FF93E091540BF091550B8081E0915A0BD8
:102EE000F0915B0B82FD12C0908180915D0B8F5F32
:102EF0008F7320915E0B821751F0E0915D0BF0E033
:102F0000EC5BF44F958F80935D0B01C08081FF9146
:102F1000EF919F918F912F910F900BBE0F900FBE4D
:102F20000F901F9018951F920F920FB60F921124B9
:102F30000BB60F922F933F934F935F936F937F93B3
:102F40008F939F93AF93BF93EF93FF9384E49BE0A2
:102F5000AEDEFF91EF91BF91AF919F918F917F91E5
:102F60006F915F914F913F912F910F900BBE0F90FA
:102F70000FBE0F901F90189584E49BE02FDE21E098
:102F8000892B09F420E0822F08951092470B1092AC
:102F9000460B88EE93E0A0E0B0E08093480B90935E
:102FA000490BA0934A0BB0934B0B8EE497E09093A0
:102FB000450B8093440B85EC90E09093510B8093EC
:102FC000500B84EC90E09093530B8093520B80EC69
:102FD00090E09093550B8093540B81EC90E090938C
:102FE000570B8093560B82EC90E09093590B809393
:102FF000580B86EC90E090935B0B80935A0B1092E9
:103000005D0B10925E0B10925F0B1092600B089597
:10301000CF92DF92EF92FF920F931F93CF93DF93A4
:103020006C017A01EB01E60EF71E00E010E0CE1510
:10303000DF0561F06991D601ED91FC910190F0817D
:10304000E02DC6011995080F191FF1CFC801DF91B6
:10305000CF911F910F91FF90EF90DF90CF90089547
:103060006115710581F0DB010D900020E9F7AD01DC
:1030700041505109461B570BDC01ED91FC91028038
:10308000F381E02D199480E090E00895E9CFDC0110
:10309000ED91FC910190F081E02D19940F931F9315
:1030A000CF93DF93EC016DE0F2DF8C016AE0CE019B
:1030B000EEDF800F911FDF91CF911F910F91089547
:1030C0000F931F93CF93DF93EC01CADF8C01CE01E6
:1030D000E5DF800F911FDF91CF911F910F91089530
:1030E0008F929F92AF92BF92CF92DF92EF92FF9218
:1030F0000F931F93CF93DF93CDB7DEB7A1970FB692
:10310000F894DEBF0FBECDBF7C01C42EE52FCB01EE
:10311000D22E19A221E02D1510F02AE0D22E8E0118
:103120000F5D1F4F8D2C912CA12CB12C6C2D7E2F5F
:10313000A5019401B4D48C2DD29E80191124015084
:1031400011098A3014F4805D01C0895CF801808324
:10315000211531054105510521F0C22EE32FCA0189
:10316000E5CFB801C7017CDFA1960FB6F894DEBFAA
:103170000FBECDBFDF91CF911F910F91FF90EF90C8
:10318000DF90CF90BF90AF909F908F900895CF9297
:10319000DF92EF92FF920F931F93CF93DF93EC0197
:1031A0006A017B012115310579F4E881F9810190EB
:1031B000F081E02D642FDF91CF911F910F91FF904F
:1031C000EF90DF90CF9019942A303105D9F477FF32
:1031D00018C06DE25CDF8C0144275527BA014C19F9
:1031E0005D096E097F092AE0CE017ADF800F911F09
:1031F000DF91CF911F910F91FF90EF90DF90CF90D3
:1032000008952AE0B701A601CE01DF91CF911F9169
:103210000F91FF90EF90DF90CF9062CF9A01AB01BA
:10322000662757FD6095762FB2CF0F931F93CF93EC
:10323000DF93EC019A01AB01662757FD6095762F6D
:10324000A6DF8C01CE012ADF800F911FDF91CF9185
:103250001F910F9108952115310541F4DC01ED9185
:10326000FC910190F081E02D642F199439CF9A01DF
:10327000462F50E060E070E0EECF0F931F93CF93A6
:10328000DF93EC019A01462F50E060E070E0E3DF4D
:103290008C01CE0103DF800F911FDF91CF911F9131
:1032A0000F9108950895B4D0FDDF0E942C0ECBE15C
:1032B000D6E10E94910D2097E1F3BDDCFACF60C406
:1032C0001F920F920FB60F9211242F933F938F935B
:1032D0009F93AF93BF938091E20B9091E30BA091EA
:1032E000E40BB091E50B3091E10B23E0230F2D3778
:1032F00020F40196A11DB11D05C026E8230F0296FA
:10330000A11DB11D2093E10B8093E20B9093E30B81
:10331000A093E40BB093E50B8091E60B9091E70B43
:10332000A091E80BB091E90B0196A11DB11D80930E
:10333000E60B9093E70BA093E80BB093E90BBF91DA
:10334000AF919F918F913F912F910F900FBE0F9052
:103350001F9018952FB7F8946091E20B7091E30BD2
:103360008091E40B9091E50B2FBF08953FB7F8943F
:103370008091E60B9091E70BA091E80BB091E90BDF
:1033800026B5A89B05C02F3F19F00196A11DB11DC0
:103390003FBF6627782F892F9A2F620F711D811DDD
:1033A000911D42E0660F771F881F991F4A95D1F73C
:1033B0000895CF92DF92EF92FF92CF93DF936B014C
:1033C0007C01D4DFEB01C114D104E104F10479F0F4
:1033D000CBD1CCDF6C1B7D0B683E7340A0F381E04A
:1033E000C81AD108E108F108C851DC4FECCFDF91D1
:1033F000CF91FF90EF90DF90CF900895019739F033
:10340000880F991F880F991F02970197F1F7089568
:10341000789484B5826084BD84B5816084BD85B5AF
:10342000826085BD85B5816085BDEEE6F0E0808176
:1034300081608083E1E8F0E0108280818260808397
:10344000808181608083E0E8F0E08081816080831A
:10345000E1EBF0E0808184608083E0EBF0E080814C
:1034600081608083E1E9F0E08081826080838081F7
:1034700081608083E0E9F0E0808181608083E1EA1F
:10348000F0E0808182608083808181608083E0EAD7
:10349000F0E0808181608083E1E2F1E08081826000
:1034A0008083808181608083E0E2F1E080818160BF
:1034B0008083EAE7F0E0808184608083808182609D
:1034C0008083808181608083808180688083109286
:1034D000C1000895863308F0865320917B00982F11
:1034E0009870277F922B90937B0087702091060223
:1034F00090E4299F90011124822B80937C0080917D
:103500007A00806480937A0080917A0086FDFCCFF7
:10351000809178002091790090E0922B089590E0BE
:10352000FC013197E231F10508F04BC0EE58FF4F36
:10353000F4C2809180008F7703C0809180008F7DDE
:1035400080938000089580918000877FF9CF84B5B3
:103550008F7702C084B58F7D84BD08958091B000BF
:103560008F7703C08091B0008F7D8093B000089565
:10357000809190008F7707C0809190008F7D03C06D
:1035800080919000877F8093900008958091A000A3
:103590008F7707C08091A0008F7D03C08091A0002D
:1035A000877F8093A0000895809120018F7707C0C6
:1035B000809120018F7D03C080912001877F8093BF
:1035C00020010895CF93DF9390E0FC01E25BFE4F72
:1035D0002491FC01EC56FE4F8491882349F190E040
:1035E000880F991FFC01E25FFD4FA591B4918C50AB
:1035F0009E4FFC01C591D4919FB7611108C0F8940A
:103600008C91209582238C93888182230AC062301A
:1036100051F4F8948C91322F309583238C938881C8
:10362000822B888304C0F8948C91822B8C939FBF4B
:10363000DF91CF9108950F931F93CF93DF931F9244
:10364000CDB7DEB7282F30E0F901E85FFE4F849157
:10365000F901E25BFE4F1491F901EC56FE4F049123
:103660000023C1F0882319F0698359DF6981E02FB5
:10367000F0E0EE0FFF1FEC50FE4FA591B4919FB705
:10368000F8948C91611103C01095812301C0812BA6
:103690008C939FBF0F90DF91CF911F910F91089551
:1036A000CF93DF93282F30E0F901E85FFE4F84913C
:1036B000F901E25BFE4FD491F901EC56FE4FC49143
:1036C000CC2389F081112BDFEC2FF0E0EE0FFF1FF0
:1036D000E652FE4FA591B4912C912D2381E090E00C
:1036E00021F480E002C080E090E0DF91CF91089566
:1036F000BF92CF92DF92EF92FF920F931F93CF93DF
:10370000DF93C82ED62EB42EC7E0D0E0022F10E0F3
:1037100087E0E82EF12CB1100AC0F701EC1BFD0B7D
:10372000B80102C075956795EA95E2F707C0B80140
:103730000C2E02C0759567950A94E2F761707727A1
:103740008C2D79DF61E08D2D76DF60E08D2D73DFCC
:10375000219708F7DF91CF911F910F91FF90EF9084
:10376000DF90CF90BF90089508955058BB27AA27A7
:103770000ED0E5C0D6D030F0DBD020F031F49F3F42
:1037800011F41EF4CBC00EF4E095E7FBC1C0E92FA5
:10379000E7D080F3BA17620773078407950718F01C
:1037A00071F49EF5FFC00EF4E0950B2EBA2FA02DFC
:1037B0000B01B90190010C01CA01A0011124FF27DE
:1037C000591B99F0593F50F4503E68F11A16F040D9
:1037D000A22F232F342F4427585FF3CF46953795D8
:1037E0002795A795F0405395C9F77EF41F16BA0B9D
:1037F000620B730B840BBAF09150A1F0FF0FBB1F4B
:10380000661F771F881FC2F70EC0BA0F621F731F93
:10381000841F48F4879577956795B795F7959E3FF0
:1038200008F0B3CF9395880F08F09927EE0F97957E
:103830008795089504D06894B111B5C0089598D0C3
:1038400088F09F5790F0B92F9927B751A0F0D1F089
:10385000660F771F881F991F1AF0BA95C9F712C013
:10386000B13081F09FD0B1E008959CC0672F782FD0
:103870008827B85F39F0B93FCCF38695779567957F
:10388000B395D9F73EF490958095709561957F4FEB
:103890008F4F9F4F0895E89409C097FB3EF4909591
:1038A0008095709561957F4F8F4F9F4F9923A9F019
:1038B000F92F96E9BB279395F695879577956795A8
:1038C000B795F111F8CFFAF4BB0F11F460FF1BC0EC
:1038D0006F5F7F4F8F4F9F4F16C0882311F096E97F
:1038E00011C0772321F09EE8872F762F05C066232D
:1038F00071F096E8862F70E060E02AF09A95660FE6
:10390000771F881FDAF7880F9695879597F908959E
:1039100097F99F6780E870E060E008959FEF80EC82
:10392000089500240A941616170618060906089525
:1039300000240A9412161306140605060895092E8B
:103940000394000C11F4882352F0BB0F40F4BF2BFA
:1039500011F460FF04C06F5F7F4F8F4F9F4F08953A
:1039600057FD9058440F551F59F05F3F71F0479530
:10397000880F97FB991F61F09F3F79F08795089515
:10398000121613061406551FF2CF4695F1DF08C034
:10399000161617061806991FF1CF86957105610551
:1039A00008940895E894BB2766277727CB0197F9F9
:1039B00008950BD0C4CFB5DF28F0BADF18F09523F7
:1039C00009F0A6CFABCF1124EECFCADFA0F3959FAD
:1039D000D1F3950F50E0551F629FF001729FBB27F6
:1039E000F00DB11D639FAA27F00DB11DAA1F649FA2
:1039F0006627B00DA11D661F829F2227B00DA11D55
:103A0000621F739FB00DA11D621F839FA00D611DDA
:103A1000221F749F3327A00D611D231F849F600DFB
:103A2000211D822F762F6A2F11249F5750408AF034
:103A3000E1F088234AF0EE0FFF1FBB1F661F771FC0
:103A4000881F91505040A9F79E3F510570F060CFFC
:103A5000AACF5F3FECF3983EDCF3869577956795A8
:103A6000B795F795E7959F5FC1F7FE2B880F911DDE
:103A70009695879597F9089597FB072E16F400946D
:103A800006D077FD08D059D007FC05D03EF49095BC
:103A900081959F4F0895709561957F4F0895A1E29C
:103AA0001A2EAA1BBB1BFD010DC0AA1FBB1FEE1FB8
:103AB000FF1FA217B307E407F50720F0A21BB30B03
:103AC000E40BF50B661F771F881F991F1A9469F77F
:103AD00060957095809590959B01AC01BD01CF01DB
:103AE0000895052E97FB16F400940FD057FD05D0CE
:103AF000D6DF07FC02D046F408C0509540953095BB
:103B000021953F4F4F4F5F4F089590958095709549
:103B100061957F4F8F4F9F4F0895EE0FFF1F0590C8
:103B2000F491E02D19941DD0B7FF0895821B930BDB
:103B300008950790F691E02D1994AA1BBB1B51E143
:103B400007C0AA1FBB1FA617B70710F0A61BB70B0D
:103B5000881F991F5A95A9F780959095BC01CD01B2
:103B60000895A29FB001B39FC001A39F700D811D56
:103B70001124911DB29F700D811D1124911D089576
:103B8000CF93DF938230910510F482E090E0E091D2
:103B9000EC0BF091ED0B20E030E0A0E0B0E03097CE
:103BA00039F14081518148175907B8F04817590732
:103BB00071F482819381109729F013969C938E93D0
:103BC00012972CC09093ED0B8093EC0B27C021151E
:103BD000310531F04217530718F0A901DB0101C08C
:103BE000EF019A01BD01DF010280F381E02DD7CF03
:103BF00021153105F9F0281B390B2430310580F4EB
:103C00008A819B816115710521F0FB019383828379
:103C100004C09093ED0B8093EC0BFE01329644C0F0
:103C2000FE01E20FF31F81939193225031093983F2
:103C300028833AC02091EA0B3091EB0B232B41F4FF
:103C400020910202309103023093EB0B2093EA0B98
:103C500020910002309101022115310541F42DB768
:103C60003EB74091040250910502241B350BE091B0
:103C7000EA0BF091EB0BE217F307A0F42E1B3F0BBE
:103C80002817390778F0AC014E5F5F4F24173507CE
:103C900048F04E0F5F1F5093EB0B4093EA0B81935C
:103CA000919302C0E0E0F0E0CF01DF91CF91089561
:103CB000CF93DF93009709F487C0FC0132971382FA
:103CC0001282C091EC0BD091ED0B209781F42081F2
:103CD0003181280F391F8091EA0B9091EB0B8217ED
:103CE000930779F5F093EB0BE093EA0B6DC0DE01DF
:103CF00020E030E0AE17BF0750F412964D915C9172
:103D000013979D014115510509F1DA01F3CFB383F2
:103D1000A28340815181840F951F8A179B0771F4FC
:103D20008D919C911197840F951F029691838083AA
:103D300012968D919C91139793838283211531055F
:103D400029F4F093ED0BE093EC0B3EC0D9011396F0
:103D5000FC93EE9312974D915D91A40FB51FEA1756
:103D6000FB0779F480819181840F951F0296D90118
:103D700011969C938E938281938113969C938E933C
:103D80001297E0E0F0E08A819B81009719F0FE0134
:103D9000EC01F9CFCE01029628813981820F931F61
:103DA0002091EA0B3091EB0B2817390769F4309713
:103DB00029F41092ED0B1092EC0B02C013821282C8
:103DC000D093EB0BC093EA0BDF91CF910895F89459
:023DD000FFCF23
:103DD2000000EE0B80000100000A0014001D002705
:103DE2000031003B0045004E00580062006C007636
:103DF200007F00890093009D00A000A300A600A9F7
:103E020000AC00AF00B200B500B800BB00BE00C1FC
:103E120000C400D300E200F10000010F011E012ED8
:103E2200013D014C015B016A01790188019901A9F7
:103E320001BA01CA01DA01EA01FB010B021B022BE2
:103E4200023B024C02630278028F02A402BA02D041
:103E520002E502FB02110325033B03510367037DC5
:103E6200039303A903BF03D503FD0323044B047289
:103E7200049904B504D104ED040905250541055D45
:103E82000576058E05A705BF05D805F105F30503DF
:103E92000613062306330643065306630673068398
:103EA200069306A306B306E6060E0735075C0783EC
:103EB20007AA07C607E207FE071A08360852086E65
:103EC2000887089F08B808D008E90801091A0932CA
:103ED20009450959096D0980099409A709BB09CE49
:103EE20009E209F609650A6F0A7A0A830A8E0A98B4
:103EF2000AA20AAC0ABA0ACD0ADC0AEB0AFA0A09D1
:103F02000B180B280B370B460B550B640B730B7FEF
:103F12000B900B9D0BAB0BB80BC50BD20BDF0BEC55
:103F22000BF90B060C130C200C2D0C3B0C430C5CF8
:103F32000C720C880C9E0CB40CCA0CDF0CF50C072E
:103F42000D110D210D320D420D520D620D730D83B7
:103F52000D930DA40DB40DCB0DD50DE60DF60D068A
:103F62000E170E270E370E480E580E690E790E9058
:103F72000EA30EB30EC20ED10EE00EEF0EFE0E0D0C
:103F82000F1C0F2B0F3A0F490F540F002600280069
:103F92002A002C002E0030003200210034011F00C4
:103FA20023002500170019001B0016001A00180034
:103FB200270029002D002BFF626565706572546F22
:103FC200446F203A0020202624252324255E2065E4
:103FD20061726C7920707573682062656570206FFC
:103FE2006666200041434355535441542052455381
:103FF2004554205448452053455353494F4E205071
:1040020045414B20414E442043555252454E542087
:104012005045414B002020616E616C6F67526561B3
:1040220064286169416368696576656450696E29CF
:104032002069732077616B65696E672069742075EA
:10404200700020646966663A200020646973706CAF
:1040520061793A2000206169616E616C6F677265F7
:1040620061643A2000202A2A2A62616C6C20746FF3
:10407200206561726C7920626565702000FC60DAEF
:10408200F266B6BEE0FEF602496E697420436861CC
:104092007267652053797374656D206E657720733E
:1040A200746174653A2020002073657454617267EC
:1040B200657450657263656E743A20002074617293
:1040C20067657450726573737572653A200020617A
:1040D2006950726563686172676550726573737562
:1040E20072653A20004D41535F4C54535F4F4E204E
:1040F20066726F6D206865726500657869742074F8
:104102006F77207377697463682063616C6C2075C4
:10411200692E656E746572537461746500616363C0
:104122007573746174456E746572506F7374486907
:1041320074206361757365642067686F737400200F
:10414200696E42616C616E636546616C73652000E5
:104152005042535F52616973696E675F5365745F62
:1041620042616C616E63654D6F64655F5472756523
:104172000030300030250073003D3D3D20544F5744
:10418200494E47204D4F4445203D3D3D0052657309
:104192006572766F69722050726573737572653AD3
:1041A200002A2A20504F5745522044524956494E20
:1041B20047202A2A005468726573686F6C643A005B
:1041C2002B2B2B2B20494E444956494455414C2018
:1041D2002B2B2B2B002B2B2B2B2020545241494EC7
:1041E200494E4720202B2B2B2B0020535452454E57
:1041F20047544820545241494E494E472000446991
:1042020066666963756C74793A00447572617469A3
:104212006F6E3A004348415247494E470053554357
:10422200434553530053485554444F574E00446935
:1042320066666963756C747920697320736574208E
:10424200746F2068696768206164756A7573742089
:10425200646F776E00486F6C6420736372756D20B3
:104262006C6F6E6765720052656475636520003F0E
:104272003F2000203F3F0075692E4946286C61733C
:1042820074213D537461746529003E003C00202076
:10429200202020202020202020202020202020201C
:1042A2002020005549535F534352554D5F504F579D
:1042B20045522063616C6C65642075692E656E746D
:1042C20065725374617465005549535F5343525587
:1042D2004D5F494E442063616C6C65642075692EA4
:1042E200656E7465725374617465006465666175A8
:1042F2006C74207569206C6F6F7020636173652028
:1043020063616C6C656420656E746572537461746C
:10431200650000000000E915081800000000991669
:0A4322000818EE150716F9157816B5
:00000001FF
