:1000000015C1000044C1000042C1000040C1000011
:100010003EC100003CC100003AC1000038C10000F0
:1000200036C1000034C1000032C1000030C1000000
:100030002EC100002CC100002AC1000028C1000010
:1000400026C1000024C1000022C1000020C1000020
:100050000C94C4121CC100001AC100000C94791C3D
:1000600016C100000C94761A0C94AC1A10C1000052
:100070000EC100000CC100000AC1000008C1000050
:1000800006C1000004C1000002C1000000C1000060
:10009000FEC00000FCC00000FAC00000F8C0000074
:1000A000F6C00000F4C00000F2C00000F0C0000084
:1000B000EEC00000ECC00000EAC00000E8C0000094
:1000C000E6C00000E4C00000E2C00000E0C00000A4
:1000D000DEC00000DCC00000DAC00000D8C00000B4
:1000E000D6C00000C01DC31DB21DB61DBC1DFA1D2B
:1000F000C71DCB1DD11DD51DD91DDF1DE31DE71D5E
:10010000FA1DED1DF11DF51D00000A0B02090C0D75
:100110000E080703040100000000000000000000BA
:1001200000000000000000000000000000000000CF
:10013000000000001211100000000000000000008C
:1001400000000000000000000000000000000102AC
:1001500010202008081020401020408002010201D9
:100160000804020101020408102040808040201091
:1001700008040201800402018040201008040201EA
:100180000804020101020408102040800102040852
:10019000102040800505050507050808080802022B
:1001A00002020A0A08080404040401010101010111
:1001B00001010303030303030303040707070C0CF4
:1001C0000C0C0C0C0C0C02020202060606060606BB
:1001D00006060B0B0B0B0B0B0B0B00002000230078
:1001E000260029002C002F0032000001000003012E
:1001F0000601090100002200250028002B002E0026
:100200003100340002010000050108010B0100006B
:100210002100240027002A002D00300033000101B6
:100220000000040107010A018E11DE1A11241FBE0D
:10023000CFEFD1E2DEBFCDBF00E00CBF19E0A0E000
:10024000B2E0E4E0F4E400E00BBF02C007900D92DE
:10025000A838B107D9F72EE0A8E8B9E001C01D928F
:10026000A132B207E1F712E0CCE2D2E000E006C032
:1002700022970109FE010BBF0E94B220C832D107AC
:1002800080E00807A9F70E946C1C0C940022B8CEED
:1002900061E085E20E94FB1D60E085E20C94341E63
:1002A000CF93DF938091170D882321F0833008F0DE
:1002B00071C024C060918909662309F465C08091EA
:1002C00088099FEF980F90938809823008F062C0E8
:1002D000615060938909617085E20E94341E68EE66
:1002E00073E087E79DE00E945F1B4AE050E0609169
:1002F000890987E79DE00E94561C42C08091050D48
:10030000882359F182EF9CE06DD52091140D309136
:10031000150D821B930B880F991F825C944FFC0173
:10032000C081D18160E08EED9AE00E94BE1424E687
:10033000AC01249FC001259F900D1124C817D90737
:1003400064F460E085E20E94341E1092050D65EFB2
:1003500073E087E79DE00E94791B6091890966231D
:1003600099F0809188099FEF980F909388098230C7
:1003700088F4615060938909617085E20E94341E9F
:100380008AE08093880906C060E085E20E94341EFE
:100390001092120DDF91CF910895DF92EF92FF92AC
:1003A0000F931F93CF93DF93EC01C9318CEFD807E4
:1003B0003CF0C031E7E2DE075CF4D7FF0BC002C0BF
:1003C000C9E1DCEFD195C195D1094AE0D42E0CC02A
:1003D000CFE0D7E2CE0160E177E20E94552068EEDF
:1003E00073E00E945520D62E61E086E10E94341E03
:1003F0003AE0E32EF12CCE01B7010E945520865938
:100400009A4FFC01208140E068E18AE10E94911E40
:1004100004E610E0CE01B8010E945520B7010E9409
:10042000552066597A4FFB01208140E068E18AE15E
:100430000E94911ECE0168EE73E00E945520B80123
:100440000E94552066597A4FFB01208140E068E107
:100450008AE10E94911EED2DF0E0E659FA4F2081CD
:1004600040E068E18AE10E94911E60E086E10E941E
:10047000341E64E070E080E090E0DF91CF911F9146
:100480000F91FF90EF90DF900C94F21C0F931F934D
:10049000CF93DF938C01FC01E453FE4F2081318127
:1004A000EC01C352DE4F2115310509F41882888111
:1004B000811106C0F801E653FE4F8081918101C091
:1004C000C9016BDFF801E452FE4F8081823018F0E1
:1004D000815080830BC088E280838881833020F044
:1004E000833021F4188202C08F5F8883DF91CF911F
:1004F0001F910F910895CF93DF93EC0184EB91E06E
:10050000E7E0F2E0DE0101900D920197E1F7CE0104
:100510008C549E4F66D4BCDEFE01E552FE4F108225
:100520003F97118210823296118210823497118285
:1005300010823896118210823A961082319610827B
:100540003397108231971082319710823897118239
:100550001082369611821082709710823297118223
:100560001082339610823D9610823C97108231960D
:100570001082CB52DE4F1882DF91CF9108958BE12C
:100580000E94691E21E0892B09F420E0822F089542
:10059000FC01E453FE4F11821082329711821082C7
:1005A0001092E90A1092E80A64E174E087E79DE09E
:1005B0000E94791B60E085E20C94341E87529E4FA6
:1005C000FC0160830895FC01E453FE4FDC01A2535B
:1005D000BE4F8D919C91918380830895FF920F93DC
:1005E0001F93CF93DF93EC01F62E8C0108521E4F20
:1005F000F801608365E474E087E79DE00E945F1B7B
:100600004AE050E06F2D87E79DE00E94561CF801FC
:100610008081813051F028F0823081F0833079F18F
:1006200077C0C352DE4F188273C0CE018C549E4FE8
:10063000DF91CF911F910F91FF90C1C3FE01E7524F
:10064000FE4F8081882319F081E071978083FE013D
:10065000E552FE4F88E080833B97DE01AE52BE4FED
:100660008D919C9191838083329711821082329771
:1006700011821082C352DE4F84E0888349C060E05B
:1006800085E20E94341EFE01E752FE4F80818150B8
:100690003D97823050F4DE01A253BE4F8D919C9164
:1006A00011979183808317961C9280819181FE011E
:1006B000E653FE4F2081318128173907F4F49183E6
:1006C00080836BE574E087E79DE00E94791B8E01D3
:1006D0000C521E4FF801808181110FC067E874E051
:1006E00087E79DE00E94791B81E0F801808384E028
:1006F000809389098AE080938809C352DE4F18826B
:100700008CE19DE0DF91CF911F910F91FF90B6C6D4
:10071000DF91CF911F910F91FF900895CF92DF92BB
:10072000EF92FF920F931F93CF93DF93EC0186E23A
:100730009BE00E942B1281111AC086E30E94831D48
:1007400084319140A4F086E29BE00E94281267E980
:1007500074E087E79DE00E945F1B86E30E94831D93
:100760004AE050E0BC0187E79DE00E942E1CCE01CC
:1007700006DF882309F48EC07E0188E2E81A8EEF36
:10078000F80AF7018081882309F484C086E30E9477
:10079000831DBC018E010C541E4FC801D0D2C8016C
:1007A00021D38C01F7018081813009F044C06E01B2
:1007B000FAE2CF1AFEEFDF0AF6018081918178011B
:1007C000E81AF90A349711830083FBE0EF16F1046D
:1007D0000CF460C080E39BE00E943A0E81115AC085
:1007E00063ED74E087E79DE00E945F1B4AE050E004
:1007F000B80187E79DE00E94271C6AED74E087E757
:100800009DE00E945F1BF601608171814AE050E02B
:1008100087E79DE00E942E1CF092E90AE092E80A28
:1008200062E0CE01DF91CF911F910F91FF90EF9089
:10083000DF90CF90D3CE823069F5FE01E752FE4FB4
:100840008081882319F1833028F5FE01E253FE4FA1
:10085000808191817E0124E3E21A2EEFF20AF701F2
:1008600020813181281739078CF49183808364ECCF
:1008700074E087E79DE00E945F1BF7016081718152
:100880004AE050E087E79DE00E942E1CCE52DE4FEA
:1008900019830883DF91CF911F910F91FF90EF9003
:1008A000DF90CF9008950F931F93CF93DF931F9204
:1008B000CDB7DEB78C01698362DE6981882359F088
:1008C000611120C08BE10E94341E60E0C80186DE09
:1008D0006EEE74E00EC06623A9F061E08BE10E9429
:1008E000341E80E090E059DD60E0C80177DE61E110
:1008F00075E087E79DE00F90DF91CF911F910F91F9
:100900000C94791B0F90DF91CF911F910F91089557
:1009100060E064DE6DE275E087E79DE00C94791B92
:1009200061E05CCE6F927F928F929F92AF92BF9266
:10093000CF92DF92EF92FF920F931F93CF93DF93AB
:10094000EC01AEDCCE01A2DD7E0128E2E21A2EEF40
:10095000F20AF7018081823029F0833009F09FC1CB
:1009600061E08CC16E01FEE2CF1AFEEFDF0A5E018C
:100970002AE2A21A2EEFB20AF60180819181F501D6
:1009800020813181821B930B97FF02C080E090E0B1
:10099000FC01EE0FFF1FEC0FFD1F608071808E01C8
:1009A00007521E4FF8018081813049F120F08230DA
:1009B00009F449C08CC0FE01E453FE4F808191814F
:1009C0008615970514F47182608280819181FE0101
:1009D000E653FE4F20813181281739070CF077C08C
:1009E000918380833A968081811171C081E08083F8
:1009F00084E0809389098AE08093880968C0FCE3D9
:100A00006F1671040CF463C060E08EED9AE00E94F2
:100A1000BE1424E6AC01249FC001259F900D112433
:100A2000FE018615970524F5E853FE4F8081882343
:100A3000A9F161E085E20E94341E81E0FE01E953E4
:100A4000FE4F808344C0FCE36F1671040CF43FC07A
:100A500060E08EED9AE00E94BE1424E6AC01249F73
:100A6000C001259F900D1124FE0186159705D4F035
:100A7000E652FE4F8081882351F14E0157E3851ADB
:100A80005EEF950AF4018081882341F067E475E008
:100A900087E79DE00E94791BF4011082FE01E2537A
:100AA000FE4F06C0E853FE4F80818111C2CF3696BB
:100AB000808191818615970554F471826082329706
:100AC000808191818615970514F47182608286E396
:100AD0000E94831D4E01FCE48F1AFEEF9F0ABC01A9
:100AE000C4012DD1F8018081FE01811114C0E453AD
:100AF000FE4F80819181181619060CF0D0C0C401F8
:100B000071D1F50120813181821B930B06970CF086
:100B1000C6C063E0B3C0E552FE4F9081992311F047
:100B200091509083813021F0823009F45FC0B7C0CA
:100B3000FE01E253FE4F808191818E0104531E4FCE
:100B4000F801208131812817390724F591838083AA
:100B500064EC74E087E79DE00E945F1BF801608110
:100B600071814AE050E087E79DE00E94271C62E522
:100B700075E087E79DE00E945F1BF601608171814F
:100B80004AE050E087E79DE00E942E1CF80180813A
:100B9000918103DCF7018081823009F080C07E0101
:100BA000F6E2EF1AFEEFFF0AF7018081882309F4CD
:100BB00076C0F80180819181181619060CF06FC07B
:100BC000C40110D1F50120813181821B930B06975E
:100BD0000CF065C0F80180819181681679060CF0EF
:100BE0005EC063E0CE01FADCF70158C0FE01E253BB
:100BF000FE4F808191818E0104531E4FF8012081A8
:100C000031812817390724F59183808364EC74E0DF
:100C100087E79DE00E945F1BF801608171814AE0D7
:100C200050E087E79DE00E94271C62E575E087E7BA
:100C30009DE00E945F1BF601608171814AE050E0F7
:100C400087E79DE00E942E1CF80180819181A5DB41
:100C5000F7018081823019F58E0106521E4FF8018E
:100C600080818823E1F080914F0D8823C1F063E0FB
:100C7000CE01B4DC10924F0DF80110C0CE01DF910F
:100C8000CF911F910F91FF90EF90DF90CF90BF9089
:100C9000AF909F908F907F906F90A0CC1082DF914B
:100CA000CF911F910F91FF90EF90DF90CF90BF9069
:100CB000AF909F908F907F906F90089587529E4F36
:100CC000FC018081089588529E4FFC018081089527
:100CD00086529E4FFC0160830895EF92FF920F931E
:100CE0001F93CF93DF937C01EC01CC54DE4FCE01F8
:100CF00066D005E010E086E30E94831DBC01CE01B2
:100D00001ED001501109B9F7CE016CD0E701CA52CB
:100D1000DE4F9983888362E675E087E79DE00E9455
:100D20005F1B688179814AE050E087E79DE0DF91B1
:100D3000CF911F910F91FF90EF900C942E1CCF92AA
:100D4000DF92EF92FF920F931F93FC018B01818141
:100D5000DF01A80FB11DA80FB11D1296CD90DC9038
:100D60001397EE24D7FCE094FE2C448555856685C8
:100D700077854C195D096E097F0913961C930E93B4
:100D80001297222717FD2095322F400F511F621F07
:100D9000731F44875587668777879081953010F455
:100DA0009F5F90838F5F853010F4818301C0118233
:100DB0001F910F91FF90EF90DF90CF900895FC016D
:100DC0001082118213821282158214821782168277
:100DD0001186108613861286148615861686178647
:100DE0000895EDCFFC01208130E040E050E06485C3
:100DF0007585868597850E948A20C9010895FC0122
:100E000010828CEB92E0928381838CEA93E094834E
:100E1000838315820895CF93C62FFC01608365E715
:100E200075E087E79DE00E945F1B4AE050E06C2F71
:100E300087E79DE0CF910C94561CCF93DF93EC0194
:100E400061E084E30E94FB1D60E084E30E94341EA5
:100E500060E08EE10E94FB1D18821982DF91CF9124
:100E60000895CF93FC012081211102C0C18101C0EE
:100E7000C1E08EE10E94691ECC2369F081110DC092
:100E800061E08FE10E94341E84E30E94691E892B79
:100E900071F461E008C08111F7CF84E30E94691EFC
:100EA000892B29F060E084E3CF910C94341ECF911C
:100EB0000895FC01608364E975E087E79DE00E9486
:100EC000791B86E29BE00E942B12811104C086E20E
:100ED0009BE00C9428120895EF92FF920F931F93BA
:100EE000CF93DF931F92CDB7DEB77C0187E30E94DB
:100EF000831D8C01F701818192819C012456310967
:100F0000021713070CF48C01F7012081213031F115
:100F100030F02230B9F1233009F453C067C008170C
:100F20001907D4F461E082E39BE0C3DF6FEB75E067
:100F300087E79DE00E945F1B4AE050E0B80187E729
:100F40009DE00E942E1C61E080E30E94341E82E03E
:100F5000F701858361E041C060E029C0F701858128
:100F6000823098F58EE10E94691E892B09F43EC0FB
:100F700060E080E30E94341E61E087E10E94341E3D
:100F800062E02BC0F701838194818017910774F48C
:100F900060E087E129830E94341E60E082E39BE0E9
:100FA00088DF2981F701258363E017C061E087E1CD
:100FB0000F90DF91CF911F910F91FF90EF900C94C4
:100FC000341EF7018581823018F0815085830EC070
:100FD00060E080E30E94341E60E0C7010F90DF9163
:100FE000CF911F910F91FF90EF9015CF0F90DF9150
:100FF000CF911F910F91FF90EF900895FC016183B5
:101000000895FC0110820895CF92DF92EF92FF9233
:10101000CF93DF93EC016A017B018B859C85AD85C5
:10102000BE859A01AB01281B390B4A0B5B0BDA0119
:10103000C90149815A816B817C8184179507A60774
:10104000B707D8F08881813019F0823029F00CC0C0
:10105000E985FA85199508C061E08885811160E00D
:1010600068878F810E94341ECB86DC86ED86FE86E3
:101070008F8598890196988B8F878D819E8197FDAA
:1010800006C02F853889281739070CF01882DF91A0
:10109000CF91FF90EF90DF90CF900895FF920F9344
:1010A0001F93CF93DF93CDB7DEB7AD970FB6F8940C
:1010B000DEBF0FBECDBF60E08CE00E94FB1D8DE265
:1010C000EBEBF3E0DE01119601900D928A95E1F7CA
:1010D00010E0812F90E0E1E0F0E0EC0FFD1FE80F61
:1010E000F91FF0802FEFF21689F0E2E0F0E0EC0F4C
:1010F000FD1FE80FF91F008161E0802F0E94FB1D9A
:101100006F2D802F0E94341E1E5FE3CFAD960FB669
:10111000F894DEBF0FBECDBFDF91CF911F910F912D
:10112000FF9008958DE30E94831D21E0883C910586
:101130000CF020E0822F0895CF93DF93EC016D2F08
:10114000661F6627661F81E20E94341E61E01C163E
:101150001D060CF060E082E3DF91CF910C94341E09
:10116000CF93DF93EC0181309105D1F460E086E20A
:101170000E94341E61E088E20E94341E62E370E047
:1011800080E090E00E94F21C60E088E20E94341E41
:1011900062E370E080E090E0DF91CF910C94F21C6C
:1011A0006D2F661F6627661F86E20E94341E61E06F
:1011B0001C161D060CF060E088E2DF91CF910C94C4
:1011C000341ECF93C82F682F89E10E94341E81E01E
:1011D0008093130DC13039F464ED75E087E79DE02D
:1011E000CF910C94791BCF910895FC011382128248
:1011F0001182108208951F93CF93DF93EC01162F75
:1012000062EE75E087E79DE00E945F1B4AE050E0D8
:10121000612F87E79DE00E94561C1883113049F02A
:1012200028F0123061F48FEF9FEF05C080E090E06E
:1012300002C081E090E0DF91CF911F917DCFDF91DF
:10124000CF911F910895CF93DF93EC018EE30E941D
:10125000831D2881213019F0223059F00FC02A81D6
:101260003B818217930754F060E0CE01DF91CF916C
:10127000C2CF2A813B8128173907B4F7DF91CF917C
:101280000895CF93DF93EC018981662341F08111AA
:101290000CC060E0CE01AFDF81E0898306C0882307
:1012A00021F060E0CE01A7DF1982DF91CF91089590
:1012B000CF93DF93EC016536710514F064E670E0BE
:1012C00077FF02C060E070E0882777FD8095982F57
:1012D0000E94661F23E333E343E350E40E94F21FBE
:1012E00020E030E040E253E40E94CF1E0E94331F12
:1012F0007B836A838EE30E94831D2A813B81821750
:10130000930714F461E004C0281739072CF462E055
:10131000CE01DF91CF916FCFDF91CF910895FC0186
:1013200082E086AB16A617A610AA11AA14AE1082E8
:1013300011821282138210AE11AE12AE13AE15AA34
:1013400087AB15821482138A128A17821682178E2F
:10135000168E13A612A615A614A612AA13AA14AACC
:1013600008950F931F93CF93DF93EC01DBDE882367
:10137000A9F0D8DE882301F18FA98230E9F082E05C
:101380008FAB62E076E087E79DE00E94791B60E02A
:101390008EED9AE00E944F1560E00BC08FA981305E
:1013A00059F081E08FAB6EA98EED9AE00E944F1547
:1013B00061E08BE10E94341E8EED9AE00E944C1594
:1013C000082F86E29BE00E942B12182F002391F039
:1013D000813081F461E08EE39BE065DA61E089E2CF
:1013E0009BE0DED4033008F43CC061E084E39BE082
:1013F00048DF37C08CE00E94691E892B61F460E0F1
:101400008EE39BE050DA60E089E29BE0C9D460E0C3
:1014100084E39BE036DF61E0111101C060E08EE201
:101420000E94341E8DA9882319F0853091F01BC0CD
:1014300060E08AE20E94341E87E30E94831DAC01B3
:1014400064E08EED9AE0DF91CF911F910F910C94A3
:101450006F148CA9882339F081E08093E70A1CAAD5
:1014600002C061E0DCCFDF91CF911F910F91089511
:10147000FC0116A617A610AA11AA0895CF93DF9310
:10148000EC011EA61FA618AA19AA6EA9623021F1A6
:101490008EED9AE00E944F1567E176E087E79DE0C8
:1014A0000E945F1B4AE050E06EA987E79DE00E9422
:1014B000501C64E276E087E79DE00E945F1B8EEDA2
:1014C0009AE00E944C154AE050E0682F87E79DE0C3
:1014D000DF91CF910C94561CDF91CF910895CF935B
:1014E000DF93EC016DAB8FEF860F833008F46EABAA
:1014F0006330F1F058F4613089F0623009F04CC08B
:1015000026E430E04DE350E060E00DC0643041F18E
:10151000653009F041C088E08CAF3EC026E430E081
:101520004DE350E061E089E29BE0DF91CF9148C458
:1015300061E084E39BE0A5DE62E08EED9AE00E942C
:10154000BE142AE0289FB001299F700D112484E366
:101550009BE0AEDE2CE330E04DE350E062E0E3CF11
:101560000E94C31C68AF79AF8AAF9BAF63E08EED7A
:101570009AE00E94BE1428EE33E0DC010E94AC2009
:101580006EA77FA788AB99AB6CE276E087E79DE01A
:10159000DF91CF910C94791BDF91CF910895623048
:1015A00049F48AE0849FB001859F700D112484E383
:1015B0009BE07ECE0895FC01138A128A60E070E001
:1015C000DB011496AA0FBB1FAE0FBF1F2D913C91DC
:1015D00082899389820F931F938B828B6F5F7F4FDA
:1015E0006530710569F7828993890E945520CB0186
:1015F0000895FC01178E168E60E070E0DB011A96EC
:10160000AA0FBB1FAE0FBF1F2D913C91868D978DEA
:10161000820F931F978F868F6F5F7F4F65307105A5
:1016200069F7868D978D0E945520CB0108950F9301
:101630001F93CF93DF93EC010C811D8182E40E9404
:10164000831DF8013496EE0FFF1FEC0FFD1F9183F1
:101650008083EC81FD813496EE0FFF1FEC0FFD1FA0
:1016600080819181893791055CF4EC81FD8134960C
:10167000EE0FFF1FEC0FFD1F80819181CA977CF454
:101680008C819D81892BB9F4EC81FD8188899989B0
:101690003496EE0FFF1FEC0FFD1F918380838C812A
:1016A0009D8101969D838C838C819D81059779F422
:1016B0001D821C820CC0EC81FD81AC81BD81139622
:1016C000AA0FBB1FAC0FBD1F8D919C91E1CFDF9185
:1016D000CF911F910F9108950F931F93CF93DF9395
:1016E000EC010E811F8183E40E94831DF8013A966C
:1016F000EE0FFF1FEC0FFD1F91838083EE81FF81B2
:101700003A96EE0FFF1FEC0FFD1F80819181893704
:1017100091055CF4EE81FF813A96EE0FFF1FEC0F0E
:10172000FD1F80819181CA977CF48E819F81892BD6
:10173000B9F4EE81FF818C8D9D8D3A96EE0FFF1FDF
:10174000EC0FFD1F918380838E819F8101969F8383
:101750008E838E819F81059779F41F821E820CC033
:10176000EE81FF81AE81BF811996AA0FBB1FAC0F1E
:10177000BD1F8D919C91E1CFDF91CF911F910F9172
:1017800008958F929F92AF92BF92CF92DF92EF9285
:10179000FF920F931F93CF93DF931F921F92CDB7AA
:1017A000DEB78C0180E39BE065D2882321F0C8017D
:1017B0003EDFC80191DFF80186A597A5A0A9B1A9D0
:1017C000892B8A2B8B2B09F419C181E080934E0D54
:1017D00082A593A59A83898310924E0D86E30E9479
:1017E000831D7C018139F1E09F07A4F061E576E07B
:1017F00087E79DE00E94791BF80116A617A610AA9C
:1018000011AAA7014059514063E08EED9AE00E9471
:101810007116F4C00E94C31C4B015C01F80180AD3D
:1018200091ADA2ADB3AD88169906AA06BB0698F491
:10183000C0ACD1ACE2ACF3ACC094D094E094F094E2
:10184000C80CD91CEA1CFB1C63E776E087E79DE027
:101850000E94791B0BC0F80180AD91ADA2ADB3AD74
:1018600075016401C81AD90AEA0AFB0AF80180AEB8
:1018700091AEA2AEB3AE86A597A5A0A9B1A98C19C9
:101880009D09AE09BF0986A797A7A0ABB1AB86A5F6
:1018900097A5A0A9B1A9C297A105B10508F0AEC04E
:1018A00016A617A610AA11AA61E083E20E94341EB0
:1018B0001092500D6EE776E087E79DE00E94791B5D
:1018C00063EA76E087E79DE00E945F1B60914F0D21
:1018D00070E04AE050E087E79DE00E94271C64EB3F
:1018E00076E087E79DE00E945F1B6091500D70E0FD
:1018F0004AE050E087E79DE00E94271C64EC76E018
:1019000087E79DE00E945F1B6091130D70E04AE045
:1019100050E087E79DE00E94271C65ED76E087E7B1
:101920009DE00E945F1B6091120D70E04AE050E064
:1019300087E79DE00E94271C63EE76E087E79DE045
:101940000E945F1B6091E70A70E04AE050E087E781
:101950009DE00E942E1C6AEF76E087E79DE00E94E2
:101960005F1B8EE39BE0AFD94AE050E0682F87E72A
:101970009DE00E94501C60E077E087E79DE00E94B8
:101980005F1B89E29BE032D24AE050E0682F87E794
:101990009DE00E94501C66E077E087E79DE00E9492
:1019A0005F1B86E29BE057D54AE050E0682F87E74F
:1019B0009DE00E94501C6CE077E087E79DE00E946C
:1019C0005F1B8EED9AE00E944C154AE050E0682FB4
:1019D00087E79DE00E94561C0E94C31CF8016083AB
:1019E00071838283938340E050E064E08EED9AE05F
:1019F0000E9471168EE39BE00E94E3020F900F900D
:101A0000DF91CF911F910F91FF90EF90DF90CF90DA
:101A1000BF90AF909F908F900895CF92DF92EF92FA
:101A2000FF920F931F93CF93DF938C01CC24CA9422
:101A3000DC2CE12CF12C82E40E94831DE701CC0F09
:101A4000DD1FC00FD11F9987888783E40E94831D03
:101A50009D8B8C8B888599858937910524F48885A1
:101A60009985CA9744F4E114F10449F5F801808995
:101A70009189918780878C899D898937910524F484
:101A80008C899D89CA9744F4E114F10419F5F80191
:101A9000848D958D958B848BFFEFEF1AFF0A8FEF66
:101AA000C81AD80AE5E0EE16F10429F6DF91CF91C5
:101AB0001F910F91FF90EF90DF90CF900895F60166
:101AC0003496EE0FFF1FE00FF11F808191819987FF
:101AD0008887D1CFF6013A96EE0FFF1FE00FF11F76
:101AE000808191819D8B8C8BD7CFFC0185A9089536
:101AF000FC01118221E0208308950895CF93DF93A4
:101B0000EC0189818823A1F061111AC019828BE24E
:101B10000E94341E60E08DE20E94341E60E089E283
:101B20000E94341E60E087E2DF91CF910C94341E56
:101B3000662331F081E089838CE19DE06EDF1882BD
:101B4000DF91CF9108950F931F93CF93DF9300D030
:101B50001F92CDB7DEB78C01FC018081811105C0D9
:101B600089E29BE043D1882359F0F80181818823E1
:101B700009F477C089E29BE039D18823D9F071C09C
:101B800061E08DE20E94341E61E087E20E94341E13
:101B900062E370E080E090E00E94F21C60E08DE281
:101BA0000E94341E60E087E20E94341E81E0F8014A
:101BB0008083DBCF8CE19DE0FEDC9C838B838CE11A
:101BC0009DE017DD9A8389838B819C811816190605
:101BD0000CF047C089819A81181619060CF041C093
:101BE0008B819C8129813A81821B930B8F3F9F4F70
:101BF000ACF461E08DE20E94341E62E370E080E0AC
:101C000090E00E94F21C60E08DE20E94341E66E9C2
:101C100070E080E090E00E94F21C23C08B819C81E8
:101C200029813A81821B930B02972CF060E08DE2B0
:101C30000E94341E16C063E177E087E79DE00E94B2
:101C4000791B8EE39BE00E94900464E670E080E0E4
:101C500090E00E94F21C8EE39BE03FD860E0C80158
:101C60004DDF0F900F900F900F90DF91CF911F914C
:101C70000F910895FC0181810895FC011482138263
:101C8000128211821082168215820895CF93DF93FB
:101C9000EC016C8364E277E087E79DE00E945F1BC4
:101CA0004AE050E06C8187E79DE00E94561C8C81E1
:101CB000813099F078F0823019F1833021F580E09D
:101CC00090E04EDA82E08E8361E080E39BE0DF917A
:101CD000CF9114CF80E090E010C060E08AE20E94D3
:101CE000341E61E377E087E79DE00E94791B8EE375
:101CF0009BE00E9488048FEF9FEFDF91CF9130CA65
:101D000081E090E0FACFDF91CF9108950F931F9378
:101D1000CF93DF931F921F92CDB7DEB78C0181E086
:101D200080934E0D8091460D9091470D9A83898343
:101D300010924E0DF8018481823081F08330E1F001
:101D4000813039F589819A812081318128173907BD
:101D500004F161E08AE20E94341E0CC089819A81FC
:101D6000F801228133818217930724F063E0C801D0
:101D70008DDF0FC062E0FBCFF80186819FEF980FE7
:101D80009683811106C060E0C80180DF8CE19DE090
:101D90006FDB0F900F90DF91CF911F910F910895FE
:101DA000FC012581662329F0211109C021E025834A
:101DB0000895222321F0FC01158260E067CF089589
:101DC000CF93DF93EC01598348833B832A838EE3CF
:101DD0009BE00E94DE0261E0CE0158DF65E577E01E
:101DE00087E79DE0DF91CF910C94791BFC01848102
:101DF00008958CE20E94691E61E0892B09F060E081
:101E00008CE20C94341ECF92DF92EF92FF920E94EC
:101E1000C31C6B017C018EE39BE00E94920488E36B
:101E20009BE05AD884E39BE00EDA82E39BE019D86A
:101E30008CE19DE096DA80E39BE05FDE89E29BE047
:101E400065DF86E29BE0F3D28EED9AE00AD60E942F
:101E5000C31C6C197D097093E10A6093E00AFF903E
:101E6000EF90DF90CF90089580914E0D8111C4C006
:101E7000E091480DF091490DEE0FFF1FE45CF24F29
:101E8000808191812091460D3091470D65E070E091
:101E90000E945520261B370B3093470D2093460D8B
:101EA00084E40E94831D9C012A53310927313105A6
:101EB000D0F08091480D9091490DE091480DF0913E
:101EC000490D892B29F48091440D9091450D0FC047
:101ED000A091480DB091490DAA0FBB1FA65CB24F4F
:101EE0008D919C9104C0E091480DF091490DEE0F49
:101EF000FF1FE45CF24F91838083E091480DF091E5
:101F0000490DEE0FFF1FE45CF24F8081918120911B
:101F1000460D3091470D65E070E00E945520260F78
:101F2000371F3093470D2093460D8EED9AE0B4D5C0
:101F3000843031F58EE39BE00E945E06823001F52D
:101F40008EE39BE00E9463068230D1F4E091480D5D
:101F5000F091490DEE0FFF1FE45CF24F80819181FB
:101F60008F3491056CF061E089E29BE08FDE40E008
:101F700050E061E08EED9AE0B4D681E08093E60A0D
:101F80008091060D882321F18FE30E94831D863402
:101F9000910534F080E40E94831D86349105C4F4D9
:101FA00061E08EE39BE00E9468061092060D81E0DE
:101FB0008093070D8EE39BE00E945E06823041F421
:101FC00064E08CE19DE08BDA64E08EED9AE067D509
:101FD0008091480D9091490D01969093490D809301
:101FE000480D8091480D9091490D059729F4109264
:101FF000490D1092480D089508958F929F92AF92C7
:10200000BF92CF92DF92EF92FF920F931F930E94A5
:10201000C31C6B017C018EED9AE0B8D68EE39BE089
:102020000E948E0380E39BE025DE882319F080E385
:102030009BE089DD80911C0D90911D0DA0911E0DDE
:10204000B0911F0D892B8A2B8B2B09F4D9C00E94CC
:10205000C31C00911C0D10911D0D20911E0D30917F
:102060001F0D061717072807390788F400911C0D64
:1020700010911D0D20911E0D30911F0D4B015C0123
:10208000801A910AA20AB30A9501840110C0009136
:102090001C0D10911D0D20911E0D30911F0D0095EE
:1020A000109520953095060F171F281F391F0131F5
:1020B00017422105310508F4A3C060E083E20E94C5
:1020C000341E10921C0D10921D0D10921E0D1092B8
:1020D0001F0D81E080934F0D8093500D68E777E0EE
:1020E00087E79DE00E94791B63EA76E087E79DE041
:1020F0000E945F1B60914F0D70E04AE050E087E75F
:102100009DE00E94271C64EB76E087E79DE00E943B
:102110005F1B6091500D70E04AE050E087E79DE062
:102120000E94271C64EC76E087E79DE00E945F1B1D
:102130006091130D70E04AE050E087E79DE00E9457
:10214000271C65ED76E087E79DE00E945F1B6091AC
:10215000120D70E04AE050E087E79DE00E94271CE6
:1021600063EE76E087E79DE00E945F1B6091E70ADF
:1021700070E04AE050E087E79DE00E942E1C6AEF85
:1021800076E087E79DE00E945F1B8EE39BE00E9464
:1021900063064AE050E0682F87E79DE00E94501CEC
:1021A00060E077E087E79DE00E945F1B89E29BE0AB
:1021B0001DDE4AE050E0682F87E79DE00E94501C3A
:1021C00066E077E087E79DE00E945F1B86E29BE088
:1021D00042D14AE050E0682F87E79DE00E94501C02
:1021E0006CE077E087E79DE00E945F1B8EED9AE050
:1021F00053D44AE050E0682F87E79DE00E94561CC8
:102200008CE19DE0BEDA0E94C31C6C197D097093BD
:10221000DF0A6093DE0A84E39AE053D18AE899E00A
:102220001F910F91FF90EF90DF90CF90BF90AF90F4
:102230009F908F9046C10F931F93CF93DF93C0E081
:10224000D0E005E010E084E40E94831DFE01EE0F63
:10225000FF1FE45CF24F9183808380819181209104
:10226000460D3091470DB8010E945520260F371FAB
:102270003093470D2093460D83E40E94831DFE0199
:10228000EE0FFF1FE05DF24F9183808382E40E9496
:10229000831DFE01EE0FFF1FEC5DF24F91838083E3
:1022A0002196C530D10579F6DF91CF911F910F911D
:1022B00008950E944E0826E040E855E260E070E094
:1022C00087E79DE00E94161A20E044E064E189E57A
:1022D0009DE0F3D623E03FE049E150E060E070E0AC
:1022E00084E39AE049D129EF3EE040E85EEE66E300
:1022F00070E08AE899E040D19EDF40E75BE062E071
:1023000070E081E79DE0D3D12FEF3FEFA90164E3B7
:102310007FE081E79DE0DAD178940895CF92EF9243
:102320000F93B7E0CB2E06E0E02E05E024E043E07B
:1023300062E089E59DE047D78CE19DE00E948F092E
:102340008EE39BE00E947B0288E39BE00E94FF06F5
:1023500084E39BE00E94F50882E39BE00E941D0756
:1023600080E39BE0C5DB89E29BE087DC86E29BE0C3
:1023700071D069E57DE08EED9AE030D284E39AE099
:102380006DD08AE899E00F91EF90CF9067C01F93CE
:10239000CF93DF93EC01162F6FE977E087E79DE09D
:1023A0000E945F1B4AE050E0612F87E79DE00E949A
:1023B000561C1883112319F0113091F034C060E0DD
:1023C0008BE10E94341E8EE10E94691E892B29F048
:1023D00060E082E39BE00E94FE0760E08FE11EC0A8
:1023E0008EED9AE059D3833028F061E082E39BE0E0
:1023F0000E94FE0761E08FE10E94341E80E596E4B2
:102400009A8389838CE00E94691E019761F48DE3B1
:102410000E94831D019739F461E08BE1DF91CF9138
:102420001F910C94341EDF91CF911F910895FC01F0
:102430002081213061F421813281121613062CF49F
:102440002150310932832183089560E0A0CF08959F
:1024500061E09DCFFDCFFC01808108950F931F9314
:10246000CF93DF93EC018C0106551F4FCE010E94E4
:1024700001086196C017D107C9F7DF91CF911F916D
:102480000F910895CF92DF92EF92FF921F93CF9317
:10249000DF936A017B01EC011AE08881882329F02F
:1024A000B701A601CE010E940408115061961111D6
:1024B000F4CFDF91CF911F91FF90EF90DF90CF90FD
:1024C0000895CF93DF93EC010E94C31CAB01BC01C4
:1024D000CE01DF91CF91D6CF20E0FC0130813323B4
:1024E00031F02F5F41962A30C1F78FEF0895822F88
:1024F0000895CF92DF92EF92FF920F931F93CF93A5
:10250000DF9300D01F92CDB7DEB76C01790149830C
:102510005A836B837C83E0DF282F49815A816B814A
:102520007C818F3FD9F081E12802C00CD11C11249D
:1025300081E0F60180834183528363837483168331
:102540000583F286E18629830E94C31CF601638716
:10255000748785879687108A17862981822F0F9026
:102560000F900F900F90DF91CF911F910F91FF90DF
:10257000EF90DF90CF9008950F931F930FEF1FEF11
:10258000B8DF1F910F9108951F920F920FB60F920F
:1025900011240BB60F922F933F934F935F936F933A
:1025A0007F938F939F93AF93BF93EF93FF93E091AC
:1025B000750DF091760D1995FF91EF91BF91AF9147
:1025C0009F918F917F916F915F914F913F912F914B
:1025D0000F900BBE0F900FBE0F901F901895FC012F
:1025E000A3E0440F551F661F771FAA95D1F7411529
:1025F000510581E06807710514F481E00EC033E0F5
:1026000075956795579547953A95D1F741155105B9
:1026100081E0680771051CF482E0828331C023E009
:1026200075956795579547952A95D1F741155105A9
:1026300081E06807710514F483E0EFCF92E07595AF
:102640006795579547959A95D1F74115510581E0C2
:102650006807710514F484E0E0CF82E07595679512
:10266000579547958A95D1F785E0828341155105A5
:1026700081E06807710524F04FEF5FEF60E070E0E4
:102680008FB78383F894518340835093870040939E
:10269000860083818FBF80918100887F8093810035
:1026A000809181009281892B8093810008951092FE
:1026B000800020E12093810092CFE1E8F0E02081CA
:1026C000DC0112968C91282B208308950F931F9381
:1026D000CF93DF93EC018B01BA01A9011416150603
:1026E000160617060CF47BDF1D830C8381E08093B4
:1026F0006F00CE01DF91CF911F910F91DECFCF936D
:10270000DF93EC01862F688362E00E94FB1D1A8232
:102710001B821C821D821982DF91CF910895EF9256
:10272000FF920F931F93CF93DF9300D01F92CDB7EB
:10273000DEB77C01FC01808149835A836B837C83F3
:102740000E94691EF701028113812481358149812C
:102750005A816B817C81892BF1F4400F511F621FDC
:10276000731F4283538364837583413A56486140A3
:1027700071053CF140EA56E861E070E0F701428300
:10278000538364837583818181111BC081E08183C0
:1027900081E090E018C0041B150B260B370BF701E6
:1027A000028313832483358337FF0BC01282138285
:1027B000148215828181882321F011828FEF9FEF8F
:1027C00002C080E090E00F900F900F900F90DF918B
:1027D000CF911F910F91FF90EF900895EF92FF928C
:1027E0000F931F93CF93DF93EC017B0186E090E082
:1027F0000E94781C8C016BE082DF1B8B0A8B86E0C9
:1028000090E00E94781C8C016AE079DF1D8B0C8BB4
:1028100086E090E00E94781C8C0169E070DF1F8BDD
:102820000E8B86E090E00E94781C8C0168E067DFE8
:10283000198F088FFB8EEA8E5FE05C8F61E069A3E1
:1028400042E04EA38AE090E09CA78BA723E030E013
:102850003EAB2DAB9EAF8DAF5D8F6AA34FA39EA7FE
:102860008DA738AF2FABFE01FF96918380835E8FDB
:102870004BA348A722E030E038AB2FA721E030E09F
:102880003AAF29AF3296918380835F8F83E08CA328
:1028900049A785E090E09AAB89AB3CAF2BAF32966D
:1028A00084E190E09183808387E088A34DA384E056
:1028B0008AA787E30E94831D9CAB8BAB8A8D9B8D7F
:1028C000D9D38A8D9B8DECD318861B861A861986E0
:1028D000DF91CF911F910F91FF90EF900895CF93CB
:1028E000DF93FC012485862F90E0DC01AA0FBB1F3B
:1028F000EF01CA0FDB1F211113C02DA93EA94217FA
:10290000530714F45EAB4DABAE0FBF1FDD962D9198
:102910003C91119724173507A4F44D935C9311C093
:102920002DA93EA9241735070CF49A01AE0FBF1F3D
:10293000DD960D90BC91A02DA901A217B3070CF450
:10294000AD019C01220F331FDF01A20FB31FC1E0B5
:102950009B960D90BC91A02DA417B50709F4C0E07B
:10296000E20FF31F54A743A7CC2321F08CE19DE095
:102970000E94CF0A8C2FDF91CF910895860F911D71
:10298000860F911DFC0183A594A50895DF92EF9217
:10299000FF920F931F93CF93DF93EC01D62E062F58
:1029A00010E07C01E00EF11EF70141A1648D8A8DDB
:1029B0009B8D65D3F801EE0FFF1FEC0FFD1F03A5E4
:1029C00014A5F701E6A0F12C81E090E00A30110592
:1029D00014F480E090E0E81AF90A81E090E004360F
:1029E000110514F480E090E0E81AF90A81E090E023
:1029F000083EF3E01F0714F480E090E0E81AF90ABB
:102A000021E0E21AF1088A8D9B8D1E141F041CF42C
:102A100060E256D6F5CF4AE050E0B80118D782E020
:102A2000D81659F0D81630F0E3E0DE1212C06EEB83
:102A300077E005C068EB77E002C06BEB77E08A8D4A
:102A40009B8DDF91CF911F910F91FF90EF90DF90C1
:102A500036C6DF91CF911F910F91FF90EF90DF90DD
:102A60000895CF93DF93EC018C85813069F050F0AD
:102A7000833079F461E0CE0189DF62E0CE0186DF48
:102A800063E003C064E001C060E0CE01DF91CF915C
:102A90007DCFDF91CF910895FC01848508950F9338
:102AA0001F93CF93DF93EC01162F8FEF8D8786E274
:102AB0009BE0D1DC811103C086E29BE0C9DC60ECC5
:102AC00077E087E79DE0FBD54AE050E0612F87E79C
:102AD0009DE0ECD68A8D9B8DE9D28A8D9B8DCAD2E2
:102AE0001C87123091F1B8F41123E9F0113009F08C
:102AF000D9C060E082E39BE00E94FE076EEF77E0C2
:102B00008A8D9B8DDCD541E063E08A8D9B8DB7D2A9
:102B100062E178E02BC0143009F455C058F115304B
:102B200009F466C0BFC060E082E39BE00E94FE073C
:102B300066ED77E08A8D9B8DC2D541E060E08A8D9D
:102B40009B8D9DD26AEE77E011C060E082E39BE04E
:102B50000E94FE076DE178E08A8D9B8DB0D541E043
:102B600060E08A8D9B8D8BD262E378E08A8D9B8DAD
:102B7000A6D598C080E00E94E10861E082E39BE076
:102B80000E94FE0767E478E08A8D9B8D98D541E02E
:102B900062E08A8D9B8D73D262E178E08A8D9B8D95
:102BA0008ED542E062E08A8D9B8D69D26BE578E03C
:102BB0008A8D9B8D84D543E062E08A8D9B8D5FD2A8
:102BC00067E678E0D3CF60E084E39BE00E944109B0
:102BD00081E00E94E10867E478E08A8D9B8D6FD5E3
:102BE00042E066E08A8D9B8D4AD261E778E0BECFF5
:102BF00080E00E94E10860E082E39BE00E94FE0723
:102C000067E478E08A8D9B8D5AD58E010B5B1F4F50
:102C1000F80120818A8D9B8D243031F442E066E0FA
:102C20002ED26AE778E0A2CF41E066E028D262E8DF
:102C300078E08A8D9B8D43D542E066E08A8D9B8D3E
:102C40001ED2F80120818A8D9B8D223039F02330ED
:102C500041F0213049F46BE878E014C062EB78E091
:102C600011C064EC78E00EC06CEC78E028D54AE046
:102C700050E0F80160818A8D9B8D12D660ED78E07E
:102C80008A8D9B8D1CD543E068E08A8D9B8DF7D1A2
:102C9000FE01EA5BFF4F608171814AE050E08A8D5E
:102CA0009B8DD5D58CE19DE00E94750D6C858617B6
:102CB00099F08CE19DE00E946F0A64ED78E087E76F
:102CC0009DE0FDD44AE050E06C8587E79DE0DF9110
:102CD000CF911F910F91EAC5DF91CF911F910F9175
:102CE0000895FC01EB5BFF4F608331965183408375
:102CF00065E0D5CE1F93CF93DF93EC01162F8D8522
:102D00008F3FE9F0FE01E80FF11D648D6F5F41A177
:102D10008A8D9B8DB4D160E076E08A8D9B8DCFD477
:102D20008D85FE01E80FF11D648D6C5F41A18A8DD8
:102D30009B8DA5D160E076E08A8D9B8DC0D41D87E8
:102D40001F3F01F1FE01E10FF11D648D6F5F41A195
:102D50008A8D9B8D94D16BEE78E08A8D9B8DAFD45C
:102D60008D85FE01E80FF11D648D6C5F41A18A8D98
:102D70009B8D85D16DEE78E08A8D9B8DDF91CF9113
:102D80001F919DC4DF91CF911F910895AF92BF9283
:102D9000CF92DF92EF92FF920F931F93CF93DF9327
:102DA000EC018885882331F018866FEE78E087E79C
:102DB0009DE09FD4F4D5CE84DF84E888F9889B0118
:102DC000AC012C193D094E095F0969017A0157FFD1
:102DD00006C031E0C31AD108E108F10804C06E87CB
:102DE0007F87888B998BB701A6018A899B8997DC9D
:102DF0008C01B701A601888D998D91DCAA24A3943A
:102E0000181619060CF0A12C8985BB24B3948111E6
:102E100004C0101611060CF0B12CB701A6018C8964
:102E20009D897DDC31E020E0181619060CF030E0B9
:102E3000032F122FB701A6018E899F8970DC181607
:102E4000190614F401501109BB2071F0AA2091F069
:102E50000115110559F086E29BE0FDDA811106C0EB
:102E600086E29BE0F5DA02C0AA2021F08EE39BE027
:102E70000E94C8028C85813019F0823091F021C007
:102E8000BB2031F063E0CE010ADE61E079E011C0E1
:102E9000AA2009F444C08D85882309F43BC060E072
:102EA0003CC0BB2009F43BC061E0CE01F8DD66E226
:102EB00079E087E79DE01DD48EE39BE00E94C80285
:102EC0002EC0BB20C1F08985882379F063E08EE3B2
:102ED0009BE00E94EE0263E0CE01E1DD61E089E269
:102EE0009BE00E94460E19861AC062E0CE01D7DD33
:102EF00069E479E0DECF833091F4AA2081F08D85FA
:102F0000823031F0833031F0813031F462E005C03D
:102F100063E003C06FEF01C061E0CE01EBDE01159D
:102F20001105C1F06D856F3FA9F0FE01E60FF11D9F
:102F3000E60FF11D43A554A5400F511FCE01DF91AF
:102F4000CF911F910F91FF90EF90DF90CF90BF90A6
:102F5000AF90C5CCDF91CF911F910F91FF90EF9073
:102F6000DF90CF90BF90AF900895CF93DF93EC01A7
:102F700060E08E8179D681E090E059D561E08E8164
:102F800073D681E090E053D560E08E816DD684E603
:102F900090E0DF91CF914BC5EF92FF920F931F937B
:102FA000CF93DF938C01C0E0D0E0E62EF12CB70187
:102FB0000C2E02C0759567950A94E2F76170F801CE
:102FC000EC0FFD1F878150D62196C430D10579F7CB
:102FD000C801DF91CF911F910F91FF90EF90C5CF66
:102FE000EF92FF920F931F93CF93DF938C01C0E07A
:102FF000D0E0E62EF12CB7010C2E02C07595679536
:103000000A94E2F76170F801EC0FFD1F87812CD65E
:103010002196C830D10579F7C801DF91CF911F9172
:103020000F91FF90EF90A1CF1F93CF93DF93EC010F
:10303000162F642F8C8118D68D818F3F11F060E0A0
:1030400013D68F85612F84FF05C0CE01DF91CF910C
:103050001F91C6CF70E084E0759567958A95E1F77A
:10306000CE019ADF612FCE01DF91CF911F9194CFD6
:1030700040E0DACF61E0FCDF80ED97E0D8C4443077
:1030800008F043E0FC012389421710F04FEF420F94
:10309000FC01E40FF11D2489260F2068622FE8CF80
:1030A000FC0160896B7F608B6860E2CFFC01608906
:1030B000262F2460208B6C60DBCF0F931F93CF9360
:1030C000DF93EC01423018F08F8588608F874B8B3F
:1030D0001C8A80E48D8B6E8B70E0605C7F4F6F8B01
:1030E000222329F0413019F48F8584608F8761E0B5
:1030F0008C8181D58D818F3F11F061E07CD561E0BD
:103100008E8179D500E010E08F8584FF03C088E0D0
:1031100090E002C084E090E0081719074CF4FE012B
:10312000E00FF11F61E0878166D50F5F1F4FECCF85
:1031300080E593EC7CD460E08C8196D560E08E8154
:1031400093D58D818F3F11F060E08ED56F8564FD42
:1031500016C063E0CE0120DF84E991E168D463E02A
:10316000CE011ADF84E991E162D463E0CE0114DF7D
:1031700086E990E05CD462E0CE010EDF11C06062AF
:10318000CE0176DF84E991E152D46F856062CE0191
:103190006FDF86E990E04BD46F856062CE0168DF17
:1031A0006F856062CE0164DF84E0888BCE017EDFB4
:1031B000CE0160DF82E0898B66E0CE01DF91CF91A6
:1031C0001F910F9155CFCF92EF920F93FC01138275
:1031D000128284E799E09183808364838FEF8583F3
:1031E000468327830087E186C28613861486158668
:1031F0001686178620E041E060E1CF010F91EF9045
:10320000CF905BCF41E010DF81E090E00895FC01BA
:10321000818D228D90E0805C9F4F821B91098F737E
:1032200099270895FC01918D828D981731F0828D38
:10323000E80FF11D858D90E008958FEF9FEF0895C1
:10324000FC01918D828D981761F0828DDF01A80FAE
:10325000B11D5D968C91928D9F5F9F73928F90E0D0
:1032600008958FEF9FEF089585ED9AE1892B39F04E
:1032700080E090E0892B19F098D1811125C080E081
:1032800090E0892B41F080E090E0892B21F00E94B2
:10329000000081111CC080E090E0892B41F080E0AB
:1032A00090E0892B21F00E940000811113C080E082
:1032B00090E0892BA1F080E090E0892B81F00E94C2
:1032C000000081110AC008950E940000D8CF0E941A
:1032D0000000E1CF0E940000EACF0C9400000895A6
:1032E000FC01848DDF01A80FB11DA35ABF4F2C91A3
:1032F000848D90E001968F739927848FA689B78972
:103300002C93A089B1898C9180648C93938D848D4A
:10331000981306C00288F389E02D80818F7D808319
:103320000895CF93DF93EC01888D8823C1F0EA895B
:10333000FB89808185FD05C0A889B9898C9186FDAE
:103340000EC00FB607FCF5CF808185FFF2CFA889AC
:10335000B9898C9185FFEDCFCE01C2DFE8CFDF9137
:10336000CF910895CF92DF92FF920F931F93CF9347
:10337000DF931F92CDB7DEB76C01DC015B969C91A9
:103380005B975C968C915C97981307C05096ED9173
:10339000FC915197808185FD31C0F601038D10E0CD
:1033A0000F5F1F4F0F731127F02EF601848DF81257
:1033B00010C00FB607FCF9CFD6015096ED91FC91E5
:1033C0005197808185FFF1CFC601698389DF6981CB
:1033D000ECCF838DE80FF11DE35AFF4F6083D601D8
:1033E0005B960C935B975296ED91FC91539780817D
:1033F0008062808381E058968C930DC0D6015696EA
:10340000ED91FC91579760835096ED91FC91519707
:1034100080818064808381E090E00F90DF91CF9184
:103420001F910F91FF90DF90CF900895BF92CF92A0
:10343000DF92EF92FF92CF93DF93EC016A017B0161
:10344000B22EE889F98982E08083411581EE580720
:103450006105710599F060E079E08DE390E0A701E6
:10346000960136D6215031094109510956954795A3
:1034700037952795211580E1380790F0E889F9897B
:10348000108260E874E88EE190E0A701960120D6F2
:10349000215031094109510956954795379527958E
:1034A000EC85FD853083EE85FF852083188EEC89C1
:1034B000FD89B082EA89FB89808180618083EA8905
:1034C000FB89808188608083EA89FB8980818068AC
:1034D0008083EA89FB8980818F7D8083DF91CF9112
:1034E000FF90EF90DF90CF90BF9008951F920F92C2
:1034F0000FB60F9211240BB60F922F938F939F93B9
:10350000EF93FF93E091870DF091880D8081E0911A
:103510008D0DF0918E0D82FD12C090818091900DE5
:103520008F5F8F732091910D821751F0E091900D74
:10353000F0E0E958F24F958F8093900D01C08081A3
:10354000FF91EF919F918F912F910F900BBE0F9054
:103550000FBE0F901F9018951F920F920FB60F92EB
:1035600011240BB60F922F933F934F935F936F935A
:103570007F938F939F93AF93BF93EF93FF9387E7CF
:103580009DE0AEDEFF91EF91BF91AF919F918F9142
:103590007F916F915F914F913F912F910F900BBE53
:1035A0000F900FBE0F901F90189587E79DE02FDEBC
:1035B00021E0892B09F420E0822F089510927A0DE2
:1035C0001092790D88EE93E0A0E0B0E080937B0D3F
:1035D00090937C0DA0937D0DB0937E0D8CE799E0C8
:1035E0009093780D8093770D85EC90E09093840D07
:1035F0008093830D84EC90E09093860D8093850DED
:1036000080EC90E09093880D8093870D81EC90E0A2
:1036100090938A0D8093890D82EC90E090938C0DAD
:1036200080938B0D86EC90E090938E0D80938D0DA2
:103630001092900D1092910D1092920D1092930D88
:103640000895CF92DF92EF92FF920F931F93CF9343
:10365000DF936C017A01EB01E60EF71E00E010E04B
:10366000CE15DF0561F06991D601ED91FC910190D5
:10367000F081E02DC6011995080F191FF1CFC8017F
:10368000DF91CF911F910F91FF90EF90DF90CF903E
:1036900008956115710581F0DB010D900020E9F7B7
:1036A000AD0141505109461B570BDC01ED91FC91D6
:1036B0000280F381E02D199480E090E00895E9CF35
:1036C000DC01ED91FC910190F081E02D19940F93B4
:1036D0001F93CF93DF93EC016DE0F2DF8C016AE082
:1036E000CE01EEDF800F911FDF91CF911F910F91DF
:1036F00008950F931F93CF93DF93EC01CADF8C01E2
:10370000CE01E5DF800F911FDF91CF911F910F91C7
:1037100008958F929F92AF92BF92CF92DF92EF92D5
:10372000FF920F931F93CF93DF93CDB7DEB7A1978F
:103730000FB6F894DEBF0FBECDBF7C01C42EE52FBF
:10374000CB01D22E19A221E02D1510F02AE0D22EA5
:103750008E010F5D1F4F8D2C912CA12CB12C6C2D47
:103760007E2FA5019401B4D48C2DD29E80191124F2
:10377000015011098A3014F4805D01C0895CF801A0
:103780008083211531054105510521F0C22EE32F1B
:10379000CA01E5CFB801C7017CDFA1960FB6F89446
:1037A000DEBF0FBECDBFDF91CF911F910F91FF9074
:1037B000EF90DF90CF90BF90AF909F908F90089543
:1037C000CF92DF92EF92FF920F931F93CF93DF93ED
:1037D000EC016A017B012115310579F4E881F98159
:1037E0000190F081E02D642FDF91CF911F910F9117
:1037F000FF90EF90DF90CF9019942A303105D9F4E3
:1038000077FF18C06DE25CDF8C0144275527BA01B1
:103810004C195D096E097F092AE0CE017ADF800F1D
:10382000911FDF91CF911F910F91FF90EF90DF904B
:10383000CF9008952AE0B701A601CE01DF91CF9184
:103840001F910F91FF90EF90DF90CF9062CF9A0180
:10385000AB01662757FD6095762FB2CF0F931F936C
:10386000CF93DF93EC019A01AB01662757FD60957A
:10387000762FA6DF8C01CE012ADF800F911FDF910A
:10388000CF911F910F9108952115310541F4DC016D
:10389000ED91FC910190F081E02D642F199439CFC6
:1038A0009A01462F50E060E070E0EECF0F931F9337
:1038B000CF93DF93EC019A01462F50E060E070E077
:1038C000E3DF8C01CE0103DF800F911FDF91CF91E9
:1038D0001F910F9108950895B4D0FDDF0E945911F2
:1038E000C4E3D9E10E94FD0F2097E1F3BDDCFACFDC
:1038F00060C41F920F920FB60F9211242F933F9323
:103900008F939F93AF93BF938091150E9091160E56
:10391000A091170EB091180E3091140E23E0230FD2
:103920002D3720F40196A11DB11D05C026E8230FF7
:103930000296A11DB11D2093140E8093150E909335
:10394000160EA093170EB093180E8091190E909139
:103950001A0EA0911B0EB0911C0E0196A11DB11D57
:103960008093190E90931A0EA0931B0EB0931C0E09
:10397000BF91AF919F918F913F912F910F900FBE6B
:103980000F901F9018952FB7F8946091150E7091B5
:10399000160E8091170E9091180E2FBF08953FB705
:1039A000F8948091190E90911A0EA0911B0EB0916F
:1039B0001C0E26B5A89B05C02F3F19F00196A11D2E
:1039C000B11D3FBF6627782F892F9A2F620F711D77
:1039D000811D911D42E0660F771F881F991F4A9530
:1039E000D1F70895CF92DF92EF92FF92CF93DF93BA
:1039F0006B017C01D4DFEB01C114D104E104F104BB
:103A000079F0CBD1CCDF6C1B7D0B683E7340A0F30B
:103A100081E0C81AD108E108F108C851DC4FECCFA9
:103A2000DF91CF91FF90EF90DF90CF9008950197B5
:103A300039F0880F991F880F991F02970197F1F7A6
:103A40000895789484B5826084BD84B5816084BD16
:103A500085B5826085BD85B5816085BDEEE6F0E007
:103A6000808181608083E1E8F0E010828081826063
:103A70008083808181608083E0E8F0E080818160E4
:103A80008083E1EBF0E0808184608083E0EBF0E014
:103A9000808181608083E1E9F0E0808182608083C1
:103AA000808181608083E0E9F0E0808181608083B3
:103AB000E1EAF0E0808182608083808181608083A0
:103AC000E0EAF0E0808181608083E1E2F1E08081E2
:103AD00082608083808181608083E0E2F1E0808188
:103AE00081608083EAE7F0E0808184608083808168
:103AF0008260808380818160808380818068808310
:103B00001092C1000895863308F0865320917B00FF
:103B1000982F9870277F922B90937B00877020912D
:103B2000060290E4299F90011124822B80937C004F
:103B300080917A00806480937A0080917A0086FD7B
:103B4000FCCF809178002091790090E0922B08952D
:103B500090E0FC013197E231F10508F04BC0EE58DE
:103B6000FF4FF4C2809180008F7703C08091800066
:103B70008F7D80938000089580918000877FF9CFAA
:103B800084B58F7702C084B58F7D84BD0895809100
:103B9000B0008F7703C08091B0008F7D8093B0001C
:103BA0000895809190008F7707C0809190008F7D5D
:103BB00003C080919000877F80939000089580914A
:103BC000A0008F7707C08091A0008F7D03C08091F7
:103BD000A000877F8093A0000895809120018F77B7
:103BE00007C0809120018F7D03C080912001877FD5
:103BF000809320010895CF93DF9390E0FC01E25B76
:103C0000FE4F2491FC01EC56FE4F8491882349F12C
:103C100090E0880F991FFC01E25FFD4FA591B491E0
:103C20008C509E4FFC01C591D4919FB7611108C083
:103C3000F8948C91209582238C93888182230AC0EA
:103C4000623051F4F8948C91322F309583238C9309
:103C50008881822B888304C0F8948C91822B8C936A
:103C60009FBFDF91CF9108950F931F93CF93DF9361
:103C70001F92CDB7DEB7282F30E0F901E85FFE4F85
:103C80008491F901E25BFE4F1491F901EC56FE4F6D
:103C900004910023C1F0882319F0698359DF6981F9
:103CA000E02FF0E0EE0FFF1FEC50FE4FA591B49116
:103CB0009FB7F8948C91611103C01095812301C0C6
:103CC000812B8C939FBF0F90DF91CF911F910F910C
:103CD0000895CF93DF93282F30E0F901E85FFE4F7E
:103CE0008491F901E25BFE4FD491F901EC56FE4F4D
:103CF000C491CC2389F081112BDFEC2FF0E0EE0F83
:103D0000FF1FE652FE4FA591B4912C912D2381E027
:103D100090E021F480E002C080E090E0DF91CF915C
:103D20000895BF92CF92DF92EF92FF920F931F936D
:103D3000CF93DF93C82ED62EB42EC7E0D0E0022F4B
:103D400010E087E0E82EF12CB1100AC0F701EC1B5F
:103D5000FD0BB80102C075956795EA95E2F707C0BB
:103D6000B8010C2E02C0759567950A94E2F7617050
:103D700077278C2D79DF61E08D2D76DF60E08D2D4A
:103D800073DF219708F7DF91CF911F910F91FF907B
:103D9000EF90DF90CF90BF90089508955058BB27C3
:103DA000AA270ED0E5C0D6D030F0DBD020F031F419
:103DB0009F3F11F41EF4CBC00EF4E095E7FBC1C0A9
:103DC000E92FE7D080F3BA176207730784079507D6
:103DD00018F071F49EF5FFC00EF4E0950B2EBA2F8B
:103DE000A02D0B01B90190010C01CA01A001112401
:103DF000FF27591B99F0593F50F4503E68F11A16AD
:103E0000F040A22F232F342F4427585FF3CF46953D
:103E100037952795A795F0405395C9F77EF41F165F
:103E2000BA0B620B730B840BBAF09150A1F0FF0F29
:103E3000BB1F661F771F881FC2F70EC0BA0F621F15
:103E4000731F841F48F4879577956795B795F79505
:103E50009E3F08F0B3CF9395880F08F09927EE0F97
:103E600097958795089504D06894B111B5C00895C9
:103E700098D088F09F5790F0B92F9927B751A0F0AC
:103E8000D1F0660F771F881F991F1AF0BA95C9F7EE
:103E900012C0B13081F09FD0B1E008959CC0672F6F
:103EA000782F8827B85F39F0B93FCCF3869577959E
:103EB0006795B395D9F73EF4909580957095619587
:103EC0007F4F8F4F9F4F0895E89409C097FB3EF4B2
:103ED00090958095709561957F4F8F4F9F4F992357
:103EE000A9F0F92F96E9BB279395F69587957795D5
:103EF0006795B795F111F8CFFAF4BB0F11F460FF95
:103F00001BC06F5F7F4F8F4F9F4F16C0882311F0EC
:103F100096E911C0772321F09EE8872F762F05C000
:103F2000662371F096E8862F70E060E02AF09A959B
:103F3000660F771F881FDAF7880F9695879597F990
:103F4000089597F99F6780E870E060E008959FEF1B
:103F500080EC089500240A94161617061806090620
:103F6000089500240A9412161306140605060895EF
:103F7000092E0394000C11F4882352F0BB0F40F477
:103F8000BF2B11F460FF04C06F5F7F4F8F4F9F4FB7
:103F9000089557FD9058440F551F59F05F3F71F039
:103FA0004795880F97FB991F61F09F3F79F08795A0
:103FB0000895121613061406551FF2CF4695F1DF29
:103FC00008C0161617061806991FF1CF86957105B9
:103FD000610508940895E894BB2766277727CB01ED
:103FE00097F908950BD0C4CFB5DF28F0BADF18F0E9
:103FF000952309F0A6CFABCF1124EECFCADFA0F3F3
:10400000959FD1F3950F50E0551F629FF001729F6D
:10401000BB27F00DB11D639FAA27F00DB11DAA1F8C
:10402000649F6627B00DA11D661F829F2227B00DD9
:10403000A11D621F739FB00DA11D621F839FA00D64
:10404000611D221F749F3327A00D611D231F849FB4
:10405000600D211D822F762F6A2F11249F5750400B
:104060008AF0E1F088234AF0EE0FFF1FBB1F661FA6
:10407000771F881F91505040A9F79E3F510570F05F
:1040800060CFAACF5F3FECF3983EDCF3869577953F
:104090006795B795F795E7959F5FC1F7FE2B880F5A
:1040A000911D9695879597F9089597FB072E16F41D
:1040B000009406D077FD08D059D007FC05D03EF417
:1040C000909581959F4F0895709561957F4F0895C4
:1040D000A1E21A2EAA1BBB1BFD010DC0AA1FBB1F0C
:1040E000EE1FFF1FA217B307E407F50720F0A21B7E
:1040F000B30BE40BF50B661F771F881F991F1A94EB
:1041000069F760957095809590959B01AC01BD0114
:10411000CF010895052E97FB16F400940FD057FD9C
:1041200005D0D6DF07FC02D046F408C05095409574
:10413000309521953F4F4F4F5F4F08959095809553
:10414000709561957F4F8F4F9F4F0895EE0FFF1F22
:104150000590F491E02D19941DD0B7FF0895821BAE
:10416000930B08950790F691E02D1994AA1BBB1BA1
:1041700051E107C0AA1FBB1FA617B70710F0A61B67
:10418000B70B881F991F5A95A9F780959095BC0188
:10419000CD010895A29FB001B39FC001A39F700DF0
:1041A000811D1124911DB29F700D811D1124911D3F
:1041B0000895CF93DF938230910510F482E090E070
:1041C000E0911F0EF091200E20E030E0A0E0B0E082
:1041D000309739F14081518148175907B8F0481795
:1041E000590771F482819381109729F013969C935B
:1041F0008E9312972CC09093200E80931F0E27C091
:104200002115310531F04217530718F0A901DB01E0
:1042100001C0EF019A01BD01DF010280F381E02DB1
:10422000D7CF21153105F9F0281B390B2430310582
:1042300080F48A819B816115710521F0FB019383D4
:10424000828304C09093200E80931F0EFE0132964D
:1042500044C0FE01E20FF31F819391932250310974
:10426000398328833AC020911D0E30911E0E232BD6
:1042700041F4209102023091030230931E0E2093EC
:104280001D0E20910002309101022115310541F4EB
:104290002DB73EB74091040250910502241B350B07
:1042A000E0911D0EF0911E0EE217F307A0F42E1BF5
:1042B0003F0B2817390778F0AC014E5F5F4F24178A
:1042C000350748F04E0F5F1F50931E0E40931D0E92
:1042D0008193919302C0E0E0F0E0CF01DF91CF91B4
:1042E0000895CF93DF93009709F487C0FC013297BC
:1042F00013821282C0911F0ED091200E209781F45C
:1043000020813181280F391F80911D0E90911E0E42
:104310008217930779F5F0931E0EE0931D0E6DC082
:10432000DE0120E030E0AE17BF0750F412964D9149
:104330005C9113979D014115510509F1DA01F3CF05
:10434000B383A28340815181840F951F8A179B07F5
:1043500071F48D919C911197840F951F0296918312
:10436000808312968D919C9113979383828321155C
:10437000310529F4F093200EE0931F0E3EC0D901C1
:104380001396FC93EE9312974D915D91A40FB51F78
:10439000EA17FB0779F480819181840F951F0296BB
:1043A000D90111969C938E938281938113969C934D
:1043B0008E931297E0E0F0E08A819B81009719F0DC
:1043C000FE01EC01F9CFCE01029628813981820FDE
:1043D000931F20911D0E30911E0E2817390769F486
:1043E000309729F41092200E10921F0E02C01382F3
:1043F0001282D0931E0EC0931D0EDF91CF910895AF
:04440000F894FFCF5E
:104404000000210E80000100000A0014001D002796
:104414000031003B0045004E00580062006C0076FD
:10442400007F00890093009D00A000A300A600A9BE
:1044340000AC00AF00B200B500B800BB00BE00C1C4
:1044440000C400D300E200F10000010F011E012EA0
:10445400013D014C015B016A01790188019901A9BF
:1044640001BA01CA01DA01EA01FB010B021B022BAA
:10447400023B024C02630278028F02A402BA02D009
:1044840002E502FB02110325033B03510367037D8D
:10449400039303A903BF03D503FD0323044B047251
:1044A400049904B504D104ED040905250541055D0D
:1044B4000576058E05A705BF05D805F105F30503A7
:1044C4000613062306330643065306630673068360
:1044D400069306A306B306E6060E0735075C0783B4
:1044E40007AA07C607E207FE071A08360852086E2D
:1044F4000887089F08B808D008E90801091A093292
:1045040009450959096D0980099409A709BB09CE10
:1045140009E209F609650A6F0A7A0A830A8E0A987B
:104524000AA20AAC0ABA0ACD0ADC0AEB0AFA0A0998
:104534000B180B280B370B460B550B640B730B7FB7
:104544000B900B9D0BAB0BB80BC50BD20BDF0BEC1D
:104554000BF90B060C130C200C2D0C3B0C430C5CC0
:104564000C720C880C9E0CB40CCA0CDF0CF50C07F6
:104574000D110D210D320D420D520D620D730D837F
:104584000D930DA40DB40DCB0DD50DE60DF60D0652
:104594000E170E270E370E480E580E690E790E9020
:1045A4000EA30EB30EC20ED10EE00EEF0EFE0E0DD4
:1045B4000F1C0F2B0F3A0F490F540F002600280031
:1045C4002A002C002E0030003200210034011F008C
:1045D40023002500170019001B0016001A001800FC
:1045E400270029002D002BFF626565706572546FEA
:1045F400446F203A0020202624252324255E2065AC
:1046040061726C7920707573682062656570206FC3
:104614006666200041434355535441542052455348
:104624004554205448452053455353494F4E205038
:1046340045414B20414E442043555252454E54204F
:104644005045414B00416363757374617420656E1A
:1046540074657253746174653A20002073657373D2
:10466400696F6E5065616B2073657420696E736940
:1046740064652061636375737461742E656E74651B
:104684007253746174650062656570464C414720DD
:104694003D2074727565002020616E616C6F6752F5
:1046A4006561642861694163686965766564506918
:1046B4006E292069732077616B65696E6720697460
:1046C400207570002063757272656E745065616B3D
:1046D4003A2000206176673A2000206E617475727A
:1046E400616C7072656368617267653A200020418D
:1046F400636375737461743A3A656E61626C656E76
:104704002063616C6C65642041535F517569657405
:10471400002041636375737461743A3A656E616233
:104724006C656E2041535F51756965740020416367
:104734006375737461743A3A70617573652041539B
:104744005F5175696574002062616C6C20747275C8
:10475400650020206C61737452656164696E673A08
:1047640020004E41545F50524500FC60DAF266B6B8
:10477400BEE0FEF602436F6D70726573736F722054
:1047840053797374656D20656E74657253746174C6
:10479400653A2000206E65656465644279436F6DF7
:1047A40070726573736F722063616C6C65642073DF
:1047B4006C6565702E77616B657570282920002003
:1047C4007265736572766F69725072657373757210
:1047D400653A200020204149522044554D5045441B
:1047E4002000496E697420436861726765205379BB
:1047F4007374656D206E65772073746174653A20F7
:1048040020004D41535F4C54535F4F4E2066726FEE
:104814006D206865726500206C61737453746174F3
:1048240065203A00554953746174650020737472AD
:10483400656E67746843686172676554696D656F16
:1048440075744D696C6C697320776173207365743A
:1048540000746F6F206D7563682070726573737573
:104864007265202D2074696D656F7574207265738F
:1048740065740020524F4C4C4F56455220005F5FE8
:104884005F5F5F5F5F5F5F5F5F5F5F53554343459C
:104894005353204F4E5F5F5F5F5F5F5F5F5F5F5F9C
:1048A4005F5F00204153206F7665722020666C6143
:1048B400673A2000205549206F76657220666C6146
:1048C400673A20002064756D7056616C7665466C9D
:1048D40061673A200020626565706572466C6167A5
:1048E4003A20002072657374617274537472656E39
:1048F400677468466C61673A20002041533A20008F
:104904002050423A20002053533A20002055495366
:104914003A200020696E42616C616E636546616C89
:1049240073652000706273206E65772073743A207B
:1049340000205042535F5245414459315F53494E20
:104944004B494E472063617573652041535F517530
:10495400696574200020656E74657220746F20652B
:1049640061726C79205042535F5245414459315F22
:1049740053494E4B494E47005F5F5F5F5F5F5F5F28
:104984005F5F5F5F5F5F5F5F5F5F5F5F5355434381
:104994004553535F4F5645525F5F5F5F5F5F002033
:1049A400536C65657053797374656D206E657720FB
:1049B40073746174653A2000303000302500730050
:1049C40020554953797374656D206E65772073742F
:1049D4006174653A20003D3D3D20544F57494E4790
:1049E400204D4F4445203D3D3D0052657365727630
:1049F4006F69722050726573737572653A002A2A62
:104A040020504F5745522044524956494E47202A78
:104A14002A005468726573686F6C643A002B2B2B00
:104A24002B20494E444956494455414C202B2B2BAD
:104A34002B002B2B2B2B2020545241494E494E47FF
:104A440020202B2B2B2B0020535452454E475448E7
:104A540020545241494E494E4720004469666669D4
:104A640063756C74793A004475726174696F6E3A57
:104A7400004348415247494E470053554343455329
:104A8400530053485554444F574E00446966666971
:104A940063756C74792069732073657420746F2056
:104AA40068696768206164756A75737420646F77D8
:104AB4006E00486F6C6420736372756D206C6F6E4A
:104AC4006765720052656475636520003F3F20008E
:104AD400203F3F0020656E7465722055494D6F6418
:104AE400654368616E6765643A20003E003C00459A
:104AF4006D657267656E637953687574446F776E1C
:104B0400005549535F534352554D5F504F574552DB
:104B14002063616C6C65642075692E656E746572C2
:104B24005374617465005549535F534352554D5F47
:104B3400494E442063616C6C65642075692E656E12
:104B440074657253746174650064656661756C7430
:104B5400207569206C6F6F702063617365206361D9
:104B64006C6C656420656E74657253746174650061
:104B7400000000000219211B00000000B219211BD3
:084B84000719201912199119FB
:00000001FF
