:1000000015C1000044C1000042C1000040C1000011
:100010003EC100003CC100003AC1000038C10000F0
:1000200036C1000034C1000032C1000030C1000000
:100030002EC100002CC100002AC1000028C1000010
:1000400026C1000024C1000022C1000020C1000020
:100050000C94600F1CC100001AC100000C941D1903
:1000600016C100000C941A170C94501710C1000010
:100070000EC100000CC100000AC1000008C1000050
:1000800006C1000004C1000002C1000000C1000060
:10009000FEC00000FCC00000FAC00000F8C0000074
:1000A000F6C00000F4C00000F2C00000F0C0000084
:1000B000EEC00000ECC00000EAC00000E8C0000094
:1000C000E6C00000E4C00000E2C00000E0C00000A4
:1000D000DEC00000DCC00000DAC00000D8C00000B4
:1000E000D6C00000641A671A561A5A1A601A9E1A65
:1000F0006B1A6F1A751A791A7D1A831A871A8B1A56
:100100009E1A911A951A991A00000A0B02090C0DF1
:100110000E080703040100000000000000000000BA
:1001200000000000000000000000000000000000CF
:10013000000000001211100000000000000000008C
:1001400000000000000000000000000000000102AC
:1001500010202008081020401020408002010201D9
:100160000804020101020408102040808040201091
:1001700008040201800402018040201008040201EA
:100180000804020101020408102040800102040852
:10019000102040800505050507050808080802022B
:1001A00002020A0A08080404040401010101010111
:1001B00001010303030303030303040707070C0CF4
:1001C0000C0C0C0C0C0C02020202060606060606BB
:1001D00006060B0B0B0B0B0B0B0B00002000230078
:1001E000260029002C002F0032000001000003012E
:1001F0000601090100002200250028002B002E0026
:100200003100340002010000050108010B0100006B
:100210002100240027002A002D00300033000101B6
:100220000000040107010A01380E821711241FBEC5
:10023000CFEFD1E2DEBFCDBF00E00CBF16E0A0E003
:10024000B2E0ECE4FDE300E00BBF02C007900D92CA
:10025000A035B107D9F72AE0A0E5B6E001C01D92AC
:10026000A43EB207E1F712E0CCE2D2E000E006C023
:1002700022970109FE010BBF0E94561DC832D1070B
:1002800080E00807A9F70E9410190C94A41EB8CEAC
:10029000CF93DF93EC0160E085E20E94D81AFE0163
:1002A000E152FE4F808181503B97823038F4DE016D
:1002B000AA52BE4F8D919C919183808380819181C0
:1002C000FE01EE52FE4F208131812817390744F498
:1002D0009183808384E08093510681E0809350066F
:1002E000CD51DE4F188282EE99E0DF91CF9144C765
:1002F00061E085E20E949F1A60E085E20C94D81AC2
:10030000CF93DF938091DD09882321F0833008F0BB
:1003100050C01EC0609151066623A1F08091500626
:100320009FEF980F90935006823008F042C06150C2
:1003300060935106617085E20E94D81A81E0809333
:10034000500637C060E085E2DF91CF910C94D81A57
:100350008091CF09882369F182EB99E000D4209144
:10036000DA093091DB09821B930B880F991F8250A9
:10037000984FFC01C081D18160E086EA97E00E943D
:10038000531124E6AC01249FC001259F900D112438
:10039000C817D90774F460E085E20E94D81A109259
:1003A000CF0968EE73E08AE39AE0DF91CF910C9475
:1003B0001D18DF91CF910895DF92EF92FF920F9376
:1003C0001F93CF93DF93EC01C9318CEFD8073CF03A
:1003D000C031E7E2DE075CF4D7FF0BC002C0C9E121
:1003E000DCEFD195C195D1094AE0D42E0CC0CFE005
:1003F000D7E2CE0160E177E20E94F91C68EE73E07B
:100400000E94F91CD62E61E086E10E94D81A3AE0DB
:10041000E32EF12CCE01B7010E94F91C80569B4FB0
:10042000FC01208140E068E18AE10E94351B04E67E
:1004300010E0CE01B8010E94F91CB7010E94F91C1E
:1004400060567B4FFB01208140E068E18AE10E9419
:10045000351BCE0168EE73E00E94F91CB8010E94C2
:10046000F91C60567B4FFB01208140E068E18AE186
:100470000E94351BED2DF0E0E056FB4F208140E05F
:1004800068E18AE10E94351B60E086E10E94D81A8B
:1004900064E070E080E090E0DF91CF911F910F91D8
:1004A000FF90EF90DF900C9496190F931F93CF93CA
:1004B000DF938C01EC01CD51DE4F8881F801811171
:1004C00003C0EE52FE4F02C0EC52FE4F808191817C
:1004D00073DFF801EE51FE4F8081823018F08150B9
:1004E00080830BC084E080838881833020F0833058
:1004F00021F4188202C08F5F8883DF91CF911F9112
:100500000F910895CF93DF93EC0184EB91E0E7E046
:10051000F2E0DE0101900D920197E1F7CE018C54DB
:100520009E4F1CD3E5DEFE01EF51FE4F10823D973A
:1005300011821082329611821082349711821082B9
:100540003896118210823896108231961082339735
:100550001082319710823197108236971182108263
:100560003496118210823C97108232971182108249
:10057000CF52DE4F1882DF91CF9108958BE10E9418
:100580000D1B21E0892B09F420E0822F08950F93A1
:100590001F93CF93DF931F92CDB7DEB78C01698392
:1005A000EDDF6981882331F0611113C08BE10E9476
:1005B000D81A09C0662369F061E08BE10E94D81A5D
:1005C00080E090E0F9DEF801E252FE4F10823596AD
:1005D00010820F90DF91CF911F910F910895FC0130
:1005E000EC52FE4F1182108232971182108267E026
:1005F00074E08AE39AE00E941D1860E085E20C94A2
:10060000D81AFC01E252FE4F1082359610820895EE
:10061000FC01E252FE4F21E020838C549E4F89C2A0
:1006200081529E4FFC0160830895FC01EC52FE4F05
:10063000DC01AA52BE4F8D919C91918380830895D5
:10064000FC01E252FE4F6083613059F028F06230C5
:1006500059F0633011F10895FC01ED51FE4F108205
:1006600008958C549E4F65C2FC01E052FE4F1082EB
:10067000319628E020833997DC01A652BE4F2D9198
:100680003C913183208332971182108232971182FC
:1006900010823F9624E020830895FACDEF92FF92D6
:1006A0000F931F93CF93DF93EC0186EE97E00E94A8
:1006B000C70E81111AC086E30E94271A8431914027
:1006C000A4F086EE97E00E94970E68E374E08AE358
:1006D0009AE00E94031886E30E94271A4AE050E03D
:1006E000BC018AE39AE00E94D218CE0147DF88233A
:1006F00009F453C07E0132E2E31A3EEFF30AF70138
:100700008081882309F449C086E30E94271ABC012E
:100710008E010C541E4FC801CCD1C80120D28C01CF
:10072000F70180818130F9F4FE01E452FE4F8081AF
:1007300091819801281B390B32977F0125303105B3
:100740004CF180EF97E00E94E20B811123C0F7018A
:100750001183008362E0CE01DF91CF911F910F9151
:10076000FF90EF906DCF8230C1F4FE01E152FE4F59
:100770008081882329F0833080F4C652DE4F07C081
:10078000C652DE4F888199818017910734F419830E
:10079000088303C0F70111830083DF91CF911F917C
:1007A0000F91FF90EF9008957F928F929F92AF925A
:1007B000BF92CF92DF92EF92FF920F931F93CF934E
:1007C000DF93EC019DDDCE0170DE7E0142E2E41A92
:1007D0004EEFF40AF70180818230B9F0833009F0DE
:1007E0001BC181E0F7018083CE018C549E4FDF91C5
:1007F000CF911F910F91FF90EF90DF90CF90BF901E
:10080000AF909F908F907F9094C15E01F4E2AF1AF9
:10081000FEEFBF0AFE01E652FE4F00811181F50195
:1008200080819181081B190B17FF02C000E010E0C6
:1008300065E674E08AE39AE00E9403184AE050E01B
:10084000B8018AE39AE00E94CB18F801EE0FFF1F6F
:10085000EC0FFD1F008111816DE674E08AE39AE0E0
:100860000E9403184AE050E0B8018AE39AE00E942F
:10087000CB1868E774E08AE39AE00E94031886E3E5
:100880000E94271A4AE050E0BC018AE39AE00E94E5
:10089000D2184E01F1E28F1AFEEF9F0AF401708028
:1008A000AE014C525E4F6A0151E0751641F075166B
:1008B00020F082E07816C9F168C0F6011BC0073944
:1008C00011050CF462C060E086EA97E00E945311C3
:1008D00024E6AC01249FC001259F900D1124FE0148
:1008E000E052FE4F8017910774F08081882309F44D
:1008F0004CC03A9780819181801791070CF045C0D8
:100900001183008342C0808181113FC061E085E294
:100910000E94D81A68E874E08AE39AE00E940318FB
:10092000FE01EF52FE4F708230C0073911056CF1A5
:1009300061E086EA97E00E94531124E6FC012E9FB5
:10094000C0012F9F900D112480179107F4F4FE0130
:10095000E052FE4F80818823A1F03A9780819181F7
:100960008017910794F41183008386EA97E00E9430
:10097000E111833051F464E086EA97E00E94E411CB
:1009800004C061E085E20E94D81AF601808191815D
:10099000FE01EE52FE4F208131812817390744F4C1
:1009A0009183808324E02093510621E02093500618
:1009B000F401208121110FC0181619066CF5CE0123
:1009C0008C549E4FCCD0F50120813181821B930B3A
:1009D000069784F021C0FE01EF51FE4F80818823ED
:1009E00019F08150808318C021502230A8F40233BE
:1009F000110594F483E0F7018083CE01DF91CF915C
:100A00001F910F91FF90EF90DF90CF90BF90AF902C
:100A10009F908F907F903CCCDF91CF911F910F9151
:100A2000FF90EF90DF90CF90BF90AF909F908F900E
:100A30007F90089581529E4FFC01808108958252DB
:100A40009E4FFC018081089580529E4FFC01808161
:100A5000089580529E4FFC0160830895EF92FF92AB
:100A60000F931F93CF93DF937C01EC01CC54DE4FA7
:100A7000CE015FD00AE010E086E30E94271ABC0195
:100A8000CE0117D001501109B9F7CE0168D0F70196
:100A9000E452FE4F91838083DF91CF911F910F919C
:100AA000FF90EF90089584529E4FFC0180819181C8
:100AB0000895CF92DF92EF92FF920F931F93FC0164
:100AC0008B018181DF01A80FB11DA80FB11D129606
:100AD000CD90DC901397EE24D7FCE094FE2C468951
:100AE0005789608D718D4C195D096E097F091396C8
:100AF0001C930E931297222717FD2095322F400F3B
:100B0000511F621F731F468B578B608F718F9081AF
:100B10009A3010F49F5F90838F5F8A3010F4818346
:100B200001C011821F910F91FF90EF90DF90CF9045
:100B30000895FC011082118280E090E0DF01A80F8F
:100B4000B91F13961C921E9212970296843191053A
:100B5000A9F7168A178A108E118E0895EACFFC0124
:100B6000208130E040E050E066897789808D918D6A
:100B70000E942E1DC9010895FC0110828CEB92E0A9
:100B8000928381838CEA93E0948383831582089512
:100B90001F93CF93DF93EC0187E30E94271A1881FC
:100BA0001130E9F030F0123061F1133009F443C034
:100BB0004DC029813A81821793077CF411E010938C
:100BC000F20786EE97E00E94970E61E080E30E94B4
:100BD000D81A82E08D83188339C060E026C08D81E9
:100BE000823060F58EE10E940D1B892B79F160E067
:100BF00080E30E94D81A61E087E10E94D81A82E05F
:100C000011C02B813C812817390774F460E087E11B
:100C10000E94D81A1092F20786EE97E00E94970E73
:100C20001D8383E0888312C061E087E1DF91CF916B
:100C30001F910C94D81A8D81823018F081508D83C9
:100C400005C060E080E30E94D81A1882DF91CF913E
:100C50001F910895CF93DF93EC0161E084E30E943C
:100C60009F1A60E084E30E94D81A60E08EE10E943F
:100C70009F1A18821982DF91CF910895CF93FC01BA
:100C80002081211102C0C18101C0C1E08EE10E941A
:100C90000D1BCC2369F081110DC061E08FE10E9432
:100CA000D81A84E30E940D1B892B71F461E008C0FF
:100CB0008111F7CF84E30E940D1B892B29F060E09E
:100CC00084E3CF910C94D81ACF910895FC016183ED
:100CD0000895FC0110820895CF92DF92EF92FF9267
:100CE000CF93DF93EC016A017B018B859C85AD85F9
:100CF000BE859A01AB01281B390B4A0B5B0BDA014D
:100D0000C90149815A816B817C8184179507A607A7
:100D1000B707D8F08881813019F0823029F00CC0F3
:100D2000E985FA85199508C061E08885811160E040
:100D300068878F810E94D81ACB86DC86ED86FE8676
:100D40008F8598890196988B8F878D819E8197FDDD
:100D500006C02F853889281739070CF01882DF91D3
:100D6000CF91FF90EF90DF90CF900895FF920F9377
:100D70001F93CF93DF93CDB7DEB7AD970FB6F8943F
:100D8000DEBF0FBECDBF62E08CE00E949F1A8DE2F5
:100D9000EBEBF3E0DE01119601900D928A95E1F7FD
:100DA00010E0812F90E0E1E0F0E0EC0FFD1FE80F94
:100DB000F91FF0802FEFF21689F0E2E0F0E0EC0F7F
:100DC000FD1FE80FF91F008161E0802F0E949F1A2C
:100DD0006F2D802F0E94D81A1E5FE3CFAD960FB6FD
:100DE000F894DEBF0FBECDBFDF91CF911F910F9161
:100DF000FF9008958DE30E94271A21E0843F9140DF
:100E00000CF020E0822F0895CF93DF93EC016D2F3B
:100E1000661F6627661F81E20E94D81A61E01C16D1
:100E20001D060CF060E082E3DF91CF910C94D81A9C
:100E3000CF93DF93EC018130910579F460E086E295
:100E40000E94D81A61E088E20E94D81A6BE470E030
:100E500080E090E00E9496190BC06D2F661F6627F8
:100E6000661F86E20E94D81A61E01C161D060CF06F
:100E700060E088E2DF91CF910C94D81A682F89E165
:100E80000C94D81AFC0113821282118210820895E8
:100E90001F93CF93DF93EC01162F6BEA74E08AE384
:100EA0009AE00E9403184AE050E0612F8AE39AE03A
:100EB0000E94FA181883113049F028F0123061F4BA
:100EC0008FEF9FEF05C080E090E002C081E090E0EE
:100ED000DF91CF911F9198CFDF91CF911F9108950E
:100EE000CF93DF93EC018EE30E94271A28812130F3
:100EF00019F0223059F00FC02A813B8182179307E5
:100F000054F060E0CE01DF91CF91C2CF2A813B81C6
:100F100028173907B4F7DF91CF910895CF93DF9366
:100F2000EC018981662341F081110CC060E0CE01A3
:100F3000AFDF81E0898306C0882321F060E0CE0125
:100F4000A7DF1982DF91CF910895EF92FF920F935F
:100F50001F93CF93DF93EC016536710514F064E6BF
:100F600070E08B0177FF02C000E010E0B801882735
:100F700077FD8095982F0E940A1C23E333E343E317
:100F800050E40E94961C20E030E040E253E40E94CE
:100F9000731B0E94D71B7B836A838EE30E94271AF0
:100FA0007C016BEC74E08AE39AE00E9403184AE04B
:100FB00050E0B8018AE39AE00E94CB186FED74E02C
:100FC0008AE39AE00E9403186A817B814AE050E03C
:100FD0008AE39AE00E94D21861EF74E08AE39AE013
:100FE0000E9403184AE050E0B7018AE39AE00E94A9
:100FF000CB188A819B81E816F90614F461E004C0DD
:101000008E159F054CF462E0CE01DF91CF911F91C8
:101010000F91FF90EF903CCFDF91CF911F910F91F7
:10102000FF90EF900895FC0182E087A715AA16AA09
:1010300017AA10AE11AE108211821282138211AA69
:1010400012AA13AA14AA16A681E080AB15821482F4
:10105000138A128A17821682178E168E13A612A66C
:1010600015A614A608950F931F93CF93DF93EC0159
:10107000C1DE98A9882359F09230B1F082E088ABA4
:1010800060E086EA97E00E94E41160E00AC09130D7
:1010900059F081E088AB6FA586EA97E00E94E411E1
:1010A00061E08BE10E94D81A86EA97E00E94E11184
:1010B000082F86EE97E06BD6182F002391F0813031
:1010C00081F461E08EEF97E062DA61E089EE97E00B
:1010D00090D3033008F443C061E084EF97E01EDF53
:1010E0003EC08CE00E940D1B892B61F460E08EEF06
:1010F00097E04DDA60E089EE97E07BD360E084EF23
:1011000097E00CDF61E0111101C060E08EE20E9407
:10111000D81A8EA5882319F0853091F022C060E09E
:101120008AE20E94D81A87E30E94271AAC0164E081
:1011300086EA97E0DF91CF911F910F910C940211F5
:1011400089AD9FEF980F99AF823058F463E086EA3B
:1011500097E0DF91CF911F910F910C94E41161E022
:10116000D5CFDF91CF911F910F910895FC0115AA62
:1011700016AA17AA10AE0895FC0115AA16AA17AA56
:1011800010AE67A5623021F086EA97E00C94E41176
:101190000895CF93DF93EC016EA78FEF860F833016
:1011A00008F46FA76330C9F058F4613081F0623001
:1011B00009F043C02BE430E04DE350E060E024C090
:1011C000643039F16530C9F588E089AF36C02BE469
:1011D00030E04DE350E061E017C061E084EF97E05C
:1011E0009DDE62E086EA97E00E9453112AE0289F84
:1011F000B001299F700D112484EF97E0A6DE21E451
:1012000030E04DE350E062E089EE97E0DF91CF916E
:1012100076C30E94671969AB7AAB8BAB9CAB63E07A
:1012200086EA97E00E94531128EE33E0DC010E9429
:10123000501D6DAB7EAB8FAB98AFDF91CF91089512
:10124000623049F48AE0849FB001859F700D1124BB
:1012500084EF97E07ACE0895FC01138A128A60E049
:1012600070E0DB011496AA0FBB1FAE0FBF1F2D91BC
:101270003C9182899389820F931F938B828B6F5F3E
:101280007F4F6530710569F7828993890E94F91C47
:10129000CB010895FC01178E168E60E070E0DB0133
:1012A0001A96AA0FBB1FAE0FBF1F2D913C91868DC2
:1012B000978D820F931F978F868F6F5F7F4F65305B
:1012C000710569F7868D978D0E94F91CCB010895F1
:1012D0000F931F93CF93DF93EC010C811D8182E468
:1012E0000E94271AF8013496EE0FFF1FEC0FFD1F26
:1012F00091838083EC81FD813496EE0FFF1FEC0F0C
:10130000FD1F80819181893791055CF4EC81FD811D
:101310003496EE0FFF1FEC0FFD1F80819181CA975D
:101320007CF48C819D81892BB9F4EC81FD818889C5
:1013300099893496EE0FFF1FEC0FFD1F9183808378
:101340008C819D8101969D838C838C819D810597E5
:1013500079F41D821C820CC0EC81FD81AC81BD81C1
:101360001396AA0FBB1FAC0FBD1F8D919C91E1CFAF
:10137000DF91CF911F910F9108950F931F93CF93FA
:10138000DF93EC010E811F8183E40E94271AF8018C
:101390003A96EE0FFF1FEC0FFD1F91838083EE81C5
:1013A000FF813A96EE0FFF1FEC0FFD1F80819181A8
:1013B000893791055CF4EE81FF813A96EE0FFF1FAD
:1013C000EC0FFD1F80819181CA977CF48E819F81F3
:1013D000892BB9F4EE81FF818C8D9D8D3A96EE0FAD
:1013E000FF1FEC0FFD1F918380838E819F810196EB
:1013F0009F838E838E819F81059779F41F821E8241
:101400000CC0EE81FF81AE81BF811996AA0FBB1F70
:10141000AC0FBD1F8D919C91E1CFDF91CF911F91BA
:101420000F9108958F929F92AF92BF92CF92DF92C9
:10143000EF92FF920F931F93CF93DF931F921F9210
:10144000CDB7DEB78C0180EF97E0BCD1882321F0C7
:10145000C8013EDFC80191DFF80185A996A9A7A9B7
:10146000B0AD181619061A061B060CF06FC0F894DA
:10147000F80182A593A59A838983789486E30E94D4
:10148000271A29813A812F3431055CF0F80115AA19
:1014900016AA17AA10AE49815A814E54510961E02B
:1014A0000DC08139F1E09F0774F0F80115AA16AA62
:1014B00017AA10AEAC014059514063E086EA97E0AC
:1014C0000E94041343C00E946719F80181A892A8E2
:1014D000A3A8B4A86B017C01C818D908EA08FB08C6
:1014E00086169706A806B9062CF0F1E0CF1AD108A7
:1014F000E108F108F80161AB72AB83AB94AB45A98D
:1015000056A967A970AD4C195D096E097F0945ABF5
:1015100056AB67AB70AF77FF19C015AA16AA17AA0A
:1015200010AE61E083E20E94D81A0E946719F801A8
:10153000608371838283938340E050E064E086EAB5
:1015400097E00E9404138EEF97E06FD80F900F90F2
:10155000DF91CF911F910F91FF90EF90DF90CF908F
:10156000BF90AF909F908F900895CF92DF92EF92AF
:10157000FF920F931F93CF93DF938C01CC24CA94D7
:10158000DC2CE12CF12C82E40E94271AE701CC0F1D
:10159000DD1FC00FD11F9987888783E40E94271A17
:1015A0009D8B8C8B888599858937910524F4888556
:1015B0009985CA9744F4E114F10449F5F80180894A
:1015C0009189918780878C899D898937910524F439
:1015D0008C899D89CA9744F4E114F10419F5F80146
:1015E000848D958D958B848BFFEFEF1AFF0A8FEF1B
:1015F000C81AD80AE5E0EE16F10429F6DF91CF917A
:101600001F910F91FF90EF90DF90CF900895F6011A
:101610003496EE0FFF1FE00FF11F808191819987B3
:101620008887D1CFF6013A96EE0FFF1FE00FF11F2A
:10163000808191819D8B8C8BD7CFFC0186A50895ED
:10164000FC01118221E0208308950895CF93DF9358
:10165000EC0189818823A1F061111AC019828BE203
:101660000E94D81A60E08DE20E94D81A60E089E2F8
:101670000E94D81A60E087E2DF91CF910C94D81ACB
:10168000662331F081E0898382EE99E06EDF188273
:10169000DF91CF9108950F931F93CF93DF9300D0E5
:1016A0001F92CDB7DEB78C01FC018081811105C08E
:1016B00089EE97E034D1882359F0F801818188239D
:1016C00009F477C089EE97E02AD18823D9F071C058
:1016D00061E08DE20E94D81A61E087E20E94D81A88
:1016E00062E370E080E090E00E94961960E08DE295
:1016F0000E94D81A60E087E20E94D81A81E0F801BF
:101700008083DBCF82EE99E0A7DD9C838B8382EE22
:1017100099E0C0DD9A8389838B819C811816190614
:101720000CF047C089819A81181619060CF041C047
:101730008B819C8129813A81821B930B8F3F9F4F24
:10174000ACF461E08DE20E94D81A6EE170E080E0B6
:1017500090E00E94961960E08DE20E94D81A68EC31
:1017600070E080E090E00E94961923C08B819C81FC
:1017700029813A81821B930B02972CF060E08DE265
:101780000E94D81A16C068E075E08AE39AE00E94C9
:101790001D188EEF97E00E94080364E670E080E079
:1017A00090E00E9496198EEF97E058D960E0C8014A
:1017B0004DDF0F900F900F900F90DF91CF911F9101
:1017C0000F910895FC018181089560E08AE20E94F2
:1017D000D81A8EEF97E00E9401038FEF9FEF28CB7E
:1017E000FC011482138212821182108216821582E9
:1017F0000895FC018581662329F081110AC081E0EA
:1018000085830895882329F01582148280E090E072
:101810000FCB0895CF93DF93EC016C83613081F09F
:1018200050F0623081F06330B9F480E090E000DB8A
:1018300082E08E8311C080E090E0DF91CF91F8CA02
:10184000DF91CF91C2CF81E090E0F2DA61E080EFEA
:1018500097E0DF91CF91FACEDF91CF9108950F936A
:101860001F93CF93DF9300D0CDB7DEB78C01F894F0
:1018700080910C0A90910D0A9A8389837894F801DB
:101880004481423081F0433021F1413081F589813A
:101890009A8120813181281739074CF161E08AE271
:1018A0000E94D81A12C089819A81F801228133815D
:1018B0008217930754F083E0848380E090E04B83A9
:1018C000B7DA4B81F801468312C062E0C801A2DF9B
:1018D0000EC0F80186819FEF980F9683811107C093
:1018E000148280E090E0A4DA82EE99E03FDC0F9071
:1018F0000F900F90DF91CF911F910F910895CF938B
:10190000DF93EC01598348833B832A838EEF97E072
:101910000E94100381E08C83DF91CF9156CFFC01B0
:10192000848108958CE20E940D1B61E0892B09F0EF
:1019300060E08CE20C94D81ACF92DF92EF92FF9283
:101940000E9467196B017C018EEF97E00E94D4031F
:1019500088EF97E01DD984EF97E0C2DA82EF97E035
:101960008DD982EE99E07FDB80EF97E06EDE89EE25
:1019700097E075DF86EE97E0F9D186EA97E006D525
:101980000E9467196C197D097093A9076093A807D5
:10199000FF90EF90DF90CF900895CF93DF93E09189
:1019A0000E0AF0910F0AEE0FFF1FEE5FF54FC08198
:1019B000D18184E40E94271A9C012A5331092731DE
:1019C0003105D0F080910E0A90910F0AE0910E0A35
:1019D000F0910F0A892B29F480910A0A90910B0A41
:1019E0000FC0A0910E0AB0910F0AAA0FBB1FA05002
:1019F000B64F8D919C9104C0E0910E0AF0910F0AB0
:101A0000EE0FFF1FEE5FF54F91838083E0910E0A8A
:101A1000F0910F0AEE0FFF1FEE5FF54F808191816D
:101A200020910C0A30910D0A65E070E00E94F91CCB
:101A3000FB01CE016BEF7FEF0E94F91CE60FF71F51
:101A40002E0F3F1F30930D0A20930C0A80910E0A2F
:101A500090910F0A019690930F0A80930E0A80913D
:101A60000E0A90910F0A059721F410920F0A109216
:101A70000E0A8EEF97E00E941F05823039F58EEF37
:101A800097E00E941A05813031F08EEF97E00E94B6
:101A90001A058230D9F48EEF97E00E942405811157
:101AA00015C0F8948FE30E94271A8634910544F0FC
:101AB00080E40E94271A8634910514F0789406C0B9
:101AC00061E08EEF97E00E942905F8CFDF91CF917A
:101AD0000895CF92DF92EF92FF920F931F930E948F
:101AE00067196B017C0186EA97E0E0D58EEF97E0FD
:101AF0000E944E0380EF97E0CEDD8091E209909145
:101B0000E309A091E409B091E509181619061A062F
:101B10001B062CF50E9467190091E2091091E30958
:101B20002091E4093091E509601B710B820B930B46
:101B300097FF04C06150710981099109693E7340A2
:101B40008105910564F060E083E20E94D81A10924A
:101B5000E2091092E3091092E4091092E50982EE7D
:101B600099E060DC0E9467196C197D097093A707E2
:101B70006093A6078CEF96E040D182E596E01F9136
:101B80000F91FF90EF90DF90CF9037C10F931F938D
:101B9000CF93DF93C0E0D0E005E010E084E40E9442
:101BA000271AFE01EE0FFF1FEE5FF54F9183808332
:101BB0008081918120910C0A30910D0AB8010E9418
:101BC000F91C260F371F30930D0A20930C0A83E46B
:101BD0000E94271AFE01EE0FFF1FEA50F64F918375
:101BE000808382E40E94271AFE01EE0FFF1FE65158
:101BF000F64F918380832196C530D10579F6DF9128
:101C0000CF911F910F910895B1D826E040E855E299
:101C100060E070E08AE39AE00E94BA1620E044E0B7
:101C200064E18CE19AE0EDD62CE93CE04AEF50E02B
:101C300060E070E08CEF96E03BD122E93CE040E8C8
:101C40005EEE66E370E082E596E032D19FDF40E72A
:101C50005BE062E070E084E39AE0C5D12FEF3FEFF4
:101C6000A9016DEC7CE084E39AE0CCD178940895EE
:101C7000CF92EF920F93B7E0CB2E06E0E02E05E077
:101C800024E043E062E08CE19AE041D782EE99E003
:101C9000CAD98EEF97E00E94820288EF97E00E94F7
:101CA000BC0584EF97E0EED882EF97E00E942A0609
:101CB00080EF97E0C5DC89EE97E092DD86EE97E055
:101CC0003AD06CE17AE086EA97E024D28CEF96E095
:101CD00061D082E596E00F91EF90CF905BC0CF93FB
:101CE000DF93EC0186EA97E06CD3833028F061E063
:101CF00082EF97E00E94660661E08FE10E94D81AA9
:101D000080E19EE09A8389838CE00E940D1B0197FD
:101D100059F48DE30E94271A019731F461E08BE1B9
:101D2000DF91CF910C94D81ADF91CF91089521E0E3
:101D3000FC012083D4CFFBCFFC016083662319F024
:101D4000613099F0089560E08BE10E94D81A8EE12D
:101D50000E940D1B892B29F060E082EF97E00E9422
:101D6000660660E08FE10C94D81AB9CFFC0120819F
:101D7000213061F421813281121613062CF4215096
:101D8000310932832183089560E0D6CF0895FC01A4
:101D9000808108950F931F93CF93DF93EC018C0103
:101DA00006551F4FCE010E9469066196C017D107E4
:101DB000C9F7DF91CF911F910F910895CF92DF92D4
:101DC000EF92FF921F93CF93DF936A017B01EC01A7
:101DD0001AE08881882329F0B701A601CE010E946C
:101DE0006C06115061961111F4CFDF91CF911F91C4
:101DF000FF90EF90DF90CF900895CF93DF93EC01A9
:101E00000E946719AB01BC01CE01DF91CF91D6CF03
:101E100020E0FC013081332331F02F5F41962A30DE
:101E2000C1F78FEF0895822F0895CF92DF92EF923E
:101E3000FF920F931F93CF93DF9300D01F92CDB7E4
:101E4000DEB76C01790149835A836B837C83E0DFC1
:101E5000282F49815A816B817C818F3FD9F081E1A4
:101E60002802C00CD11C112481E0F601808341833B
:101E700052836383748316830583F286E186298304
:101E80000E946719F6016387748785879687108A91
:101E900017862981822F0F900F900F900F90DF915E
:101EA000CF911F910F91FF90EF90DF90CF90089509
:101EB0000F931F930FEF1FEFB8DF1F910F9108953E
:101EC0001F920F920FB60F9211240BB60F922F9301
:101ED0003F934F935F936F937F938F939F93AF93B2
:101EE000BF93EF93FF93E091380AF091390A199567
:101EF000FF91EF91BF91AF919F918F917F916F91E2
:101F00005F914F913F912F910F900BBE0F900FBE9D
:101F10000F901F901895FC01A3E0440F551F661FFA
:101F2000771FAA95D1F74115510581E06807710522
:101F300014F481E00EC033E0759567955795479589
:101F40003A95D1F74115510581E0680771051CF4F8
:101F500082E0828331C023E0759567955795479558
:101F60002A95D1F74115510581E06807710514F4F0
:101F700083E0EFCF92E075956795579547959A95D1
:101F8000D1F74115510581E06807710514F484E02B
:101F9000E0CF82E075956795579547958A95D1F77B
:101FA00085E082834115510581E06807710524F0C1
:101FB0004FEF5FEF60E070E08FB78383F894518359
:101FC0004083509387004093860083818FBF809128
:101FD0008100887F80938100809181009281892B8C
:101FE0008093810008951092800020E12093810069
:101FF00092CFE1E8F0E02081DC0112968C91282B51
:10200000208308950F931F93CF93DF93EC018B01EF
:10201000BA01A90114161506160617060CF47BDF83
:102020001D830C8381E080936F00CE01DF91CF91FF
:102030001F910F91DECFCF93DF93EC01862F688342
:1020400062E00E949F1A1A821B821C821D821982E2
:10205000DF91CF910895EF92FF920F931F93CF934B
:10206000DF9300D01F92CDB7DEB77C01FC018081E9
:1020700049835A836B837C830E940D1BF701028185
:1020800013812481358149815A816B817C81892B1F
:10209000F1F4400F511F621F731F42835383648307
:1020A0007583413A5648614071053CF140EA56E873
:1020B00061E070E0F701428353836483758381811B
:1020C00081111BC081E0818381E090E018C0041B76
:1020D000150B260B370BF7010283138324833583FB
:1020E00037FF0BC0128213821482158281818823EC
:1020F00021F011828FEF9FEF02C080E090E00F90FF
:102100000F900F900F90DF91CF911F910F91FF9043
:10211000EF900895EF92FF920F931F93CF93DF9369
:10212000EC017B0186E090E00E941C198C016BE0C1
:1021300082DF1B870A8786E090E00E941C198C01D1
:102140006AE079DF1D870C8786E090E00E941C1909
:102150008C0169E070DF1F870E8786E090E00E94A7
:102160001C198C0168E067DF198B088BFB8AEA8AEF
:102170005FE05C8B61E0698F42E04E8F8AE090E027
:102180009CA38BA323E030E03EA72DA79EAB8DAB95
:102190005D8B6A8F4F8F9EA38DA338AB2FA798AF0F
:1021A0008FAB5E8B4B8F48A322E030E038A72FA384
:1021B00021E030E03AAB29AB9AAF89AF5F8B83E087
:1021C0008C8F49A385E090E09AA789A73CAB2BAB05
:1021D00084E190E09CAF8BAF87E0888F4D8F84E0E7
:1021E0008AA387E30E94271A9CA78BA78A899B89C9
:1021F000E5D38A899B89DF91CF911F910F91FF9041
:10220000EF90F2C3CF93DF93FC012481862F90E0FF
:10221000DC01AA0FBB1FEF01CA0FDB1F211115C084
:102220002DA53EA54217530714F45EA74DA7AE0F88
:10223000BF1FD5962D913C91D69724173507B4F43E
:10224000D6965C934E93D59711C02DA53EA5241725
:1022500035070CF49A01AE0FBF1FD5960D90BC91B7
:10226000A02DA901A217B3070CF4AD019C01220F08
:10227000331FDF01A20FB31FC1E093960D90BC91F5
:10228000A02DA417B50709F4C0E0E20FF31F54A373
:1022900043A3CC2321F082EE99E00E9420098C2FE9
:1022A000DF91CF910895860F911D860F911DFC013E
:1022B00083A194A10895DF92EF92FF920F931F9351
:1022C000CF93DF93EC01D62E062F10E07C01E00EB9
:1022D000F11EF701418D64898A899B8974D3F801C5
:1022E000EE0FFF1FEC0FFD1F03A114A1F701E68CF9
:1022F000F12C81E090E00A30110514F480E090E0C8
:10230000E81AF90A81E090E00436110514F480E03F
:1023100090E0E81AF90A81E090E0083EF3E01F0738
:1023200014F480E090E0E81AF90A21E0E21AF108DA
:102330008A899B891E141F041CF460E265D6F5CFC0
:102340004AE050E0B80127D782E0D81659F0D816F5
:1023500030F0E3E0DE1212C06FE175E005C069E124
:1023600075E002C06CE175E08A899B89DF91CF91AD
:102370001F910F91FF90EF90DF9045C6DF91CF91B5
:102380001F910F91FF90EF90DF900895CF93DF930F
:10239000EC018C81813069F050F0833079F461E098
:1023A000CE0189DF62E0CE0186DF63E003C064E036
:1023B00001C060E0CE01DF91CF917DCFDF91CF9161
:1023C0000895FC01848108950F931F93CF93DF93A9
:1023D0001F92CDB7DEB78C018FEFF801858386EEB3
:1023E00097E06983A4DCF8018289938903D3F8011B
:1023F00082899389E3D26981F80164836230B1F103
:10240000C8F46623F9F0613009F0E8C060E082EFBB
:1024100097E00E94660669E475E0F8018289938975
:10242000F2D541E063E0F80182899389CCD26DE571
:1024300075E02FC0643009F460C080F1653009F4A4
:1024400073C0CCC060E082EF97E00E94660661E254
:1024500075E0F80182899389D6D541E060E0F80102
:1024600082899389B0D265E375E013C060E082EFA2
:1024700097E00E94660668E675E0F8018289938914
:10248000C2D541E060E0F801828993899CD26DE772
:1024900075E0F80182899389B6D5A0C080E00E94DA
:1024A0003E0761E082EF97E00E94660662E975E010
:1024B000F80182899389A7D541E062E0F801828919
:1024C000938981D26DE575E0F801828993899BD566
:1024D00042E062E0F8018289938975D266EA75E08C
:1024E000F801828993898FD543E062E0F8018289FF
:1024F000938969D262EB75E0CCCF60E084EF97E01E
:102500000E948E0781E00E943E0762E975E0F801B3
:102510008289938978D542E066E0F80182899389BF
:1025200052D26CEB75E0B5CF80E00E943E0760E0D0
:1025300082EF97E00E94660662E975E0F801828901
:10254000938961D5F80125AD82899389243031F4CE
:1025500042E066E038D265EC75E09BCF41E066E092
:1025600032D26DEC75E0F801828993894CD542E056
:1025700066E0F8018289938926D2F80125AD828927
:102580009389223039F0233041F0213049F466ED4F
:1025900075E015C06DEF75E012C06FE076E00FC01A
:1025A00067E176E030D54AE050E0F80165AD828918
:1025B00093891AD66BE176E0F8018289938923D555
:1025C00043E068E0F80182899389FDD1F80166ADA6
:1025D00077AD4AE050E082899389DDD582EE99E0BB
:1025E0002CD8F8016481861749F082EE99E00F90AB
:1025F000DF91CF911F910F910C94C9080F90DF913B
:10260000CF911F910F910895FC0165AF57AF46AF71
:1026100065E0DACE1F93CF93DF93EC01162F8D8107
:102620008F3FE9F0FE01E80FF11D64896F5F418D76
:102630008A899B89C8D166E376E08A899B89E3D43D
:102640008D81FE01E80FF11D64896C5F418D8A89DF
:102650009B89B9D166E376E08A899B89D4D41D83AE
:102660001F3F01F1FE01E10FF11D64896F5F418D94
:102670008A899B89A8D16FE176E08A899B89C3D436
:102680008D81FE01E80FF11D64896C5F418D8A899F
:102690009B8999D161E276E08A899B89DF91CF910C
:1026A0001F91B1C4DF91CF911F910895AF92BF9256
:1026B000CF92DF92EF92FF920F931F93CF93DF930E
:1026C000EC0143E060E08A899B897DD163E276E09A
:1026D0008A899B8998D443E060E08A899B8973D179
:1026E0008EEF97E00E9453054AE050E0BC018A89D2
:1026F0009B8951D566E376E08A899B8984D4609171
:10270000D0097091D1094AE050E08A899B8943D56C
:1027100066E376E08A899B8976D46091D2097091CC
:10272000D3094AE050E08A899B8935D566E376E093
:102730008A899B8968D46091D4097091D5094AE04F
:1027400050E08A899B8927D566E376E08A899B8950
:102750005AD4C9D5CE80DF80E884F9849B01AC01CE
:102760002C193D094E095F0969017A0157FF06C01E
:1027700031E0C31AD108E108F10804C06E837F83F9
:1027800088879987B701A6018A859B8564DCAA247E
:10279000A394181619060CF0A12CB701A60188897C
:1027A000998959DCBB24B394181619060CF0B12C86
:1027B000B701A6018C859D854EDC31E020E018161E
:1027C00019060CF030E0032F122FB701A6018E85F9
:1027D0009F8541DC1816190614F401501109AA202E
:1027E00049F0BB2069F00115110531F086EE97E044
:1027F0009EDA02C0BB2021F08EEF97E00E94EF022C
:102800008C81813019F0823061F00FC0AA2011F064
:1028100063E00EC0BB2039F18D818823F9F060E0C0
:1028200020C0AA2001F161E003C0AA2041F062E0CB
:10283000CE01CADD8EEF97E00E94EF0214C0833014
:1028400091F4BB2081F08D81823031F0833031F002
:10285000813031F462E005C063E003C06FEF01C076
:1028600061E0CE01D7DE01151105C1F06D816F3F2A
:10287000A9F0FE01E60FF11DE60FF11D43A154A1E1
:10288000400F511FCE01DF91CF911F910F91FF900B
:10289000EF90DF90CF90BF90AF90B4CCDF91CF910D
:1028A0001F910F91FF90EF90DF90CF90BF90AF906E
:1028B0000895CF93DF93EC0160E08E8179D681E0BB
:1028C00090E059D561E08E8173D681E090E053D5D8
:1028D00060E08E816DD684E690E0DF91CF914BC5AC
:1028E000EF92FF920F931F93CF93DF938C01C0E081
:1028F000D0E0E62EF12CB7010C2E02C0759567953D
:102900000A94E2F76170F801EC0FFD1F878150D641
:102910002196C430D10579F7C801DF91CF911F917D
:102920000F91FF90EF90C5CFEF92FF920F931F93FF
:10293000CF93DF938C01C0E0D0E0E62EF12CB701FD
:102940000C2E02C0759567950A94E2F76170F80144
:10295000EC0FFD1F87812CD62196C830D10579F761
:10296000C801DF91CF911F910F91FF90EF90A1CF00
:102970001F93CF93DF93EC01162F642F8C8118D611
:102980008D818F3F11F060E013D68F85612F84FF1A
:1029900005C0CE01DF91CF911F91C6CF70E084E0DA
:1029A000759567958A95E1F7CE019ADF612FCE0183
:1029B000DF91CF911F9194CF40E0DACF61E0FCDF4F
:1029C00080ED97E0D8C4443008F043E0FC0123894F
:1029D000421710F04FEF420FFC01E40FF11D248964
:1029E000260F2068622FE8CFFC0160896B7F608B27
:1029F0006860E2CFFC016089262F2460208B6C6028
:102A0000DBCF0F931F93CF93DF93EC01423018F08D
:102A10008F8588608F874B8B1C8A80E48D8B6E8BB3
:102A200070E0605C7F4F6F8B222329F0413019F4F6
:102A30008F8584608F8761E08C8181D58D818F3F08
:102A400011F061E07CD561E08E8179D500E010E085
:102A50008F8584FF03C088E090E002C084E090E0AE
:102A6000081719074CF4FE01E00FF11F61E08781A0
:102A700066D50F5F1F4FECCF80E593EC7CD460E010
:102A80008C8196D560E08E8193D58D818F3F11F03A
:102A900060E08ED56F8564FD16C063E0CE0120DF57
:102AA00084E991E168D463E0CE011ADF84E991E121
:102AB00062D463E0CE0114DF86E990E05CD462E08A
:102AC000CE010EDF11C06062CE0176DF84E991E1B4
:102AD00052D46F856062CE016FDF86E990E04BD4FF
:102AE0006F856062CE0168DF6F856062CE0164DF52
:102AF00084E0888BCE017EDFCE0160DF82E0898BAF
:102B000066E0CE01DF91CF911F910F9155CFCF920B
:102B1000EF920F93FC01138212828CE396E0918373
:102B2000808364838FEF8583468327830087E186D4
:102B3000C2861386148615861686178620E041E025
:102B400060E1CF010F91EF90CF905BCF41E010DFBC
:102B500081E090E00895FC01818D228D90E0805C01
:102B60009F4F821B91098F7399270895FC01918DC6
:102B7000828D981731F0828DE80FF11D858D90E0E0
:102B800008958FEF9FEF0895FC01918D828D981726
:102B900061F0828DDF01A80FB11D5D968C91928D41
:102BA0009F5F9F73928F90E008958FEF9FEF08953E
:102BB00089E797E1892B39F080E090E0892B19F0C3
:102BC00098D1811125C080E090E0892B41F080E010
:102BD00090E0892B21F00E94000081111CC080E050
:102BE00090E0892B41F080E090E0892B21F00E9459
:102BF0000000811113C080E090E0892BA1F080E0FB
:102C000090E0892B81F00E94000081110AC0089594
:102C10000E940000D8CF0E940000E1CF0E94000077
:102C2000EACF0C9400000895FC01848DDF01A80F09
:102C3000B11DA35ABF4F2C91848D90E001968F73E4
:102C40009927848FA689B7892C93A089B1898C9103
:102C500080648C93938D848D981306C00288F389C9
:102C6000E02D80818F7D80830895CF93DF93EC01E9
:102C7000888D8823C1F0EA89FB89808185FD05C0A4
:102C8000A889B9898C9186FD0EC00FB607FCF5CFD7
:102C9000808185FFF2CFA889B9898C9185FFEDCF1E
:102CA000CE01C2DFE8CFDF91CF910895CF92DF92BE
:102CB000FF920F931F93CF93DF931F92CDB7DEB791
:102CC0006C01DC015B969C915B975C968C915C97A8
:102CD000981307C05096ED91FC915197808185FD26
:102CE00031C0F601038D10E00F5F1F4F0F731127E6
:102CF000F02EF601848DF81210C00FB607FCF9CF44
:102D0000D6015096ED91FC915197808185FFF1CFCE
:102D1000C601698389DF6981ECCF838DE80FF11DDE
:102D2000E35AFF4F6083D6015B960C935B975296F4
:102D3000ED91FC91539780818062808381E0589669
:102D40008C930DC0D6015696ED91FC9157976083F8
:102D50005096ED91FC91519780818064808381E051
:102D600090E00F90DF91CF911F910F91FF90DF9036
:102D7000CF900895BF92CF92DF92EF92FF92CF93C0
:102D8000DF93EC016A017B01B22EE889F98982E0C8
:102D90008083411581EE58076105710599F060E067
:102DA00079E08DE390E0A701960136D621503109F4
:102DB000410951095695479537952795211580E189
:102DC000380790F0E889F989108260E874E88EE1AC
:102DD00090E0A701960120D62150310941095109FF
:102DE0005695479537952795EC85FD853083EE857B
:102DF000FF852083188EEC89FD89B082EA89FB89E2
:102E0000808180618083EA89FB89808188608083FA
:102E1000EA89FB89808180688083EA89FB898081D7
:102E20008F7D8083DF91CF91FF90EF90DF90CF90E7
:102E3000BF9008951F920F920FB60F9211240BB6F8
:102E40000F922F938F939F93EF93FF93E0914A0AF2
:102E5000F0914B0A8081E091500AF091510A82FD75
:102E600012C090818091530A8F5F8F732091540A12
:102E7000821751F0E091530AF0E0E65CF54F958F30
:102E80008093530A01C08081FF91EF919F918F91B0
:102E90002F910F900BBE0F900FBE0F901F901895A3
:102EA0001F920F920FB60F9211240BB60F922F9311
:102EB0003F934F935F936F937F938F939F93AF93C2
:102EC000BF93EF93FF938AE39AE0AEDEFF91EF9119
:102ED000BF91AF919F918F917F916F915F914F9132
:102EE0003F912F910F900BBE0F900FBE0F901F9030
:102EF00018958AE39AE02FDE21E0892B09F420E07F
:102F0000822F089510923D0A10923C0A88EE93E0B9
:102F1000A0E0B0E080933E0A90933F0AA093400A5D
:102F2000B093410A84E496E090933B0A80933A0A76
:102F300085EC90E09093470A8093460A84EC90E0F9
:102F40009093490A8093480A80EC90E090934B0A52
:102F500080934A0A81EC90E090934D0A80934C0A4A
:102F600082EC90E090934F0A80934E0A86EC90E0BA
:102F70009093510A8093500A1092530A1092540A67
:102F80001092550A1092560A0895CF92DF92EF924E
:102F9000FF920F931F93CF93DF936C017A01EB01A4
:102FA000E60EF71E00E010E0CE15DF0561F0699136
:102FB000D601ED91FC910190F081E02DC6011995AB
:102FC000080F191FF1CFC801DF91CF911F910F9109
:102FD000FF90EF90DF90CF9008956115710581F01B
:102FE000DB010D900020E9F7AD0141505109461B6E
:102FF000570BDC01ED91FC910280F381E02D1994D7
:1030000080E090E00895E9CFDC01ED91FC91019022
:10301000F081E02D19940F931F93CF93DF93EC0170
:103020006DE0F2DF8C016AE0CE01EEDF800F911FD0
:10303000DF91CF911F910F9108950F931F93CF931D
:10304000DF93EC01CADF8C01CE01E5DF800F911F19
:10305000DF91CF911F910F9108958F929F92AF9220
:10306000BF92CF92DF92EF92FF920F931F93CF9375
:10307000DF93CDB7DEB7A1970FB6F894DEBF0FBED2
:10308000CDBF7C01C42EE52FCB01D22E19A221E0A9
:103090002D1510F02AE0D22E8E010F5D1F4F8D2CC2
:1030A000912CA12CB12C6C2D7E2FA5019401B4D4B0
:1030B0008C2DD29E80191124015011098A3014F4EC
:1030C000805D01C0895CF8018083211531054105CF
:1030D000510521F0C22EE32FCA01E5CFB801C70187
:1030E0007CDFA1960FB6F894DEBF0FBECDBFDF9197
:1030F000CF911F910F91FF90EF90DF90CF90BF90F5
:10310000AF909F908F900895CF92DF92EF92FF92B1
:103110000F931F93CF93DF93EC016A017B0121157D
:10312000310579F4E881F9810190F081E02D642F77
:10313000DF91CF911F910F91FF90EF90DF90CF9093
:1031400019942A303105D9F477FF18C06DE25CDF9D
:103150008C0144275527BA014C195D096E097F0976
:103160002AE0CE017ADF800F911FDF91CF911F916E
:103170000F91FF90EF90DF90CF9008952AE0B70174
:10318000A601CE01DF91CF911F910F91FF90EF909B
:10319000DF90CF9062CF9A01AB01662757FD609513
:1031A000762FB2CF0F931F93CF93DF93EC019A0149
:1031B000AB01662757FD6095762FA6DF8C01CE0107
:1031C0002ADF800F911FDF91CF911F910F910895FA
:1031D0002115310541F4DC01ED91FC910190F08164
:1031E000E02D642F199439CF9A01462F50E060E00A
:1031F00070E0EECF0F931F93CF93DF93EC019A0112
:10320000462F50E060E070E0E3DF8C01CE0103DF89
:10321000800F911FDF91CF911F910F910895089515
:10322000B4D0FDDF0E94040EC8EDD5E10E94690D07
:103230002097E1F3BDDCFACF60C41F920F920FB666
:103240000F9211242F933F938F939F93AF93BF932C
:103250008091D80A9091D90AA091DA0AB091DB0A3C
:103260003091D70A23E0230F2D3720F40196A11DBA
:10327000B11D05C026E8230F0296A11DB11D2093A4
:10328000D70A8093D80A9093D90AA093DA0AB09308
:10329000DB0A8091DC0A9091DD0AA091DE0AB091F0
:1032A000DF0A0196A11DB11D8093DC0A9093DD0A0F
:1032B000A093DE0AB093DF0ABF91AF919F918F91E7
:1032C0003F912F910F900FBE0F901F9018952FB721
:1032D000F8946091D80A7091D90A8091DA0A909195
:1032E000DB0A2FBF08953FB7F8948091DC0A9091D4
:1032F000DD0AA091DE0AB091DF0A26B5A89B05C0C1
:103300002F3F19F00196A11DB11D3FBF6627782FF1
:10331000892F9A2F620F711D811D911D42E0660F4A
:10332000771F881F991F4A95D1F70895CF92DF9292
:10333000EF92FF92CF93DF936B017C01D4DFEB011F
:10334000C114D104E104F10479F0CBD1CCDF6C1BC2
:103350007D0B683E7340A0F381E0C81AD108E108F4
:10336000F108C851DC4FECCFDF91CF91FF90EF9087
:10337000DF90CF900895019739F0880F991F880F3B
:10338000991F02970197F1F70895789484B58260A8
:1033900084BD84B5816084BD85B5826085BD85B5F9
:1033A000816085BDEEE6F0E0808181608083E1E8A8
:1033B000F0E01082808182608083808181608083E0
:1033C000E0E8F0E0808181608083E1EBF0E08081E3
:1033D00084608083E0EBF0E0808181608083E1E9BC
:1033E000F0E0808182608083808181608083E0E979
:1033F000F0E0808181608083E1EAF0E0808182609A
:103400008083808181608083E0EAF0E08081816058
:103410008083E1E2F1E0808182608083808181604D
:103420008083E0E2F1E0808181608083EAE7F0E080
:1034300080818460808380818260808380818160DC
:1034400080838081806880831092C10008958633D4
:1034500008F0865320917B00982F9870277F922B3D
:1034600090937B0087702091060290E4299F900141
:103470001124822B80937C0080917A008064809359
:103480007A0080917A0086FDFCCF809178002091AF
:10349000790090E0922B089590E0FC013197E231A1
:1034A000F10508F04BC0EE58FF4FF4C28091800048
:1034B0008F7703C0809180008F7D80938000089576
:1034C00080918000877FF9CF84B58F7702C084B563
:1034D0008F7D84BD08958091B0008F7703C0809167
:1034E000B0008F7D8093B0000895809190008F7719
:1034F00007C0809190008F7D03C080919000877FEE
:103500008093900008958091A0008F7707C08091EC
:10351000A0008F7D03C08091A000877F8093A000D2
:103520000895809120018F7707C0809120018F7DC1
:1035300003C080912001877F809320010895CF935D
:10354000DF9390E0FC01E25BFE4F2491FC01EC561E
:10355000FE4F8491882349F190E0880F991FFC0168
:10356000E25FFD4FA591B4918C509E4FFC01C59137
:10357000D4919FB7611108C0F8948C912095822353
:103580008C93888182230AC0623051F4F8948C9124
:10359000322F309583238C938881822B888304C0BB
:1035A000F8948C91822B8C939FBFDF91CF910895DB
:1035B0000F931F93CF93DF931F92CDB7DEB7282FC2
:1035C00030E0F901E85FFE4F8491F901E25BFE4FC4
:1035D0001491F901EC56FE4F04910023C1F08823A9
:1035E00019F0698359DF6981E02FF0E0EE0FFF1FCA
:1035F000EC50FE4FA591B4919FB7F8948C91611156
:1036000003C01095812301C0812B8C939FBF0F9025
:10361000DF91CF911F910F910895CF93DF93282FC2
:1036200030E0F901E85FFE4F8491F901E25BFE4F63
:10363000D491F901EC56FE4FC491CC2389F081114D
:103640002BDFEC2FF0E0EE0FFF1FE652FE4FA591AF
:10365000B4912C912D2381E090E021F480E002C010
:1036600080E090E0DF91CF910895BF92CF92DF92FA
:10367000EF92FF920F931F93CF93DF93C82ED62E16
:10368000B42EC7E0D0E0022F10E087E0E82EF12C46
:10369000B1100AC0F701EC1BFD0BB80102C0759513
:1036A0006795EA95E2F707C0B8010C2E02C0759540
:1036B00067950A94E2F7617077278C2D79DF61E0D6
:1036C0008D2D76DF60E08D2D73DF219708F7DF9178
:1036D000CF911F910F91FF90EF90DF90CF90BF900F
:1036E000089508955058BB27AA270ED0E5C0D6D01C
:1036F00030F0DBD020F031F49F3F11F41EF4CBC04A
:103700000EF4E095E7FBC1C0E92FE7D080F3BA17CC
:10371000620773078407950718F071F49EF5FFC0E0
:103720000EF4E0950B2EBA2FA02D0B01B9019001DC
:103730000C01CA01A0011124FF27591B99F0593F20
:1037400050F4503E68F11A16F040A22F232F342F68
:103750004427585FF3CF469537952795A795F040B6
:103760005395C9F77EF41F16BA0B620B730B840BCB
:10377000BAF09150A1F0FF0FBB1F661F771F881F83
:10378000C2F70EC0BA0F621F731F841F48F48795DB
:1037900077956795B795F7959E3F08F0B3CF9395CA
:1037A000880F08F09927EE0F97958795089504D014
:1037B0006894B111B5C0089598D088F09F5790F0E3
:1037C000B92F9927B751A0F0D1F0660F771F881F46
:1037D000991F1AF0BA95C9F712C0B13081F09FD085
:1037E000B1E008959CC0672F782F8827B85F39F023
:1037F000B93FCCF3869577956795B395D9F73EF4A5
:1038000090958095709561957F4F8F4F9F4F08954C
:10381000E89409C097FB3EF490958095709561956A
:103820007F4F8F4F9F4F9923A9F0F92F96E9BB2720
:103830009395F695879577956795B795F111F8CF9C
:10384000FAF4BB0F11F460FF1BC06F5F7F4F8F4F07
:103850009F4F16C0882311F096E911C0772321F0FD
:103860009EE8872F762F05C0662371F096E8862F95
:1038700070E060E02AF09A95660F771F881FDAF7EC
:10388000880F9695879597F9089597F99F6780E82F
:1038900070E060E008959FEF80EC089500240A94A2
:1038A0001616170618060906089500240A9412161B
:1038B0001306140605060895092E0394000C11F44E
:1038C000882352F0BB0F40F4BF2B11F460FF04C0FB
:1038D0006F5F7F4F8F4F9F4F089557FD9058440F54
:1038E000551F59F05F3F71F04795880F97FB991F5F
:1038F00061F09F3F79F0879508951216130614061C
:10390000551FF2CF4695F1DF08C0161617061806A8
:10391000991FF1CF86957105610508940895E89483
:10392000BB2766277727CB0197F908950BD0C4CF23
:10393000B5DF28F0BADF18F0952309F0A6CFABCF9A
:103940001124EECFCADFA0F3959FD1F3950F50E07D
:10395000551F629FF001729FBB27F00DB11D639F41
:10396000AA27F00DB11DAA1F649F6627B00DA11DE7
:10397000661F829F2227B00DA11D621F739FB00D8D
:10398000A11D621F839FA00D611D221F749F3327FD
:10399000A00D611D231F849F600D211D822F762F96
:1039A0006A2F11249F5750408AF0E1F088234AF093
:1039B000EE0FFF1FBB1F661F771F881F91505040DF
:1039C000A9F79E3F510570F060CFAACF5F3FECF39F
:1039D000983EDCF3869577956795B795F795E795CB
:1039E0009F5FC1F7FE2B880F911D9695879597F9DC
:1039F000089597FB072E16F4009406D077FD08D0A3
:103A000059D007FC05D03EF4909581959F4F0895BD
:103A1000709561957F4F0895A1E21A2EAA1BBB1BDA
:103A2000FD010DC0AA1FBB1FEE1FFF1FA217B3078A
:103A3000E407F50720F0A21BB30BE40BF50B661FA0
:103A4000771F881F991F1A9469F760957095809564
:103A500090959B01AC01BD01CF010895052E97FB08
:103A600016F400940FD057FD05D0D6DF07FC02D026
:103A700046F408C050954095309521953F4F4F4FE3
:103A80005F4F089590958095709561957F4F8F4F0A
:103A90009F4F0895EE0FFF1F0590F491E02D1994AC
:103AA0001DD0B7FF0895821B930B08950790F691E0
:103AB000E02D1994AA1BBB1B51E107C0AA1FBB1F15
:103AC000A617B70710F0A61BB70B881F991F5A95AA
:103AD000A9F780959095BC01CD010895A29FB001F2
:103AE000B39FC001A39F700D811D1124911DB29F32
:103AF000700D811D1124911D0895CF93DF938230A5
:103B0000910510F482E090E0E091E20AF091E30A7E
:103B100020E030E0A0E0B0E0309739F14081518101
:103B200048175907B8F04817590771F482819381F3
:103B3000109729F013969C938E9312972CC0909314
:103B4000E30A8093E20A27C02115310531F04217BC
:103B5000530718F0A901DB0101C0EF019A01BD0173
:103B6000DF010280F381E02DD7CF21153105F9F077
:103B7000281B390B2430310580F48A819B81611523
:103B8000710521F0FB019383828304C09093E30AC3
:103B90008093E20AFE01329644C0FE01E20FF31F59
:103BA0008193919322503109398328833AC020911F
:103BB000E00A3091E10A232B41F420910202309176
:103BC00003023093E10A2093E00A20910002309131
:103BD00001022115310541F42DB73EB74091040291
:103BE00050910502241B350BE091E00AF091E10AA7
:103BF000E217F307A0F42E1B3F0B2817390778F0C4
:103C0000AC014E5F5F4F2417350748F04E0F5F1F22
:103C10005093E10A4093E00A8193919302C0E0E05F
:103C2000F0E0CF01DF91CF910895CF93DF9300971C
:103C300009F487C0FC01329713821282C091E20A14
:103C4000D091E30A209781F420813181280F391F18
:103C50008091E00A9091E10A8217930779F5F09339
:103C6000E10AE093E00A6DC0DE0120E030E0AE172B
:103C7000BF0750F412964D915C9113979D01411529
:103C8000510509F1DA01F3CFB383A2834081518159
:103C9000840F951F8A179B0771F48D919C91119742
:103CA000840F951F02969183808312968D919C912B
:103CB0001397938382832115310529F4F093E30A46
:103CC000E093E20A3EC0D9011396FC93EE9312975B
:103CD0004D915D91A40FB51FEA17FB0779F4808120
:103CE0009181840F951F0296D90111969C938E9312
:103CF0008281938113969C938E931297E0E0F0E07B
:103D00008A819B81009719F0FE01EC01F9CFCE0169
:103D1000029628813981820F931F2091E00A309109
:103D2000E10A2817390769F4309729F41092E30A59
:103D30001092E20A02C013821282D093E10AC09369
:0C3D4000E00ADF91CF910895F894FFCFC6
:103D4C000000E40A80000100000A0014001D002796
:103D5C000031003B0045004E00580062006C0076BC
:103D6C00007F00890093009D00A000A300A600A97D
:103D7C0000AC00AF00B200B500B800BB00BE00C183
:103D8C0000C400D300E200F10000010F011E012E5F
:103D9C00013D014C015B016A01790188019901A97E
:103DAC0001BA01CA01DA01EA01FB010B021B022B69
:103DBC00023B024C02630278028F02A402BA02D0C8
:103DCC0002E502FB02110325033B03510367037D4C
:103DDC00039303A903BF03D503FD0323044B047210
:103DEC00049904B504D104ED040905250541055DCC
:103DFC000576058E05A705BF05D805F105F3050366
:103E0C00061306230633064306530663067306831E
:103E1C00069306A306B306E6060E0735075C078372
:103E2C0007AA07C607E207FE071A08360852086EEB
:103E3C000887089F08B808D008E90801091A093250
:103E4C0009450959096D0980099409A709BB09CECF
:103E5C0009E209F609650A6F0A7A0A830A8E0A983A
:103E6C000AA20AAC0ABA0ACD0ADC0AEB0AFA0A0957
:103E7C000B180B280B370B460B550B640B730B7F76
:103E8C000B900B9D0BAB0BB80BC50BD20BDF0BECDC
:103E9C000BF90B060C130C200C2D0C3B0C430C5C7F
:103EAC000C720C880C9E0CB40CCA0CDF0CF50C07B5
:103EBC000D110D210D320D420D520D620D730D833E
:103ECC000D930DA40DB40DCB0DD50DE60DF60D0611
:103EDC000E170E270E370E480E580E690E790E90DF
:103EEC000EA30EB30EC20ED10EE00EEF0EFE0E0D93
:103EFC000F1C0F2B0F3A0F490F540F0026002800F0
:103F0C002A002C002E0030003200210034011F004A
:103F1C0023002500170019001B0016001A001800BA
:103F2C00270029002D002BFF2020262425232425C3
:103F3C005E206561726C79207075736820626565AE
:103F4C0070206F6666200041434355535441542002
:103F5C005245534554205448452053455353494FDB
:103F6C004E205045414B20414E4420435552524522
:103F7C004E54205045414B002020616E616C6F67A0
:103F8C00526561642861694163686965766564504E
:103F9C00696E292069732077616B65696E6720698A
:103FAC00742075700020646966663A20002064698C
:103FBC0073706C61793A2000206169616E616C6F7D
:103FCC0067726561643A2000202A2A2A62616C6C4F
:103FDC0020746F206561726C7920626565702000B9
:103FEC00FC60DAF266B6BEE0FEF602496E69742039
:103FFC004368617267652053797374656D206E65D3
:10400C00772073746174653A2020002073657454B2
:10401C00617267657450657263656E743A20002036
:10402C0074617267657450726573737572653A204A
:10403C0000206169507265636861726765507265D2
:10404C0073737572653A200020696E42616C616E03
:10405C00636546616C736520003030003025007359
:10406C00003D3D3D20544F57494E47204D4F444550
:10407C00203D3D3D005265736572766F697220502C
:10408C00726573737572653A002A2A20504F574532
:10409C00522044524956494E47202A2A00546872ED
:1040AC006573686F6C643A002B2B2B2B20494E44A4
:1040BC004956494455414C202B2B2B2B002B2B2B99
:1040CC002B2020545241494E494E4720202B2B2B5C
:1040DC002B0020535452454E4754482054524149CA
:1040EC004E494E472000446966666963756C747965
:1040FC003A004475726174696F6E3A0043484152DC
:10410C0047494E4700535543434553530053485575
:10411C0054444F574E00446966666963756C7479F4
:10412C002069732073657420746F20686967682038
:10413C006164756A75737420646F776E00486F6C78
:10414C006420736372756D206C6F6E6765720052BC
:10415C00656475636520003F3F2000203F3F003EB3
:10416C00003C002020202020202020202020202067
:10417C00202020202020200000000000A615C517BC
:10418C00000000005616C517AB15C415B61535162C
:00000001FF
