:1000000015C1000044C1000042C1000040C1000011
:100010003EC100003CC100003AC1000038C10000F0
:1000200036C1000034C1000032C1000030C1000000
:100030002EC100002CC100002AC1000028C1000010
:1000400026C1000024C1000022C1000020C1000020
:100050000C94CA0E1CC100001AC100000C94481870
:1000600016C100000C9445160C947B1610C10000BC
:100070000EC100000CC100000AC1000008C1000050
:1000800006C1000004C1000002C1000000C1000060
:10009000FEC00000FCC00000FAC00000F8C0000074
:1000A000F6C00000F4C00000F2C00000F0C0000084
:1000B000EEC00000ECC00000EAC00000E8C0000094
:1000C000E6C00000E4C00000E2C00000E0C00000A4
:1000D000DEC00000DCC00000DAC00000D8C00000B4
:1000E000D6C000008F199219811985198B19C91969
:1000F00096199A19A019A419A819AE19B219B61906
:10010000C919BC19C019C41900000A0B02090C0D49
:100110000E080703040100000000000000000000BA
:1001200000000000000000000000000000000000CF
:10013000000000001211100000000000000000008C
:1001400000000000000000000000000000000102AC
:1001500010202008081020401020408002010201D9
:100160000804020101020408102040808040201091
:1001700008040201800402018040201008040201EA
:100180000804020101020408102040800102040852
:10019000102040800505050507050808080802022B
:1001A00002020A0A08080404040401010101010111
:1001B00001010303030303030303040707070C0CF4
:1001C0000C0C0C0C0C0C02020202060606060606BB
:1001D00006060B0B0B0B0B0B0B0B00002000230078
:1001E000260029002C002F0032000001000003012E
:1001F0000601090100002200250028002B002E0026
:100200003100340002010000050108010B0100006B
:100210002100240027002A002D00300033000101B6
:100220000000040107010A01A20DAD1611241FBE32
:10023000CFEFD1E2DEBFCDBF00E00CBF13E0A0E006
:10024000B2E0E2EAFBE300E00BBF02C007900D92D0
:10025000A63FB107D9F727E0A6EFB3E001C01D9292
:10026000A230B207E1F712E0CCE2D2E000E006C033
:1002700022970109FE010BBF0E94811CC832D107E1
:1002800080E00807A9F70E943B180C94CF1DB8CE58
:10029000CF93DF93EC0160E085E20E94031AFE0138
:1002A000E95AFF4F808181503496823038F4DE0164
:1002B000A35ABF4F8D919C919183808380819181BE
:1002C000FE01E75AFF4F208131812817390744F496
:1002D0009183808384E08093F70381E08093F60329
:1002E000CB59DF4F188286E096E0DF91CF91DFC6D1
:1002F00061E085E20E94CA1960E085E20C94031A6D
:100300006091F703662399F08091F6039FEF980FB1
:100310009093F603823078F461506093F703617034
:1003200085E20E94031A81E08093F603089560E05D
:1003300085E20C94031A0895DF92EF92FF920F93D7
:100340001F93CF93DF93EC01C9318CEFD8073CF0BA
:10035000C031E7E2DE075CF4D7FF0BC002C0C9E1A1
:10036000DCEFD195C195D1099AE0D92E0CC0CFE030
:10037000D7E2CE0160E177E20E94241C68EE73E0D0
:100380000E94241CD62E61E086E10E94031A8AE0B6
:10039000E82EF12CCE01B7010E94241C8F599D4FED
:1003A000FC01208140E068E18AE10E94601A04E6D5
:1003B00010E0CE01B8010E94241CB7010E94241C49
:1003C0006F597D4FFB01208140E068E18AE10E9486
:1003D000601ACE0168EE73E00E94241CB8010E94EE
:1003E000241C6F597D4FFB01208140E068E18AE1C8
:1003F0000E94601AED2DF0E0EF59FD4F208140E0A2
:1004000068E18AE10E94601A60E086E10E94031AB6
:1004100064E070E080E090E0DF91CF911F910F9158
:10042000FF90EF90DF900C94C1180F931F93CF9320
:10043000DF938C01EC01CB59DF4F8881F8018111EA
:1004400003C0E75AFF4F02C0E55AFF4F80819181F8
:1004500073DFF801EC59FF4F8081823018F0815032
:1004600080830BC084E080838881833020F08330D8
:1004700021F4188202C08F5F8883DF91CF911F9192
:100480000F910895CF93DF93EC01E3D231DFFE01AA
:10049000ED59FF4F108238971182108232961182E7
:1004A000108234971182108238961182108233960E
:1004B0001082319610823D971082319710823197C9
:1004C0001082C15ADF4F19821882DF91CF910895AF
:1004D0008BE10E94381A21E0892B09F420E0822F59
:1004E00008950F931F93CF93DF931F92CDB7DEB77D
:1004F0008C016983EDDF6981882331F0611113C0BC
:100500008BE10E94031A09C0662369F061E08BE168
:100510000E94031A80E090E00FDFF801EA5AFF4FD3
:1005200010823F9610820F90DF91CF911F910F9113
:100530000895FC01E55AFF4F118210823297118213
:10054000108260E085E20C94031AFC01EA5AFF4F26
:1005500010823F9610820895FC01EA5AFF4F21E075
:10056000208360C2895A9F4FFC0160830895FC017B
:10057000E55AFF4FDC01A35ABF4F8D919C919183A7
:1005800080830895FC01EA5AFF4F6083613059F07F
:1005900028F0623049F0633001F10895FC01EB5915
:1005A000FF4F108208953EC2FC01E85AFF4F1082AF
:1005B0003B9628E020833497DC01AF59BF4F2D9143
:1005C0003C913183208332971182108232971182BD
:1005D00010823A9624E0208308955ACEEF92FF923B
:1005E0000F931F93CF93DF93EC0188E895E00E946F
:1005F000310E81111AC086E30E9452198431914054
:10060000A4F088E895E00E94010E64E372E088E5BA
:1006100096E00E942E1786E30E9452194AE050E0AD
:10062000BC0188E596E00E94FD17CE0151DF8823CA
:1006300009F44EC07E0186E5E80EF11CF7018081C9
:10064000882309F445C086E30E9452198C01BC013D
:10065000CE01A3D1CE01FED1F7012081213001F5D9
:10066000FE01EF59FF4F9801281B390B2730310548
:10067000A4F0DE01A95ABF4F2C91211103C01183B0
:10068000008302C09183808362E0CE01DF91CF912D
:100690001F910F91FF90EF9075CF9183808318C0C9
:1006A0002230B1F4FE01E95AFF4F2081222339F0B4
:1006B000233070F4CF59DF4F9983888309C0CF5915
:1006C000DF4F888199818017910714F4198308837B
:1006D000DF91CF911F910F91FF90EF9008958F922E
:1006E0009F92AF92BF92CF92DF92EF92FF920F93C1
:1006F0001F93CF93DF93EC0103DECE0196DE6E01F4
:1007000026E5C20ED11CF60180818230A1F0833033
:1007100009F036C181E0F6018083CE01DF91CF91EF
:100720001F910F91FF90EF90DF90CF90BF90AF900F
:100730009F908F9077C17E01F8E5EF0EF11CF701D5
:100740008081811108C08FE3F8D2811115C180E446
:10075000F4D2811111C1FE01EF59FF4F00811181C7
:10076000085C1109C801F6E08F2728E1289FB00135
:10077000299F700D1124980145E024274CEC420379
:10078000C001439F900D1124680F791F980154E018
:1007900025274AE0429FC001439F900D1124680F16
:1007A000791F882777FD8095982F0E94351B4B0174
:1007B0005C01B80183E06827882777FD8095982F32
:1007C0000E94351B26EC3CED45E35CE30E94C11B17
:1007D0009B01AC01C501B4010E949E1A4B015C0152
:1007E000B801E2E06E27882777FD8095982F0E9458
:1007F000351B20E53CEF48EB5EE30E94C11B9B01EB
:10080000AC01C501B4010E949D1A4B015C01B80105
:10081000882777FD8095982F0E94351B21EC3AECB4
:1008200043E351E40E94C11B9B01AC01C501B4012B
:100830000E949E1A0E94021B8B0177FF02C000E0FB
:1008400010E04E01F7E58F0E911CF40180819E01AE
:10085000255A3F4F5901813031F018F0823031F183
:1008600055C0F9011BC0073911050CF44FC060E0F9
:100870008CE495E00E949D1024E6AC01249FC00109
:10088000259F900D1124801791070CF03FC0F701B0
:100890008081882309F1FE01E35AFF4F8081918115
:1008A000801791079CF51183008330C0073911052B
:1008B0006CF161E08CE495E00E949D1024E6AC01AF
:1008C000249FC001259F900D112480179107F4F4F7
:1008D000F7018081811105C061E085E20E94031A61
:1008E00015C0FE01E35AFF4F808191818017910767
:1008F0006CF4118300838CE495E00E942B1183300B
:1009000029F464E08CE495E00E942E11F5018081C9
:100910009181FE01E75AFF4F208131812817390765
:1009200044F49183808384E08093F70381E0809393
:10093000F603FE01ED59FF4F8081882319F08150A5
:1009400080831EC0F4018081882329F08330C0F4A5
:1009500002331105ACF483E0F6018083CE01DF9110
:10096000CF911F910F91FF90EF90DF90CF90BF90AC
:10097000AF909F908F908CCC81E0F7018083EBCE7D
:10098000DF91CF911F910F91FF90EF90DF90CF906B
:10099000BF90AF909F908F900895CF92DF92EF928B
:1009A000FF920F931F93CF93DF93FC018B01818103
:1009B000EF01C80FD11DC80FD11DDF01AE5ABF4FC7
:1009C000CA80DB80EE24D7FCE094FE2C4D915D9133
:1009D0006D917C9113974C195D096E097F091B83FA
:1009E0000A83222717FD2095322F400F511F621FC7
:1009F000731F4D935D936D937C9313979081983201
:100A000010F49F5F90838F5F883210F4818301C060
:100A10001182DF91CF911F910F91FF90EF90DF90A6
:100A2000CF900895FC011082118220E030E0FC019B
:100A3000E20FF31F138212822E5F3F4F20353105E4
:100A4000B1F7FC01EE5AFF4F10821182128213821D
:100A50000895E8CFFC01EE5AFF4FDC012C9130E005
:100A600040E050E060817181828193810E94591C35
:100A7000C9010895FC0110828CEB92E0928381837E
:100A80008CEA93E094838383158208951F93CF9318
:100A9000DF93EC0187E30E94521918811130E9F0CD
:100AA00030F0123061F1133009F443C04DC0298198
:100AB0003A81821793077CF411E01093940588E83B
:100AC00095E00E94010E61E080E30E94031A82E03B
:100AD0008D83188339C060E026C08D81823060F537
:100AE0008EE10E94381A892B79F160E080E30E9440
:100AF000031A61E087E10E94031A82E011C02B8192
:100B00003C812817390774F460E087E10E94031ADA
:100B10001092940588E895E00E94010E1D8383E001
:100B2000888312C061E087E1DF91CF911F910C941F
:100B3000031A8D81823018F081508D8305C060E0EA
:100B400080E30E94031A1882DF91CF911F910895CC
:100B5000CF93DF93EC0161E084E30E94CA1960E067
:100B600084E30E94031A60E08EE10E94CA19188291
:100B70001982DF91CF910895CF93FC01208121113B
:100B800002C0C18101C0C1E08EE10E94381ACC23AD
:100B900069F081110DC061E08FE10E94031A84E3C6
:100BA0000E94381A892B71F461E008C08111F7CFD7
:100BB00084E30E94381A892B29F060E084E3CF9106
:100BC0000C94031ACF910895FC0161830895FC01F0
:100BD00010820895CF92DF92EF92FF92CF93DF932E
:100BE000EC016A017B018B859C85AD85BE859A01F0
:100BF000AB01281B390B4A0B5B0BDA01C901498198
:100C00005A816B817C8184179507A607B707D8F0B6
:100C10008881813019F0823029F00CC0E985FA858D
:100C2000199508C061E08885811160E068878F812F
:100C30000E94031ACB86DC86ED86FE868F85988916
:100C40000196988B8F878D819E8197FD06C02F8599
:100C50003889281739070CF01882DF91CF91FF905F
:100C6000EF90DF90CF9008950F931F93CF93DF9372
:100C70001F92CDB7DEB7182F05E01123A9F0862FFC
:100C800069830E9452199C01029FC001039F900D2D
:100C90001124AA2797FDA095BA2F115069810097BA
:100CA000A105B10551F303C080E090E0DC010F9095
:100CB000DF91CF911F910F9108950F931F93CF93C1
:100CC000DF93CDB7DEB7AD970FB6F894DEBF0FBE9A
:100CD000CDBF62E08CE00E94CA198DE2E7E0F2E04D
:100CE000DE01119601900D928A95E1F710E0812FB7
:100CF00090E0E1E0F0E0EC0FFD1FE80FF91F6081EC
:100D00006F3F81F0E2E0F0E0EC0FFD1FE80FF91F0C
:100D10000081802F0E94031A61E0802F0E94CA196F
:100D20001E5FE5CFAD960FB6F894DEBF0FBECDBF08
:100D3000DF91CF911F910F910895682F82E094DF8A
:100D40009C012150310981E02738334108F080E0CF
:100D500008958DE30E94521921E0843F91400CF0E8
:100D600020E0822F0895CF93DF93EC016D2F661F53
:100D70006627661F81E20E94031A61E01C161D06A9
:100D80000CF060E082E3DF91CF910C94031ACF93D3
:100D9000DF93EC016D2F661F6627661F86E20E94B7
:100DA000031A61E01C161D060CF060E088E2DF917A
:100DB000CF910C94031A682F89E10C94031AFC015B
:100DC000138212821182108208951F93CF93DF93B2
:100DD000EC01162F6CE672E088E596E00E942E1773
:100DE0004AE050E0612F88E596E00E9425181883BC
:100DF000113049F028F0123061F48FEF9FEF05C0F9
:100E000080E090E002C081E090E0DF91CF911F91FF
:100E1000AACFDF91CF911F910895CF93DF93EC017B
:100E20008EE30E9452192881213019F0223059F0A6
:100E30000FC02A813B818217930754F060E0CE01F6
:100E4000DF91CF91C2CF2A813B8128173907B4F7B0
:100E5000DF91CF910895CF93DF93EC0189816623D1
:100E600041F081110CC060E0CE01AFDF81E08983E9
:100E700006C0882321F060E0CE01A7DF1982DF9150
:100E8000CF910895EF92FF920F931F93CF93DF932B
:100E9000EC016536710514F064E670E08B0177FFB4
:100EA00002C000E010E0B801882777FD8095982FF8
:100EB0000E94351B23E333E343E350E40E94C11B4C
:100EC00020E030E040E253E40E949E1A0E94021BA0
:100ED0007B836A838EE30E9452197C016CE872E086
:100EE00088E596E00E942E174AE050E0B80188E5B8
:100EF00096E00E94F61760EA72E088E596E00E94AC
:100F00002E176A817B814AE050E088E596E00E94D6
:100F1000FD1762EB72E088E596E00E942E174AE02A
:100F200050E0B70188E596E00E94F6178A819B8120
:100F3000E816F90614F461E004C08E159F054CF420
:100F400062E0CE01DF91CF911F910F91FF90EF9062
:100F50003CCFDF91CF911F910F91FF90EF900895BB
:100F6000FC0182E081A717A610AA11AA12AA13AA4F
:100F7000108211821282138213A614A615A616A639
:100F800010A681E082A715821482118A108A178226
:100F90001682138E128E15A214A217A216A20895FD
:100FA0000F931F93CF93DF93EC01D3DE9AA5882391
:100FB00031F0923069F082E08AA760E005C091309C
:100FC00039F081E08AA769A58CE495E00E942E1192
:100FD0008CE495E00E942B11082F88E895E041D61B
:100FE000182F002391F0813081F461E080EA95E0D0
:100FF00078DA61E08BE895E098D3033008F443C0D9
:1010000061E086E995E027DF3EC08CE00E94381A57
:10101000892B61F460E080EA95E063DA60E08BE8B8
:1010200095E083D360E086E995E015DF61E011117A
:1010300001C060E08EE20E94031A88A5882319F09F
:10104000853091F022C060E08AE20E94031A87E3B3
:101050000E945219AC0164E08CE495E0DF91CF91DD
:101060001F910F910C946C108BA99FEF980F9BAB65
:10107000823058F463E08CE495E0DF91CF911F91CA
:101080000F910C942E1161E0D5CFDF91CF911F917C
:101090000F910895CF93DF93EC0180EA95E05CDA3D
:1010A0001FA618AA19AA1AAADF91CF910895FC01C8
:1010B00017A610AA11AA12AA61A5623021F08CE429
:1010C00095E00C942E110895CF93DF93EC0168A75F
:1010D0008FEF860F833008F469A76330C9F058F4A6
:1010E000613081F0623009F042C027E731E049E524
:1010F00051E060E024C0643039F16530C1F588E02A
:101100008BAB35C027E731E049E551E061E017C01E
:1011100061E086E995E09FDE62E08CE495E00E9464
:101120009D102AE0289FB001299F700D112486E9A7
:1011300095E0A8DE2CE431E045E451E062E08BE884
:1011400095E0DF91CF917CC30E9492186BA77CA79A
:101150008DA79EA763E08CE495E0EFD728EE33E0FF
:10116000DC010E947B1C6FA778AB89AB9AABDF9147
:10117000CF910895623049F48AE0849FB001859F41
:10118000700D112486E995E07DCE0895FC01118A49
:10119000108A80E090E0DC011496AA0FBB1FAE0F0E
:1011A000BF1F4D915C9120893189240F351F318BF0
:1011B000208B01968430910571F78089918997FD84
:1011C000039695958795959587950895FC01138EBF
:1011D000128E80E090E0DC011996AA0FBB1FAE0FC3
:1011E000BF1F4D915C91228D338D240F351F338F9E
:1011F000228F01968430910571F7828D938D97FD32
:101200000396959587959595879508950F931F93C8
:10121000CF93DF93EC010C811D8182E40E9452196F
:1012200025E0AC01249FC001259F900D1124F801F9
:101230003496EE0FFF1FEC0FFD1F91838083EC812E
:10124000FD813496EE0FFF1FEC0FFD1F8081918111
:101250008935924064F4EC81FD813496EE0FFF1FD6
:10126000EC0FFD1F80819181823291407CF48C8152
:101270009D81892BB9F4EC81FD818E859F85349603
:10128000EE0FFF1FEC0FFD1F918380838C819D81EA
:1012900001969D838C838C819D81049779F41D82B6
:1012A0001C820CC0EC81FD81AC81BD811396AA0F1C
:1012B000BB1FAC0FBD1F8D919C91E1CFDF91CF91F2
:1012C0001F910F9108950F931F93CF93DF93EC011C
:1012D0000E811F8183E40E94521925E0AC01249FF6
:1012E000C001259F900D1124F8013996EE0FFF1FC4
:1012F000EC0FFD1F91838083EE81FF813996EE0F05
:10130000FF1FEC0FFD1F808191818935924064F4AD
:10131000EE81FF813996EE0FFF1FEC0FFD1F8081DC
:101320009181823291407CF48E819F81892BB9F426
:10133000EE81FF81888D998D3996EE0FFF1FEC0F9E
:10134000FD1F918380838E819F8101969F838E8371
:101350008E819F81049779F41F821E820CC0EE81DA
:10136000FF81AE81BF811896AA0FBB1FAC0FBD1FB6
:101370008D919C91E1CFDF91CF911F910F910895B5
:101380008F929F92AF92BF92CF92DF92EF92FF9295
:101390000F931F93CF93DF931F921F92CDB7DEB7AA
:1013A0008C0182E995E0AAD1882321F0C8012EDFC3
:1013B000C80189DFF80187A590A9A1A9B2A91816CB
:1013C00019061A061B060CF06EC0F894F80184A1E9
:1013D00095A19A838983789486E30E945219298182
:1013E0003A81273831405CF0F80117A610AA11AAFB
:1013F00012AA49815A814658514061E00DC0813995
:10140000F1E09F0774F0F80117A610AA11AA12AA1A
:10141000AC014059514063E08CE495E00E944312D6
:1014200042C00E949218F80183A494A4A5A4B6A473
:101430006B017C01C818D908EA08FB0886169706D4
:10144000A806B9062CF0F1E0CF1AD108E108F1089E
:10145000F80163A774A785A796A747A550A961A916
:1014600072A94C195D096E097F0947A750AB61ABA2
:1014700072AB77FF18C017A610AA11AA12AA61E0D2
:1014800083E20E94031A0E949218F801608371831C
:101490008283938340E050E064E08CE495E0F3D7EE
:1014A00080EA95E064D80F900F90DF91CF911F9163
:1014B0000F91FF90EF90DF90CF90BF90AF909F90F3
:1014C0008F900895BF92CF92DF92EF92FF920F9389
:1014D0001F93CF93DF938C01CC24CA94DC2CE12C96
:1014E000F12CE5E0BE2E82E40E9452199C01B29ECE
:1014F000C001B39E900D1124E701CC0FDD1FC00F7A
:10150000D11F9987888783E40E945219FC01BE9EEF
:10151000C001BF9E900D11249B8B8A8B8885998575
:10152000893592402CF4888599858232914044F423
:10153000E114F10461F5F80186859785918780872C
:101540008A899B89893592402CF48A899B898232C9
:10155000914044F4E114F10429F5F801808D918D56
:10156000938B828BFFEFEF1AFF0A2FEFC21AD20A7A
:1015700034E0E316F10409F0B6CFDF91CF911F916B
:101580000F91FF90EF90DF90CF90BF900895F601FC
:101590003496EE0FFF1FE00FF11F80819181998734
:1015A0008887CECFF6013996EE0FFF1FE00FF11FAF
:1015B000808191819B8B8A8BD5CFFC011182108217
:1015C00008950895CF93DF93EC0189818823A1F0DA
:1015D00061111AC019828BE20E94031A60E08DE249
:1015E0000E94031A60E089E20E94031A60E087E229
:1015F000DF91CF910C94031A662331F081E0898347
:1016000086E096E05FDF1882DF91CF9108950F9317
:101610001F93CF93DF9300D01F92CDB7DEB78C011D
:10162000FC018081811119C061E08DE20E94031AE2
:1016300061E087E20E94031A68EC70E080E090E0CD
:101640000E94C11860E08DE20E94031A60E087E208
:101650000E94031A81E0F8018083F80181818823C8
:1016600009F443C08BE895E0FBD081113EC086E0D1
:1016700096E08CDD9C838B8386E096E0A7DD9A83E1
:1016800089838B819C81181619067CF589819A8142
:101690001816190654F58B819C8129813A81821B89
:1016A000930B8B3F9F4F94F461E08DE20E94031AED
:1016B00069EC72E088E596E00E94481764E670E005
:1016C00080E090E00E94C11860E009C08B819C819D
:1016D00029813A81821B930B60E0069724F08DE20A
:1016E0000E94031A02C0C8016DDF0F900F900F9087
:1016F0000F90DF91CF911F910F910895FC0181818F
:10170000089560E08AE20E94031A80EA95E00E9450
:10171000A5028FEF9FEF3BCBFC0114821382128254
:1017200011821082168215820895FC01858166233C
:1017300029F081110AC081E085830895882329F06A
:101740001582148280E090E022CB0895CF93DF933E
:10175000EC016C83613081F050F0623081F06330D5
:10176000B9F480E090E013DB82E08E8311C080E06A
:1017700090E0DF91CF910BCBDF91CF91C2CF81E091
:1017800090E005DB61E082E995E0DF91CF911ACF2F
:10179000DF91CF9108950F931F93CF93DF9300D0E4
:1017A000CDB7DEB78C01F89480912A0690912B0674
:1017B0009A8389837894F80144814230C9F0433098
:1017C00049F14130A9F589819A8120813181281719
:1017D000390774F161E08AE20E94031A67ED72E052
:1017E00088E596E00E94481762E0C801AFDF20C09C
:1017F00089819A81F8012281338182179307C4F08D
:1018000083E0848380E090E04B83C1DA4B81F80170
:1018100046830EC0F80186819FEF980F9683811151
:1018200007C0148280E090E0B2DA86E096E032DC15
:101830000F900F900F90DF91CF911F910F9108950E
:10184000CF93DF93EC01598348833B832A8380EA5B
:1018500095E00E94B20281E08C83DF91CF9151CF5D
:10186000FC01848108958CE20E94381A61E0892B82
:1018700009F060E08CE20C94031A80EA95E00E9483
:101880006F038AE995E002D986E995E0C6DA84E932
:1018900095E072D986E096E083DB82E995E091DEFF
:1018A0008BE895E078DF88E895E0CAD18CE495E094
:1018B000B7C4CF93DF93E0912C06F0912D06EE0F85
:1018C000FF1FEE5DF94FC081D18184E40E9452195F
:1018D00025E0AC01249FC001259F900D11249C019F
:1018E00022523140213A3105D0F080912C0690915E
:1018F0002D06E0912C06F0912D06892B29F480917C
:101900002806909129060FC0A0912C06B0912D06B3
:10191000AA0FBB1FA05EB94F8D919C9104C0E091AE
:101920002C06F0912D06EE0FFF1FEE5DF94F91830F
:101930008083E0912C06F0912D06EE0FFF1FEE5DE7
:10194000F94F2081318140912A0650912B0637FFB3
:1019500002C02D5F3F4F3595279535952795CE01D0
:10196000D7FD03969595879595958795281B390BF7
:10197000240F351F30932B0620932A0680912C06C6
:1019800090912D06019690932D0680932C068091C0
:101990002C0690912D06049721F410922D0610929A
:1019A0002C06DF91CF9108950F931F938CE495E05F
:1019B000BCD580EA95E00E94EE0282E995E027DE40
:1019C0008091060690910706A0910806B09109063D
:1019D000181619061A061B062CF50E94921800917B
:1019E0000606109107062091080630910906601B33
:1019F000710B820B930B97FF04C061507109810931
:101A00009109693E73408105910564F060E083E2CD
:101A10000E94031A109206061092070610920806FA
:101A20001092090686E096E0ABDC82EA94E04FD1A2
:101A300088EF93E01F910F914AC11F93CF93DF93DB
:101A4000C0E0D0E015E084E40E9452199C01129F8E
:101A5000C001139F900D1124FE01EE0FFF1FEE5DDC
:101A6000F94F918380838081918120912A06309162
:101A70002B0697FD03969595879595958795820FEB
:101A8000931F90932B0680932A0683E40E94521999
:101A90009C01129FC001139F900D1124FE01EE0FB7
:101AA000FF1FE85EF94F9183808382E40E94521900
:101AB0009C01129FC001139F900D1124FE01EE0F97
:101AC000FF1FE25FF94F918380832196C430D105D7
:101AD00009F0B9CFDF91CF911F910895EED826E09C
:101AE00040E855E260E070E088E596E00E94E51588
:101AF00020E044E064E18AE396E0AED62DE33CE0EA
:101B00004AEF50E060E070E082EA94E03BD123E3EA
:101B10003CE040E85EEE66E370E088EF93E032D1AF
:101B20008CDF40EE52E262E070E082E596E0C5D1E3
:101B30002FEF3FEFA90169E57CE082E596E0CCD18B
:101B400078940895CF92EF920F93E7E0CE2EF6E0CF
:101B5000EF2E05E024E043E062E08AE396E002D75E
:101B600086E096E0FDD980EA95E00E9442028AE98B
:101B700095E00E943A0586E995E021D984E995E04F
:101B80000E94A80582E995E018DD8BE895E0C4DDA8
:101B900088E895E03AD06AE376E08CE495E024D2D8
:101BA00082EA94E061D088EF93E00F91EF90CF90BC
:101BB0005BC0CF93DF93EC018CE495E04CD3833092
:101BC00028F061E084E995E00E94E40561E08FE19E
:101BD0000E94031A80E19EE09A8389838CE00E9430
:101BE000381A019759F48DE30E945219019731F484
:101BF00061E08BE1DF91CF910C94031ADF91CF91DB
:101C0000089521E0FC012083D4CFFBCFFC01608349
:101C1000662319F0613099F0089560E08BE10E942D
:101C2000031A8EE10E94381A892B29F060E084E9BA
:101C300095E00E94E40560E08FE10C94031AB9CFAF
:101C4000FC012081213061F42181328112161306BA
:101C50002CF42150310932832183089560E0D6CFDE
:101C60000895FC01808108950F931F93CF93DF9314
:101C7000EC018C0106551F4FCE010E94E7056196CD
:101C8000C017D107C9F7DF91CF911F910F91089528
:101C9000CF92DF92EF92FF921F93CF93DF936A016F
:101CA0007B01EC011AE08881882329F0B701A601A5
:101CB000CE010E94EA05115061961111F4CFDF9117
:101CC000CF911F91FF90EF90DF90CF900895CF9329
:101CD000DF93EC010E949218AB01BC01CE01DF91B1
:101CE000CF91D6CF20E0FC013081332331F02F5F3C
:101CF00041962A30C1F78FEF0895822F0895CF9231
:101D0000DF92EF92FF920F931F93CF93DF9300D058
:101D10001F92CDB7DEB76C01790149835A836B837B
:101D20007C83E0DF282F49815A816B817C818F3F42
:101D3000D9F081E12802C00CD11C112481E0F60108
:101D40008083418352836383748316830583F28681
:101D5000E18629830E949218F6016387748785873C
:101D60009687108A17862981822F0F900F900F90E7
:101D70000F90DF91CF911F910F91FF90EF90DF9027
:101D8000CF9008950F931F930FEF1FEFB8DF1F91B0
:101D90000F9108951F920F920FB60F9211240BB658
:101DA0000F922F933F934F935F936F937F938F93F4
:101DB0009F93AF93BF93EF93FF93E0915606F091FB
:101DC00057061995FF91EF91BF91AF919F918F9118
:101DD0007F916F915F914F913F912F910F900BBE2B
:101DE0000F900FBE0F901F901895FC01A3E0440FB9
:101DF000551F661F771FAA95D1F74115510581E040
:101E00006807710514F481E00EC033E0759567959D
:101E1000579547953A95D1F74115510581E06807E7
:101E200071051CF482E0828331C023E075956795CB
:101E3000579547952A95D1F74115510581E06807D7
:101E4000710514F483E0EFCF92E07595679557958F
:101E500047959A95D1F74115510581E068077105BD
:101E600014F484E0E0CF82E0759567955795479527
:101E70008A95D1F785E082834115510581E0680795
:101E8000710524F04FEF5FEF60E070E08FB7838360
:101E9000F894518340835093870040938600838158
:101EA0008FBF80918100887F809381008091810025
:101EB0009281892B8093810008951092800020E107
:101EC0002093810092CFE1E8F0E02081DC011296BE
:101ED0008C91282B208308950F931F93CF93DF932A
:101EE000EC018B01BA01A901141615061606170696
:101EF0000CF47BDF1D830C8381E080936F00CE01A7
:101F0000DF91CF911F910F91DECFCF93DF93EC0143
:101F1000862F688362E00E94CA191A821B821C8283
:101F20001D821982DF91CF910895EF92FF920F9356
:101F30001F93CF93DF9300D01F92CDB7DEB77C0104
:101F4000FC01808149835A836B837C830E94381A09
:101F5000F701028113812481358149815A816B8186
:101F60007C81892BF1F4400F511F621F731F428344
:101F7000538364837583413A5648614071053CF14F
:101F800040EA56E861E070E0F701428353836483DE
:101F90007583818181111BC081E0818381E090E0A4
:101FA00018C0041B150B260B370BF7010283138394
:101FB0002483358337FF0BC012821382148215826B
:101FC0008181882321F011828FEF9FEF02C080E092
:101FD00090E00F900F900F900F90DF91CF911F9195
:101FE0000F91FF90EF900895EF92FF920F931F9340
:101FF000CF93DF93EC017B0186E090E00E944718CD
:102000008C016BE082DF1F830E8386E090E00E94EC
:1020100047188C016AE079DF1987088786E090E02D
:102020000E9447188C0169E070DF1B870A8786E0F1
:1020300090E00E9447188C0168E067DF1D870C87DD
:10204000FF86EE865FE0588B61E06D8B42E04A8F41
:102050008AE090E098A38F8F23E030E03AA729A789
:102060009AAB89AB598B6E8B4B8F9AA389A33CA7F4
:102070002BA79CAB8BAB5A8B4F8B4C8F22E030E065
:102080003CA32BA321E030E03EA72DA79EAB8DAB58
:102090005B8B83E0888F4D8F85E090E09EA38DA3BE
:1020A00038AB2FA78FE090E098AF8FAB87E08C8B99
:1020B000498F84E08E8F87E30E94521998A78FA3DF
:1020C0008E859F85A6D38E859F85DF91CF911F91A9
:1020D0000F91FF90EF90B3C3CF93262F30E0220FE4
:1020E000331FFC01E20FF31FA1A5B2A54A175B073E
:1020F00014F452A741A7FC01E20FF31FA1A9B2A952
:10210000A417B50714F452AB41ABC1E0FC01E20FD8
:10211000F31F078CF0A1E02DE417F50709F4C0E0E8
:10212000FC01E20FF31F50A3478FCC2319F086E088
:1021300096E020D88C2FCF910895860F911D860FA1
:10214000911DFC01878D90A10895DF92EF92FF927F
:102150000F931F93CF93DF93EC01D62E062F10E041
:102160007C01E00EF11EF701458960898E859F850F
:1021700055D3F801EE0FFF1FEC0FFD1F078D10A1C7
:10218000F701E28CF12C81E090E00A30110514F4A3
:1021900080E090E0E81AF90A81E090E00436110549
:1021A00014F480E090E0E81AF90A81E090E0083E3B
:1021B000F3E01F0714F480E090E0E81AF90A21E048
:1021C000E21AF1088E859F851E141F041CF460E23C
:1021D00046D6F5CF4AE050E0B80108D782E0D816DD
:1021E00059F0D81630F0E3E0DE1212C06FEF72E063
:1021F00005C069EF72E002C06CEF72E08E859F85CA
:10220000DF91CF911F910F91FF90EF90DF9026C645
:10221000DF91CF911F910F91FF90EF90DF90089584
:10222000CF93DF93EC018881813069F050F08330E7
:1022300079F461E0CE0189DF62E0CE0186DF63E000
:1022400003C064E001C060E0CE01DF91CF917DCF9B
:10225000DF91CF910895FC01808108950F931F9322
:10226000CF93DF931F92CDB7DEB78C018FEFF801CC
:10227000818388E895E06983C4DCF80186859785C9
:10228000E4D2F80186859785C4D26981F80160831C
:102290006230B1F1C8F46623F9F0613009F0E8C0AA
:1022A00060E084E995E00E94E40569E273E0F801EA
:1022B00086859785D3D541E063E0F80186859785CB
:1022C000ADD26DE373E02FC0643009F460C080F1DB
:1022D000653009F473C0CCC060E084E995E00E94E9
:1022E000E40561E073E0F80186859785B7D541E0A4
:1022F00060E0F8018685978591D265E173E013C0AF
:1023000060E084E995E00E94E40568E473E0F80188
:1023100086859785A3D541E060E0F801868597859D
:102320007DD26DE573E0F8018685978597D5A0C0CD
:1023300080E00E94DB0661E084E995E00E94E4050C
:1023400062E773E0F8018685978588D541E062E011
:10235000F8018685978562D26DE373E0F801868582
:1023600097857CD542E062E0F8018685978556D254
:1023700066E873E0F8018685978570D543E062E0F2
:10238000F801868597854AD262E973E0CCCF60E098
:1023900086E995E00E942B0781E00E94DB0662E758
:1023A00073E0F8018685978559D542E066E0F8012B
:1023B0008685978533D26CE973E0B5CF80E00E94C3
:1023C000DB0660E084E995E00E94E40562E773E0E3
:1023D000F8018685978542D5F80121AD86859785D8
:1023E000243031F442E066E019D265EA73E09BCF15
:1023F00041E066E013D26DEA73E0F80186859785C7
:102400002DD542E066E0F8018685978507D2F80170
:1024100021AD86859785223039F0233041F0213077
:1024200049F466EB73E015C06FEB73E012C068EC23
:1024300073E00FC061ED73E011D54AE050E0F801A0
:1024400061AD86859785FBD565ED73E0F8018685DE
:10245000978504D543E068E0F80186859785DED14D
:10246000F80162AD73AD4AE050E086859785BED530
:10247000F801608186E096E00F90DF91CF911F9187
:102480000F910C946408FC0161AF53AF42AF65E05B
:10249000E5CE1F93CF93DF93EC01162F89818F3FF9
:1024A000E9F0FE01E80FF11D60896F5F45898E85B7
:1024B0009F85B4D16AE872E08E859F85CFD48981EB
:1024C000FE01E80FF11D60896C5F45898E859F854F
:1024D000A5D16AE872E08E859F85C0D419831F3F1D
:1024E00001F1FE01E10FF11D60896F5F45898E8565
:1024F0009F8594D169ED73E08E859F85AFD48981E6
:10250000FE01E80FF11D60896C5F45898E859F850E
:1025100085D16BED73E08E859F85DF91CF911F9103
:102520009DC4DF91CF911F9108958F929F92AF929A
:10253000BF92CF92DF92EF92FF920F931F93CF93B0
:10254000DF931F921F92CDB7DEB78C0143E060E0AE
:10255000FC018685978562D1F89480912A06909136
:102560002B069A838983789469817A814AE050E0C6
:10257000F801868597853AD543E064E0F8018685C1
:1025800097854CD184E48ED625E0289FB001299F01
:10259000700D11244AE050E0F8018685978526D514
:1025A000CDD5F801C280D380E480F5809B01AC01D9
:1025B0002C193D094E095F0969017A0157FF06C0D0
:1025C00031E0C31AD108E108F10805C0F8016283BF
:1025D000738384839583B701A601F801868197816F
:1025E000A4DC88248394181619060CF0812CB701FA
:1025F000A601F8018485958598DC99249394181692
:1026000019060CF0912CB701A601F801808591857F
:102610008CDC31E020E0181619060CF030E0A32E17
:10262000B22EB701A601F801828593857EDC1816CB
:1026300019061CF4F1E0AF1AB108882049F099207E
:1026400069F0A114B10431F088E895E0DADA02C04B
:10265000992021F080EA95E00E949902F80180819A
:10266000813019F0823069F010C0882011F063E0E9
:102670000FC0992049F1F8018181882301F160E0C0
:1026800021C0882009F161E003C0882041F062E0A8
:10269000C801E4DD80EA95E00E94990215C083300C
:1026A00099F4992089F0F8018181823031F08330EA
:1026B00031F0813031F462E005C063E003C06FEFB8
:1026C00001C061E0C801E5DEA114B10471F0F801B8
:1026D00061816F3F51F0E60FF11DE60FF11D478D4F
:1026E00050A14A0D5B1DC801F7DC0F900F90DF91E0
:1026F000CF911F910F91FF90EF90DF90CF90BF90FF
:10270000AF909F908F900895CF93DF93EC0160E09E
:102710008E8179D681E090E059D561E08E8173D6C3
:1027200081E090E053D560E08E816DD684E690E044
:10273000DF91CF914BC5EF92FF920F931F93CF93F1
:10274000DF938C01C0E0D0E0E62EF12CB7010C2E17
:1027500002C0759567950A94E2F76170F801EC0F75
:10276000FD1F878150D62196C430D10579F7C80165
:10277000DF91CF911F910F91FF90EF90C5CFEF9216
:10278000FF920F931F93CF93DF938C01C0E0D0E0B3
:10279000E62EF12CB7010C2E02C0759567950A94B0
:1027A000E2F76170F801EC0FFD1F87812CD62196AE
:1027B000C830D10579F7C801DF91CF911F910F91F2
:1027C000FF90EF90A1CF1F93CF93DF93EC01162FD3
:1027D000642F8C8118D68D818F3F11F060E013D665
:1027E0008F85612F84FF05C0CE01DF91CF911F91AE
:1027F000C6CF70E084E0759567958A95E1F7CE01C4
:102800009ADF612FCE01DF91CF911F9194CF40E0ED
:10281000DACF61E0FCDF80ED97E0D8C4443008F007
:1028200043E0FC012389421710F04FEF420FFC01F7
:10283000E40FF11D2489260F2068622FE8CFFC01E8
:1028400060896B7F608B6860E2CFFC016089262F16
:102850002460208B6C60DBCF0F931F93CF93DF93AB
:10286000EC01423018F08F8588608F874B8B1C8A73
:1028700080E48D8B6E8B70E0605C7F4F6F8B2223CA
:1028800029F0413019F48F8584608F8761E08C8155
:1028900081D58D818F3F11F061E07CD561E08E8123
:1028A00079D500E010E08F8584FF03C088E090E0D8
:1028B00002C084E090E0081719074CF4FE01E00F15
:1028C000F11F61E0878166D50F5F1F4FECCF80E578
:1028D00093EC7CD460E08C8196D560E08E8193D5BA
:1028E0008D818F3F11F060E08ED56F8564FD16C03D
:1028F00063E0CE0120DF84E991E168D463E0CE019A
:102900001ADF84E991E162D463E0CE0114DF86E945
:1029100090E05CD462E0CE010EDF11C06062CE01B7
:1029200076DF84E991E152D46F856062CE016FDF7A
:1029300086E990E04BD46F856062CE0168DF6F85D9
:102940006062CE0164DF84E0888BCE017EDFCE0141
:1029500060DF82E0898B66E0CE01DF91CF911F912D
:102960000F9155CFCF92EF920F93FC0113821282F9
:1029700081EE93E09183808364838FEF8583468328
:1029800027830087E186C2861386148615861686FD
:10299000178620E041E060E1CF010F91EF90CF90EA
:1029A0005BCF41E010DF81E090E00895FC01818D74
:1029B000228D90E0805C9F4F821B91098F73992735
:1029C0000895FC01918D828D981731F0828DE80F6A
:1029D000F11D858D90E008958FEF9FEF0895FC0124
:1029E000918D828D981761F0828DDF01A80FB11D46
:1029F0005D968C91928D9F5F9F73928F90E008956A
:102A00008FEF9FEF089584EA96E1892B39F080E0FB
:102A100090E0892B19F098D1811125C080E090E0D9
:102A2000892B41F080E090E0892B21F00E9400008A
:102A300081111CC080E090E0892B41F080E090E0A3
:102A4000892B21F00E940000811113C080E090E0EA
:102A5000892BA1F080E090E0892B81F00E9400009A
:102A600081110AC008950E940000D8CF0E94000082
:102A7000E1CF0E940000EACF0C9400000895FC0111
:102A8000848DDF01A80FB11DA35ABF4F2C91848DF7
:102A900090E001968F739927848FA689B7892C932C
:102AA000A089B1898C9180648C93938D848D9813C7
:102AB00006C00288F389E02D80818F7D8083089590
:102AC000CF93DF93EC01888D8823C1F0EA89FB89DD
:102AD000808185FD05C0A889B9898C9186FD0EC0CD
:102AE0000FB607FCF5CF808185FFF2CFA889B989A1
:102AF0008C9185FFEDCFCE01C2DFE8CFDF91CF9182
:102B00000895CF92DF92FF920F931F93CF93DF939D
:102B10001F92CDB7DEB76C01DC015B969C915B9791
:102B20005C968C915C97981307C05096ED91FC9140
:102B30005197808185FD31C0F601038D10E00F5F54
:102B40001F4F0F731127F02EF601848DF81210C05D
:102B50000FB607FCF9CFD6015096ED91FC91519735
:102B6000808185FFF1CFC601698389DF6981ECCF60
:102B7000838DE80FF11DE35AFF4F6083D6015B960A
:102B80000C935B975296ED91FC91539780818062F4
:102B9000808381E058968C930DC0D6015696ED91B6
:102BA000FC91579760835096ED91FC9151978081ED
:102BB0008064808381E090E00F90DF91CF911F913E
:102BC0000F91FF90DF90CF900895BF92CF92DF9248
:102BD000EF92FF92CF93DF93EC016A017B01B22E5B
:102BE000E889F98982E08083411581EE5807610503
:102BF000710599F060E079E08DE390E0A70196011E
:102C000036D62150310941095109569547953795D6
:102C10002795211580E1380790F0E889F98910821D
:102C200060E874E88EE190E0A701960120D621507B
:102C30003109410951095695479537952795EC85F6
:102C4000FD853083EE85FF852083188EEC89FD8914
:102C5000B082EA89FB89808180618083EA89FB896F
:102C6000808188608083EA89FB8980818068808395
:102C7000EA89FB8980818F7D8083DF91CF91FF90EE
:102C8000EF90DF90CF90BF9008951F920F920FB6F4
:102C90000F9211240BB60F922F938F939F93EF9364
:102CA000FF93E0916806F09169068081E0916E06DD
:102CB000F0916F0682FD12C09081809171068F5F46
:102CC0008F7320917206821751F0E0917106F0E047
:102CD000E85AF94F958F8093710601C08081FF916A
:102CE000EF919F918F912F910F900BBE0F900FBE80
:102CF0000F901F9018951F920F920FB60F921124EC
:102D00000BB60F922F933F934F935F936F937F93E5
:102D10008F939F93AF93BF93EF93FF9388E596E0D4
:102D2000AEDEFF91EF91BF91AF919F918F917F9117
:102D30006F915F914F913F912F910F900BBE0F902C
:102D40000FBE0F901F90189588E596E02FDE21E0CA
:102D5000892B09F420E0822F089510925B061092CF
:102D60005A0688EE93E0A0E0B0E080935C06909372
:102D70005D06A0935E06B0935F0689EE93E09093A4
:102D800059068093580685EC90E0909365068093F1
:102D9000640684EC90E0909367068093660680EC6E
:102DA00090E0909369068093680681EC90E09093A0
:102DB0006B0680936A0682EC90E090936D06809398
:102DC0006C0686EC90E090936F0680936E061092EE
:102DD000710610927206109273061092740608958E
:102DE000CF92DF92EF92FF920F931F93CF93DF93D7
:102DF0006C017A01EB01E60EF71E00E010E0CE1543
:102E0000DF0561F06991D601ED91FC910190F081AF
:102E1000E02DC6011995080F191FF1CFC801DF91E8
:102E2000CF911F910F91FF90EF90DF90CF90089579
:102E30006115710581F0DB010D900020E9F7AD010E
:102E400041505109461B570BDC01ED91FC9102806A
:102E5000F381E02D199480E090E00895E9CFDC0142
:102E6000ED91FC910190F081E02D19940F931F9347
:102E7000CF93DF93EC016DE0F2DF8C016AE0CE01CD
:102E8000EEDF800F911FDF91CF911F910F91089579
:102E90000F931F93CF93DF93EC01CADF8C01CE0118
:102EA000E5DF800F911FDF91CF911F910F91089562
:102EB0008F929F92AF92BF92CF92DF92EF92FF924A
:102EC0000F931F93CF93DF93CDB7DEB7A1970FB6C4
:102ED000F894DEBF0FBECDBF7C01C42EE52FCB0121
:102EE000D22E19A221E02D1510F02AE0D22E8E014B
:102EF0000F5D1F4F8D2C912CA12CB12C6C2D7E2F92
:102F0000A5019401B4D48C2DD29E801911240150B6
:102F100011098A3014F4805D01C0895CF801808356
:102F2000211531054105510521F0C22EE32FCA01BB
:102F3000E5CFB801C7017CDFA1960FB6F894DEBFDC
:102F40000FBECDBFDF91CF911F910F91FF90EF90FA
:102F5000DF90CF90BF90AF909F908F900895CF92C9
:102F6000DF92EF92FF920F931F93CF93DF93EC01C9
:102F70006A017B012115310579F4E881F98101901D
:102F8000F081E02D642FDF91CF911F910F91FF9081
:102F9000EF90DF90CF9019942A303105D9F477FF64
:102FA00018C06DE25CDF8C0144275527BA014C192B
:102FB0005D096E097F092AE0CE017ADF800F911F3B
:102FC000DF91CF911F910F91FF90EF90DF90CF9005
:102FD00008952AE0B701A601CE01DF91CF911F919C
:102FE0000F91FF90EF90DF90CF9062CF9A01AB01ED
:102FF000662757FD6095762FB2CF0F931F93CF931F
:10300000DF93EC019A01AB01662757FD6095762F9F
:10301000A6DF8C01CE012ADF800F911FDF91CF91B7
:103020001F910F9108952115310541F4DC01ED91B7
:10303000FC910190F081E02D642F199439CF9A0111
:10304000462F50E060E070E0EECF0F931F93CF93D8
:10305000DF93EC019A01462F50E060E070E0E3DF7F
:103060008C01CE0103DF800F911FDF91CF911F9163
:103070000F9108950895B4D0FDDF0E946E0DC3E056
:10308000D5E10E94D40C2097E1F3BDDCFACF60C4F7
:103090001F920F920FB60F9211242F933F938F938D
:1030A0009F93AF93BF938091F6069091F706A091FE
:1030B000F806B091F9063091F50623E0230F2D377D
:1030C00020F40196A11DB11D05C026E8230F02962C
:1030D000A11DB11D2093F5068093F6069093F70687
:1030E000A093F806B093F9068091FA069091FB063A
:1030F000A091FC06B091FD060196A11DB11D809323
:10310000FA069093FB06A093FC06B093FD06BF91D0
:10311000AF919F918F913F912F910F900FBE0F9084
:103120001F9018952FB7F8946091F6067091F706E6
:103130008091F8069091F9062FBF08953FB7F89453
:103140008091FA069091FB06A091FC06B091FD06D5
:1031500026B5A89B05C02F3F19F00196A11DB11DF2
:103160003FBF6627782F892F9A2F620F711D811D0F
:10317000911D42E0660F771F881F991F4A95D1F76E
:103180000895CF92DF92EF92FF92CF93DF936B017E
:103190007C01D4DFEB01C114D104E104F10479F026
:1031A000CBD1CCDF6C1B7D0B683E7340A0F381E07C
:1031B000C81AD108E108F108C851DC4FECCFDF9103
:1031C000CF91FF90EF90DF90CF900895019739F065
:1031D000880F991F880F991F02970197F1F708959B
:1031E000789484B5826084BD84B5816084BD85B5E2
:1031F000826085BD85B5816085BDEEE6F0E08081A9
:1032000081608083E1E8F0E01082808182608083C9
:10321000808181608083E0E8F0E08081816080834C
:10322000E1EBF0E0808184608083E0EBF0E080817E
:1032300081608083E1E9F0E0808182608083808129
:1032400081608083E0E9F0E0808181608083E1EA51
:10325000F0E0808182608083808181608083E0EA09
:10326000F0E0808181608083E1E2F1E08081826032
:103270008083808181608083E0E2F1E080818160F1
:103280008083EAE7F0E080818460808380818260CF
:1032900080838081816080838081806880831092B8
:1032A000C1000895863308F0865320917B00982F43
:1032B0009870277F922B90937B0087702091060255
:1032C00090E4299F90011124822B80937C008091AF
:1032D0007A00806480937A0080917A0086FDFCCF2A
:1032E000809178002091790090E0922B089590E0F1
:1032F000FC013197E231F10508F04BC0EE58FF4F69
:10330000F4C2809180008F7703C0809180008F7D10
:1033100080938000089580918000877FF9CF84B5E5
:103320008F7702C084B58F7D84BD08958091B000F1
:103330008F7703C08091B0008F7D8093B000089597
:10334000809190008F7707C0809190008F7D03C09F
:1033500080919000877F8093900008958091A000D5
:103360008F7707C08091A0008F7D03C08091A0005F
:10337000877F8093A0000895809120018F7707C0F8
:10338000809120018F7D03C080912001877F8093F1
:1033900020010895CF93DF9390E0FC01E25BFE4FA4
:1033A0002491FC01EC56FE4F8491882349F190E072
:1033B000880F991FFC01E25FFD4FA591B4918C50DD
:1033C0009E4FFC01C591D4919FB7611108C0F8943C
:1033D0008C91209582238C93888182230AC062304D
:1033E00051F4F8948C91322F309583238C938881FB
:1033F000822B888304C0F8948C91822B8C939FBF7E
:10340000DF91CF9108950F931F93CF93DF931F9276
:10341000CDB7DEB7282F30E0F901E85FFE4F849189
:10342000F901E25BFE4F1491F901EC56FE4F049155
:103430000023C1F0882319F0698359DF6981E02FE7
:10344000F0E0EE0FFF1FEC50FE4FA591B4919FB737
:10345000F8948C91611103C01095812301C0812BD8
:103460008C939FBF0F90DF91CF911F910F91089583
:10347000CF93DF93282F30E0F901E85FFE4F84916E
:10348000F901E25BFE4FD491F901EC56FE4FC49175
:10349000CC2389F081112BDFEC2FF0E0EE0FFF1F22
:1034A000E652FE4FA591B4912C912D2381E090E03E
:1034B00021F480E002C080E090E0DF91CF91089598
:1034C000BF92CF92DF92EF92FF920F931F93CF9311
:1034D000DF93C82ED62EB42EC7E0D0E0022F10E026
:1034E00087E0E82EF12CB1100AC0F701EC1BFD0BB0
:1034F000B80102C075956795EA95E2F707C0B80173
:103500000C2E02C0759567950A94E2F761707727D3
:103510008C2D79DF61E08D2D76DF60E08D2D73DFFE
:10352000219708F7DF91CF911F910F91FF90EF90B6
:10353000DF90CF90BF90089508955058BB27AA27D9
:103540000ED0E5C0D6D030F0DBD020F031F49F3F74
:1035500011F41EF4CBC00EF4E095E7FBC1C0E92FD7
:10356000E7D080F3BA17620773078407950718F04E
:1035700071F49EF5FFC00EF4E0950B2EBA2FA02D2E
:103580000B01B90190010C01CA01A0011124FF2710
:10359000591B99F0593F50F4503E68F11A16F0400B
:1035A000A22F232F342F4427585FF3CF469537950A
:1035B0002795A795F0405395C9F77EF41F16BA0BCF
:1035C000620B730B840BBAF09150A1F0FF0FBB1F7D
:1035D000661F771F881FC2F70EC0BA0F621F731FC6
:1035E000841F48F4879577956795B795F7959E3F23
:1035F00008F0B3CF9395880F08F09927EE0F9795B1
:103600008795089504D06894B111B5C0089598D0F5
:1036100088F09F5790F0B92F9927B751A0F0D1F0BB
:10362000660F771F881F991F1AF0BA95C9F712C045
:10363000B13081F09FD0B1E008959CC0672F782F02
:103640008827B85F39F0B93FCCF3869577956795B1
:10365000B395D9F73EF490958095709561957F4F1D
:103660008F4F9F4F0895E89409C097FB3EF49095C3
:103670008095709561957F4F8F4F9F4F9923A9F04B
:10368000F92F96E9BB279395F695879577956795DA
:10369000B795F111F8CFFAF4BB0F11F460FF1BC01E
:1036A0006F5F7F4F8F4F9F4F16C0882311F096E9B1
:1036B00011C0772321F09EE8872F762F05C066235F
:1036C00071F096E8862F70E060E02AF09A95660F18
:1036D000771F881FDAF7880F9695879597F90895D1
:1036E00097F99F6780E870E060E008959FEF80ECB5
:1036F000089500240A941616170618060906089558
:1037000000240A9412161306140605060895092EBD
:103710000394000C11F4882352F0BB0F40F4BF2B2C
:1037200011F460FF04C06F5F7F4F8F4F9F4F08956C
:1037300057FD9058440F551F59F05F3F71F0479562
:10374000880F97FB991F61F09F3F79F08795089547
:10375000121613061406551FF2CF4695F1DF08C066
:10376000161617061806991FF1CF86957105610583
:1037700008940895E894BB2766277727CB0197F92B
:1037800008950BD0C4CFB5DF28F0BADF18F0952329
:1037900009F0A6CFABCF1124EECFCADFA0F3959FDF
:1037A000D1F3950F50E0551F629FF001729FBB2728
:1037B000F00DB11D639FAA27F00DB11DAA1F649FD4
:1037C0006627B00DA11D661F829F2227B00DA11D87
:1037D000621F739FB00DA11D621F839FA00D611D0D
:1037E000221F749F3327A00D611D231F849F600D2E
:1037F000211D822F762F6A2F11249F5750408AF067
:10380000E1F088234AF0EE0FFF1FBB1F661F771FF2
:10381000881F91505040A9F79E3F510570F060CF2E
:10382000AACF5F3FECF3983EDCF3869577956795DA
:10383000B795F795E7959F5FC1F7FE2B880F911D10
:103840009695879597F9089597FB072E16F400949F
:1038500006D077FD08D059D007FC05D03EF49095EE
:1038600081959F4F0895709561957F4F0895A1E2CE
:103870001A2EAA1BBB1BFD010DC0AA1FBB1FEE1FEA
:10388000FF1FA217B307E407F50720F0A21BB30B35
:10389000E40BF50B661F771F881F991F1A9469F7B1
:1038A00060957095809590959B01AC01BD01CF010D
:1038B0000895052E97FB16F400940FD057FD05D000
:1038C000D6DF07FC02D046F408C0509540953095ED
:1038D00021953F4F4F4F5F4F08959095809570957C
:1038E00061957F4F8F4F9F4F0895EE0FFF1F0590FB
:1038F000F491E02D19941DD0B7FF0895821B930B0E
:1039000008950790F691E02D1994AA1BBB1B51E175
:1039100007C0AA1FBB1FA617B70710F0A61BB70B3F
:10392000881F991F5A95A9F780959095BC01CD01E4
:103930000895A29FB001B39FC001A39F700D811D88
:103940001124911DB29F700D811D1124911D0895A8
:10395000CF93DF938230910510F482E090E0E09104
:103960000007F091010720E030E0A0E0B0E03097E0
:1039700039F14081518148175907B8F04817590764
:1039800071F482819381109729F013969C938E9302
:1039900012972CC0909301078093000727C0211530
:1039A000310531F04217530718F0A901DB0101C0BE
:1039B000EF019A01BD01DF010280F381E02DD7CF35
:1039C00021153105F9F0281B390B2430310580F41D
:1039D0008A819B816115710521F0FB0193838283AC
:1039E00004C09093010780930007FE01329644C003
:1039F000FE01E20FF31F8193919322503109398325
:103A000028833AC02091FE063091FF06232B41F413
:103A100020910202309103023093FF062093FE06AC
:103A200020910002309101022115310541F42DB79A
:103A30003EB74091040250910502241B350BE091E2
:103A4000FE06F091FF06E217F307A0F42E1B3F0BD2
:103A50002817390778F0AC014E5F5F4F2417350700
:103A600048F04E0F5F1F5093FF064093FE06819370
:103A7000919302C0E0E0F0E0CF01DF91CF91089593
:103A8000CF93DF93009709F487C0FC01329713822C
:103A90001282C0910007D0910107209781F4208104
:103AA0003181280F391F8091FE069091FF06821701
:103AB000930779F5F093FF06E093FE066DC0DE01F3
:103AC00020E030E0AE17BF0750F412964D915C91A4
:103AD00013979D014115510509F1DA01F3CFB38325
:103AE000A28340815181840F951F8A179B0771F42F
:103AF0008D919C911197840F951F029691838083DD
:103B000012968D919C911397938382832115310591
:103B100029F4F0930107E09300073EC0D901139602
:103B2000FC93EE9312974D915D91A40FB51FEA1788
:103B3000FB0779F480819181840F951F0296D9014A
:103B400011969C938E938281938113969C938E936E
:103B50001297E0E0F0E08A819B81009719F0FE0166
:103B6000EC01F9CFCE01029628813981820F931F93
:103B70002091FE063091FF062817390769F4309727
:103B800029F4109201071092000702C013821282DA
:103B9000D093FF06C093FE06DF91CF910895F8946D
:023BA000FFCF55
:103BA2000000020780000100260028002A002C00E5
:103BB2002E0030003200210034011F0023002500B6
:103BC200170019001B0016001A0018002700290010
:103BD2002D002BFF2020616E616C6F67526561645E
:103BE200286169416368696576656450696E292058
:103BF20069732077616B65696E67206974207570DF
:103C020000FC60DAF266B6BEE0FEF602496E697446
:103C1200204368617267652053797374656D206E05
:103C220065772073746174653A202000207365748F
:103C320054617267657450657263656E743A2000F0
:103C42002074617267657450726573737572653A38
:103C52002000206169507265636861726765507205
:103C62006573737572653A2000094F7574726967DE
:103C7200676572207570002050425320686561723A
:103C82007462656174206368616E67656420504286
:103C92005320537461746520003030003025007366
:103CA200003D3D3D20544F57494E47204D4F44451E
:103CB200203D3D3D005265736572766F69722050FA
:103CC200726573737572653A002A2A20504F574500
:103CD200522044524956494E47202A2A00546872BB
:103CE2006573686F6C643A002B2B2B2B20494E4472
:103CF2004956494455414C202B2B2B2B002B2B2B67
:103D02002B2020545241494E494E4720202B2B2B29
:103D12002B0020535452454E475448205452414997
:103D22004E494E472000446966666963756C747932
:103D32003A004475726174696F6E3A0043484152A9
:103D420047494E4700535543434553530053485543
:103D520054444F574E00544F4F204849474800544F
:103D62004F4F204641535400544F4F204D55434826
:103D7200003F3F2000203F3F003E003C000000008B
:103D820000D114F016000000008115F016D614EFD1
:063D920014E114601500AD
:00000001FF
