:1000000015C1000044C1000042C1000040C1000011
:100010003EC100003CC100003AC1000038C10000F0
:1000200036C1000034C1000032C1000030C1000000
:100030002EC100002CC100002AC1000028C1000010
:1000400026C1000024C1000022C1000020C1000020
:100050000C94720E1CC100001AC100000C941F18F1
:1000600016C100000C941C160C94521610C100000E
:100070000EC100000CC100000AC1000008C1000050
:1000800006C1000004C1000002C1000000C1000060
:10009000FEC00000FCC00000FAC00000F8C0000074
:1000A000F6C00000F4C00000F2C00000F0C0000084
:1000B000EEC00000ECC00000EAC00000E8C0000094
:1000C000E6C00000E4C00000E2C00000E0C00000A4
:1000D000DEC00000DCC00000DAC00000D8C00000B4
:1000E000D6C000006619691958195C196219A0195F
:1000F0006D19711977197B197F19851989198D194E
:10010000A019931997199B1900000A0B02090C0DED
:100110000E080703040100000000000000000000BA
:1001200000000000000000000000000000000000CF
:10013000000000001211100000000000000000008C
:1001400000000000000000000000000000000102AC
:1001500010202008081020401020408002010201D9
:100160000804020101020408102040808040201091
:1001700008040201800402018040201008040201EA
:100180000804020101020408102040800102040852
:10019000102040800505050507050808080802022B
:1001A00002020A0A08080404040401010101010111
:1001B00001010303030303030303040707070C0CF4
:1001C0000C0C0C0C0C0C02020202060606060606BB
:1001D00006060B0B0B0B0B0B0B0B00002000230078
:1001E000260029002C002F0032000001000003012E
:1001F0000601090100002200250028002B002E0026
:100200003100340002010000050108010B0100006B
:100210002100240027002A002D00300033000101B6
:100220000000040107010A014A0D841611241FBEB3
:10023000CFEFD1E2DEBFCDBF00E00CBF14E0A0E005
:10024000B2E0E0E5FBE300E00BBF02C007900D92D7
:10025000AE3AB107D9F727E0AEEAB4E001C01D928B
:10026000AD38B207E1F712E0CCE2D2E000E006C020
:1002700022970109FE010BBF0E94581CC832D1070A
:1002800080E00807A9F70E9412180C94A61DB8CEAA
:1002900061E085E20E94A11960E085E20C94DA1920
:1002A0006091AF04662399F08091AE049FEF980FA0
:1002B0009093AE04823078F461506093AF04617023
:1002C00085E20E94DA1981E08093AE04089560E02F
:1002D00085E20C94DA190895DF92EF92FF920F9362
:1002E0001F93CF93DF93EC01C9318CEFD8073CF01B
:1002F000C031E7E2DE075CF4D7FF0BC002C0C9E102
:10030000DCEFD195C195D1099AE0D92E0CC0CFE090
:10031000D7E2CE0160E177E20E94FB1B68EE73E05A
:100320000E94FB1BD62E61E086E10E94DA198AE06A
:10033000E82EF12CCE01B7010E94FB1B87519D4F87
:10034000FC01208140E068E18AE10E94371A04E65E
:1003500010E0CE01B8010E94FB1BB7010E94FB1BFD
:1003600067517D4FFB01208140E068E18AE10E94F6
:10037000371ACE0168EE73E00E94FB1BB8010E94A1
:10038000FB1B67517D4FFB01208140E068E18AE162
:100390000E94371AED2DF0E0E751FD4F208140E03B
:1003A00068E18AE10E94371A60E086E10E94DA196A
:1003B00064E070E080E090E0DF91CF911F910F91B9
:1003C000FF90EF90DF900C949818CF93DF93EC019F
:1003D0008EA5811103C08D8D9E8D02C08F8D98A139
:1003E0007BDF8DA5823018F081508DA70BC084E093
:1003F0008DA78EA5833020F0833021F41EA602C085
:100400008F5F8EA7DF91CF910895CF93DF93EC019B
:10041000BAD23EDF1CA618A21F8E1AA219A21E8EE7
:100420001D8E1EA21DA21DA61EA61BA61AA619A6DB
:100430001CA21BA218A61FA21C8E1B8E1A8EDF9157
:10044000CF9108958BE10E940F1A21E0892B09F4C6
:1004500020E0822F0895FC0110A2178E168E158EB3
:1004600060E085E20C94DA19FC0162A70895FC01B2
:1004700021A132A130A3278F08951F93CF93DF933B
:10048000EC01162F69A764E372E083EE96E00E9408
:1004900005174AE050E0612F83EE96E00E94FC17BA
:1004A00089A5813041F028F0823051F08330B1F0DD
:1004B00037C01EA635C0CE01DF91CF911F914EC22D
:1004C0001BA688E08CA78DA19EA19CA38BA31AA23A
:1004D00019A218A21F8E84E08EA722C060E085E2D8
:1004E0000E94DA198AA58150823020F489A19AA14C
:1004F00098A38F8F8F8D98A12D8D3E8D281739074A
:1005000044F49E8F8D8F84E08093AF0481E08093CC
:10051000AE041EA68BE896E0DF91CF911F9141C5F6
:10052000DF91CF911F9108950F931F93CF93DF9386
:10053000EC0184E496E00E94D90D81111AC086E393
:100540000E94291984319140A4F084E496E00E942D
:10055000A90D6AE472E083EE96E00E94051786E337
:100560000E9429194AE050E0BC0183EE96E00E9407
:10057000D417CE0167DF882309F461C089A58823D9
:1005800009F45DC086E30E942919BC01CE01A6D101
:10059000CE01FAD18C0189A5813081F48FA198A573
:1005A0009801281B390B273031050CF446C08EE426
:1005B00096E00E94EF0A811140C00FC0823009F01E
:1005C0003EC08AA5882319F08330C8F536C08DA1B6
:1005D0009EA1801791079CF530C069E872E083EE18
:1005E00096E00E9405174AE050E0B80183EE96E0DD
:1005F0000E94CD1760E972E083EE96E00E94051735
:100600006FA178A54AE050E083EE96E00E94D417EF
:100610008AA5811109C01EA30DA367E772E083EECE
:1006200096E00E94051702C01EA30DA362E0CE0152
:10063000DF91CF911F910F9120CF1EA30DA3DF91CA
:10064000CF911F910F9108950F931F93CF93DF9335
:100650001F92CDB7DEB78C016983F4DE69818823F0
:1006600031F0611115C08BE10E94DA1909C06623CF
:1006700079F061E08BE10E94DA1980E090E02CDEF5
:1006800060E0C8010F90DF91CF911F910F91F5CEDF
:100690000F90DF91CF911F910F91089560E0EDCE03
:1006A00061E0EBCEEF92FF920F931F93CF93DF9316
:1006B000EC01F6DDCE0189DE89A5823029F0833098
:1006C00009F0DFC061E0D5C0EDA0FEA08FA198A524
:1006D000E81AF90A64EA72E083EE96E00E940517D0
:1006E0004AE050E0B70183EE96E00E94CD1769EA38
:1006F00072E083EE96E00E94051785E08E9D8001F2
:100700008F9D100D11244AE050E0B80183EE96E071
:100710000E94D41717FF03C01195019511098AA5EE
:10072000813099F018F0823071F159C08F8D98A105
:10073000801791070CF053C018A30F8F64EB72E081
:1007400083EE96E00E9405174AC0073911050CF4A4
:1007500046C060E084E096E00E94651024E6AC01AB
:10076000249FC001259F900D112480179107BCF58F
:100770008BA58823E9F089A19AA1801791077CF5C0
:100780001AA309A32CC0073911054CF161E084E0DC
:1007900096E00E94651024E6AC01249FC001259FCD
:1007A000900D112480179107D4F48BA5811105C0F9
:1007B00061E085E20E94DA1912C089A19AA180172E
:1007C00091076CF41AA309A384E096E00E94F31049
:1007D000833029F464E084E096E00E94F6108F8D67
:1007E00098A12D8D3E8D2817390744F49E8F8D8F4B
:1007F00084E08093AF0481E08093AE048AA58111E8
:100800002BC061ED72E083EE96E00E940517CE01E9
:10081000BBD04AE050E0BC0183EE96E00E94CD17C9
:100820006DED72E083EE96E00E9405176FA178A54A
:100830004AE050E083EE96E00E94CD178F8D98A19C
:1008400018161906F4F4CE019FD02FA138A5821BEB
:10085000930B06976CF015C09CA5992319F0915045
:100860009CA70FC08150823060F4023311054CF414
:1008700063E0CE01DF91CF911F910F91FF90EF9038
:10088000FCCDDF91CF911F910F91FF90EF900895D4
:10089000FC0182A50895FC0181A50895FC0183A5B2
:1008A0000895FC0163A708950F931F93CF93DF93DF
:1008B000EC0154D00AE010E086E30E942919BC0143
:1008C000CE010CD001501109B9F7CE015DD098A727
:1008D0008FA3DF91CF911F910F910895CF92DF9257
:1008E000EF92FF920F931F93FC018B018181DF0137
:1008F000A80FB11DA80FB11D1296CD90DC901397D3
:10090000EE24D7FCE094FE2C46895789608D718DCA
:100910004C195D096E097F0913961C930E9312976B
:10092000222717FD2095322F400F511F621F731F82
:10093000468B578B608F718F90819A3010F49F5F38
:1009400090838F5F8A3010F4818301C011821F91E0
:100950000F91FF90EF90DF90CF900895FC011082EF
:10096000118280E090E0DF01A80FB91F13961C925E
:100970001E921297029684319105A9F7168A178A5A
:10098000108E118E0895EACFFC01208130E040E006
:1009900050E066897789808D918D0E94301CC90155
:1009A0000895FC0110828CEB92E0928381838CEAA3
:1009B00093E094838383158208951F93CF93DF93ED
:1009C000EC0187E30E94291918811130E9F030F019
:1009D000123061F1133009F443C04DC029813A81CE
:1009E000821793077CF411E01093500684E496E09C
:1009F0000E94A90D61E080E30E94DA1982E08D83F4
:100A0000188339C060E026C08D81823060F58EE1A8
:100A10000E940F1A892B79F160E080E30E94DA19B5
:100A200061E087E10E94DA1982E011C02B813C81EC
:100A30002817390774F460E087E10E94DA191092F0
:100A4000500684E496E00E94A90D1D8383E088830C
:100A500012C061E087E1DF91CF911F910C94DA1908
:100A60008D81823018F081508D8305C060E080E375
:100A70000E94DA191882DF91CF911F910895CF93C8
:100A8000DF93EC0161E084E30E94A11960E084E35C
:100A90000E94DA1960E08EE10E94A1191882198281
:100AA000DF91CF910895CF93FC012081211102C0E5
:100AB000C18101C0C1E08EE10E940F1ACC2369F010
:100AC00081110DC061E08FE10E94DA1984E30E9478
:100AD0000F1A892B71F461E008C08111F7CF84E30C
:100AE0000E940F1A892B29F060E084E3CF910C94C7
:100AF000DA19CF910895FC0161830895FC011082F9
:100B00000895CF92DF92EF92FF92CF93DF93EC01A3
:100B10006A017B018B859C85AD85BE859A01AB0101
:100B2000281B390B4A0B5B0BDA01C90149815A8139
:100B30006B817C8184179507A607B707D8F0888159
:100B4000813019F0823029F00CC0E985FA851995B9
:100B500008C061E08885811160E068878F810E940C
:100B6000DA19CB86DC86ED86FE868F85988901961C
:100B7000988B8F878D819E8197FD06C02F85388940
:100B8000281739070CF01882DF91CF91FF90EF9072
:100B9000DF90CF900895FF920F931F93CF93DF9331
:100BA000CDB7DEB7AD970FB6F894DEBF0FBECDBFA1
:100BB00062E08CE00E94A1198DE2E7E0F2E0DE0144
:100BC000119601900D928A95E1F710E0812F90E047
:100BD000E1E0F0E0EC0FFD1FE80FF91FF0802FEFD0
:100BE000F21689F0E2E0F0E0EC0FFD1FE80FF91FCC
:100BF000008161E0802F0E94A1196F2D802F0E943B
:100C0000DA191E5FE3CFAD960FB6F894DEBF0FBEC4
:100C1000CDBFDF91CF911F910F91FF9008958DE38C
:100C20000E94291921E0843F91400CF020E0822F9E
:100C30000895CF93DF93EC016D2F661F6627661F23
:100C400081E20E94DA1961E01C161D060CF060E0DA
:100C500082E3DF91CF910C94DA19CF93DF93EC010B
:100C60008130910579F460E086E20E94DA1961E052
:100C700088E20E94DA196BE470E080E090E00E9464
:100C800098180BC06D2F661F6627661F86E20E94AC
:100C9000DA1961E01C161D060CF060E088E2DF91B5
:100CA000CF910C94DA19682F89E10C94DA19FC01C0
:100CB000138212821182108208951F93CF93DF93C3
:100CC000EC01162F64EF72E083EE96E00E940517A8
:100CD0004AE050E0612F83EE96E00E94FC171883F3
:100CE000113049F028F0123061F48FEF9FEF05C00A
:100CF00080E090E002C081E090E0DF91CF911F9111
:100D000098CFDF91CF911F910895CF93DF93EC019E
:100D10008EE30E9429192881213019F0223059F0E0
:100D20000FC02A813B818217930754F060E0CE0107
:100D3000DF91CF91C2CF2A813B8128173907B4F7C1
:100D4000DF91CF910895CF93DF93EC0189816623E2
:100D500041F081110CC060E0CE01AFDF81E08983FA
:100D600006C0882321F060E0CE01A7DF1982DF9161
:100D7000CF910895EF92FF920F931F93CF93DF933C
:100D8000EC016536710514F064E670E08B0177FFC5
:100D900002C000E010E0B801882777FD8095982F09
:100DA0000E940C1B23E333E343E350E40E94981BAF
:100DB00020E030E040E253E40E94751A0E94D91A04
:100DC0007B836A838EE30E9429197C0164E173E0CE
:100DD00083EE96E00E9405174AE050E0B80183EEEA
:100DE00096E00E94CD1768E273E083EE96E00E94E1
:100DF00005176A817B814AE050E083EE96E00E940D
:100E0000D4176AE373E083EE96E00E9405174AE088
:100E100050E0B70183EE96E00E94CD178A819B8156
:100E2000E816F90614F461E004C08E159F054CF431
:100E300062E0CE01DF91CF911F910F91FF90EF9073
:100E40003CCFDF91CF911F910F91FF90EF900895CC
:100E5000FC0182E087A715AA16AA17AA10AE11AE48
:100E6000108211821282138211AA12AA13AA14AA42
:100E700016A681E080AB15821482138A128A17822B
:100E80001682178E168E13A612A615A614A60895FE
:100E90000F931F93CF93DF93EC01C1DE98A98823B2
:100EA00059F09230B1F082E088AB60E084E096E0E7
:100EB0000E94F61060E00AC0913059F081E088ABE2
:100EC0006FA584E096E00E94F61061E08BE10E943D
:100ED000DA1984E096E00E94F310082F84E496E08B
:100EE00068D6182F002391F0813081F461E08CE501
:100EF00096E0AADB61E087E496E087D3033008F44C
:100F000043C061E082E596E01EDF3EC08CE00E94B7
:100F10000F1A892B61F460E08CE596E095DB60E0C8
:100F200087E496E072D360E082E596E00CDF61E052
:100F3000111101C060E08EE20E94DA198EA58823AB
:100F400019F0853091F022C060E08AE20E94DA193F
:100F500087E30E942919AC0164E084E096E0DF9108
:100F6000CF911F910F910C94141089AD9FEF980FA2
:100F700099AF823058F463E084E096E0DF91CF913E
:100F80001F910F910C94F61061E0D5CFDF91CF91B6
:100F90001F910F910895FC0115AA16AA17AA10AE69
:100FA0000895FC0115AA16AA17AA10AE67A562300B
:100FB00021F084E096E00C94F6100895CF93DF932F
:100FC000EC016EA78FEF860F833008F46FA76330B4
:100FD000C9F058F4613081F0623009F043C02BE46D
:100FE00030E04DE350E060E024C0643039F165301A
:100FF000C9F588E089AF36C02BE430E04DE350E01E
:1010000061E017C061E082E596E09DDE62E084E089
:1010100096E00E9465102AE0289FB001299F700D7C
:10102000112482E596E0A6DE21E430E04DE350E0B5
:1010300062E087E496E0DF91CF9173C30E94691864
:1010400069AB7AAB8BAB9CAB63E084E096E00E942B
:10105000651028EE33E0DC010E94521C6DAB7EABC4
:101060008FAB98AFDF91CF910895623049F48AE059
:10107000849FB001859F700D112482E596E07ACEA1
:101080000895FC01138A128A60E070E0DB01149677
:10109000AA0FBB1FAE0FBF1F2D913C918289938970
:1010A000820F931F938B828B6F5F7F4F653071052B
:1010B00069F7828993890E94FB1BCB010895FC018B
:1010C000178E168E60E070E0DB011A96AA0FBB1F28
:1010D000AE0FBF1F2D913C91868D978D820F931F70
:1010E000978F868F6F5F7F4F6530710569F7868DAB
:1010F000978D0E94FB1BCB0108950F931F93CF93F5
:10110000DF93EC010C811D8182E40E942919F80112
:101110003496EE0FFF1FEC0FFD1F91838083EC814F
:10112000FD813496EE0FFF1FEC0FFD1F8081918132
:10113000893791055CF4EC81FD813496EE0FFF1F39
:10114000EC0FFD1F80819181CA977CF48C819D8179
:10115000892BB9F4EC81FD81888999893496EE0F49
:10116000FF1FEC0FFD1F918380838C819D81019671
:101170009D838C838C819D81059779F41D821C82CF
:101180000CC0EC81FD81AC81BD811396AA0FBB1F01
:10119000AC0FBD1F8D919C91E1CFDF91CF911F913D
:1011A0000F9108950F931F93CF93DF93EC010E815E
:1011B0001F8183E40E942919F8013A96EE0FFF1F60
:1011C000EC0FFD1F91838083EE81FF813A96EE0F35
:1011D000FF1FEC0FFD1F80819181893791055CF421
:1011E000EE81FF813A96EE0FFF1FEC0FFD1F80810D
:1011F0009181CA977CF48E819F81892BB9F4EE810D
:10120000FF818C8D9D8D3A96EE0FFF1FEC0FFD1F19
:10121000918380838E819F8101969F838E838E81AF
:101220009F81059779F41F821E820CC0EE81FF8199
:10123000AE81BF811996AA0FBB1FAC0FBD1F8D9148
:101240009C91E1CFDF91CF911F910F9108958F92E3
:101250009F92AF92BF92CF92DF92EF92FF920F9345
:101260001F93CF93DF931F921F92CDB7DEB78C01F0
:101270008EE496E0B4D1882321F0C8013EDFC80196
:1012800091DFF80185A996A9A7A9B0AD181619068E
:101290001A061B060CF06FC0F894F80182A593A5FE
:1012A0009A838983789486E30E94291929813A8157
:1012B0002F3431055CF0F80115AA16AA17AA10AE52
:1012C00049815A814E54510961E00DC08139F1E0E4
:1012D0009F0774F0F80115AA16AA17AA10AEAC0160
:1012E0004059514063E084E096E00E94161243C0EA
:1012F0000E946918F80181A892A8A3A8B4A86B015C
:101300007C01C818D908EA08FB0886169706A806C3
:10131000B9062CF0F1E0CF1AD108E108F108F80184
:1013200061AB72AB83AB94AB45A956A967A970AD0D
:101330004C195D096E097F0945AB56AB67AB70AFC1
:1013400077FF19C015AA16AA17AA10AE61E083E2AA
:101350000E94DA190E946918F80160837183828300
:10136000938340E050E064E084E096E00E9416122F
:101370008CE596E07CD80F900F90DF91CF911F9174
:101380000F91FF90EF90DF90CF90BF90AF909F9024
:101390008F900895CF92DF92EF92FF920F931F9359
:1013A000CF93DF938C01CC24CA94DC2CE12CF12C5C
:1013B00082E40E942919E701CC0FDD1FC00FD11F65
:1013C0009987888783E40E9429199D8B8C8B888557
:1013D00099858937910524F488859985CA9744F4BD
:1013E000E114F10449F5F80180899189918780879A
:1013F0008C899D898937910524F48C899D89CA97A8
:1014000044F4E114F10419F5F801848D958D958B60
:10141000848BFFEFEF1AFF0A8FEFC81AD80AE5E0B6
:10142000EE16F10429F6DF91CF911F910F91FF90F5
:10143000EF90DF90CF900895F6013496EE0FFF1FE6
:10144000E00FF11F8081918199878887D1CFF601C4
:101450003A96EE0FFF1FE00FF11F808191819D8B67
:101460008C8BD7CFFC0186A50895FC01118221E069
:10147000208308950895CF93DF93EC018981882319
:10148000A1F061111AC019828BE20E94DA1960E0A2
:101490008DE20E94DA1960E089E20E94DA1960E0C8
:1014A00087E2DF91CF910C94DA19662331F081E065
:1014B00089838BE896E06EDF1882DF91CF910895E3
:1014C0000F931F93CF93DF9300D01F92CDB7DEB75A
:1014D0008C01FC018081811105C087E496E031D147
:1014E000882359F0F8018181882309F46FC087E4CB
:1014F00096E027D18823D9F069C061E08DE20E948F
:10150000DA1961E087E20E94DA1962E370E080E0B4
:1015100090E00E94981860E08DE20E94DA1960E085
:1015200087E20E94DA1981E0F8018083DBCF8BE843
:1015300096E0A7DD9C838B838BE896E0C0DD9A83E1
:1015400089838B819C81181619060CF03FC0898114
:101550009A8118161906D4F58B819C8129813A81CC
:10156000821B930B8F3F9F4FACF461E08DE20E9492
:10157000DA196EE170E080E090E00E94981860E077
:101580008DE20E94DA1968EC70E080E090E00E9441
:1015900098181CC08B819C8129813A81821B930BF6
:1015A00002972CF060E08DE20E94DA190FC08CE502
:1015B00096E076D864E670E080E090E00E949818AB
:1015C0008CE596E071D960E0C80155DF0F900F906F
:1015D0000F900F90DF91CF911F910F910895FC0113
:1015E0008181089560E08AE20E94DA198CE596E034
:1015F00055D88FEF9FEF31CBFC01148213821282FA
:1016000011821082168215820895FC01858166235D
:1016100029F081110AC081E085830895882329F08B
:101620001582148280E090E018CB0895CF93DF9369
:10163000EC016C83613081F050F0623081F06330F6
:10164000B9F480E090E009DB82E08E8311C080E095
:1016500090E0DF91CF9101CBDF91CF91C3CF81E0BB
:1016600090E0FBDA61E08EE496E0DF91CF9103CF6A
:10167000DF91CF9108950F931F93CF93DF9300D005
:10168000CDB7DEB78C01F8948091B5069091B6067F
:101690009A8389837894F80144814230B1F04330D1
:1016A00051F14130B1F589819A812081318128172A
:1016B00039077CF161E08AE20E94DA1961E573E0A2
:1016C00083EE96E00E941F1712C089819A81F8016B
:1016D000228133818217930754F083E0848380E072
:1016E00090E04B83BADA4B81F801468312C062E086
:1016F000C8019CDF0EC0F80186819FEF980F96838A
:10170000811107C0148280E090E0A7DA8BE896E0B0
:1017100042DC0F900F900F90DF91CF911F910F91AE
:101720000895CF93DF93EC01598348833B832A8349
:101730008CE596E00E94340281E08C83DF91CF91AA
:1017400051CFFC01848108958CE20E940F1A61E060
:10175000892B09F060E08CE20C94DA19CF92DF92C9
:10176000EF92FF920E9469186B017C018CE596E074
:101770000E94520386E596E020D982E596E0C5DA1C
:1017800080E596E090D98BE896E082DB8EE496E0E7
:1017900071DE87E496E06FDF84E496E0F9D184E0BF
:1017A00096E006D50E9469186C197D0970930706AA
:1017B00060930606FF90EF90DF90CF900895CF934F
:1017C000DF93E091B706F091B806EE0FFF1FE555E5
:1017D000F94FC081D18184E40E9429199C012A53C8
:1017E000310927313105D0F08091B7069091B806C4
:1017F000E091B706F091B806892B29F48091B306E1
:101800009091B4060FC0A091B706B091B806AA0F88
:10181000BB1FA755B94F8D919C9104C0E091B706AD
:10182000F091B806EE0FFF1FE555F94F91838083C5
:10183000E091B706F091B806EE0FFF1FE555F94F9E
:10184000808191812091B5063091B60665E070E007
:101850000E94FB1BFB01CE016BEF7FEF0E94FB1B85
:10186000E60FF71F2E0F3F1F3093B6062093B506E5
:101870008091B7069091B80601969093B806809330
:10188000B7068091B7069091B806059721F410929B
:10189000B8061092B7068CE596E00E944B048230A1
:1018A00039F58CE596E00E944804813031F08CE5F2
:1018B00096E00E9448048230D9F48CE596E00E94BC
:1018C0004E04811115C0F8948FE30E9429198634C3
:1018D000910544F080E40E9429198634910514F0A2
:1018E000789406C061E08CE596E00E945104F8CF40
:1018F000DF91CF910895CF92DF92EF92FF920F93F5
:101900001F930E9469186B017C0184E096E0E0D58A
:101910008CE596E00E9494028EE496E0D1DD809101
:101920008B0690918C06A0918D06B0918E061816AC
:1019300019061A061B062CF50E94691800918B06E1
:1019400010918C0620918D0630918E06601B710BD4
:10195000820B930B97FF04C06150710981099109B3
:10196000693E73408105910564F060E083E20E9466
:10197000DA1910928B0610928C0610928D06109236
:101980008E068BE896E063DC0E9469186C197D096D
:1019900070930506609304068AE595E040D180EBDC
:1019A00094E01F910F91FF90EF90DF90CF9037C19F
:1019B0000F931F93CF93DF93C0E0D0E005E010E0DA
:1019C00084E40E942919FE01EE0FFF1FE555F94F2F
:1019D00091838083808191812091B5063091B606F4
:1019E000B8010E94FB1B260F371F3093B6062093C9
:1019F000B50683E40E942919FE01EE0FFF1FE15690
:101A0000F94F9183808382E40E942919FE01EE0F31
:101A1000FF1FED56F94F918380832196C530D10584
:101A200079F6DF91CF911F910F910895B4D826E0F8
:101A300040E855E260E070E083EE96E00E94BC155D
:101A400020E044E064E185EC96E0DDD62EEA3BE060
:101A50004AEF50E060E070E08AE595E03BD124EA8F
:101A60003BE040E85EEE66E370E080EB94E032D16C
:101A70009FDF40E75BE062E070E08DED96E0C5D16E
:101A80002FEF3FEFA9016FED7BE08DED96E0CCD11C
:101A900078940895CF92EF920F93B7E0CB2E06E0A3
:101AA000E02E05E024E043E062E085EC96E031D7EB
:101AB0008BE896E0CDD98CE596E00E94050286E59C
:101AC00096E00E94D10482E596E0F1D880E596E0A8
:101AD0000E943F058EE496E0C8DC87E496E08CDD4A
:101AE00084E496E03AD065EC76E084E096E024D297
:101AF0008AE595E061D080EB94E00F91EF90CF9074
:101B00005BC0CF93DF93EC0184E096E06CD383302D
:101B100028F061E080E596E00E947B0561E08FE1BE
:101B20000E94DA1980E19EE09A8389838CE00E940A
:101B30000F1A019759F48DE30E942919019731F486
:101B400061E08BE1DF91CF910C94DA19DF91CF91B5
:101B5000089521E0FC012083D4CFFBCFFC016083FA
:101B6000662319F0613099F0089560E08BE10E94DE
:101B7000DA198EE10E940F1A892B29F060E080E5C6
:101B800096E00E947B0560E08FE10C94DA19B9CFF2
:101B9000FC012081213061F421813281121613066B
:101BA0002CF42150310932832183089560E0D6CF8F
:101BB0000895FC01808108950F931F93CF93DF93C5
:101BC000EC018C0106551F4FCE010E947E056196E7
:101BD000C017D107C9F7DF91CF911F910F910895D9
:101BE000CF92DF92EF92FF921F93CF93DF936A0120
:101BF0007B01EC011AE08881882329F0B701A60156
:101C0000CE010E948105115061961111F4CFDF9130
:101C1000CF911F91FF90EF90DF90CF900895CF93D9
:101C2000DF93EC010E946918AB01BC01CE01DF918A
:101C3000CF91D6CF20E0FC013081332331F02F5FEC
:101C400041962A30C1F78FEF0895822F0895CF92E1
:101C5000DF92EF92FF920F931F93CF93DF9300D009
:101C60001F92CDB7DEB76C01790149835A836B832C
:101C70007C83E0DF282F49815A816B817C818F3FF3
:101C8000D9F081E12802C00CD11C112481E0F601B9
:101C90008083418352836383748316830583F28632
:101CA000E18629830E946918F60163877487858716
:101CB0009687108A17862981822F0F900F900F9098
:101CC0000F90DF91CF911F910F91FF90EF90DF90D8
:101CD000CF9008950F931F930FEF1FEFB8DF1F9161
:101CE0000F9108951F920F920FB60F9211240BB609
:101CF0000F922F933F934F935F936F937F938F93A5
:101D00009F93AF93BF93EF93FF93E091E106F09120
:101D1000E2061995FF91EF91BF91AF919F918F913D
:101D20007F916F915F914F913F912F910F900BBEDB
:101D30000F900FBE0F901F901895FC01A3E0440F69
:101D4000551F661F771FAA95D1F74115510581E0F0
:101D50006807710514F481E00EC033E0759567954E
:101D6000579547953A95D1F74115510581E0680798
:101D700071051CF482E0828331C023E0759567957C
:101D8000579547952A95D1F74115510581E0680788
:101D9000710514F483E0EFCF92E075956795579540
:101DA00047959A95D1F74115510581E0680771056E
:101DB00014F484E0E0CF82E07595679557954795D8
:101DC0008A95D1F785E082834115510581E0680746
:101DD000710524F04FEF5FEF60E070E08FB7838311
:101DE000F894518340835093870040938600838109
:101DF0008FBF80918100887F8093810080918100D6
:101E00009281892B8093810008951092800020E1B7
:101E10002093810092CFE1E8F0E02081DC0112966E
:101E20008C91282B208308950F931F93CF93DF93DA
:101E3000EC018B01BA01A901141615061606170646
:101E40000CF47BDF1D830C8381E080936F00CE0157
:101E5000DF91CF911F910F91DECFCF93DF93EC01F4
:101E6000862F688362E00E94A1191A821B821C825D
:101E70001D821982DF91CF910895EF92FF920F9307
:101E80001F93CF93DF9300D01F92CDB7DEB77C01B5
:101E9000FC01808149835A836B837C830E940F1AE3
:101EA000F701028113812481358149815A816B8137
:101EB0007C81892BF1F4400F511F621F731F4283F5
:101EC000538364837583413A5648614071053CF100
:101ED00040EA56E861E070E0F7014283538364838F
:101EE0007583818181111BC081E0818381E090E055
:101EF00018C0041B150B260B370BF7010283138345
:101F00002483358337FF0BC012821382148215821B
:101F10008181882321F011828FEF9FEF02C080E042
:101F200090E00F900F900F900F90DF91CF911F9145
:101F30000F91FF90EF900895EF92FF920F931F93F0
:101F4000CF93DF93EC017B0186E090E00E941E18A6
:101F50008C016BE082DF1B870A8786E090E00E949D
:101F60001E188C016AE079DF1D870C8786E090E0FF
:101F70000E941E188C0169E070DF1F870E8786E0C3
:101F800090E00E941E188C0168E067DF198B088BB7
:101F9000FB8AEA8A5FE05C8B61E0698F42E04E8FEA
:101FA0008AE090E09CA38BA323E030E03EA72DA71E
:101FB0009EAB8DAB5D8B6A8F4F8F9EA38DA338AB8D
:101FC0002FA798AF8FAB5E8B4B8F48A322E030E0FA
:101FD00038A72FA321E030E03AAB29AB9AAF89AF05
:101FE0005F8B83E08C8F49A385E090E09AA789A757
:101FF0003CAB2BAB84E190E09CAF8BAF87E0888F4C
:102000004D8F84E08AA387E30E9429199CA78BA7A0
:102010008A899B89D5D38A899B89DF91CF911F912A
:102020000F91FF90EF90E2C3CF93DF93FC012481E7
:10203000862F90E0DC01AA0FBB1FEF01CA0FDB1F48
:10204000211115C02DA53EA54217530714F45EA714
:102050004DA7AE0FBF1FD5962D913C91D697241753
:102060003507B4F4D6965C934E93D59711C02DA541
:102070003EA5241735070CF49A01AE0FBF1FD59665
:102080000D90BC91A02DA901A217B3070CF4AD01CE
:102090009C01220F331FDF01A20FB31FC1E09396F3
:1020A0000D90BC91A02DA417B50709F4C0E0E20F74
:1020B000F31F54A343A3CC2321F08BE896E00E94A6
:1020C00035088C2FDF91CF910895860F911D860FD3
:1020D000911DFC0183A194A10895DF92EF92FF92DC
:1020E0000F931F93CF93DF93EC01D62E062F10E0B2
:1020F0007C01E00EF11EF701418D64898A899B897C
:1021000064D3F801EE0FFF1FEC0FFD1F03A114A114
:10211000F701E68CF12C81E090E00A30110514F40F
:1021200080E090E0E81AF90A81E090E004361105B9
:1021300014F480E090E0E81AF90A81E090E0083EAB
:10214000F3E01F0714F480E090E0E81AF90A21E0B8
:10215000E21AF1088A899B891E141F041CF460E2AC
:1021600055D6F5CF4AE050E0B80117D782E0D8162F
:1021700059F0D81630F0E3E0DE1212C067E872E0E2
:1021800005C06EE873E002C061E973E08A899B894B
:10219000DF91CF911F910F91FF90EF90DF9035C6A7
:1021A000DF91CF911F910F91FF90EF90DF900895F5
:1021B000CF93DF93EC018C81813069F050F0833054
:1021C00079F461E0CE0189DF62E0CE0186DF63E071
:1021D00003C064E001C060E0CE01DF91CF917DCF0C
:1021E000DF91CF910895FC01848108950F931F938F
:1021F000CF93DF931F92CDB7DEB78C018FEFF8013D
:10220000858384E496E06983A4DCF801828993895C
:10221000F3D2F80182899389D3D26981F80164836A
:102220006230B1F1C8F46623F9F0613009F0E8C01A
:1022300060E080E596E00E947B056CEB73E0F801BE
:1022400082899389E2D541E063E0F801828993892C
:10225000BCD260ED73E02FC0643009F460C080F13F
:10226000653009F473C0CCC060E080E596E00E9460
:102270007B0564E973E0F80182899389C6D541E062
:1022800060E0F80182899389A0D268EA73E013C004
:1022900060E080E596E00E947B056BED73E0F8015D
:1022A00082899389B2D541E060E0F80182899389FF
:1022B0008CD260EF73E0F80182899389A6D5A0C023
:1022C00080E00E94530661E080E596E00E947B0575
:1022D00065E074E0F8018289938997D541E062E076
:1022E000F8018289938971D260ED73E0F8018289E7
:1022F00093898BD542E062E0F8018289938965D2A7
:1023000069E174E0F801828993897FD543E062E056
:10231000F8018289938959D265E274E0CCCF60E0FC
:1023200082E596E00E94A30681E00E94530665E0E4
:1023300074E0F8018289938968D542E066E0F8018B
:102340008289938942D26FE274E0B5CF80E00E9427
:10235000530660E080E596E00E947B0565E074E04E
:10236000F8018289938951D5F80125AD8289938935
:10237000243031F442E066E028D268E374E09BCF79
:1023800041E066E022D260E474E0F801828993893A
:102390003CD542E066E0F8018289938916D2F801C3
:1023A00025AD82899389223039F0233041F02130E4
:1023B00049F469E474E015C060E774E012C062E8B3
:1023C00074E00FC06AE874E020D54AE050E0F801FC
:1023D00065AD828993890AD66EE874E0F801828936
:1023E000938913D543E068E0F80182899389EDD1A0
:1023F000F80166AD77AD4AE050E082899389CDD58A
:102400008BE896E02FD8F8016481861749F08BE8B5
:1024100096E00F90DF91CF911F910F910C94DE0702
:102420000F90DF91CF911F910F910895FC0165AF3F
:1024300057AF46AF65E0DACE1F93CF93DF93EC0141
:10244000162F8D818F3FE9F0FE01E80FF11D6489A1
:102450006F5F418D8A899B89B8D162E173E08A8977
:102460009B89D3D48D81FE01E80FF11D64896C5FD7
:10247000418D8A899B89A9D162E173E08A899B8910
:10248000C4D41D831F3F01F1FE01E10FF11D6489DA
:102490006F5F418D8A899B8998D162E974E08A894E
:1024A0009B89B3D48D81FE01E80FF11D64896C5FB7
:1024B000418D8A899B8989D164E974E08A899B89E5
:1024C000DF91CF911F91A1C4DF91CF911F9108950A
:1024D000AF92BF92CF92DF92EF92FF920F931F9332
:1024E000CF93DF93EC0143E060E08A899B896DD153
:1024F0006091790670917A064AE050E08A899B895A
:102500004CD562E173E08A899B897FD460917B0618
:1025100070917C064AE050E08A899B893ED562E151
:1025200073E08A899B8971D460917D0670917E06E3
:102530004AE050E08A899B8930D562E173E08A895C
:102540009B8963D460918106709182064AE050E0D5
:102550008A899B8922D5C9D5CE80DF80E884F98419
:102560009B01AC012C193D094E095F0969017A01F3
:1025700057FF06C031E0C31AD108E108F10804C0D2
:102580006E837F8388879987B701A6018A859B859B
:1025900074DCAA24A394181619060CF0A12CB70118
:1025A000A6018889998969DCBB24B3941816190699
:1025B0000CF0B12CB701A6018C859D855EDC31E065
:1025C00020E0181619060CF030E0032F122FB70187
:1025D000A6018E859F8551DC1816190614F401504A
:1025E0001109AA2049F0BB2069F00115110531F04D
:1025F00084E496E0AEDA02C0BB2021F08CE596E0E0
:102600000E942B028C81813019F0823061F00FC062
:10261000AA2011F063E00EC0BB2039F18D81882320
:10262000F9F060E020C0AA2001F161E003C0AA2017
:1026300041F062E0CE01DADD8CE596E00E942B02EB
:1026400014C0833091F4BB2081F08D81823031F051
:10265000833031F0813031F462E005C063E003C0C3
:102660006FEF01C061E0CE01E7DE01151105C1F099
:102670006D816F3FA9F0FE01E60FF11DE60FF11D20
:1026800043A154A1400F511FCE01DF91CF911F9163
:102690000F91FF90EF90DF90CF90BF90AF90C4CCA0
:1026A000DF91CF911F910F91FF90EF90DF90CF902E
:1026B000BF90AF900895CF93DF93EC0160E08E81DF
:1026C00079D681E090E059D561E08E8173D681E0C2
:1026D00090E053D560E08E816DD684E690E0DF9186
:1026E000CF914BC5EF92FF920F931F93CF93DF9340
:1026F0008C01C0E0D0E0E62EF12CB7010C2E02C018
:10270000759567950A94E2F76170F801EC0FFD1F6B
:10271000878150D62196C430D10579F7C801DF9161
:10272000CF911F910F91FF90EF90C5CFEF92FF9245
:102730000F931F93CF93DF938C01C0E0D0E0E62E80
:10274000F12CB7010C2E02C0759567950A94E2F73B
:102750006170F801EC0FFD1F87812CD62196C830DF
:10276000D10579F7C801DF91CF911F910F91FF90AB
:10277000EF90A1CF1F93CF93DF93EC01162F642F1F
:102780008C8118D68D818F3F11F060E013D68F8534
:10279000612F84FF05C0CE01DF91CF911F91C6CF7D
:1027A00070E084E0759567958A95E1F7CE019ADF30
:1027B000612FCE01DF91CF911F9194CF40E0DACF0E
:1027C00061E0FCDF80ED97E0D8C4443008F043E0DE
:1027D000FC012389421710F04FEF420FFC01E40F78
:1027E000F11D2489260F2068622FE8CFFC01608943
:1027F0006B7F608B6860E2CFFC016089262F2460CC
:10280000208B6C60DBCF0F931F93CF93DF93EC0192
:10281000423018F08F8588608F874B8B1C8A80E44C
:102820008D8B6E8B70E0605C7F4F6F8B222329F065
:10283000413019F48F8584608F8761E08C8181D568
:102840008D818F3F11F061E07CD561E08E8179D57B
:1028500000E010E08F8584FF03C088E090E002C0B4
:1028600084E090E0081719074CF4FE01E00FF11F17
:1028700061E0878166D50F5F1F4FECCF80E593EC59
:102880007CD460E08C8196D560E08E8193D58D817B
:102890008F3F11F060E08ED56F8564FD16C063E058
:1028A000CE0120DF84E991E168D463E0CE011ADF34
:1028B00084E991E162D463E0CE0114DF86E990E01F
:1028C0005CD462E0CE010EDF11C06062CE0176DF23
:1028D00084E991E152D46F856062CE016FDF86E9B1
:1028E00090E04BD46F856062CE0168DF6F856062D7
:1028F000CE0164DF84E0888BCE017EDFCE0160DF15
:1029000082E0898B66E0CE01DF91CF911F910F911C
:1029100055CFCF92EF920F93FC01138212828AE976
:1029200094E09183808364838FEF8583468327833C
:102930000087E186C286138614861586168617865A
:1029400020E041E060E1CF010F91EF90CF905BCFAD
:1029500041E010DF81E090E00895FC01818D228D3F
:1029600090E0805C9F4F821B91098F739927089597
:10297000FC01918D828D981731F0828DE80FF11D49
:10298000858D90E008958FEF9FEF0895FC01918D64
:10299000828D981761F0828DDF01A80FB11D5D96C1
:1029A0008C91928D9F5F9F73928F90E008958FEF2F
:1029B0009FEF08958BE796E1892B39F080E090E056
:1029C000892B19F098D1811125C080E090E0892BE6
:1029D00041F080E090E0892B21F00E9400008111FD
:1029E0001CC080E090E0892B41F080E090E0892BD2
:1029F00021F00E940000811113C080E090E0892B3B
:102A0000A1F080E090E0892B81F00E94000081110C
:102A10000AC008950E940000D8CF0E940000E1CFB4
:102A20000E940000EACF0C9400000895FC01848D00
:102A3000DF01A80FB11DA35ABF4F2C91848D90E0E8
:102A400001968F739927848FA689B7892C93A089C3
:102A5000B1898C9180648C93938D848D981306C07A
:102A60000288F389E02D80818F7D80830895CF9344
:102A7000DF93EC01888D8823C1F0EA89FB8980818E
:102A800085FD05C0A889B9898C9186FD0EC00FB659
:102A900007FCF5CF808185FFF2CFA889B9898C9199
:102AA00085FFEDCFCE01C2DFE8CFDF91CF91089552
:102AB000CF92DF92FF920F931F93CF93DF931F92DA
:102AC000CDB7DEB76C01DC015B969C915B975C96A1
:102AD0008C915C97981307C05096ED91FC9151979B
:102AE000808185FD31C0F601038D10E00F5F1F4F1F
:102AF0000F731127F02EF601848DF81210C00FB657
:102B000007FCF9CFD6015096ED91FC915197808149
:102B100085FFF1CFC601698389DF6981ECCF838DA1
:102B2000E80FF11DE35AFF4F6083D6015B960C93CB
:102B30005B975296ED91FC915397808180628083E0
:102B400081E058968C930DC0D6015696ED91FC917C
:102B5000579760835096ED91FC91519780818064E6
:102B6000808381E090E00F90DF91CF911F910F91D2
:102B7000FF90DF90CF900895BF92CF92DF92EF92B7
:102B8000FF92CF93DF93EC016A017B01B22EE889BB
:102B9000F98982E08083411581EE5807610571054E
:102BA00099F060E079E08DE390E0A701960136D6D8
:102BB0002150310941095109569547953795279577
:102BC000211580E1380790F0E889F989108260E8E2
:102BD00074E88EE190E0A701960120D621503109DA
:102BE000410951095695479537952795EC85FD85FF
:102BF0003083EE85FF852083188EEC89FD89B082B5
:102C0000EA89FB89808180618083EA89FB898081F0
:102C100088608083EA89FB89808180688083EA8973
:102C2000FB8980818F7D8083DF91CF91FF90EF9032
:102C3000DF90CF90BF9008951F920F920FB60F9222
:102C400011240BB60F922F938F939F93EF93FF93C3
:102C5000E091F306F091F4068081E091F906F0919D
:102C6000FA0682FD12C090818091FC068F5F8F73FF
:102C70002091FD06821751F0E091FC06F0E0ED5145
:102C8000F94F958F8093FC0601C08081FF91EF91F1
:102C90009F918F912F910F900BBE0F900FBE0F90B1
:102CA0001F9018951F920F920FB60F9211240BB61A
:102CB0000F922F933F934F935F936F937F938F93D5
:102CC0009F93AF93BF93EF93FF9383EE96E0AEDEB7
:102CD000FF91EF91BF91AF919F918F917F916F91F4
:102CE0005F914F913F912F910F900BBE0F900FBEB0
:102CF0000F901F90189583EE96E02FDE21E0892B30
:102D000009F420E0822F08951092E6061092E5065D
:102D100088EE93E0A0E0B0E08093E7069093E806A9
:102D2000A093E906B093EA0682EA94E09093E40661
:102D30008093E30685EC90E09093F0068093EF0695
:102D400084EC90E09093F2068093F10680EC90E0A2
:102D50009093F4068093F30681EC90E09093F6064E
:102D60008093F50682EC90E09093F8068093F70646
:102D700086EC90E09093FA068093F9061092FC0698
:102D80001092FD061092FE061092FF060895CF9253
:102D9000DF92EF92FF920F931F93CF93DF936C011B
:102DA0007A01EB01E60EF71E00E010E0CE15DF051C
:102DB00061F06991D601ED91FC910190F081E02DD7
:102DC000C6011995080F191FF1CFC801DF91CF91E6
:102DD0001F910F91FF90EF90DF90CF9008956115B4
:102DE000710581F0DB010D900020E9F7AD01415044
:102DF0005109461B570BDC01ED91FC910280F381D8
:102E0000E02D199480E090E00895E9CFDC01ED9188
:102E1000FC910190F081E02D19940F931F93CF93B3
:102E2000DF93EC016DE0F2DF8C016AE0CE01EEDFB2
:102E3000800F911FDF91CF911F910F9108950F93F4
:102E40001F93CF93DF93EC01CADF8C01CE01E5DF46
:102E5000800F911FDF91CF911F910F9108958F9255
:102E60009F92AF92BF92CF92DF92EF92FF920F9319
:102E70001F93CF93DF93CDB7DEB7A1970FB6F8942A
:102E8000DEBF0FBECDBF7C01C42EE52FCB01D22EFD
:102E900019A221E02D1510F02AE0D22E8E010F5D2F
:102EA0001F4F8D2C912CA12CB12C6C2D7E2FA501A8
:102EB0009401B4D48C2DD29E801911240150110993
:102EC0008A3014F4805D01C0895CF801808321158B
:102ED00031054105510521F0C22EE32FCA01E5CF8E
:102EE000B801C7017CDFA1960FB6F894DEBF0FBE14
:102EF000CDBFDF91CF911F910F91FF90EF90DF90A9
:102F0000CF90BF90AF909F908F900895CF92DF9217
:102F1000EF92FF920F931F93CF93DF93EC016A011F
:102F20007B012115310579F4E881F9810190F08167
:102F3000E02D642FDF91CF911F910F91FF90EF90C3
:102F4000DF90CF9019942A303105D9F477FF18C05B
:102F50006DE25CDF8C0144275527BA014C195D09ED
:102F60006E097F092AE0CE017ADF800F911FDF9181
:102F7000CF911F910F91FF90EF90DF90CF90089528
:102F80002AE0B701A601CE01DF91CF911F910F91E9
:102F9000FF90EF90DF90CF9062CF9A01AB01662750
:102FA00057FD6095762FB2CF0F931F93CF93DF938A
:102FB000EC019A01AB01662757FD6095762FA6DFDD
:102FC0008C01CE012ADF800F911FDF91CF911F91DD
:102FD0000F9108952115310541F4DC01ED91FC912B
:102FE0000190F081E02D642F199439CF9A01462F7A
:102FF00050E060E070E0EECF0F931F93CF93DF932C
:10300000EC019A01462F50E060E070E0E3DF8C01B4
:10301000CE0103DF800F911FDF91CF911F910F91A0
:1030200008950895B4D0FDDF0E94160DCAEDD4E1D5
:103030000E947B0C2097E1F3BDDCFACF60C41F92A5
:103040000F920FB60F9211242F933F938F939F935C
:10305000AF93BF938091810790918207A0918307DE
:10306000B09184073091800723E0230F2D3720F49F
:103070000196A11DB11D05C026E8230F0296A11DD2
:10308000B11D209380078093810790938207A093BE
:103090008307B09384078091850790918607A0915C
:1030A0008707B09188070196A11DB11D8093850700
:1030B00090938607A0938707B0938807BF91AF913D
:1030C0009F918F913F912F910F900FBE0F901F9066
:1030D00018952FB7F89460918107709182078091BD
:1030E0008307909184072FBF08953FB7F89480918C
:1030F000850790918607A0918707B091880726B52C
:10310000A89B05C02F3F19F00196A11DB11D3FBF1F
:103110006627782F892F9A2F620F711D811D911DAF
:1031200042E0660F771F881F991F4A95D1F70895CF
:10313000CF92DF92EF92FF92CF93DF936B017C01EE
:10314000D4DFEB01C114D104E104F10479F0CBD157
:10315000CCDF6C1B7D0B683E7340A0F381E0C81A86
:10316000D108E108F108C851DC4FECCFDF91CF91D5
:10317000FF90EF90DF90CF900895019739F0880F7E
:10318000991F880F991F02970197F1F70895789476
:1031900084B5826084BD84B5816084BD85B582605C
:1031A00085BD85B5816085BDEEE6F0E080818160FA
:1031B0008083E1E8F0E010828081826080838081FA
:1031C00081608083E0E8F0E0808181608083E1EBD2
:1031D000F0E0808184608083E0EBF0E080818160BA
:1031E0008083E1E9F0E0808182608083808181607A
:1031F0008083E0E9F0E0808181608083E1EAF0E0B3
:10320000808182608083808181608083E0EAF0E059
:10321000808181608083E1E2F1E08081826080834F
:10322000808181608083E0E2F1E080818160808341
:10323000EAE7F0E08081846080838081826080831F
:103240008081816080838081806880831092C1004A
:103250000895863308F0865320917B00982F98704C
:10326000277F922B90937B0087702091060290E439
:10327000299F90011124822B80937C0080917A00F9
:10328000806480937A0080917A0086FDFCCF8091E3
:1032900078002091790090E0922B089590E0FC0155
:1032A0003197E231F10508F04BC0EE58FF4FF4C200
:1032B000809180008F7703C0809180008F7D809304
:1032C0008000089580918000877FF9CF84B58F7743
:1032D00002C084B58F7D84BD08958091B0008F7742
:1032E00003C08091B0008F7D8093B00008958091DD
:1032F00090008F7707C0809190008F7D03C08091F0
:103300009000877F8093900008958091A0008F7730
:1033100007C08091A0008F7D03C08091A000877FAF
:103320008093A0000895809120018F7707C080913D
:1033300020018F7D03C080912001877F8093200131
:103340000895CF93DF9390E0FC01E25BFE4F249160
:10335000FC01EC56FE4F8491882349F190E0880FE0
:10336000991FFC01E25FFD4FA591B4918C509E4FD7
:10337000FC01C591D4919FB7611108C0F8948C915C
:10338000209582238C93888182230AC0623051F475
:10339000F8948C91322F309583238C938881822BE3
:1033A000888304C0F8948C91822B8C939FBFDF910B
:1033B000CF9108950F931F93CF93DF931F92CDB7B3
:1033C000DEB7282F30E0F901E85FFE4F8491F90164
:1033D000E25BFE4F1491F901EC56FE4F049100237D
:1033E000C1F0882319F0698359DF6981E02FF0E08B
:1033F000EE0FFF1FEC50FE4FA591B4919FB7F894CC
:103400008C91611103C01095812301C0812B8C9395
:103410009FBF0F90DF91CF911F910F910895CF9390
:10342000DF93282F30E0F901E85FFE4F8491F90126
:10343000E25BFE4FD491F901EC56FE4FC491CC23D0
:1034400089F081112BDFEC2FF0E0EE0FFF1FE65229
:10345000FE4FA591B4912C912D2381E090E021F4B1
:1034600080E002C080E090E0DF91CF910895BF92AC
:10347000CF92DF92EF92FF920F931F93CF93DF9340
:10348000C82ED62EB42EC7E0D0E0022F10E087E081
:10349000E82EF12CB1100AC0F701EC1BFD0BB801AE
:1034A00002C075956795EA95E2F707C0B8010C2E42
:1034B00002C0759567950A94E2F7617077278C2DA5
:1034C00079DF61E08D2D76DF60E08D2D73DF219750
:1034D00008F7DF91CF911F910F91FF90EF90DF9050
:1034E000CF90BF90089508955058BB27AA270ED0BB
:1034F000E5C0D6D030F0DBD020F031F49F3F11F49E
:103500001EF4CBC00EF4E095E7FBC1C0E92FE7D075
:1035100080F3BA17620773078407950718F071F4F0
:103520009EF5FFC00EF4E0950B2EBA2FA02D0B01D7
:10353000B90190010C01CA01A0011124FF27591BF8
:1035400099F0593F50F4503E68F11A16F040A22FFE
:10355000232F342F4427585FF3CF4695379527956F
:10356000A795F0405395C9F77EF41F16BA0B620B6E
:10357000730B840BBAF09150A1F0FF0FBB1F661FB5
:10358000771F881FC2F70EC0BA0F621F731F841FF8
:1035900048F4879577956795B795F7959E3F08F01E
:1035A000B3CF9395880F08F09927EE0F97958795DD
:1035B000089504D06894B111B5C0089598D088F0EA
:1035C0009F5790F0B92F9927B751A0F0D1F0660F0F
:1035D000771F881F991F1AF0BA95C9F712C0B1302A
:1035E00081F09FD0B1E008959CC0672F782F882785
:1035F000B85F39F0B93FCCF3869577956795B39569
:10360000D9F73EF490958095709561957F4F8F4FD7
:103610009F4F0895E89409C097FB3EF490958095DC
:10362000709561957F4F8F4F9F4F9923A9F0F92F88
:1036300096E9BB279395F695879577956795B79506
:10364000F111F8CFFAF4BB0F11F460FF1BC06F5FEC
:103650007F4F8F4F9F4F16C0882311F096E911C0FE
:10366000772321F09EE8872F762F05C0662371F01F
:1036700096E8862F70E060E02AF09A95660F771F33
:10368000881FDAF7880F9695879597F9089597F927
:103690009F6780E870E060E008959FEF80EC0895F8
:1036A00000240A9416161706180609060895002421
:1036B0000A9412161306140605060895092E03949B
:1036C000000C11F4882352F0BB0F40F4BF2B11F40F
:1036D00060FF04C06F5F7F4F8F4F9F4F089557FD6E
:1036E0009058440F551F59F05F3F71F04795880F70
:1036F00097FB991F61F09F3F79F087950895121607
:1037000013061406551FF2CF4695F1DF08C01616B2
:1037100017061806991FF1CF869571056105089463
:103720000895E894BB2766277727CB0197F908957A
:103730000BD0C4CFB5DF28F0BADF18F0952309F01D
:10374000A6CFABCF1124EECFCADFA0F3959FD1F364
:10375000950F50E0551F629FF001729FBB27F00D3F
:10376000B11D639FAA27F00DB11DAA1F649F662794
:10377000B00DA11D661F829F2227B00DA11D621FE3
:10378000739FB00DA11D621F839FA00D611D221F9D
:10379000749F3327A00D611D231F849F600D211D81
:1037A000822F762F6A2F11249F5750408AF0E1F024
:1037B00088234AF0EE0FFF1FBB1F661F771F881F6D
:1037C00091505040A9F79E3F510570F060CFAACFAD
:1037D0005F3FECF3983EDCF3869577956795B79558
:1037E000F795E7959F5FC1F7FE2B880F911D969582
:1037F000879597F9089597FB072E16F4009406D045
:1038000077FD08D059D007FC05D03EF490958195FE
:103810009F4F0895709561957F4F0895A1E21A2EEC
:10382000AA1BBB1BFD010DC0AA1FBB1FEE1FFF1F64
:10383000A217B307E407F50720F0A21BB30BE40BB4
:10384000F50B661F771F881F991F1A9469F76095FB
:103850007095809590959B01AC01BD01CF010895B5
:10386000052E97FB16F400940FD057FD05D0D6DF38
:1038700007FC02D046F408C050954095309521953C
:103880003F4F4F4F5F4F089590958095709561958C
:103890007F4F8F4F9F4F0895EE0FFF1F0590F491BC
:1038A000E02D19941DD0B7FF0895821B930B089546
:1038B0000790F691E02D1994AA1BBB1B51E107C09C
:1038C000AA1FBB1FA617B70710F0A61BB70B881FB0
:1038D000991F5A95A9F780959095BC01CD0108953F
:1038E000A29FB001B39FC001A39F700D811D112441
:1038F000911DB29F700D811D1124911D0895CF93CC
:10390000DF938230910510F482E090E0E0918B0724
:10391000F0918C0720E030E0A0E0B0E0309739F182
:103920004081518148175907B8F04817590771F479
:1039300082819381109729F013969C938E9312970E
:103940002CC090938C0780938B0727C021153105DD
:1039500031F04217530718F0A901DB0101C0EF0154
:103960009A01BD01DF010280F381E02DD7CF21153F
:103970003105F9F0281B390B2430310580F48A8198
:103980009B816115710521F0FB019383828304C043
:1039900090938C0780938B07FE01329644C0FE0102
:1039A000E20FF31F819391932250310939832883C9
:1039B0003AC02091890730918A07232B41F4209146
:1039C00002023091030230938A07209389072091E5
:1039D0000002309101022115310541F42DB73EB7A7
:1039E0004091040250910502241B350BE091890798
:1039F000F0918A07E217F307A0F42E1B3F0B28175C
:103A0000390778F0AC014E5F5F4F2417350748F057
:103A10004E0F5F1F50938A074093890781939193BC
:103A200002C0E0E0F0E0CF01DF91CF910895CF93A5
:103A3000DF93009709F487C0FC013297138212824A
:103A4000C0918B07D0918C07209781F42081318120
:103A5000280F391F8091890790918A078217930751
:103A600079F5F0938A07E09389076DC0DE0120E0C5
:103A700030E0AE17BF0750F412964D915C9113974A
:103A80009D014115510509F1DA01F3CFB383A283FA
:103A900040815181840F951F8A179B0771F48D9186
:103AA0009C911197840F951F0296918380831296A3
:103AB0008D919C911397938382832115310529F46D
:103AC000F0938C07E0938B073EC0D9011396FC93CB
:103AD000EE9312974D915D91A40FB51FEA17FB0766
:103AE00079F480819181840F951F0296D9011196F6
:103AF0009C938E938281938113969C938E931297BD
:103B0000E0E0F0E08A819B81009719F0FE01EC0172
:103B1000F9CFCE01029628813981820F931F20911F
:103B2000890730918A072817390769F4309729F4F3
:103B300010928C0710928B0702C013821282D093CE
:103B40008A07C0938907DF91CF910895F894FFCF3A
:103B500000008D0780000100260028002A002C00AC
:103B60002E0030003200210034011F002300250008
:103B7000170019001B0016001A0018002700290062
:103B80002D002BFF416363757374617420656E743F
:103B9000657253746174653A20002020616E616C17
:103BA0006F6752656164286169416368696576651C
:103BB0006450696E292069732077616B65696E674F
:103BC00020697420757000206869742074726970AF
:103BD000207375636365737300206176673A200014
:103BE000206E61747572616C707265636861726772
:103BF000653A200020783A200020646973706C6177
:103C0000793A2000202063757272656E74207065A9
:103C1000616B2073657420746F2064697370202059
:103C2000002020617665726167653A20002070721D
:103C3000656368617267652000FC60DAF266B6BE93
:103C4000E0FEF602496E6974204368617267652080
:103C500053797374656D206E657720737461746534
:103C60003A20200020736574546172676574506552
:103C70007263656E743A20002074617267657450D7
:103C8000726573737572653A2000206169507265C0
:103C900063686172676550726573737572653A2007
:103CA000002050425320686561727462656174201F
:103CB0006368616E67656420504253205374617479
:103CC000653A206C6566742073696E6B696E672C4B
:103CD000206E6F772072616973696E6720003030E3
:103CE000003025003D3D3D20544F57494E47204D63
:103CF0004F4445203D3D3D005265736572766F69C6
:103D0000722050726573737572653A002A2A2050CA
:103D10004F5745522044524956494E47202A2A00BF
:103D20005468726573686F6C643A002B2B2B2B20E0
:103D3000494E444956494455414C202B2B2B2B00CE
:103D40002B2B2B2B2020545241494E494E472020EB
:103D50002B2B2B2B0020535452454E4754482054B4
:103D60005241494E494E4720004469666669637571
:103D70006C74793A004475726174696F6E3A0043ED
:103D800048415247494E470053554343455353001A
:103D900053485554444F574E0044696666696375ED
:103DA0006C74792069732073657420746F2068695E
:103DB0006768206164756A75737420646F776E003C
:103DC000486F6C6420736372756D206C6F6E6765ED
:103DD000720052656475636520003F3F2000203FFC
:103DE0003F003E003C0000000000A814C716000081
:0E3DF00000005815C716AD14C614B8143715C8
:00000001FF
