:1000000015C1000044C1000042C1000040C1000011
:100010003EC100003CC100003AC1000038C10000F0
:1000200036C1000034C1000032C1000030C1000000
:100030002EC100002CC100002AC1000028C1000010
:1000400026C1000024C1000022C1000020C1000020
:100050000C9467111CC100001AC100000C94D61A40
:1000600016C100000C94D3180C94091910C100009B
:100070000EC100000CC100000AC1000008C1000050
:1000800006C1000004C1000002C1000000C1000060
:10009000FEC00000FCC00000FAC00000F8C0000074
:1000A000F6C00000F4C00000F2C00000F0C0000084
:1000B000EEC00000ECC00000EAC00000E8C0000094
:1000C000E6C00000E4C00000E2C00000E0C00000A4
:1000D000DEC00000DCC00000DAC00000D8C00000B4
:1000E000D6C000001D1C201C0F1C131C191C571C03
:1000F000241C281C2E1C321C361C3C1C401C441C7E
:10010000571C4A1C4E1C521C00000A0B02090C0D05
:100110000E080703040100000000000000000000BA
:1001200000000000000000000000000000000000CF
:10013000000000001211100000000000000000008C
:1001400000000000000000000000000000000102AC
:1001500010202008081020401020408002010201D9
:100160000804020101020408102040808040201091
:1001700008040201800402018040201008040201EA
:100180000804020101020408102040800102040852
:10019000102040800505050507050808080802022B
:1001A00002020A0A08080404040401010101010111
:1001B00001010303030303030303040707070C0CF4
:1001C0000C0C0C0C0C0C02020202060606060606BB
:1001D00006060B0B0B0B0B0B0B0B00002000230078
:1001E000260029002C002F0032000001000003012E
:1001F0000601090100002200250028002B002E0026
:100200003100340002010000050108010B0100006B
:100210002100240027002A002D00300033000101B6
:100220000000040107010A0107103B1911241FBE39
:10023000CFEFD1E2DEBFCDBF00E00CBF15E0A0E004
:10024000B2E0E6E8F0E400E00BBF02C007900D92D8
:10025000A63BB107D9F72AE0A6EBB5E001C01D9295
:10026000AF35B207E1F712E0CCE2D2E000E006C021
:1002700022970109FE010BBF0E94F31EC832D1076D
:1002800080E00807A9F70E94C91A0C944120B8CE53
:1002900061E085E20E94581C60E085E20C94911CAC
:1002A00080913909882319F0833038F505C06091B1
:1002B000B705611105C01BC06091B705662399F0B1
:1002C0008091B6059FEF980F9093B6058230A8F401
:1002D00061506093B705617085E20E94911C8AE0CD
:1002E0008093B605089580912209811106C060E0CF
:1002F00085E20E94911C109231090895DF92EF92DD
:10030000FF920F931F93CF93DF93EC01C9318CEFD2
:10031000D8073CF0C031E7E2DE075CF4D7FF0BC042
:1003200002C0C9E1DCEFD195C195D1099AE0D92E7F
:100330000CC0CFE0D7E2CE0160E177E20E94B21EAE
:1003400068EE73E00E94B21ED62E61E086E10E9444
:10035000911C8AE0E82EF12CCE01B7010E94B21E5A
:1003600081569B4FFC01208140E068E18AE10E94B8
:10037000EE1C04E610E0CE01B8010E94B21EB701E7
:100380000E94B21E61567B4FFB01208140E068E174
:100390008AE10E94EE1CCE0168EE73E00E94B21E5C
:1003A000B8010E94B21E61567B4FFB01208140E0E4
:1003B00068E18AE10E94EE1CED2DF0E0E156FB4F72
:1003C000208140E068E18AE10E94EE1C60E086E165
:1003D0000E94911C64E070E080E090E0DF91CF919A
:1003E0001F910F91FF90EF90DF900C944F1B0F9394
:1003F0001F93CF93DF938C01FC01E454FE4F2081C7
:100400003181EC01CE52DE4F2115310509F41882FD
:100410008881811106C0F801E654FE4F80819181E8
:1004200001C0C9016BDFF801EF52FE4F80818230BD
:1004300018F0815080830BC088E2808388818330EC
:1004400020F0833021F4188202C08F5F8883DF910F
:10045000CF911F910F910895CF93DF93EC0184EB1F
:1004600091E0E7E0F2E0DE0101900D920197E1F703
:100470000FDFFE01E053FE4F10827497118210824D
:10048000329611821082349711821082389611822E
:1004900010823F96108231961082339710823197E6
:1004A0001082319710823D97118210823B96118203
:1004B0001082379784E090E0918380833E9710828A
:1004C000329711821082339610823F9610823E97A7
:1004D0001082319610823E961082319610823196AB
:1004E0001082C653DE4F1882DF91CF9108958BE1C1
:1004F0000E94C61C21E0892B09F420E0822F089578
:10050000FC01E454FE4F1182108232971182108256
:10051000109216071092150760E085E20C94911C6A
:1005200082539E4FFC0160830895FC01E454FE4F0A
:10053000DC01A254BE4F8D919C91918380830895DC
:10054000FF920F931F93CF93DF93EC01F62E8C0154
:1005500003531E4FF801608368EE73E085EB99E06A
:100560000E94BC194AE050E06F2D85EB99E00E9493
:10057000B31AF8018081823039F0833031F1811172
:1005800084C0CE52DE4F6AC0FE01E253FE4F80812E
:10059000882319F081E076978083FE01E053FE4FB7
:1005A00088E080837097DE01AE53BE4F8D919C91A1
:1005B0009183808332971182108232971182108248
:1005C000CE52DE4F84E0888360C060E085E20E9406
:1005D000911CFE01E253FE4F808181507297823060
:1005E00050F4DE01A254BE4F8D919C9111979183DE
:1005F000808319961C9280819181FE01E654FE4F02
:100600002081318128173907A4F4918380833C9697
:10061000808181110EC081E0808384E08093B705E2
:100620008AE08093B6056EEF73E085EB99E00E9457
:10063000D619FE01EE52FE4F10823A978081C753C1
:10064000DE4F81110DC0888181110AC08EE399E0CF
:10065000DF91CF911F910F91FF9048C6188215C06E
:1006600088818111FBCF63E08CE097E00E945913F1
:10067000AC014150510962E08CE097E0DF91CF91ED
:100680001F910F91FF900C94F714DF91CF911F9160
:100690000F91FF900895EF92FF920F931F93CF93C6
:1006A000DF93EC017C0122E3E21A2EEFF20AF7015C
:1006B00080818E010C531E4F811103C085E090E0B4
:1006C00002C088E090E0F8019183808383E597E0A1
:1006D0000E94CE1081110AC086E30E94E01B843183
:1006E000914024F083E597E00E949E10CE01FFDE4A
:1006F000882309F45EC0FE01E353FE4F408144238A
:1007000009F457C080918C09882309F452C081E014
:1007100080938809809172099091730910928809D9
:10072000413071F5FE01E553FE4F208131817C019E
:10073000E21AF30A39979183808340938809F8017C
:10074000808191818E159F05A4F58DE597E00E942B
:10075000550D81112EC066E574E085EB99E00E948D
:10076000D61910928809F0921607E092150762E0F8
:10077000CE01DF91CF911F910F91FF90EF90E0CECE
:100780004230B9F4F7012081222379F0233088F434
:10079000FE01E254FE4F2081318132974081518128
:1007A0004217530714F431832083CE53DE4F9983CD
:1007B0008883DF91CF911F910F91FF90EF90089563
:1007C0000F931F93CF93DF931F92CDB7DEB78C01AA
:1007D00069838DDE6981882331F0611115C08BE159
:1007E0000E94911C09C0662379F061E08BE10E94B0
:1007F000911C80E090E082DD60E0C8010F90DF9105
:10080000CF911F910F919CCE0F90DF91CF911F91AF
:100810000F91089560E094CE61E092CE8F929F9206
:10082000AF92BF92CF92DF92EF92FF920F931F93FE
:10083000CF93DF93EC0134DDCE01D9DD6E0123E3EC
:10084000C21A2EEFD20AF6018081823021F0833065
:1008500009F4F9C107C280917209909173097E0170
:10086000F5E3EF1AFEEFFF0AF70120813181821BC9
:10087000930B97FF02C080E090E0FC01EE0FFF1F9A
:10088000EC0FFD1F008111815E01F2E3AF1AFEEF54
:10089000BF0AF5019080F1E09F1689F09F1628F0BD
:1008A00022E0921609F44BC0D6C0FE01E454FE4F7C
:1008B00080819181801791070CF0CDC0CAC00C33A4
:1008C00011050CF4C8C060E08CE097E00E94591359
:1008D00024E6AC01249FC001259F900D11248017B0
:1008E0009107BCF04E0159E4851A5EEF950AF401B8
:1008F0008081882309F47DC060E085E20E94911C1C
:100900006FE074E085EB99E00E94D619F401108243
:1009100070C0FE01E854FE4F8081882309F489C02D
:1009200061E085E20E94911C6BE274E085EB99E046
:100930000E94D619FE01E954FE4F90828CC00C3300
:1009400011050CF488C061E08CE097E00E94591317
:1009500024E6AC01249FC001259F900D112480172F
:1009600091070CF452C04E0159E4851A5EEF950AC6
:10097000F40180818823E9F160E085E20E94911C06
:1009800081E08093880967E574E085EB99E00E9437
:10099000D61910928809F401108263E674E085EBA1
:1009A00099E00E94BC194AE050E0B80185EB99E05B
:1009B0000E94841A6FE674E085EB99E00E94BC19EE
:1009C00060917209709173094AE050E085EB99E0FB
:1009D0000E94841A6AE774E085EB99E00E94BC19D2
:1009E000F701608171814AE050E085EB99E00E9457
:1009F0008B1AFE01E153FE4F8081882361F17697C7
:100A000080818823B1F0108214C0FE01E854FE4FAB
:100A10008081882371F061E085E20E94911C81E071
:100A20008093880910928809FE01E954FE4F808363
:100A300012C0FE01E254FE4F808191818017910720
:100A400054F411830083329780819181801791073C
:100A500014F411830083F501808181111CC081E0B1
:100A60008093880980917209909173091092880986
:100A7000FE01E454FE4F20813181121613060CF062
:100A8000F1C0F70120813181821B930B06970CF096
:100A9000E9C063E0D9C0FE01E053FE4F9081992385
:100AA00011F091509083813021F0823009F453C0CD
:100AB000D9C04E01F2E48F1AFEEF9F0AF401808143
:100AC00091815E01F4E4AF1AFEEFBF0AF5012081C7
:100AD0003181281739071CF4918380830FDCF601DC
:100AE0008081823009F0BEC06E01F1E3CF1AFEEFC3
:100AF000DF0AF6018081882309F181E0809388096B
:100B0000209172093091730910928809F501808152
:100B10009181181619060CF0A5C0F701408151818A
:100B2000241B350B263031050CF09CC00817190723
:100B30000CF098C063E0CE0103DD3BC0F50180817D
:100B4000918197FD019695958795801791070CF4F3
:100B500089C0F4016FC05E01F2E4AF1AFEEFBF0A74
:100B6000F501808191817E01F4E4EF1AFEEFFF0A26
:100B7000F70120813181281739071CF49183808384
:100B8000BDDBF6018081823009F06CC06E01F1E3BB
:100B9000CF1AFEEFDF0AF6018081882309F43FC0F7
:100BA00080918909882341F063E0CE01C9DC10926D
:100BB0008909F601108256C0F7018081918197FD65
:100BC000019695958795801791070CF44BC0F50118
:100BD00011821082FE01E853FE4F81E08083F6010E
:100BE000108263E0CE01ACDC68E873E180E090E065
:100BF0000E944F1B63E08CE097E00E94EB1361E0E2
:100C000086E597E0DF91CF911F910F91FF90EF90D4
:100C1000DF90CF90BF90AF909F908F9070C7F701FB
:100C20008081918197FD0196959587958017910711
:100C3000CCF0F50111821082FE01E854FE4F1082C3
:100C4000719681E0808361E0CE01DF91CF911F91A9
:100C50000F91FF90EF90DF90CF90BF90AF909F905B
:100C60008F906ECCDF91CF911F910F91FF90EF90FD
:100C7000DF90CF90BF90AF909F908F900895825358
:100C80009E4FFC018081089583539E4FFC0180811B
:100C9000089581539E4FFC01608308950F931F9325
:100CA000CF93DF93C8E8D9E021E02883209172092F
:100CB000309173098C0105531E4FF8013183208355
:100CC0006AE874E085EB99E00E94BC19F801608144
:100CD00071814AE050E085EB99E00E948B1A1882FE
:100CE000DF91CF911F910F910895FC0110828CEB41
:100CF00092E0928381838CEA93E0948383831582CC
:100D00000895CF93DF93EC0161E084E30E94581CC7
:100D100060E084E30E94911C60E08EE10E94581C18
:100D200018821982DF91CF910895CF93FC01208121
:100D3000211102C0C18101C0C1E08EE10E94C61C28
:100D4000CC2369F081110DC061E08FE10E94911CFC
:100D500084E30E94C61C892B71F461E008C08111F4
:100D6000F7CF84E30E94C61C892B29F060E084E35E
:100D7000CF910C94911CCF910895FC01608383E581
:100D800097E00E94CE10811104C083E597E00C9497
:100D90009E1008951F93CF93DF93EC0187E30E9489
:100DA000E01B29813A81A90144565109841795070E
:100DB0000CF4C90118811130B9F028F0123031F16A
:100DC0001330E1F146C08217930764F461E08FE5C8
:100DD00097E0D3DF61E080E30E94911C82E08D8385
:100DE00081E023C060E024C08D81823050F58EE127
:100DF0000E94C61C892B69F160E080E30E94911C6F
:100E000061E087E10E94911C82E00FC02B813C8150
:100E10002817390764F460E087E10E94911C60E0C4
:100E20008FE597E0AADF1D8383E0888312C061E02D
:100E300087E1DF91CF911F910C94911C8D818230BD
:100E400018F081508D8305C060E080E30E94911C02
:100E50001882DF91CF911F910895FC01618308955D
:100E6000FC0110820895CF92DF92EF92FF92CF9310
:100E7000DF93EC016A017B018B859C85AD85BE8586
:100E80009A01AB01281B390B4A0B5B0BDA01C90134
:100E900049815A816B817C8184179507A607B70722
:100EA000D8F08881813019F0823029F00CC0E985B2
:100EB000FA85199508C061E08885811160E068872E
:100EC0008F810E94911CCB86DC86ED86FE868F8505
:100ED00098890196988B8F878D819E8197FD06C09A
:100EE0002F853889281739070CF01882DF91CF91A8
:100EF000FF90EF90DF90CF900895FF920F931F9394
:100F0000CF93DF93CDB7DEB7AD970FB6F894DEBFC2
:100F10000FBECDBF60E08DE10E94581C8DE2EBEB6F
:100F2000F3E0DE01119601900D928A95E1F710E051
:100F3000812F90E0E1E0F0E0EC0FFD1FE80FF91FDA
:100F4000F0802FEFF21689F0E2E0F0E0EC0FFD1FE9
:100F5000E80FF91F008161E0802F0E94581C6F2D5F
:100F6000802F0E94911C1E5FE3CFAD960FB6F894C0
:100F7000DEBF0FBECDBFDF91CF911F910F91FF90CC
:100F80000895CF93DF9383E597E00E94CE108130E0
:100F900019F4C8ECD0E002C0C8E5D2E08DE30E94AD
:100FA000E01B21E08C179D070CF020E0822FDF91E1
:100FB000CF910895CF93DF93EC016D2F661F6627C5
:100FC000661F81E20E94911C61E01C161D060CF058
:100FD00060E082E3DF91CF910C94911CCF93DF937B
:100FE000EC0181309105D1F460E086E20E94911C11
:100FF00061E088E20E94911C62E370E080E090E092
:101000000E944F1B60E088E20E94911C62E370E046
:1010100080E090E0DF91CF910C944F1B6D2F661F05
:101020006627661F86E20E94911C61E01C161D0661
:101030000CF060E088E2DF91CF910C94911C682F56
:1010400089E10E94911C81E0809332090895FC019E
:1010500013821282118210820895CF93DF93EC01E4
:101060008EE30E94E01B2881213019F0223061F0CC
:1010700010C02A813B81821793075CF0188280E0C0
:1010800090E0DF91CF9196CF2A813B8128173907D5
:10109000ACF7DF91CF910895CF93DF93EC01898175
:1010A000662349F081110EC0188280E090E082DF53
:1010B00081E0898307C0882329F0188280E090E0CE
:1010C00079DF1982DF91CF910895CF93DF93EC01FF
:1010D0006536710514F064E670E077FF02C060E0E9
:1010E00070E0882777FD8095982F0E94C31D23E329
:1010F00033E343E350E40E944F1E20E030E040E23F
:1011000053E40E942C1D0E94901D7B836A838EE312
:101110000E94E01B2A813B81821793072CF481E017
:10112000888381E090E007C0281739073CF482E00B
:1011300088838FEF9FEFDF91CF913CCFDF91CF91ED
:101140000895FC01DC01AE5ABF4F82E08C931C97DE
:101150001D921D921D921C92139752961C92108202
:1011600011821282138214971D921D921D921C925D
:10117000139713971C9212968C9315821482138ADC
:10118000128A17821682178E168E15AA14AA17AA0B
:1011900016AA519711961C921E92129611961C92A5
:1011A0001E9216961C9211961C9211961C921196E4
:1011B0001C9211961C92E15BFF4F118210820895E0
:1011C0000F931F93CF93DF93EC01DBDE882391F025
:1011D000D8DE882309F1FE01ED5AFF4F808182306D
:1011E000D9F082E0808360E08CE097E00E94EB130E
:1011F00060E00FC0FE01ED5AFF4F8081813061F049
:1012000081E08083319760818CE097E00E94EB134E
:1012100061E08BE10E94911C8CE097E00E94E81352
:10122000082F83E597E0BAD7182F002391F081307B
:1012300081F461E08BE697E0C3DA61E086E597E050
:101240004DD4033008F443C061E081E697E024DF29
:101250003EC08DE10E94C61C892B61F460E08BE6E4
:1012600097E0AEDA60E086E597E038D460E081E6AA
:1012700097E012DF61E0111101C060E08EE20E9490
:10128000911CFE01EF5AFF4F8081882319F08530B1
:1012900091F01FC060E08AE20E94911C87E30E94E7
:1012A000E01BAC0164E08CE097E0DF91CF911F91EF
:1012B0000F910C941113C45BDF4F8881882349F090
:1012C00063E08CE097E00E94EB13188202C061E0BB
:1012D000D5CFDF91CF911F910F9108958A5B9F4FDA
:1012E000FC0110821182128213820895FC01EA5BD4
:1012F000FF4F10821182128213823C96608162300D
:1013000021F08CE097E00C94EB130895CF93DF93DA
:10131000EC01FC01EF5AFF4F60838FEF860F8330A3
:1013200010F4319660836330C1F058F4613079F085
:10133000623009F050C026E430E04DE350E060E058
:1013400023C0643031F1653009F43DC044C026E467
:1013500030E04DE350E061E017C061E081E697E0E6
:101360009BDE62E08CE097E00E9459132AE0289F00
:10137000B001299F700D112481E697E0A6DE2DE3D0
:1013800030E04CE350E062E086E597E0DF91CF91FA
:101390002CC40E94201BFE01EC5AFF4F6083718316
:1013A0008283938363E08CE097E00E94591328EED8
:1013B00033E0DC010E94ED1ECA5BDF4F6883798356
:1013C0008A839B8308C080913309811104C0C85A65
:1013D000DF4F88E08883DF91CF910895623049F430
:1013E0008AE0849FB001859F700D112481E697E00B
:1013F0006CCE0895FC01138A128A60E070E0DB0174
:101400001496AA0FBB1FAE0FBF1F2D913C9182896E
:101410009389820F931F938B828B6F5F7F4F653011
:10142000710569F7828993890E94B21ECB010895E4
:10143000FC01178E168E60E070E0DB011A96AA0F91
:10144000BB1FAE0FBF1F2D913C91868D978D820FD4
:10145000931F978F868F6F5F7F4F6530710569F798
:10146000868D978D0E94B21ECB0108950F931F9316
:10147000CF93DF93EC010C811D8182E40E94E01B7D
:10148000F8013496EE0FFF1FEC0FFD1F9183808350
:10149000EC81FD813496EE0FFF1FEC0FFD1F808164
:1014A0009181893791055CF4EC81FD813496EE0FD2
:1014B000FF1FEC0FFD1F80819181CA977CF48C8106
:1014C0009D81892BB9F4EC81FD81888999893496B5
:1014D000EE0FFF1FEC0FFD1F918380838C819D8198
:1014E00001969D838C838C819D81059779F41D8263
:1014F0001C820CC0EC81FD81AC81BD811396AA0FCA
:10150000BB1FAC0FBD1F8D919C91E1CFDF91CF919F
:101510001F910F9108950F931F93CF93DF93EC01C9
:101520000E811F8183E40E94E01BF8013A96EE0FC2
:10153000FF1FEC0FFD1F91838083EE81FF813A96A0
:10154000EE0FFF1FEC0FFD1F808191818937910500
:101550005CF4EE81FF813A96EE0FFF1FEC0FFD1F4A
:1015600080819181CA977CF48E819F81892BB9F407
:10157000EE81FF818C8D9D8D3A96EE0FFF1FEC0F53
:10158000FD1F918380838E819F8101969F838E832F
:101590008E819F81059779F41F821E820CC0EE8197
:1015A000FF81AE81BF811996AA0FBB1FAC0FBD1F73
:1015B0008D919C91E1CFDF91CF911F910F91089573
:1015C000CF92DF92EF92FF920F931F93CF93DF930F
:1015D000EC018DE597E069D2882321F0CE0146DF4A
:1015E000CE0199DFFE01E35BFF4F8081882309F480
:1015F00099C086E30E94E01B7C01E0917409F091A0
:101600007509EE0FFF1FE25AF64F808191812091FC
:101610007209309173090AE010E0B8010E94B21E0D
:10162000261B370B3093730920937209E0917409DC
:10163000F0917509EE0FFF1FE25AF64FF182E0823A
:10164000E0917409F0917509EE0FFF1FE25AF64F11
:10165000808191812091720930917309B8010E94B3
:10166000B21E260F371F30937309209372098091A1
:101670007409909175090196909375098093740986
:10168000FE01E25BFF4F0A9731F410927509109248
:10169000740981E080838081882309F443C08091AC
:1016A0003509882309F43EC068EE73E080E090E0DD
:1016B0000E944F1B00E010E04AE0E42EF12C86E38C
:1016C0000E94E01B6C01F801EE0FFF1FE25AF64F7B
:1016D000808191812091720930917309B7010E9434
:1016E000B21E261B370B3093730920937209D182E7
:1016F000C082808191812091720930917309B70174
:101700000E94B21E260F371F30937309209372096F
:101710000F5F1F4F0A30110591F68BE697E0BEDA96
:10172000109235098E010A5B1F4FF801808191816B
:10173000A281B381892B8A2B8B2B09F47FC086E38E
:101740000E94E01B8139F1E09F07ACF0F8011082A4
:10175000118212821382AC014059514063E08CE047
:1017600097E0DF91CF911F910F91FF90EF90DF9065
:10177000CF900C94F7140E94201BFE01EC5AFF4FEF
:10178000C080D180E280F3806C157D058E059F05B9
:1017900068F4C080D180E280F380C094D094E0945B
:1017A000F094C60ED71EE81EF91E0CC0C080D18072
:1017B000E280F3809B01AC012C193D094E095F09C1
:1017C00069017A016083718382839383F801808148
:1017D0009181A281B3818C199D09AE09BF098083D3
:1017E0009183A283B38380819181A281B381C297C7
:1017F000A105B10518F5108211821282138261E0F1
:1018000083E20E94911C10928A090E94201B688327
:1018100079838A839B8340E050E064E08CE097E02A
:101820000E94F7148BE697E0DF91CF911F910F9103
:10183000FF90EF90DF90CF900C949502DF91CF91C5
:101840001F910F91FF90EF90DF90CF900895CF926E
:10185000DF92EF92FF920F931F93CF93DF938C0150
:10186000CC24CA94DC2CE12CF12C82E40E94E01BF5
:10187000E701CC0FDD1FC00FD11F9987888783E454
:101880000E94E01B9D8B8C8B8885998589379105FB
:1018900024F488859985CA9744F4E114F10449F544
:1018A000F80180899189918780878C899D89893702
:1018B000910524F48C899D89CA9744F4E114F104BC
:1018C00019F5F801848D958D958B848BFFEFEF1AB8
:1018D000FF0A8FEFC81AD80AE5E0EE16F10429F6E0
:1018E000DF91CF911F910F91FF90EF90DF90CF90FC
:1018F0000895F6013496EE0FFF1FE00FF11F80816F
:10190000918199878887D1CFF6013A96EE0FFF1F14
:10191000E00FF11F808191819D8B8C8BD7CF8F5AE7
:101920009F4FFC0180810895FC01118221E02083FA
:1019300008950895CF93DF93EC0189818823A1F066
:1019400061111AC019828BE20E94911C60E08DE245
:101950000E94911C60E089E20E94911C60E087E295
:10196000DF91CF910C94911C662331F081E0898343
:101970008EE399E06CDF1882DF91CF910895FF929A
:101980000F931F93CF93DF9300D01F92CDB7DEB795
:101990008C01FC018081811105C086E597E035D17D
:1019A000882359F0F8018181882309F474C086E501
:1019B00097E02BD18823D9F06EC061E08DE20E94C0
:1019C000911C61E087E20E94911C62E370E080E07C
:1019D00090E00E944F1B60E08DE20E94911C60E04D
:1019E00087E20E94911C81E0F8018083DBCF8EE3C7
:1019F00099E000DD9C838B838EE399E019DD9A8367
:101A000089838B819C81181619060CF044C089814A
:101A10009A81181619060CF03EC08B819C81298191
:101A20003A81821B930B8F3F9F4FACF461E08DE2B4
:101A30000E94911C62E370E080E090E00E944F1BE6
:101A400060E08DE20E94911C66E970E080E090E029
:101A50000E944F1B20C08B819C8129813A81821B6F
:101A6000930B02972CF060E08DE20E94911C13C052
:101A70008BE697E00E940C0464EF71E080E090E058
:101A80000E944F1BFF24F394F092350960E0C801D7
:101A900051DFF0928B090F900F900F900F90DF9114
:101AA000CF911F910F91FF900895FC0181810895BE
:101AB00010928B0960E08AE20E94911C8BE697E00D
:101AC0000E940A048FEF9FEF89CAFC0114821382DF
:101AD000128211821082168215820895FC0185817E
:101AE000662329F081110AC081E085830895882347
:101AF00029F01582148280E090E070CA0895CF9397
:101B0000DF93EC016C83613099F078F0623099F0EA
:101B10006330B1F480E090E061DA82E08E8361E0CE
:101B20008DE597E0DF91CF9105CF80E090E005C093
:101B3000DF91CF91BDCF81E090E0DF91CF914ECA90
:101B4000DF91CF9108950F931F93CF93DF931F924F
:101B50001F92CDB7DEB78C0181E080938809809118
:101B60008009909181099A83898310928809F801EC
:101B70004481423099F0433019F1413079F589813F
:101B80009A81208131812817390744F161E08AE286
:101B90000E94911C82E0F80184830EC089819A81A1
:101BA000F801228133818217930724F063E0C80192
:101BB000A6DF14C0F801448381E090E00FDA0EC084
:101BC000F80186819FEF980F9683811107C01482D8
:101BD00080E090E003DA8EE399E080DB0F900F90D5
:101BE000DF91CF911F910F910895CF93DF93EC0177
:101BF000598348833B832A838BE697E00E949002B7
:101C000081E08C83DF91CF9153CFFC0184810895D3
:101C10008CE20E94C61C61E0892B09F060E08CE236
:101C20000C94911CCF92DF92EF92FF920E94201BA6
:101C30006B017C018BE697E00E940E0485E697E03D
:101C4000A9D881E697E009DA8FE597E06ED88EE3B0
:101C500099E0B6DA8DE597E06CDE86E597E073DF14
:101C600083E597E08AD28CE097E097D50E94201B0D
:101C70006C197D0970930F0760930E07FF90EF902A
:101C8000DF90CF900895809188098111D5C0E091AF
:101C90008209F0918309EE0FFF1FEA58F64F808109
:101CA0009181209180093091810965E070E00E9466
:101CB000B21E261B370B309381092093800984E4E0
:101CC0000E94E01B9C012A53310927313105D0F0D5
:101CD0008091820990918309E0918209F0918309B2
:101CE000892B29F480917E0990917F090FC0A091E2
:101CF0008209B0918309AA0FBB1FAC58B64F8D91D2
:101D00009C9104C0E0918209F0918309EE0FFF1FBE
:101D1000EA58F64F91838083E0918209F09183091C
:101D2000EE0FFF1FEA58F64F8081918120918009C4
:101D30003091810965E070E00E94B21E260F371FC6
:101D400030938109209380098CE097E041D584305D
:101D5000D9F58BE697E00E943F068230A9F58BE625
:101D600097E00E944406823079F5E0918209F09173
:101D70008309EE0FFF1FEA58F64F808191818F345F
:101D8000910514F110928409109285091092860928
:101D90001092870960E08BE697E00E94490640E0D8
:101DA00050E061E08CE097E022D668E873E180E0E3
:101DB00090E00E944F1B63E08BE697E00E94A00238
:101DC00061E086E597E09BDE80912309882321F17D
:101DD0008FE30E94E01B8634910534F080E40E947A
:101DE000E01B86349105C4F461E08BE697E00E9425
:101DF00049061092230981E0809324098BE697E03D
:101E00000E943F06823041F464E08EE399E07EDA7E
:101E100064E08CE097E0DFD480918209909183099F
:101E200001969093830980938209059729F4109273
:101E3000830910928209089508958F929F92AF921C
:101E4000BF92CF92DF92EF92FF920F931F930E9467
:101E5000201B6B017C018CE097E01ED68BE697E09F
:101E60000E944B038DE597E020DE882319F08DE575
:101E700097E085DD80913E0990913F09A09140094E
:101E8000B0914109892B8A2B8B2B09F446C00E9403
:101E9000201B00913E0910913F092091400930918B
:101EA0004109061717072807390788F400913E09EA
:101EB00010913F0920914009309141094B015C018B
:101EC000801A910AA20AB30A9501840110C00091F8
:101ED0003E0910913F092091400930914109009538
:101EE000109520953095060F171F281F391F0938A8
:101EF00013412105310588F060E083E20E94911CC6
:101F000010923E0910923F09109240091092410927
:101F100081E08093890980938A098EE399E050DB00
:101F20000E94201B6C197D0970930D0760930C07AC
:101F300082E696E069D188EB95E01F910F91FF90C2
:101F4000EF90DF90CF90BF90AF909F908F905CC14B
:101F5000EF92FF920F931F93CF93DF93C0E0D0E0F7
:101F600005E010E08AE0E82EF12C84E40E94E01BFA
:101F7000FE01EE0FFF1FEA58F64F918380838081A8
:101F800091812091800930918109B8010E94B21E8F
:101F9000260F371F309381092093800983E40E9424
:101FA000E01BFE01EE0FFF1FEE5AF64F9183808378
:101FB00082E40E94E01BFE01EE0FFF1FEA5BF64F7A
:101FC0009183808386E30E94E01BFE01EE0FFF1FDA
:101FD000E25AF64F9183808380819181209172092A
:101FE00030917309B7010E94B21E260F371F30933C
:101FF0007309209372092196C530D10509F0B5CF38
:10200000DF91CF911F910F91FF90EF900895CF92A4
:10201000EF920F9397E0C92E26E0E22E05E024E030
:1020200043E062E087E999E02BD78EE399E089D815
:102030008BE697E00E942C0285E697E00E947506E9
:1020400081E697E004D88FE597E00E9481068DE550
:1020500097E06ADC86E597E038DD83E597E072D0AB
:1020600067E979E08CE097E05CD282E696E099D06F
:1020700088EB95E00F91EF90CF9093C00E947D0781
:1020800026E040E855E260E070E085EB99E00E94D0
:10209000731885EB99E0A2D720E044E064E187E97A
:1020A00099E068D622E13EE049E150E060E070E06E
:1020B00082E696E004D128E03EE040E85EEE66E38A
:1020C00070E088EB95E0FBD043DF40E75BE062E047
:1020D00070E08FEA99E08ED12FEF3FEFA90163E422
:1020E0007EE08FEA99E095D178940895CF93DF93BD
:1020F000EC018CE097E06CD3833028F061E08FE551
:1021000097E00E942D0761E08FE10E94911C80E51D
:1021100096E49A8389838DE10E94C61C019759F445
:102120008DE30E94E01B019731F461E08BE1DF91C8
:10213000CF910C94911CDF91CF91089521E0FC0187
:102140002083D4CFFBCFFC016083662319F061307C
:1021500099F0089560E08BE10E94911C8EE10E944D
:10216000C61C892B29F060E08FE597E00E942D07BF
:1021700060E08FE10C94911CB9CFFC0120812130EB
:1021800061F421813281121613062CF42150310999
:1021900032832183089560E0D6CF0895FC018081C9
:1021A00008950F931F93CF93DF93EC018C01065595
:1021B0001F4FCE010E9430076196C017D107C9F7A3
:1021C000DF91CF911F910F910895CF92DF92EF92FF
:1021D000FF921F93CF93DF936A017B01EC011AE01A
:1021E0008881882329F0B701A601CE010E94330718
:1021F000115061961111F4CFDF91CF911F91FF9093
:10220000EF90DF90CF900895CF93DF93EC010E9481
:10221000201BAB01BC01CE01DF91CF91D6CF20E0D6
:10222000FC013081332331F02F5F41962A30C1F712
:102230008FEF0895822F0895CF92DF92EF92FF9251
:102240000F931F93CF93DF9300D01F92CDB7DEB7CC
:102250006C01790149835A836B837C83E0DF282FEB
:1022600049815A816B817C818F3FD9F081E12802BD
:10227000C00CD11C112481E0F6018083418352837C
:102280006383748316830583F286E18629830E9423
:10229000201BF6016387748785879687108A1786C7
:1022A0002981822F0F900F900F900F90DF91CF9187
:1022B0001F910F91FF90EF90DF90CF9008950F93B3
:1022C0001F930FEF1FEFB8DF1F910F9108951F921B
:1022D0000F920FB60F9211240BB60F922F933F93CC
:1022E0004F935F936F937F938F939F93AF93BF931E
:1022F000EF93FF93E091B309F091B4091995FF9121
:10230000EF91BF91AF919F918F917F916F915F916D
:102310004F913F912F910F900BBE0F900FBE0F90DA
:102320001F901895FC01A3E0440F551F661F771FEF
:10233000AA95D1F74115510581E06807710514F49C
:1023400081E00EC033E075956795579547953A95AE
:10235000D1F74115510581E0680771051CF482E051
:10236000828331C023E075956795579547952A95E7
:10237000D1F74115510581E06807710514F483E038
:10238000EFCF92E075956795579547959A95D1F758
:102390004115510581E06807710514F484E0E0CF30
:1023A00082E075956795579547958A95D1F785E0B1
:1023B00082834115510581E06807710524F04FEFD4
:1023C0005FEF60E070E08FB78383F89451834083C0
:1023D000509387004093860083818FBF8091810056
:1023E000887F80938100809181009281892B8093E6
:1023F000810008951092800020E12093810092CF07
:10240000E1E8F0E02081DC0112968C91282B2083FA
:1024100008950F931F93CF93DF93EC018B01BA01C3
:10242000A90114161506160617060CF47BDF1D838A
:102430000C8381E080936F00CE01DF91CF911F91DB
:102440000F91DECFCF93DF93EC01862F688362E09C
:102450000E94581C1A821B821C821D821982DF91E5
:10246000CF910895EF92FF920F931F93CF93DF9335
:1024700000D01F92CDB7DEB77C01FC01808149837B
:102480005A836B837C830E94C61CF70102811381EF
:102490002481358149815A816B817C81892BF1F4BA
:1024A000400F511F621F731F4283538364837583E0
:1024B000413A5648614071053CF140EA56E861E016
:1024C00070E0F701428353836483758381818111B6
:1024D0001BC081E0818381E090E018C0041B150BD4
:1024E000260B370BF701028313832483358337FFD1
:1024F0000BC012821382148215828181882321F0FD
:1025000011828FEF9FEF02C080E090E00F900F905C
:102510000F900F90DF91CF911F910F91FF90EF904F
:102520000895EF92FF920F931F93CF93DF93EC01E7
:102530007B0186E090E00E94D51A8C016BE082DF7F
:102540001A8B098B86E090E00E94D51A8C016AE014
:1025500079DF1C8B0B8B86E090E00E94D51A8C01F2
:1025600069E070DF1E8B0D8B86E090E00E94D51A2B
:102570008C0168E067DF188F0F8BFA8EE98E5FE0C1
:102580005B8F61E068A342E04DA38AE090E09BA7E7
:102590008AA723E030E03DAB2CAB9DAF8CAF5C8FC6
:1025A00069A34EA39DA78CA73FAB2EAB9FAF8EAF69
:1025B0005D8F4AA34FA322E030E03FA72EA721E082
:1025C00030E039AF28AFFE01E05CFF4F918380839C
:1025D0005E8F83E08BA348A785E090E099AB88AB42
:1025E0003BAF2AAF329684E190E09183808387E00D
:1025F0008F8F4CA384E089A787E30E94E01B9BABED
:102600008AAB898D9A8D93D3898D9A8DA6D318869E
:102610001A861986DF91CF911F910F91FF90EF904D
:102620000895CF93FC017385262F30E0711114C0FB
:10263000F901EE0FFF1FE80FF91FA4A9B5A94A176A
:102640005B0714F455AB44ABA4ADB5ADA417B50707
:10265000CCF455AF44AF16C0D901AA0FBB1FA80FC9
:10266000B91FD496ED91FC91D597E417F5070CF4BA
:10267000FA01DC960D90BC91A02DAF01AE17BF07FB
:102680000CF4AD01F901EE0FFF1FE80FF91FC1E0D7
:1026900022A533A52417350709F4C0E053A742A7A4
:1026A000CC2321F08EE399E00E94EE098C2FCF918C
:1026B0000895860F911D860F911DFC0182A593A59B
:1026C0000895DF92EF92FF920F931F93CF93DF93C2
:1026D000EC01D62E062F10E07C01E00EF11EF70172
:1026E00040A1638D898D9A8D27D3F8017596EE0FE1
:1026F000FF1FEC0FFD1F00811181F701E5A0F12CF8
:1027000081E090E00A30110514F480E090E0E81ACE
:10271000F90A81E090E00436110514F480E090E0BD
:10272000E81AF90A81E090E0083EF3E01F0714F48C
:1027300080E090E0E81AF90A21E0E21AF108898DB8
:102740009A8D1E141F041CF460E217D6F5CF4AE0E0
:1027500050E0B801D9D682E0D81659F0D81630F03A
:10276000E3E0DE1212C060EB74E005C06AEA74E0D8
:1027700002C06DEA74E0898D9A8DDF91CF911F912F
:102780000F91FF90EF90DF90F7C5DF91CF911F91F0
:102790000F91FF90EF90DF900895CF93DF93EC01BE
:1027A0008B85813069F050F0833079F461E0CE019F
:1027B00088DF62E0CE0185DF63E003C064E001C032
:1027C00060E0CE01DF91CF917CCFDF91CF91089572
:1027D000FC01838508950F931F93CF93DF93EC0142
:1027E000162F8FEF8C8783E597E0D8DC811103C02B
:1027F00083E597E0A3DC898D9A8DB5D2898D9A8D7A
:1028000096D21B87123091F1B8F41123E9F0113000
:1028100009F0D9C060E08FE597E00E942D076AEDCE
:1028200074E0898D9A8DA8D541E063E0898D9A8DF9
:1028300083D26EEE74E02BC0143009F455C058F109
:10284000153009F466C0BFC060E08FE597E00E94D4
:102850002D0762EB74E0898D9A8D8ED541E060E0A2
:10286000898D9A8D69D266EC74E011C060E08FE5C5
:1028700097E00E942D0769EF74E0898D9A8D7CD5D1
:1028800041E060E0898D9A8D57D26EE075E0898DC8
:102890009A8D72D598C080E00E941F0861E08FE594
:1028A00097E00E942D0763E275E0898D9A8D64D5CB
:1028B00041E062E0898D9A8D3FD26EEE74E0898DA1
:1028C0009A8D5AD542E062E0898D9A8D35D267E3C0
:1028D00075E0898D9A8D50D543E062E0898D9A8D9F
:1028E0002BD263E475E0D3CF60E081E697E00E94ED
:1028F0004C0881E00E941F0863E275E0898D9A8D83
:102900003BD542E066E0898D9A8D16D26DE475E084
:10291000BECF80E00E941F0860E08FE597E00E9434
:102920002D0763E275E0898D9A8D26D58E010C5BAB
:102930001F4FF8012081898D9A8D243031F442E0B7
:1029400066E0FAD167E575E0A2CF41E066E0F4D138
:102950006FE575E0898D9A8D0FD542E060E0898D35
:102960009A8DEAD1F8012081898D9A8D223039F033
:10297000233041F0213049F468E675E014C068E77F
:1029800075E011C06AE875E00EC062E975E0F4D444
:102990004AE050E0F8016081898D9A8DDED566E9C4
:1029A00075E0898D9A8DE8D443E068E0898D9A8D31
:1029B000C3D1FE01EB5BFF4F608171814AE050E0C3
:1029C000898D9A8DA1D58EE399E00E948F0C6B853D
:1029D000861741F08EE399E0DF91CF911F910F911F
:1029E0000C948609DF91CF911F910F910895FC01FE
:1029F000EC5BFF4F608331965183408365E0EBCE03
:102A00001F93CF93DF93EC01162F8C858F3FE9F056
:102A1000FE01E80FF11D638D6F5F40A1898D9A8DD6
:102A20008BD165E574E0898D9A8DA6D48C85FE01E5
:102A3000E80FF11D638D6C5F40A1898D9A8D7CD16B
:102A400065E574E0898D9A8D97D41C871F3F01F14D
:102A5000FE01E10FF11D638D6F5F40A1898D9A8D9D
:102A60006BD16AE975E0898D9A8D86D48C85FE01DB
:102A7000E80FF11D638D6C5F40A1898D9A8D5CD14B
:102A80006CE975E0898D9A8DDF91CF911F9174C4A7
:102A9000DF91CF911F910895AF92BF92CF92DF92B5
:102AA000EF92FF920F931F93CF93DF93EC01D4D556
:102AB000CD84DE84EF84F8889B01AC012C193D099C
:102AC0004E095F0969017A0157FF06C031E0C31A58
:102AD000D108E108F10804C06D877E878F87988B45
:102AE000B701A60189899A89BDDCAA24A394181686
:102AF00019060CF0A12CB701A6018F89988DB2DCC4
:102B0000BB24B394181619060CF0B12CB701A6011A
:102B10008B899C89A7DC31E020E0181619060CF09F
:102B200030E0032F122FB701A6018D899E899ADC10
:102B30001816190614F401501109AA2071F0BB20CF
:102B400091F00115110559F083E597E027DB81111C
:102B500006C083E597E0F2DA02C0BB2021F08BE6E5
:102B600097E00E9480028B85813019F0823091F0CD
:102B700015C0AA2041F08BE697E00E94800263E036
:102B8000CE0129DE29C0BB2039F18C858823F9F0DC
:102B900060E020C0AA2001F161E003C0AA2041F05A
:102BA00062E0CE0118DE8BE697E00E94800214C03E
:102BB000833091F4BB2081F08C85823031F08330FA
:102BC00031F0813031F462E005C063E003C06FEFA3
:102BD00001C061E0CE0114DF01151105C1F06C8563
:102BE0006F3FA9F0FE01E60FF11DE60FF11D42A5B2
:102BF00053A5400F511FCE01DF91CF911F910F912F
:102C0000FF90EF90DF90CF90BF90AF900ACDDF9113
:102C1000CF911F910F91FF90EF90DF90CF90BF90D9
:102C2000AF900895CF93DF93EC0160E08E8179D669
:102C300081E090E059D561E08E8173D681E090E02B
:102C400053D560E08E816DD684E690E0DF91CF9120
:102C50004BC5EF92FF920F931F93CF93DF938C019D
:102C6000C0E0D0E0E62EF12CB7010C2E02C0759525
:102C700067950A94E2F76170F801EC0FFD1F8781F8
:102C800050D62196C430D10579F7C801DF91CF9194
:102C90001F910F91FF90EF90C5CFEF92FF920F938E
:102CA0001F93CF93DF938C01C0E0D0E0E62EF12C90
:102CB000B7010C2E02C0759567950A94E2F7617012
:102CC000F801EC0FFD1F87812CD62196C830D10565
:102CD00079F7C801DF91CF911F910F91FF90EF908D
:102CE000A1CF1F93CF93DF93EC01162F642F8C811C
:102CF00018D68D818F3F11F060E013D68F85612F3C
:102D000084FF05C0CE01DF91CF911F91C6CF70E047
:102D100084E0759567958A95E1F7CE019ADF612F7A
:102D2000CE01DF91CF911F9194CF40E0DACF61E0E7
:102D3000FCDF80ED97E0D8C4443008F043E0FC01AC
:102D40002389421710F04FEF420FFC01E40FF11DF1
:102D50002489260F2068622FE8CFFC0160896B7FF1
:102D6000608B6860E2CFFC016089262F2460208B95
:102D70006C60DBCF0F931F93CF93DF93EC01423056
:102D800018F08F8588608F874B8B1C8A80E48D8B31
:102D90006E8B70E0605C7F4F6F8B222329F0413097
:102DA00019F48F8584608F8761E08C8181D58D8156
:102DB0008F3F11F061E07CD561E08E8179D500E034
:102DC00010E08F8584FF03C088E090E002C084E0BB
:102DD00090E0081719074CF4FE01E00FF11F61E0C5
:102DE000878166D50F5F1F4FECCF80E593EC7CD4D5
:102DF00060E08C8196D560E08E8193D58D818F3F88
:102E000011F060E08ED56F8564FD16C063E0CE01E1
:102E100020DF84E991E168D463E0CE011ADF84E920
:102E200091E162D463E0CE0114DF86E990E05CD4E6
:102E300062E0CE010EDF11C06062CE0176DF84E970
:102E400091E152D46F856062CE016FDF86E990E038
:102E50004BD46F856062CE0168DF6F856062CE0102
:102E600064DF84E0888BCE017EDFCE0160DF82E00C
:102E7000898B66E0CE01DF91CF911F910F9155CFE5
:102E8000CF92EF920F93FC011382128282EA95E0B7
:102E90009183808364838FEF8583468327830087B4
:102EA000E186C2861386148615861686178620E06C
:102EB00041E060E1CF010F91EF90CF905BCF41E017
:102EC00010DF81E090E00895FC01818D228D90E07B
:102ED000805C9F4F821B91098F7399270895FC0195
:102EE000918D828D981731F0828DE80FF11D858DBF
:102EF00090E008958FEF9FEF0895FC01918D828DF2
:102F0000981761F0828DDF01A80FB11D5D968C913D
:102F1000928D9F5F9F73928F90E008958FEF9FEF48
:102F2000089582E399E1892B39F080E090E0892BC4
:102F300019F098D1811125C080E090E0892B41F0F3
:102F400080E090E0892B21F00E94000081111CC0DC
:102F500080E090E0892B41F080E090E0892B21F027
:102F60000E940000811113C080E090E0892BA1F045
:102F700080E090E0892B81F00E94000081110AC05E
:102F800008950E940000D8CF0E940000E1CF0E9467
:102F90000000EACF0C9400000895FC01848DDF014D
:102FA000A80FB11DA35ABF4F2C91848D90E00196BC
:102FB0008F739927848FA689B7892C93A089B189AB
:102FC0008C9180648C93938D848D981306C00288B5
:102FD000F389E02D80818F7D80830895CF93DF93E7
:102FE000EC01888D8823C1F0EA89FB89808185FD09
:102FF00005C0A889B9898C9186FD0EC00FB607FC63
:10300000F5CF808185FFF2CFA889B9898C9185FFA2
:10301000EDCFCE01C2DFE8CFDF91CF910895CF92FF
:10302000DF92FF920F931F93CF93DF931F92CDB741
:10303000DEB76C01DC015B969C915B975C968C9192
:103040005C97981307C05096ED91FC915197808141
:1030500085FD31C0F601038D10E00F5F1F4F0F7328
:103060001127F02EF601848DF81210C00FB607FC60
:10307000F9CFD6015096ED91FC915197808185FF53
:10308000F1CFC601698389DF6981ECCF838DE80FB9
:10309000F11DE35AFF4F6083D6015B960C935B975B
:1030A0005296ED91FC91539780818062808381E0FC
:1030B00058968C930DC0D6015696ED91FC9157977A
:1030C00060835096ED91FC9151978081806480835C
:1030D00081E090E00F90DF91CF911F910F91FF90D1
:1030E000DF90CF900895BF92CF92DF92EF92FF9240
:1030F000CF93DF93EC016A017B01B22EE889F98955
:1031000082E08083411581EE58076105710599F0D1
:1031100060E079E08DE390E0A701960136D621507A
:10312000310941095109569547953795279521153C
:1031300080E1380790F0E889F989108260E874E846
:103140008EE190E0A701960120D621503109410976
:1031500051095695479537952795EC85FD85308320
:10316000EE85FF852083188EEC89FD89B082EA897F
:10317000FB89808180618083EA89FB898081886006
:103180008083EA89FB89808180688083EA89FB8962
:1031900080818F7D8083DF91CF91FF90EF90DF90D2
:1031A000CF90BF9008951F920F920FB60F921124E7
:1031B0000BB60F922F938F939F93EF93FF93E09112
:1031C000C509F091C6098081E091CB09F091CC0945
:1031D00082FD12C090818091CE098F5F8F73209104
:1031E000CF09821751F0E091CE09F0E0EB54F64F91
:1031F000958F8093CE0901C08081FF91EF919F91BF
:103200008F912F910F900BBE0F900FBE0F901F90BC
:1032100018951F920F920FB60F9211240BB60F92B2
:103220002F933F934F935F936F937F938F939F93CE
:10323000AF93BF93EF93FF9385EB99E0AEDEFF91E1
:10324000EF91BF91AF919F918F917F916F915F911E
:103250004F913F912F910F900BBE0F900FBE0F908B
:103260001F90189585EB99E02FDE21E0892B09F45A
:1032700020E0822F08951092B8091092B70988EEC5
:1032800093E0A0E0B0E08093B9099093BA09A093CD
:10329000BB09B093BC098AEA95E09093B609809384
:1032A000B50985EC90E09093C2098093C10984EC44
:1032B00090E09093C4098093C30980EC90E09093D0
:1032C000C6098093C50981EC90E09093C80980936A
:1032D000C70982EC90E09093CA098093C90986ECF3
:1032E00090E09093CC098093CB091092CE09109274
:1032F000CF091092D0091092D1090895CF92DF9290
:10330000EF92FF920F931F93CF93DF936C017A019B
:10331000EB01E60EF71E00E010E0CE15DF0561F0D0
:103320006991D601ED91FC910190F081E02DC601EB
:103330001995080F191FF1CFC801DF91CF911F9187
:103340000F91FF90EF90DF90CF9008956115710578
:1033500081F0DB010D900020E9F7AD0141505109EA
:10336000461B570BDC01ED91FC910280F381E02DAF
:10337000199480E090E00895E9CFDC01ED91FC9193
:103380000190F081E02D19940F931F93CF93DF9359
:10339000EC016DE0F2DF8C016AE0CE01EEDF800F20
:1033A000911FDF91CF911F910F9108950F931F935C
:1033B000CF93DF93EC01CADF8C01CE01E5DF800FF4
:1033C000911FDF91CF911F910F9108958F929F923E
:1033D000AF92BF92CF92DF92EF92FF920F931F9323
:1033E000CF93DF93CDB7DEB7A1970FB6F894DEBFCA
:1033F0000FBECDBF7C01C42EE52FCB01D22E19A26A
:1034000021E02D1510F02AE0D22E8E010F5D1F4F06
:103410008D2C912CA12CB12C6C2D7E2FA50194010B
:10342000B4D48C2DD29E80191124015011098A30F8
:1034300014F4805D01C0895CF80180832115310599
:103440004105510521F0C22EE32FCA01E5CFB80195
:10345000C7017CDFA1960FB6F894DEBF0FBECDBFCB
:10346000DF91CF911F910F91FF90EF90DF90CF9060
:10347000BF90AF909F908F900895CF92DF92EF9280
:10348000FF920F931F93CF93DF93EC016A017B01AF
:103490002115310579F4E881F9810190F081E02D61
:1034A000642FDF91CF911F910F91FF90EF90DF90EC
:1034B000CF9019942A303105D9F477FF18C06DE206
:1034C0005CDF8C0144275527BA014C195D096E0950
:1034D0007F092AE0CE017ADF800F911FDF91CF9123
:1034E0001F910F91FF90EF90DF90CF9008952AE009
:1034F000B701A601CE01DF91CF911F910F91FF90EF
:10350000EF90DF90CF9062CF9A01AB01662757FD15
:103510006095762FB2CF0F931F93CF93DF93EC017B
:103520009A01AB01662757FD6095762FA6DF8C01C7
:10353000CE012ADF800F911FDF91CF911F910F9154
:1035400008952115310541F4DC01ED91FC910190C4
:10355000F081E02D642F199439CF9A01462F50E065
:1035600060E070E0EECF0F931F93CF93DF93EC01F9
:103570009A01462F50E060E070E0E3DF8C01CE015D
:1035800003DF800F911FDF91CF911F910F9108955D
:103590000895B4D0FDDF0E943E10C1E9D7E10E943A
:1035A0001D0F2097E1F3BDDCFACF44C41F920F92A8
:1035B0000FB60F9211242F933F938F939F93AF9346
:1035C000BF938091530A9091540AA091550AB091EB
:1035D000560A3091520A23E0230F2D3720F401962A
:1035E000A11DB11D05C026E8230F0296A11DB11D26
:1035F0002093520A8093530A9093540AA093550A39
:10360000B093560A8091570A9091580AA091590A8E
:10361000B0915A0A0196A11DB11D8093570A90934B
:10362000580AA093590AB0935A0ABF91AF919F913B
:103630008F913F912F910F900FBE0F901F90189573
:103640002FB7F8946091530A7091540A8091550AEB
:103650009091560A2FBF08953FB7F8948091570A6A
:103660009091580AA091590AB0915A0A26B5A89B80
:1036700005C02F3F19F00196A11DB11D3FBF662760
:10368000782F892F9A2F620F711D811D911D42E0A5
:10369000660F771F881F991F4A95D1F70895CF921B
:1036A000DF92EF92FF92CF93DF936B017C01D4DF27
:1036B000EB01C114D104E104F10479F0CBD1CCDFEA
:1036C0006C1B7D0B683E7340A0F381E0C81AD108E3
:1036D000E108F108C851DC4FECCFDF91CF91FF90AA
:1036E000EF90DF90CF900895019739F0880F991FE0
:1036F000880F991F02970197F1F70895789484B580
:10370000826084BD84B5816084BD85B5826085BDDD
:1037100085B5816085BDEEE6F0E0808181608083C3
:10372000E1E8F0E0108280818260808380818160A6
:103730008083E0E8F0E0808181608083E1EBF0E06D
:10374000808184608083E0EBF0E080818160808311
:10375000E1E9F0E080818260808380818160808304
:10376000E0E9F0E0808181608083E1EAF0E080813F
:1037700082608083808181608083E0EAF0E08081E4
:1037800081608083E1E2F1E08081826080838081DA
:1037900081608083E0E2F1E0808181608083EAE7FC
:1037A000F0E080818460808380818260808380817A
:1037B000816080838081806880831092C100089539
:1037C000863308F0865320917B00982F9870277FCE
:1037D000922B90937B0087702091060290E4299FA2
:1037E00090011124822B80937C0080917A00806468
:1037F00080937A0080917A0086FDFCCF80917800DA
:103800002091790090E0922B089590E0FC0131978F
:10381000E231F10508F04BC0EE58FF4FD8C280915D
:1038200080008F7703C0809180008F7D809380001F
:10383000089580918000877FF9CF84B58F7702C08B
:1038400084B58F7D84BD08958091B0008F7703C0CB
:103850008091B0008F7D8093B0000895809190009A
:103860008F7707C0809190008F7D03C0809190007A
:10387000877F8093900008958091A0008F7707C084
:103880008091A0008F7D03C08091A000877F8093EE
:10389000A0000895809120018F7707C080912001BA
:1038A0008F7D03C080912001877F80932001089540
:1038B000CF93DF9390E0FC01E25BFE4F2491FC018B
:1038C000EC56FE4F8491882349F190E0880F991FB0
:1038D000FC01E25FFD4FA591B4918C509E4FFC011D
:1038E000C591D4919FB7611108C0F8948C9120952F
:1038F00082238C93888182230AC0623051F4F89429
:103900008C91322F309583238C938881822B8883EE
:1039100004C0F8948C91822B8C939FBFDF91CF9140
:1039200008950F931F93CF93DF931F92CDB7DEB708
:10393000282F30E0F901E85FFE4F8491F901E25B46
:10394000FE4F1491F901EC56FE4F04910023C1F093
:10395000882319F0698359DF6981E02FF0E0EE0FC9
:10396000FF1FEC50FE4FA591B4919FB7F8948C9136
:10397000611103C01095812301C0812B8C939FBFDF
:103980000F90DF91CF911F910F910895CF93DF9307
:10399000282F30E0F901E85FFE4F8491F901E25BE6
:1039A000FE4FD491F901EC56FE4FC491CC2389F01F
:1039B00081112BDFEC2FF0E0EE0FFF1FE652FE4FE0
:1039C000A591B4912C912D2381E090E021F480E029
:1039D00002C080E090E0DF91CF910895BF92CF9236
:1039E000DF92EF92FF920F931F93CF93DF93C82E36
:1039F000D62EB42EC7E0D0E0022F10E087E0E82EEC
:103A0000F12CB1100AC0F701EC1BFD0BB80102C08C
:103A100075956795EA95E2F707C0B8010C2E02C0CC
:103A2000759567950A94E2F7617077278C2D79DF99
:103A300061E08D2D76DF60E08D2D73DF219708F733
:103A4000DF91CF911F910F91FF90EF90DF90CF907A
:103A5000BF90089508955058BB27AA270ED0E5C0FF
:103A6000D6D030F0DBD020F031F49F3F11F41EF4BB
:103A7000CBC00EF4E095E7FBC1C0E92FE7D080F39F
:103A8000BA17620773078407950718F071F49EF55B
:103A9000FFC00EF4E0950B2EBA2FA02D0B01B9013B
:103AA00090010C01CA01A0011124FF27591B99F0B4
:103AB000593F50F4503E68F11A16F040A22F232FC0
:103AC000342F4427585FF3CF469537952795A79510
:103AD000F0405395C9F77EF41F16BA0B620B730BB7
:103AE000840BBAF09150A1F0FF0FBB1F661F771F28
:103AF000881FC2F70EC0BA0F621F731F841F48F4DD
:103B0000879577956795B795F7959E3F08F0B3CF62
:103B10009395880F08F09927EE0F9795879508954C
:103B200004D06894B111B5C0089598D088F09F571B
:103B300090F0B92F9927B751A0F0D1F0660F771FF9
:103B4000881F991F1AF0BA95C9F712C0B13081F0D9
:103B50009FD0B1E008959CC0672F782F8827B85F69
:103B600039F0B93FCCF3869577956795B395D9F73A
:103B70003EF490958095709561957F4F8F4F9F4F44
:103B80000895E89409C097FB3EF490958095709550
:103B900061957F4F8F4F9F4F9923A9F0F92F96E999
:103BA000BB279395F695879577956795B795F1110E
:103BB000F8CFFAF4BB0F11F460FF1BC06F5F7F4FAB
:103BC0008F4F9F4F16C0882311F096E911C07723BD
:103BD00021F09EE8872F762F05C0662371F096E8C6
:103BE000862F70E060E02AF09A95660F771F881F95
:103BF000DAF7880F9695879597F9089597F99F6753
:103C000080E870E060E008959FEF80EC0895002464
:103C10000A941616170618060906089500240A9431
:103C200012161306140605060895092E0394000CB7
:103C300011F4882352F0BB0F40F4BF2B11F460FF46
:103C400004C06F5F7F4F8F4F9F4F089557FD90586F
:103C5000440F551F59F05F3F71F04795880F97FB50
:103C6000991F61F09F3F79F087950895121613060A
:103C70001406551FF2CF4695F1DF08C01616170639
:103C80001806991FF1CF869571056105089408956E
:103C9000E894BB2766277727CB0197F908950BD0C7
:103CA000C4CFB5DF28F0BADF18F0952309F0A6CF0E
:103CB000ABCF1124EECFCADFA0F3959FD1F3950FC0
:103CC00050E0551F629FF001729FBB27F00DB11DA0
:103CD000639FAA27F00DB11DAA1F649F6627B00D30
:103CE000A11D661F829F2227B00DA11D621F739F19
:103CF000B00DA11D621F839FA00D611D221F749F27
:103D00003327A00D611D231F849F600D211D822F6D
:103D1000762F6A2F11249F5750408AF0E1F08823B4
:103D20004AF0EE0FFF1FBB1F661F771F881F9150C1
:103D30005040A9F79E3F510570F060CFAACF5F3F7A
:103D4000ECF3983EDCF3869577956795B795F795F4
:103D5000E7959F5FC1F7FE2B880F911D969587957C
:103D600097F9089597FB072E16F4009406D077FD77
:103D700008D03DD007FC05D03EF4909581959F4F2B
:103D80000895709561957F4F0895A1E21A2EAA1BA0
:103D9000BB1BFD010DC0AA1FBB1FEE1FFF1FA217FB
:103DA000B307E407F50720F0A21BB30BE40BF50BF8
:103DB000661F771F881F991F1A9469F76095709581
:103DC000809590959B01AC01BD01CF010895EE0F48
:103DD000FF1F0590F491E02D19941DD0B7FF0895B1
:103DE000821B930B08950790F691E02D1994AA1B5E
:103DF000BB1B51E107C0AA1FBB1FA617B70710F0D6
:103E0000A61BB70B881F991F5A95A9F78095909507
:103E1000BC01CD010895A29FB001B39FC001A39F33
:103E2000700D811D1124911DB29F700D811D1124F3
:103E3000911D0895CF93DF938230910510F482E0B5
:103E400090E0E0915D0AF0915E0A20E030E0A0E0B1
:103E5000B0E0309739F14081518148175907B8F0E7
:103E60004817590771F482819381109729F01396AE
:103E70009C938E9312972CC090935E0A80935D0A58
:103E800027C02115310531F04217530718F0A90159
:103E9000DB0101C0EF019A01BD01DF010280F38166
:103EA000E02DD7CF21153105F9F0281B390B24302F
:103EB000310580F48A819B816115710521F0FB0138
:103EC0009383828304C090935E0A80935D0AFE010F
:103ED000329644C0FE01E20FF31F8193919322506A
:103EE0003109398328833AC020915B0A30915C0AFA
:103EF000232B41F4209102023091030230935C0A9B
:103F000020935B0A209100023091010221153105B6
:103F100041F42DB73EB74091040250910502241B95
:103F2000350BE0915B0AF0915C0AE217F307A0F40D
:103F30002E1B3F0B2817390778F0AC014E5F5F4FFF
:103F40002417350748F04E0F5F1F50935C0A4093CB
:103F50005B0A8193919302C0E0E0F0E0CF01DF9132
:103F6000CF910895CF93DF93009709F487C0FC01A8
:103F7000329713821282C0915D0AD0915E0A209717
:103F800081F420813181280F391F80915B0A909143
:103F90005C0A8217930779F5F0935C0AE0935B0A59
:103FA0006DC0DE0120E030E0AE17BF0750F412967E
:103FB0004D915C9113979D014115510509F1DA016D
:103FC000F3CFB383A28340815181840F951F8A1759
:103FD0009B0771F48D919C911197840F951F029608
:103FE0009183808312968D919C9113979383828302
:103FF0002115310529F4F0935E0AE0935D0A3EC075
:10400000D9011396FC93EE9312974D915D91A40FF5
:10401000B51FEA17FB0779F480819181840F951F02
:104020000296D90111969C938E9382819381139667
:104030009C938E931297E0E0F0E08A819B81009739
:1040400019F0FE01EC01F9CFCE01029628813981E9
:10405000820F931F20915B0A30915C0A2817390761
:1040600069F4309729F410925E0A10925D0A02C03A
:1040700013821282D0935C0AC0935B0ADF91CF91C6
:064080000895F894FFCF43
:1040860000005F0A80000100000A0014001D0027DE
:104096000031003B0045004E00580062006C00767F
:1040A600007F00890093009D00A000A300A600A940
:1040B60000AC00AF00B200B500B800BB00BE00C146
:1040C60000C400D300E200F10000010F011E012E22
:1040D600013D014C015B016A01790188019901A941
:1040E60001BA01CA01DA01EA01FB010B021B022B2C
:1040F600023B024C02630278028F02A402BA02D08B
:1041060002E502FB02110325033B03510367037D0E
:10411600039303A903BF03D503FD0323044B0472D2
:10412600049904B504D104ED040905250541055D8E
:104136000576058E05A705BF05D805F105F3050328
:1041460006130623063306430653066306730683E1
:10415600069306A306B306E6060E0735075C078335
:1041660007AA07C607E207FE071A08360852086EAE
:104176000887089F08B808D008E90801091A093213
:1041860009450959096D0980099409A709BB09CE92
:1041960009E209F609650A6F0A7A0A830A8E0A98FD
:1041A6000AA20AAC0ABA0ACD0ADC0AEB0AFA0A091A
:1041B6000B180B280B370B460B550B640B730B7F39
:1041C6000B900B9D0BAB0BB80BC50BD20BDF0BEC9F
:1041D6000BF90B060C130C200C2D0C3B0C430C5C42
:1041E6000C720C880C9E0CB40CCA0CDF0CF50C0778
:1041F6000D110D210D320D420D520D620D730D8301
:104206000D930DA40DB40DCB0DD50DE60DF60D06D3
:104216000E170E270E370E480E580E690E790E90A1
:104226000EA30EB30EC20ED10EE00EEF0EFE0E0D55
:104236000F1C0F2B0F3A0F490F540F0026002800B2
:104246002A002C002E0030003200210034011F000D
:1042560023002500170019001B0016001A0018007D
:10426600270029002D002BFF416363757374617469
:1042760020656E74657253746174653A200020413E
:10428600535F504F5354494854206265657000206F
:10429600646973703C7468726573682C20747572F7
:1042A6006E206F6666206265657000626565706582
:1042B60072207475726E6564206F6E20666F722050
:1042C600746865206561726C79207075736820204A
:1042D6002020202020200020207475726E206F661A
:1042E600662000206F666620646973703A200009B4
:1042F6006F6666204156453A200009206F666620A3
:104306004E41545F5052453A2000206E61747572DA
:10431600616C207072656368617267653A2000FCA3
:1043260060DAF266B6BEE0FEF602303000302500F6
:1043360073003D3D3D20544F57494E47204D4F4455
:1043460045203D3D3D005265736572766F6972206A
:1043560050726573737572653A002A2A20504F575A
:1043660045522044524956494E47202A2A0054684D
:10437600726573686F6C643A002B2B2B2B20494EA9
:10438600444956494455414C202B2B2B2B002B2BB3
:104396002B2B2020545241494E494E4720202B2B8F
:1043A6002B2B0020535452454E475448205452411B
:1043B600494E494E472000446966666963756C74C8
:1043C600793A004475726174696F6E3A00434841E8
:1043D6005247494E472000535543434553530053D4
:1043E600485554444F574E005265647563652044E2
:1043F60075726174696F6E00486F6C6420736372C6
:10440600756D206C6F6E67657200526564756365C5
:1044160020003F3F2000203F3F003E003C000000C0
:1044260000005F177E19000000000F187E19641740
:064436007D176F17EE1761
:00000001FF
