:1000000015C1000044C1000042C1000040C1000011
:100010003EC100003CC100003AC1000038C10000F0
:1000200036C1000034C1000032C1000030C1000000
:100030002EC100002CC100002AC1000028C1000010
:1000400026C1000024C1000022C1000020C1000020
:100050000C941D0F1CC100001AC100000C949218D2
:1000600016C100000C948F160C94C51610C1000028
:100070000EC100000CC100000AC1000008C1000050
:1000800006C1000004C1000002C1000000C1000060
:10009000FEC00000FCC00000FAC00000F8C0000074
:1000A000F6C00000F4C00000F2C00000F0C0000084
:1000B000EEC00000ECC00000EAC00000E8C0000094
:1000C000E6C00000E4C00000E2C00000E0C00000A4
:1000D000DEC00000DCC00000DAC00000D8C00000B4
:1000E000D6C00000D919DC19CB19CF19D519131AAC
:1000F000E019E419EA19EE19F219F819FC19001AB5
:10010000131A061A0A1A0E1A00000A0B02090C0D1D
:100110000E080703040100000000000000000000BA
:1001200000000000000000000000000000000000CF
:10013000000000001211100000000000000000008C
:1001400000000000000000000000000000000102AC
:1001500010202008081020401020408002010201D9
:100160000804020101020408102040808040201091
:1001700008040201800402018040201008040201EA
:100180000804020101020408102040800102040852
:10019000102040800505050507050808080802022B
:1001A00002020A0A08080404040401010101010111
:1001B00001010303030303030303040707070C0CF4
:1001C0000C0C0C0C0C0C02020202060606060606BB
:1001D00006060B0B0B0B0B0B0B0B00002000230078
:1001E000260029002C002F0032000001000003012E
:1001F0000601090100002200250028002B002E0026
:100200003100340002010000050108010B0100006B
:100210002100240027002A002D00300033000101B6
:100220000000040107010A01F50DF71611241FBE95
:10023000CFEFD1E2DEBFCDBF00E00CBF14E0A0E005
:10024000B2E0E6E3FCE300E00BBF02C007900D92D2
:10025000A034B107D9F727E0A0E4B4E001C01D92B3
:10026000AC34B207E1F712E0CCE2D2E000E006C025
:1002700022970109FE010BBF0E94CB1CC832D10797
:1002800080E00807A9F70E9485180C94191EB8CEC3
:1002900061E085E20E94141A60E085E20C944D1A38
:1002A00060914104662399F0809140049FEF980F7C
:1002B00090934004823078F46150609341046170FF
:1002C00085E20E944D1A81E080934004089560E029
:1002D00085E20C944D1A0895DF92EF92FF920F93EE
:1002E0001F93CF93DF93EC0164E372E082EA96E020
:1002F0000E9478174AE050E0BE0182EA96E00E9430
:100300004718C9318CEFD8073CF0C031E7E2DE076F
:100310005CF4D7FF0BC002C0C9E1DCEFD195C195F9
:10032000D1099AE0D92E0CC0CFE0D7E2CE0160E12E
:1003300077E20E946E1C68EE73E00E946E1CD62E5F
:1003400061E086E10E944D1A8AE0E82EF12CCE0190
:10035000B7010E946E1C81569D4FFC01208140E038
:1003600068E18AE10E94AA1A04E610E0CE01B80111
:100370000E946E1CB7010E946E1C61567D4FFB01EE
:10038000208140E068E18AE10E94AA1ACE0168EE6D
:1003900073E00E946E1CB8010E946E1C61567D4F76
:1003A000FB01208140E068E18AE10E94AA1AED2D5C
:1003B000F0E0E156FD4F208140E068E18AE10E94D3
:1003C000AA1A60E086E10E944D1A64E070E080E0C5
:1003D00090E0DF91CF911F910F91FF90EF90DF9010
:1003E0000C940B190F931F93CF93DF938C01EC01A7
:1003F000CB59DF4F8881F801811103C0E75AFF4FC5
:1004000002C0E55AFF4F8081918166DFF801EC5907
:10041000FF4F8081823018F0815080830BC084E0D0
:1004200080838881833020F0833021F4188202C0D9
:100430008F5F8883DF91CF911F910F910895CF93A4
:10044000DF93EC0145D324DFFE01ED59FF4F10820D
:10045000389711821082329611821082349711825D
:100460001082389611821082339610823196108253
:100470003D9710823197108231971082C15ADF4F19
:1004800019821882DF91CF9108958BE10E94821A20
:1004900021E0892B09F420E0822F0895FC01E55A20
:1004A000FF4F1182108232971182108260E085E244
:1004B0000C944D1A895A9F4FFC0160830895FC01EA
:1004C000E55AFF4FDC01A35ABF4F8D919C91918358
:1004D00080830895FF920F931F93CF93DF93EC01D6
:1004E000F62E8C010A5A1F4FF801608362E472E015
:1004F00082EA96E00E9478174AE050E06F2D82EA87
:1005000096E00E946F18F8018081813051F028F048
:10051000823071F0833031F155C0CB59DF4F1882F2
:1005200051C0CE01DF91CF911F910F91FF90B9C2C1
:10053000FE01E85AFF4F10823B9688E08083349793
:10054000DE01AF59BF4F8D919C919183808332978B
:1005500011821082329711821082CB59DF4F84E0D2
:10056000888330C060E085E20E944D1AFE01E95A9E
:10057000FF4F808181503496823038F4DE01A35AD7
:10058000BF4F8D919C919183808380819181FE01E9
:10059000E75AFF4F208131812817390744F49183AE
:1005A000808384E08093410481E080934004CB59B0
:1005B000DF4F188280E596E0DF91CF911F910F9178
:1005C000FF9095C5DF91CF911F910F91FF900895F6
:1005D000CF92DF92EF92FF920F931F93CF93DF930F
:1005E000EC0182ED95E00E94840E81111AC086E331
:1005F0000E949C1984319140A4F082ED95E00E9404
:10060000540E68E572E082EA96E00E94781786E36D
:100610000E949C194AE050E0BC0182EA96E00E94E8
:100620004718CE0132DF882309F45DC06E0186E5EC
:10063000C80ED11CF6018081882309F454C086E3DA
:100640000E949C198C01BC01CE01E6D1CE0141D2A1
:100650007C0165E872E082EA96E00E9478174AE041
:1006600050E0B80182EA96E00E944718F6018081C6
:10067000813009F5FE01EF59FF4FC8018E199F091E
:100680000797B4F0DE01A95ABF4F8C91811103C0C6
:100690001183008302C0F182E08262E0CE01DF912B
:1006A000CF911F910F91FF90EF90DF90CF9012CFDD
:1006B000F182E08218C08230B1F4FE01E95AFF4FA6
:1006C0008081882339F0833070F4CF59DF4FF9826D
:1006D000E88209C0CF59DF4F88819981801791073F
:1006E00014F419830883DF91CF911F910F91FF902C
:1006F000EF90DF90CF9008950F931F93CF93DF93E8
:100700001F92CDB7DEB78C016983BFDE6981882374
:1007100031F0611115C08BE10E944D1A09C06623AA
:1007200079F061E08BE10E944D1A80E090E0D4DD29
:1007300060E0C8010F90DF91CF911F910F91CACE59
:100740000F90DF91CF911F910F91089560E0C2CE7D
:1007500061E0C0CEAF92BF92CF92DF92EF92FF9254
:100760000F931F93CF93DF93EC019ADDCE013ADE16
:10077000FE01EA5AFF4F8081823029F0833009F070
:1007800031C161E023C18E010F591F4FF801A080D4
:10079000B180F8ECAF1AB108C50126E0822728E144
:1007A000289FB001299F700D1124950145E0242751
:1007B0004CEC4203C001439F900D1124680F791F38
:1007C000950154E025274AE0429FC001439F900DC8
:1007D0001124680F791F882777FD8095982F0E9434
:1007E0007F1B6B017C01B50183E06827882777FDBB
:1007F0008095982F0E947F1B26EC3CED45E35CE33F
:100800000E940B1C9B01AC01C701B6010E94E81AB3
:100810006B017C01B501E2E06E27882777FD8095AA
:10082000982F0E947F1B20E53CEF48EB5EE30E947F
:100830000B1C9B01AC01C701B6010E94E71A6B01BA
:100840007C01B501882777FD8095982F0E947F1B3A
:1008500021EC3AEC43E351E40E940B1C9B01AC01F8
:10086000C701B6010E94E81A0E944C1B6B017C0173
:1008700069E872E082EA96E00E947817F8016081E8
:1008800071814AE050E082EA96E00E94401864E9F3
:1008900072E082EA96E00E9478174AE050E0B601E2
:1008A00082EA96E00E9447188601D7FE04C000271E
:1008B00011270C191D096E01F7E5CF0ED11CF601A9
:1008C00080819E01255A3F4F7901813031F018F027
:1008D000823031F155C0F9011BC0073911050CF404
:1008E0004FC060E086E995E00E94101124E6AC015B
:1008F000249FC001259F900D1124801791070CF0B3
:100900003FC0FE01E85AFF4F8081882309F13596E8
:1009100080819181801791079CF51183008330C0FD
:10092000073911056CF161E086E995E00E9410112C
:1009300024E6FC012E9FC0012F9F900D11248017EB
:100940009107F4F4FE01E85AFF4F8081811105C040
:1009500061E085E20E944D1A13C035968081918135
:10096000801791076CF41183008386E995E00E945B
:100970009E11833029F464E086E995E00E94A1117C
:10098000F70180819181FE01E75AFF4F208131817B
:100990002817390744F49183808384E080934104CD
:1009A00081E080934004FE01ED59FF4F8081882350
:1009B00019F08150808316C0F6018081882329F0C8
:1009C000833080F4023311056CF463E0CE01DF91D3
:1009D000CF911F910F91FF90EF90DF90CF90BF903C
:1009E000AF9078CDDF91CF911F910F91FF90EF9055
:1009F000DF90CF90BF90AF9008958A5A9F4FFC012F
:100A000080810895885A9F4FFC0180810895885AFB
:100A10009F4FFC0160830895CF92DF92EF92FF9287
:100A20000F931F93CF93DF93FC018B018181EF0123
:100A3000C80FD11DC80FD11DDF01AE5ABF4FCA80EC
:100A4000DB80EE24D7FCE094FE2C4D915D916D91FE
:100A50007C9113974C195D096E097F091B830A83EA
:100A6000222717FD2095322F400F511F621F731F41
:100A70004D935D936D937C9313979081983210F40E
:100A80009F5F90838F5F883210F4818301C0118251
:100A9000DF91CF911F910F91FF90EF90DF90CF905A
:100AA0000895FC011082118220E030E0FC01E20F89
:100AB000F31F138212822E5F3F4F20353105B1F7AD
:100AC000FC01EE5AFF4F10821182128213820895A8
:100AD000E8CFFC01EE5AFF4FDC012C9130E040E002
:100AE00050E060817181828193810E94A31CC901C1
:100AF0000895FC0110828CEB92E0928381838CEA52
:100B000093E094838383158208951F93CF93DF939B
:100B1000EC0187E30E949C1918811130E9F030F054
:100B2000123061F1133009F443C04DC029813A817C
:100B3000821793077CF411E01093DE0582ED95E0B7
:100B40000E94540E61E080E30E944D1A82E08D8382
:100B5000188339C060E026C08D81823060F58EE157
:100B60000E94821A892B79F160E080E30E944D1A7D
:100B700061E087E10E944D1A82E011C02B813C8127
:100B80002817390774F460E087E10E944D1A10922B
:100B9000DE0582ED95E00E94540E1D8383E088837C
:100BA00012C061E087E1DF91CF911F910C944D1A43
:100BB0008D81823018F081508D8305C060E080E324
:100BC0000E944D1A1882DF91CF911F910895CF9303
:100BD000DF93EC0161E084E30E94141A60E084E397
:100BE0000E944D1A60E08EE10E94141A1882198248
:100BF000DF91CF910895CF93FC012081211102C094
:100C0000C18101C0C1E08EE10E94821ACC2369F04B
:100C100081110DC061E08FE10E944D1A84E30E94B2
:100C2000821A892B71F461E008C08111F7CF84E347
:100C30000E94821A892B29F060E084E3CF910C9402
:100C40004D1ACF910895FC0161830895FC01108233
:100C50000895CF92DF92EF92FF92CF93DF93EC0152
:100C60006A017B018B859C85AD85BE859A01AB01B0
:100C7000281B390B4A0B5B0BDA01C90149815A81E8
:100C80006B817C8184179507A607B707D8F0888108
:100C9000813019F0823029F00CC0E985FA85199568
:100CA00008C061E08885811160E068878F810E94BB
:100CB0004D1ACB86DC86ED86FE868F859889019657
:100CC000988B8F878D819E8197FD06C02F853889EF
:100CD000281739070CF01882DF91CF91FF90EF9021
:100CE000DF90CF900895FF920F931F93CF93DF93E0
:100CF000CDB7DEB7AD970FB6F894DEBF0FBECDBF50
:100D000062E08CE00E94141A8DE2E7E0F2E0DE017E
:100D1000119601900D928A95E1F710E0812F90E0F5
:100D2000E1E0F0E0EC0FFD1FE80FF91FF0802FEF7E
:100D3000F21689F0E2E0F0E0EC0FFD1FE80FF91F7A
:100D4000008161E0802F0E94141A6F2D802F0E9475
:100D50004D1A1E5FE3CFAD960FB6F894DEBF0FBEFF
:100D6000CDBFDF91CF911F910F91FF9008958DE33B
:100D70000E949C1921E0843F91400CF020E0822FDA
:100D80000895CF93DF93EC016D2F661F6627661FD2
:100D900081E20E944D1A61E01C161D060CF060E015
:100DA00082E3DF91CF910C944D1ACF93DF93EC0146
:100DB0008130910579F460E086E20E944D1A61E08D
:100DC00088E20E944D1A6BE470E080E090E00E949F
:100DD0000B190BC06D2F661F6627661F86E20E94E7
:100DE0004D1A61E01C161D060CF060E088E2DF91F0
:100DF000CF910C944D1A682F89E10C944D1AFC0187
:100E0000138212821182108208951F93CF93DF9371
:100E1000EC01162F6AEA72E082EA96E00E947817E7
:100E20004AE050E0612F82EA96E00E946F18188332
:100E3000113049F028F0123061F48FEF9FEF05C0B8
:100E400080E090E002C081E090E0DF91CF911F91BF
:100E500098CFDF91CF911F910895CF93DF93EC014D
:100E60008EE30E949C192881213019F0223059F01C
:100E70000FC02A813B818217930754F060E0CE01B6
:100E8000DF91CF91C2CF2A813B8128173907B4F770
:100E9000DF91CF910895CF93DF93EC018981662391
:100EA00041F081110CC060E0CE01AFDF81E08983A9
:100EB00006C0882321F060E0CE01A7DF1982DF9110
:100EC000CF910895EF92FF920F931F93CF93DF93EB
:100ED000EC016536710514F064E670E08B0177FF74
:100EE00002C000E010E0B801882777FD8095982FB8
:100EF0000E947F1B23E333E343E350E40E940B1C77
:100F000020E030E040E253E40E94E81A0E944C1BCB
:100F10007B836A838EE30E949C197C016AEC72E0F9
:100F200082EA96E00E9478174AE050E0B80182EA2F
:100F300096E00E9440186EED72E082EA96E00E9410
:100F400078176A817B814AE050E082EA96E00E944D
:100F5000471860EF72E082EA96E00E9478174AE054
:100F600050E0B70182EA96E00E9440188A819B8196
:100F7000E816F90614F461E004C08E159F054CF4E0
:100F800062E0CE01DF91CF911F910F91FF90EF9022
:100F90003CCFDF91CF911F910F91FF90EF9008957B
:100FA000FC0182E081A717A610AA11AA12AA13AA0F
:100FB000108211821282138213A614A615A616A6F9
:100FC00010A681E082A715821482118A108A1782E6
:100FD0001682138E128E15A214A217A216A20895BD
:100FE0000F931F93CF93DF93EC01C1DE9AA5882363
:100FF00031F0923069F082E08AA760E005C091305C
:1010000039F081E08AA769A586E995E00E94A111DF
:1010100086E995E00E949E11082F82ED95E074D636
:10102000182F002391F0813081F461E08AEE95E081
:1010300063DB61E085ED95E0A9D3033008F443C09C
:1010400061E080EE95E027DF3EC08CE00E94821ACE
:10105000892B61F460E08AEE95E04EDB60E085ED7F
:1010600095E094D360E080EE95E015DF61E011112A
:1010700001C060E08EE20E944D1A88A5882319F015
:10108000853091F022C060E08AE20E944D1A87E329
:101090000E949C19AC0164E086E995E0DF91CF9154
:1010A0001F910F910C94BF108BA99FEF980F9BABD2
:1010B000823058F463E086E995E0DF91CF911F918B
:1010C0000F910C94A11161E0D5CFDF91CF911F91C9
:1010D0000F910895CF93DF93EC018AEE95E038DB12
:1010E0001FA618AA19AA1AAADF91CF910895FC0188
:1010F00017A610AA11AA12AA61A5623021F086E9EA
:1011000095E00C94A1110895CF93DF93EC0168A7AB
:101110008FEF860F833008F469A76330C9F058F465
:10112000613081F0623009F043C022E731E048E6E7
:1011300051E060E024C0643039F16530C9F588E0E1
:101140008BAB36C022E731E048E651E061E017C0E2
:1011500061E080EE95E09FDE62E086E995E00E9426
:1011600010112AE0289FB001299F700D112480EEF4
:1011700095E0A8DE2AE431E045E451E062E085ED47
:1011800095E0DF91CF918EC30E94DC186BA77CA7FE
:101190008DA79EA763E086E995E00E94101128EED6
:1011A00033E0DC010E94C51C6FA778AB89AB9AAB1A
:1011B000DF91CF910895623049F48AE0849FB001B5
:1011C000859F700D112480EE95E07CCE0895FC0182
:1011D000118A108A80E090E0DC011496AA0FBB1FF0
:1011E000AE0FBF1F4D915C9120893189240F351FAF
:1011F000318B208B01968430910571F7808991891C
:1012000097FD039695958795959587950895FC018B
:10121000138E128E80E090E0DC011996AA0FBB1F9E
:10122000AE0FBF1F4D915C91228D338D240F351F62
:10123000338F228F01968430910571F7828D938DC3
:1012400097FD0396959587959595879508950F93A6
:101250001F93CF93DF93EC010C811D8182E40E94E8
:101260009C1925E0AC01249FC001259F900D1124FD
:10127000F8013496EE0FFF1FEC0FFD1F9183808362
:10128000EC81FD813496EE0FFF1FEC0FFD1F808176
:1012900091818935924064F4EC81FD813496EE0FA2
:1012A000FF1FEC0FFD1F80819181823291407CF401
:1012B0008C819D81892BB9F4EC81FD818E859F8580
:1012C0003496EE0FFF1FEC0FFD1F918380838C81FE
:1012D0009D8101969D838C838C819D81049779F4F7
:1012E0001D821C820CC0EC81FD81AC81BD811396F6
:1012F000AA0FBB1FAC0FBD1F8D919C91E1CFDF9159
:10130000CF911F910F9108950F931F93CF93DF9368
:10131000EC010E811F8183E40E949C1925E0AC0141
:10132000249FC001259F900D1124F8013996EE0FDE
:10133000FF1FEC0FFD1F91838083EE81FF813996A3
:10134000EE0FFF1FEC0FFD1F8081918189359240C8
:1013500064F4EE81FF813996EE0FFF1FEC0FFD1F45
:1013600080819181823291407CF48E819F81892B92
:10137000B9F4EE81FF81888D998D3996EE0FFF1FAC
:10138000EC0FFD1F918380838E819F8101969F8347
:101390008E838E819F81049779F41F821E820CC0F8
:1013A000EE81FF81AE81BF811896AA0FBB1FAC0FE3
:1013B000BD1F8D919C91E1CFDF91CF911F910F9136
:1013C00008958F929F92AF92BF92CF92DF92EF9249
:1013D000FF920F931F93CF93DF931F921F92CDB76E
:1013E000DEB78C018CED95E0BAD1882321F0C801DD
:1013F0002EDFC80189DFF80187A590A9A1A9B2A9AC
:10140000181619061A061B060CF070C0F894F8019D
:1014100084A195A19A838983789486E30E949C197C
:1014200029813A81273831405CF0F80117A610AACB
:1014300011AA12AA49815A814658514061E00DC053
:101440008139F1E09F0774F0F80117A610AA11AADC
:1014500012AAAC014059514063E086E995E00E9430
:10146000C11244C00E94DC18F80183A494A4A5A46E
:10147000B6A46B017C01C818D908EA08FB088616D7
:101480009706A806B9062CF0F1E0CF1AD108E108BA
:10149000F108F80163A774A785A796A747A550A9E7
:1014A00061A972A94C195D096E097F0947A750AB64
:1014B00061AB72AB77FF1AC017A610AA11AA12AAC5
:1014C00061E083E20E944D1A0E94DC18F8016083FB
:1014D00071838283938340E050E064E086E995E085
:1014E0000E94C1128AEE95E00E945F020F900F9059
:1014F000DF91CF911F910F91FF90EF90DF90CF90F0
:10150000BF90AF909F908F900895BF92CF92DF923F
:10151000EF92FF920F931F93CF93DF938C01CC2414
:10152000CA94DC2CE12CF12CE5E0BE2E82E40E9472
:101530009C199C01B29EC001B39E900D1124E7013D
:10154000CC0FDD1FC00FD11F9987888783E40E94CD
:101550009C19FC01BE9EC001BF9E900D11249B8B67
:101560008A8B88859985893592402CF48885998560
:101570008232914044F4E114F10461F5F80186856A
:101580009785918780878A899B89893592402CF439
:101590008A899B898232914044F4E114F10429F54F
:1015A000F801808D918D938B828BFFEFEF1AFF0AEC
:1015B0002FEFC21AD20A34E0E316F10409F0B6CFD5
:1015C000DF91CF911F910F91FF90EF90DF90CF901F
:1015D000BF900895F6013496EE0FFF1FE00FF11F44
:1015E0008081918199878887CECFF6013996EE0F59
:1015F000FF1FE00FF11F808191819B8B8A8BD5CFDC
:10160000FC0180A50895FC01118221E0208308954A
:101610000895CF93DF93EC0189818823A1F06111B4
:101620001AC019828BE20E944D1A60E08DE20E947E
:101630004D1A60E089E20E944D1A60E087E2DF9176
:10164000CF910C944D1A662331F081E0898380E5B7
:1016500096E05BDF1882DF91CF9108950F931F937F
:10166000CF93DF9300D01F92CDB7DEB78C01FC0182
:101670008081811105C085ED95E024D1882359F042
:10168000F8018181882309F461C085ED95E01AD1C4
:101690008823D9F05BC061E08DE20E944D1A61E0C1
:1016A00087E20E944D1A64E670E080E090E00E94BC
:1016B0000B1960E08DE20E944D1A60E087E20E9403
:1016C0004D1A81E0F8018083DBCF80E596E07FDD75
:1016D0009C838B8380E596E09ADD9A8389838B8156
:1016E0009C811816190694F589819A811816190695
:1016F0006CF58B819C8129813A81821B930B863FFB
:101700009F4FACF461E08DE20E944D1A6EE170E0F3
:1017100080E090E00E940B1960E08DE20E944D1A7B
:1017200068EC70E080E090E00E940B190FC08B81A4
:101730009C8129813A81821B930B60E00B9724F0F6
:101740008DE20E944D1A02C0C80163DF0F900F9016
:101750000F900F90DF91CF911F910F910895FC0191
:101760008181089560E08AE20E944D1A8AEE95E038
:101770000E94A6038FEF9FEF18CBFC011482138207
:10178000128211821082168215820895FC018581D1
:10179000662329F081110AC081E08583089588239A
:1017A00029F01582148280E090E0FFCA0895CF935B
:1017B000DF93EC016C83613081F050F0623081F096
:1017C0006330B9F480E090E0F0DA82E08E8311C0FB
:1017D00080E090E0DF91CF91E8CADF91CF91C2CF56
:1017E00081E090E0E2DA61E08CED95E0DF91CF916D
:1017F00010CFDF91CF9108950F931F93CF93DF9375
:1018000000D0CDB7DEB78C01F8948091740690912A
:1018100075069A8389837894F80144814230B1F047
:10182000433051F14130B1F589819A812081318174
:10183000281739077CF161E08AE20E944D1A67E0BF
:1018400073E082EA96E00E94921712C089819A8121
:10185000F801228133818217930754F083E0848357
:1018600080E090E04B83A1DA4B81F801468312C0FF
:1018700062E0C8019CDF0EC0F80186819FEF980FDF
:101880009683811107C0148280E090E08EDA80E5B3
:1018900096E020DC0F900F900F90DF91CF911F9179
:1018A0000F910895CF93DF93EC01598348833B83D5
:1018B0002A838AEE95E00E945A0281E08C83DF91B0
:1018C000CF9150CFFC01848108958CE20E94821A4E
:1018D00061E0892B09F060E08CE20C944D1A8AEEED
:1018E00095E00E94AA0384EE95E00FD980EE95E082
:1018F000B4DA8EED95E07FD980E596E071DB8CED72
:1019000095E086DE85ED95E077DF82ED95E0EBD121
:1019100086E995E0F8C4CF93DF93E0917606F091E5
:101920007706EE0FFF1FE459F94FC081D18184E49F
:101930000E949C1925E0AC01249FC001259F900DB9
:1019400011249C0122523140213A3105D0F080917E
:10195000760690917706E0917606F0917706892BCE
:1019600029F480917206909173060FC0A0917606BB
:10197000B0917706AA0FBB1FA659B94F8D919C91C4
:1019800004C0E0917606F0917706EE0FFF1FE45950
:10199000F94F91838083E0917606F0917706EE0F00
:1019A000FF1FE459F94F2081318140917406509115
:1019B000750637FF02C02D5F3F4F3595279535954A
:1019C0002795CE01D7FD0396959587959595879593
:1019D000281B390B240F351F30937506209374068E
:1019E0008091760690917706019690937706809382
:1019F00076068091760690917706049721F41092EE
:101A00007706109276068AEE95E00E94FD048230F9
:101A1000D9F48AEE95E00E940205811115C0F89470
:101A20008FE30E949C198634910544F080E40E9463
:101A30009C198634910514F0789406C061E08AEE12
:101A400095E00E940705F8CFDF91CF9108950F939D
:101A50001F9386E995E0E7D58AEE95E00E94E802BB
:101A60008CED95E0FBDD8091500690915106A091A0
:101A70005206B0915306181619061A061B062CF5C5
:101A80000E94DC18009150061091510620915206D8
:101A900030915306601B710B820B930B97FF04C0B0
:101AA0006150710981099109693E73408105910571
:101AB00064F060E083E20E944D1A1092500610928A
:101AC0005106109252061092530680E596E079DC9A
:101AD0008CEE94E04FD182E494E01F910F914AC1C3
:101AE0001F93CF93DF93C0E0D0E015E084E40E9421
:101AF0009C199C01129FC001139F900D1124FE019F
:101B0000EE0FFF1FE459F94F91838083808191810B
:101B1000209174063091750697FD039695958795EB
:101B200095958795820F931F909375068093740601
:101B300083E40E949C199C01129FC001139F900D89
:101B40001124FE01EE0FFF1FEE59F94F91838083A0
:101B500082E40E949C199C01129FC001139F900D6A
:101B60001124FE01EE0FFF1FE85AF94F9183808385
:101B70002196C430D10509F0B9CFDF91CF911F91E3
:101B80000895B1D826E040E855E260E070E082EACE
:101B900096E00E942F1620E044E064E184E896E09D
:101BA000A5D62FE63CE04AEF50E060E070E08CEE16
:101BB00094E03BD125E63CE040E85EEE66E370E071
:101BC00082E494E032D18CDF40E75BE062E070E0D9
:101BD0008CE996E0C5D12FEF3FEFA9016BE87CE0DF
:101BE0008CE996E0CCD178940895CF92EF920F9340
:101BF000E7E0CE2EF6E0EF2E05E024E043E062E0E1
:101C000084E896E0F9D680E596E0CAD98AEE95E0B8
:101C10000E941F0284EE95E00E94790580EE95E017
:101C2000EED88EED95E00E94E7058CED95E0EBDCBB
:101C300085ED95E0A2DD82ED95E03AD064E876E0AE
:101C400086E995E024D28CEE94E061D082E494E0C1
:101C50000F91EF90CF905BC0CF93DF93EC0186E9BB
:101C600095E06CD3833028F061E08EED95E00E9422
:101C7000230661E08FE10E944D1A80E19EE09A8385
:101C800089838CE00E94821A019759F48DE30E94A7
:101C90009C19019731F461E08BE1DF91CF910C94B5
:101CA0004D1ADF91CF91089521E0FC012083D4CF1C
:101CB000FBCFFC016083662319F0613099F0089531
:101CC00060E08BE10E944D1A8EE10E94821A892BFE
:101CD00029F060E08EED95E00E94230660E08FE140
:101CE0000C944D1AB9CFFC012081213061F421817F
:101CF0003281121613062CF42150310932832183CC
:101D0000089560E0D6CF0895FC01808108950F9377
:101D10001F93CF93DF93EC018C0106551F4FCE012B
:101D20000E9426066196C017D107C9F7DF91CF91AF
:101D30001F910F910895CF92DF92EF92FF921F9320
:101D4000CF93DF936A017B01EC011AE0888188233D
:101D500029F0B701A601CE010E9429061150619613
:101D60001111F4CFDF91CF911F91FF90EF90DF9091
:101D7000CF900895CF93DF93EC010E94DC18AB0164
:101D8000BC01CE01DF91CF91D6CF20E0FC013081A4
:101D9000332331F02F5F41962A30C1F78FEF08953A
:101DA000822F0895CF92DF92EF92FF920F931F93AD
:101DB000CF93DF9300D01F92CDB7DEB76C017901CE
:101DC00049835A836B837C83E0DF282F49815A81C2
:101DD0006B817C818F3FD9F081E12802C00CD11C3E
:101DE000112481E0F60180834183528363837483ED
:101DF00016830583F286E18629830E94DC18F601AA
:101E00006387748785879687108A17862981822F32
:101E10000F900F900F900F90DF91CF911F910F9126
:101E2000FF90EF90DF90CF9008950F931F930FEFE7
:101E30001FEFB8DF1F910F9108951F920F920FB6F9
:101E40000F9211240BB60F922F933F934F935F93F2
:101E50006F937F938F939F93AF93BF93EF93FF9372
:101E6000E091A006F091A1061995FF91EF91BF9125
:101E7000AF919F918F917F916F915F914F913F9122
:101E80002F910F900BBE0F900FBE0F901F901895C3
:101E9000FC01A3E0440F551F661F771FAA95D1F7D9
:101EA0004115510581E06807710514F481E00EC009
:101EB00033E075956795579547953A95D1F7411554
:101EC000510581E0680771051CF482E0828331C00E
:101ED00023E075956795579547952A95D1F7411554
:101EE000510581E06807710514F483E0EFCF92E0BB
:101EF00075956795579547959A95D1F74115510571
:101F000081E06807710514F484E0E0CF82E0759504
:101F10006795579547958A95D1F785E08283411556
:101F2000510581E06807710524F04FEF5FEF60E035
:101F300070E08FB78383F894518340835093870078
:101F40004093860083818FBF80918100887F80933A
:101F50008100809181009281892B80938100089576
:101F60001092800020E12093810092CFE1E8F0E020
:101F70002081DC0112968C91282B208308950F93E9
:101F80001F93CF93DF93EC018B01BA01A9011416C3
:101F90001506160617060CF47BDF1D830C8381E003
:101FA00080936F00CE01DF91CF911F910F91DECF13
:101FB000CF93DF93EC01862F688362E00E94141AAE
:101FC0001A821B821C821D821982DF91CF91089593
:101FD000EF92FF920F931F93CF93DF9300D01F9246
:101FE000CDB7DEB77C01FC01808149835A836B83C6
:101FF0007C830E94821AF70102811381248135813A
:1020000049815A816B817C81892BF1F4400F511FEA
:10201000621F731F4283538364837583413A56481A
:10202000614071053CF140EA56E861E070E0F7017B
:102030004283538364837583818181111BC081E056
:10204000818381E090E018C0041B150B260B370B31
:10205000F701028313832483358337FF0BC0128279
:102060001382148215828181882321F011828FEFDF
:102070009FEF02C080E090E00F900F900F900F90C4
:10208000DF91CF911F910F91FF90EF900895EF9204
:10209000FF920F931F93CF93DF93EC017B0186E0B8
:1020A00090E00E9491188C016BE082DF1F830E8309
:1020B00086E090E00E9491188C016AE079DF198730
:1020C000088786E090E00E9491188C0169E070DF3B
:1020D0001B870A8786E090E00E9491188C0168E0D7
:1020E00067DF1D870C87FF86EE865FE0588B61E017
:1020F0006D8B42E04A8F8AE090E098A38F8F23E0B7
:1021000030E03AA729A79AAB89AB598B6E8B4B8FDE
:102110009AA389A33CA72BA79CAB8BAB5A8B4F8B65
:102120004C8F22E030E03CA32BA321E030E03EA71F
:102130002DA79EAB8DAB5B8B83E0888F4D8F85E0A9
:1021400090E09EA38DA338AB2FA78FE090E098AFCF
:102150008FAB87E08C8B498F84E08E8F87E30E9462
:102160009C1998A78FA38E859F859DD38E859F856B
:10217000DF91CF911F910F91FF90EF90AAC3CF9362
:10218000DF93FC012081862F90E0DC01AA0FBB1FAA
:10219000EF01CA0FDB1F211115C029A53AA542176F
:1021A000530714F45AA749A7AE0FBF1FD1962D911C
:1021B0003C91D29724173507B4F4D2965C934E9392
:1021C000D19711C029A53AA5241735070CF49A0117
:1021D000AE0FBF1FD1960D90BC91A02DA901A217E3
:1021E000B3070CF4AD019C01220F331FDF01A20FD6
:1021F000B31FC1E05F960D90BC91A02DA417B50749
:1022000009F4C0E0E20FF31F50A3478FCC2321F065
:1022100080E596E00E94DB088C2FDF91CF91089536
:10222000860F911D860F911DFC01878D90A1089549
:10223000DF92EF92FF920F931F93CF93DF93EC0106
:10224000D62E062F10E07C01E00EF11EF701458925
:1022500060898E859F852CD3F801EE0FFF1FEC0F50
:10226000FD1F078D10A1F701E28CF12C81E090E0B9
:102270000A30110514F480E090E0E81AF90A81E0D0
:1022800090E00436110514F480E090E0E81AF90AB1
:1022900081E090E0083EF3E01F0714F480E090E056
:1022A000E81AF90A21E0E21AF1088E859F851E14CA
:1022B0001F041CF460E21DD6F5CF4AE050E0B801DF
:1022C000DFD682E0D81659F0D81630F0E3E0DE12FF
:1022D00012C06AE473E005C064E473E002C067E41E
:1022E00073E08E859F85DF91CF911F910F91FF90B5
:1022F000EF90DF90FDC5DF91CF911F910F91FF907F
:10230000EF90DF900895CF93DF93EC0188818130C7
:1023100069F050F0833079F461E0CE0189DF62E04A
:10232000CE0186DF63E003C064E001C060E0CE015F
:10233000DF91CF917DCFDF91CF910895FC01808116
:1023400008950F931F93CF93DF931F92CDB7DEB7FE
:102350008C018FEFF801818382ED95E06983A4DC25
:10236000F80186859785BBD2F801868597859BD233
:102370006981F80160836230B1F1C8F46623F9F035
:10238000613009F0E8C060E08EED95E00E94230620
:1023900064E773E0F80186859785AAD541E063E09C
:1023A000F8018685978584D268E873E02FC0643091
:1023B00009F460C080F1653009F473C0CCC060E0FE
:1023C0008EED95E00E9423066CE473E0F8018685AB
:1023D00097858ED541E060E0F8018685978568D2C3
:1023E00060E673E013C060E08EED95E00E94230686
:1023F00063E973E0F801868597857AD541E060E06E
:10240000F8018685978554D268EA73E0F8018685DD
:1024100097856ED5A0C080E00E94FB0661E08EED3E
:1024200095E00E9423066DEB73E0F80186859785A1
:102430005FD541E062E0F8018685978539D268E88A
:1024400073E0F8018685978553D542E062E0F80194
:10245000868597852DD261ED73E0F8018685978595
:1024600047D543E062E0F8018685978521D26DED7E
:1024700073E0CCCF60E080EE95E00E944B0781E0F6
:102480000E94FB066DEB73E0F8018685978530D5D9
:1024900042E066E0F801868597850AD267EE73E030
:1024A000B5CF80E00E94FB0660E08EED95E00E94D3
:1024B00023066DEB73E0F8018685978519D5F80141
:1024C00021AD86859785243031F442E066E0F0D175
:1024D00060EF73E09BCF41E066E0EAD168EF73E024
:1024E000F8018685978504D542E066E0F801868587
:1024F0009785DED1F80121AD86859785223039F0A8
:10250000233041F0213049F461E074E015C06AE005
:1025100074E012C063E174E00FC06CE174E0E8D4D1
:102520004AE050E0F80161AD86859785D2D560E23A
:1025300074E0F80186859785DBD443E068E0F80114
:1025400086859785B5D1F80162AD73AD4AE050E05C
:102550008685978595D580E596E052D8F80160810B
:10256000861749F080E596E00F90DF91CF911F919B
:102570000F910C9484080F90DF91CF911F910F91D0
:102580000895FC0161AF53AF42AF65E0DACE1F930F
:10259000CF93DF93EC01162F89818F3FE9F0FE0185
:1025A000E80FF11D60896F5F45898E859F8580D119
:1025B00068EC72E08E859F859BD48981FE01E80FCF
:1025C000F11D60896C5F45898E859F8571D168ECAE
:1025D00072E08E859F858CD419831F3F01F1FE0127
:1025E000E10FF11D60896F5F45898E859F8560D100
:1025F00064E274E08E859F857BD48981FE01E80FBB
:10260000F11D60896C5F45898E859F8551D166E299
:1026100074E08E859F85DF91CF911F9169C4DF9112
:10262000CF911F910895AF92BF92CF92DF92EF9218
:10263000FF920F931F93CF93DF93EC01C9D5CA800C
:10264000DB80EC80FD809B01AC012C193D094E091B
:102650005F0969017A0157FF06C031E0C31AD1084A
:10266000E108F10804C06A837B838C839D83B701F2
:10267000A6018E819F81ACDCAA24A39418161906AA
:102680000CF0A12CB701A6018C859D85A1DCBB2493
:10269000B394181619060CF0B12CB701A601888561
:1026A000998596DC31E020E0181619060CF030E030
:1026B000032F122FB701A6018A859B8589DC181686
:1026C000190614F401501109AA2049F0BB2069F041
:1026D0000115110531F082ED95E0E6DA02C0BB206C
:1026E00021F08AEE95E00E944E028881813019F037
:1026F000823061F00FC0AA2011F063E00EC0BB2051
:1027000039F189818823F9F060E020C0AA2001F125
:1027100061E003C0AA2041F062E0CE0112DE8AEE41
:1027200095E00E944E0214C0833091F4BB2081F0EA
:102730008981823031F0833031F0813031F462E0D0
:1027400005C063E003C06FEF01C061E0CE011FDF91
:1027500001151105C1F069816F3FA9F0FE01E60F77
:10276000F11DE60FF11D478D50A1400F511FCE0105
:10277000DF91CF911F910F91FF90EF90DF90CF905D
:10278000BF90AF90FCCCDF91CF911F910F91FF9044
:10279000EF90DF90CF90BF90AF900895CF93DF93ED
:1027A000EC0160E08E8179D681E090E059D561E05E
:1027B0008E8173D681E090E053D560E08E816DD636
:1027C00084E690E0DF91CF914BC5EF92FF920F939B
:1027D0001F93CF93DF938C01C0E0D0E0E62EF12C65
:1027E000B7010C2E02C0759567950A94E2F76170E7
:1027F000F801EC0FFD1F878150D62196C430D1051A
:1028000079F7C801DF91CF911F910F91FF90EF9061
:10281000C5CFEF92FF920F931F93CF93DF938C015D
:10282000C0E0D0E0E62EF12CB7010C2E02C0759569
:1028300067950A94E2F76170F801EC0FFD1F87813C
:102840002CD62196C830D10579F7C801DF91CF91F8
:102850001F910F91FF90EF90A1CF1F93CF93DF9324
:10286000EC01162F642F8C8118D68D818F3F11F0CB
:1028700060E013D68F85612F84FF05C0CE01DF9104
:10288000CF911F91C6CF70E084E0759567958A95CA
:10289000E1F7CE019ADF612FCE01DF91CF911F9139
:1028A00094CF40E0DACF61E0FCDF80ED97E0D8C460
:1028B000443008F043E0FC012389421710F04FEF49
:1028C000420FFC01E40FF11D2489260F2068622FBE
:1028D000E8CFFC0160896B7F608B6860E2CFFC0110
:1028E0006089262F2460208B6C60DBCF0F931F93B1
:1028F000CF93DF93EC01423018F08F8588608F878B
:102900004B8B1C8A80E48D8B6E8B70E0605C7F4FFC
:102910006F8B222329F0413019F48F8584608F87D3
:1029200061E08C8181D58D818F3F11F061E07CD594
:1029300061E08E8179D500E010E08F8584FF03C0CF
:1029400088E090E002C084E090E0081719074CF49A
:10295000FE01E00FF11F61E0878166D50F5F1F4F19
:10296000ECCF80E593EC7CD460E08C8196D560E080
:102970008E8193D58D818F3F11F060E08ED56F856C
:1029800064FD16C063E0CE0120DF84E991E168D4E4
:1029900063E0CE011ADF84E991E162D463E0CE0105
:1029A00014DF86E990E05CD462E0CE010EDF11C056
:1029B0006062CE0176DF84E991E152D46F85606276
:1029C000CE016FDF86E990E04BD46F856062CE0167
:1029D00068DF6F856062CE0164DF84E0888BCE01A2
:1029E0007EDFCE0160DF82E0898B66E0CE01DF9181
:1029F000CF911F910F9155CFCF92EF920F93FC0182
:102A0000138212828CE294E09183808364838FEF3F
:102A10008583468327830087E186C28613861486D2
:102A200015861686178620E041E060E1CF010F9100
:102A3000EF90CF905BCF41E010DF81E090E0089510
:102A4000FC01818D228D90E0805C9F4F821B91095B
:102A50008F7399270895FC01918D828D981731F01D
:102A6000828DE80FF11D858D90E008958FEF9FEF27
:102A70000895FC01918D828D981761F0828DDF01A0
:102A8000A80FB11D5D968C91928D9F5F9F73928F61
:102A900090E008958FEF9FEF08958EEE96E1892BD9
:102AA00039F080E090E0892B19F098D1811125C090
:102AB00080E090E0892B41F080E090E0892B21F0CC
:102AC0000E94000081111CC080E090E0892B41F041
:102AD00080E090E0892B21F00E940000811113C05A
:102AE00080E090E0892BA1F080E090E0892B81F0DC
:102AF0000E94000081110AC008950E940000D8CFF2
:102B00000E940000E1CF0E940000EACF0C94000078
:102B10000895FC01848DDF01A80FB11DA35ABF4F9A
:102B20002C91848D90E001968F739927848FA689CC
:102B3000B7892C93A089B1898C9180648C93938DF3
:102B4000848D981306C00288F389E02D80818F7DE3
:102B500080830895CF93DF93EC01888D8823C1F0A3
:102B6000EA89FB89808185FD05C0A889B9898C9196
:102B700086FD0EC00FB607FCF5CF808185FFF2CF32
:102B8000A889B9898C9185FFEDCFCE01C2DFE8CF4E
:102B9000DF91CF910895CF92DF92FF920F931F9311
:102BA000CF93DF931F92CDB7DEB76C01DC015B964C
:102BB0009C915B975C968C915C97981307C050969C
:102BC000ED91FC915197808185FD31C0F601038D17
:102BD00010E00F5F1F4F0F731127F02EF601848D49
:102BE000F81210C00FB607FCF9CFD6015096ED9140
:102BF000FC915197808185FFF1CFC601698389DF00
:102C00006981ECCF838DE80FF11DE35AFF4F60839C
:102C1000D6015B960C935B975296ED91FC9153977E
:102C200080818062808381E058968C930DC0D601AC
:102C30005696ED91FC91579760835096ED91FC91DB
:102C4000519780818064808381E090E00F90DF91D4
:102C5000CF911F910F91FF90DF90CF900895BF9279
:102C6000CF92DF92EF92FF92CF93DF93EC016A0154
:102C70007B01B22EE889F98982E08083411581EEDB
:102C800058076105710599F060E079E08DE390E007
:102C9000A701960136D621503109410951095695AF
:102CA000479537952795211580E1380790F0E889F9
:102CB000F989108260E874E88EE190E0A70196013E
:102CC00020D621503109410951095695479537952C
:102CD0002795EC85FD853083EE85FF852083188E52
:102CE000EC89FD89B082EA89FB89808180618083DB
:102CF000EA89FB89808188608083EA89FB898081F9
:102D000080688083EA89FB8980818F7D8083DF9161
:102D1000CF91FF90EF90DF90CF90BF9008951F92DA
:102D20000F920FB60F9211240BB60F922F938F9321
:102D30009F93EF93FF93E091B206F091B3068081E9
:102D4000E091B806F091B90682FD12C090818091A1
:102D5000BB068F5F8F732091BC06821751F0E09104
:102D6000BB06F0E0EE55F94F958F8093BB0601C08E
:102D70008081FF91EF919F918F912F910F900BBECA
:102D80000F900FBE0F901F9018951F920F920FB6C5
:102D90000F9211240BB60F922F933F934F935F9393
:102DA0006F937F938F939F93AF93BF93EF93FF9313
:102DB00082EA96E0AEDEFF91EF91BF91AF919F91D5
:102DC0008F917F916F915F914F913F912F910F90D4
:102DD0000BBE0F900FBE0F901F90189582EA96E0E1
:102DE0002FDE21E0892B09F420E0822F0895109234
:102DF000A5061092A40688EE93E0A0E0B0E08093D0
:102E0000A6069093A706A093A806B093A90684E30C
:102E100094E09093A3068093A20685EC90E09093B3
:102E2000AF068093AE0684EC90E09093B106809359
:102E3000B00680EC90E09093B3068093B20681ECEC
:102E400090E09093B5068093B40682EC90E0909366
:102E5000B7068093B60686EC90E09093B90680930F
:102E6000B8061092BB061092BC061092BD061092D6
:102E7000BE060895CF92DF92EF92FF920F931F93B9
:102E8000CF93DF936C017A01EB01E60EF71E00E0B1
:102E900010E0CE15DF0561F06991D601ED91FC914E
:102EA0000190F081E02DC6011995080F191FF1CF8F
:102EB000C801DF91CF911F910F91FF90EF90DF90AC
:102EC000CF9008956115710581F0DB010D90002010
:102ED000E9F7AD0141505109461B570BDC01ED915B
:102EE000FC910280F381E02D199480E090E0089538
:102EF000E9CFDC01ED91FC910190F081E02D199476
:102F00000F931F93CF93DF93EC016DE0F2DF8C0101
:102F10006AE0CE01EEDF800F911FDF91CF911F910C
:102F20000F9108950F931F93CF93DF93EC01CADFA6
:102F30008C01CE01E5DF800F911FDF91CF911F91B2
:102F40000F9108958F929F92AF92BF92CF92DF928E
:102F5000EF92FF920F931F93CF93DF93CDB7DEB71E
:102F6000A1970FB6F894DEBF0FBECDBF7C01C42E73
:102F7000E52FCB01D22E19A221E02D1510F02AE069
:102F8000D22E8E010F5D1F4F8D2C912CA12CB12CB8
:102F90006C2D7E2FA5019401B4D48C2DD29E801966
:102FA0001124015011098A3014F4805D01C0895C3C
:102FB000F8018083211531054105510521F0C22E0C
:102FC000E32FCA01E5CFB801C7017CDFA1960FB698
:102FD000F894DEBF0FBECDBFDF91CF911F910F914F
:102FE000FF90EF90DF90CF90BF90AF909F908F9029
:102FF0000895CF92DF92EF92FF920F931F93CF939A
:10300000DF93EC016A017B012115310579F4E88138
:10301000F9810190F081E02D642FDF91CF911F9114
:103020000F91FF90EF90DF90CF9019942A303105E7
:10303000D9F477FF18C06DE25CDF8C014427552777
:10304000BA014C195D096E097F092AE0CE017ADFC9
:10305000800F911FDF91CF911F910F91FF90EF9003
:10306000DF90CF9008952AE0B701A601CE01DF914D
:10307000CF911F910F91FF90EF90DF90CF9062CF93
:103080009A01AB01662757FD6095762FB2CF0F935B
:103090001F93CF93DF93EC019A01AB01662757FD95
:1030A0006095762FA6DF8C01CE012ADF800F911F5D
:1030B000DF91CF911F910F9108952115310541F4B2
:1030C000DC01ED91FC910190F081E02D642F1994C9
:1030D00039CF9A01462F50E060E070E0EECF0F93B9
:1030E0001F93CF93DF93EC019A01462F50E060E0ED
:1030F00070E0E3DF8C01CE0103DF800F911FDF91D1
:10310000CF911F910F9108950895B4D0FDDF0E94D3
:10311000C10DCDE4D5E10E94270D2097E1F3BDDC80
:10312000FACF60C41F920F920FB60F9211242F9303
:103130003F938F939F93AF93BF938091400790915C
:103140004107A0914207B091430730913F0723E028
:10315000230F2D3720F40196A11DB11D05C026E8CF
:10316000230F0296A11DB11D20933F0780934007B6
:1031700090934107A0934207B0934307809144077F
:1031800090914507A0914607B09147070196A11D70
:10319000B11D8093440790934507A0934607B093D1
:1031A0004707BF91AF919F918F913F912F910F90C2
:1031B0000FBE0F901F9018952FB7F894609140079D
:1031C0007091410780914207909143072FBF089566
:1031D0003FB7F8948091440790914507A091460726
:1031E000B091470726B5A89B05C02F3F19F001965F
:1031F000A11DB11D3FBF6627782F892F9A2F620F1F
:10320000711D811D911D42E0660F771F881F991F58
:103210004A95D1F70895CF92DF92EF92FF92CF9324
:10322000DF936B017C01D4DFEB01C114D104E10415
:10323000F10479F0CBD1CCDF6C1B7D0B683E734081
:10324000A0F381E0C81AD108E108F108C851DC4FA9
:10325000ECCFDF91CF91FF90EF90DF90CF9008956A
:10326000019739F0880F991F880F991F02970197CE
:10327000F1F70895789484B5826084BD84B5816047
:1032800084BD85B5826085BD85B5816085BDEEE66E
:10329000F0E0808181608083E1E8F0E0108280814D
:1032A00082608083808181608083E0E8F0E08081BB
:1032B00081608083E1EBF0E0808184608083E0EBDB
:1032C000F0E0808181608083E1E9F0E080818260CC
:1032D0008083808181608083E0E9F0E0808181608B
:1032E0008083E1EAF0E08081826080838081816078
:1032F0008083E0EAF0E0808181608083E1E2F1E0B8
:10330000808182608083808181608083E0E2F1E05F
:10331000808181608083EAE7F0E08081846080833F
:1033200080818260808380818160808380818068E9
:1033300080831092C1000895863308F0865320914F
:103340007B00982F9870277F922B90937B0087703B
:103350002091060290E4299F90011124822B8093F2
:103360007C0080917A00806480937A0080917A005A
:1033700086FDFCCF809178002091790090E0922B1F
:10338000089590E0FC013197E231F10508F04BC05F
:10339000EE58FF4FF4C2809180008F7703C0809178
:1033A00080008F7D80938000089580918000877FCA
:1033B000F9CF84B58F7702C084B58F7D84BD089521
:1033C0008091B0008F7703C08091B0008F7D809393
:1033D000B0000895809190008F7707C08091900091
:1033E0008F7D03C080919000877F80939000089527
:1033F0008091A0008F7707C08091A0008F7D03C0CF
:103400008091A000877F8093A00008958091200183
:103410008F7707C0809120018F7D03C080912001AC
:10342000877F809320010895CF93DF9390E0FC0184
:10343000E25BFE4F2491FC01EC56FE4F8491882301
:1034400049F190E0880F991FFC01E25FFD4FA591C3
:10345000B4918C509E4FFC01C591D4919FB76111DE
:1034600008C0F8948C91209582238C9388818223C4
:103470000AC0623051F4F8948C91322F3095832336
:103480008C938881822B888304C0F8948C91822B42
:103490008C939FBFDF91CF9108950F931F93CF938C
:1034A000DF931F92CDB7DEB7282F30E0F901E85F38
:1034B000FE4F8491F901E25BFE4F1491F901EC5645
:1034C000FE4F04910023C1F0882319F0698359DF6E
:1034D0006981E02FF0E0EE0FFF1FEC50FE4FA59149
:1034E000B4919FB7F8948C91611103C0109581231A
:1034F00001C0812B8C939FBF0F90DF91CF911F91C3
:103500000F910895CF93DF93282F30E0F901E85F02
:10351000FE4F8491F901E25BFE4FD491F901EC5624
:10352000FE4FC491CC2389F081112BDFEC2FF0E00A
:10353000EE0FFF1FE652FE4FA591B4912C912D2363
:1035400081E090E021F480E002C080E090E0DF9133
:10355000CF910895BF92CF92DF92EF92FF920F9397
:103560001F93CF93DF93C82ED62EB42EC7E0D0E0A2
:10357000022F10E087E0E82EF12CB1100AC0F7010D
:10358000EC1BFD0BB80102C075956795EA95E2F753
:1035900007C0B8010C2E02C0759567950A94E2F732
:1035A000617077278C2D79DF61E08D2D76DF60E00B
:1035B0008D2D73DF219708F7DF91CF911F910F9128
:1035C000FF90EF90DF90CF90BF90089508955058EE
:1035D000BB27AA270ED0E5C0D6D030F0DBD020F034
:1035E00031F49F3F11F41EF4CBC00EF4E095E7FBDD
:1035F000C1C0E92FE7D080F3BA17620773078407C9
:10360000950718F071F49EF5FFC00EF4E0950B2EAF
:10361000BA2FA02D0B01B90190010C01CA01A00124
:103620001124FF27591B99F0593F50F4503E68F17F
:103630001A16F040A22F232F342F4427585FF3CFC0
:10364000469537952795A795F0405395C9F77EF491
:103650001F16BA0B620B730B840BBAF09150A1F0DA
:10366000FF0FBB1F661F771F881FC2F70EC0BA0F60
:10367000621F731F841F48F4879577956795B795E8
:10368000F7959E3F08F0B3CF9395880F08F09927E0
:10369000EE0F97958795089504D06894B111B5C041
:1036A000089598D088F09F5790F0B92F9927B75177
:1036B000A0F0D1F0660F771F881F991F1AF0BA95F6
:1036C000C9F712C0B13081F09FD0B1E008959CC01D
:1036D000672F782F8827B85F39F0B93FCCF38695EC
:1036E00077956795B395D9F73EF490958095709549
:1036F00061957F4F8F4F9F4F0895E89409C097FBC6
:103700003EF490958095709561957F4F8F4F9F4FB8
:103710009923A9F0F92F96E9BB279395F6958795FC
:1037200077956795B795F111F8CFFAF4BB0F11F4BF
:1037300060FF1BC06F5F7F4F8F4F9F4F16C0882366
:1037400011F096E911C0772321F09EE8872F762F9C
:1037500005C0662371F096E8862F70E060E02AF0DD
:103760009A95660F771F881FDAF7880F96958795C9
:1037700097F9089597F99F6780E870E060E00895F1
:103780009FEF80EC089500240A9416161706180679
:103790000906089500240A94121613061406050655
:1037A0000895092E0394000C11F4882352F0BB0FE6
:1037B00040F4BF2B11F460FF04C06F5F7F4F8F4F49
:1037C0009F4F089557FD9058440F551F59F05F3F84
:1037D00071F04795880F97FB991F61F09F3F79F033
:1037E00087950895121613061406551FF2CF4695B5
:1037F000F1DF08C0161617061806991FF1CF869537
:103800007105610508940895E894BB27662777271A
:10381000CB0197F908950BD0C4CFB5DF28F0BADFFC
:1038200018F0952309F0A6CFABCF1124EECFCADF55
:10383000A0F3959FD1F3950F50E0551F629FF001C3
:10384000729FBB27F00DB11D639FAA27F00DB11D1C
:10385000AA1F649F6627B00DA11D661F829F2227A5
:10386000B00DA11D621F739FB00DA11D621F839F2C
:10387000A00D611D221F749F3327A00D611D231F02
:10388000849F600D211D822F762F6A2F11249F5750
:1038900050408AF0E1F088234AF0EE0FFF1FBB1F73
:1038A000661F771F881F91505040A9F79E3F510512
:1038B00070F060CFAACF5F3FECF3983EDCF38695C3
:1038C00077956795B795F795E7959F5FC1F7FE2BBD
:1038D000880F911D9695879597F9089597FB072E68
:1038E00016F4009406D077FD08D059D007FC05D017
:1038F0003EF4909581959F4F0895709561957F4F07
:103900000895A1E21A2EAA1BBB1BFD010DC0AA1F20
:10391000BB1FEE1FFF1FA217B307E407F50720F038
:10392000A21BB30BE40BF50B661F771F881F991FB3
:103930001A9469F760957095809590959B01AC01FC
:10394000BD01CF010895052E97FB16F400940FD00A
:1039500057FD05D0D6DF07FC02D046F408C05095CD
:103960004095309521953F4F4F4F5F4F089590956B
:103970008095709561957F4F8F4F9F4F0895EE0F03
:10398000FF1F0590F491E02D19941DD0B7FF089505
:10399000821B930B08950790F691E02D1994AA1BB2
:1039A000BB1B51E107C0AA1FBB1FA617B70710F02A
:1039B000A61BB70B881F991F5A95A9F7809590955C
:1039C000BC01CD010895A29FB001B39FC001A39F88
:1039D000700D811D1124911DB29F700D811D112448
:1039E000911D0895CF93DF938230910510F482E00A
:1039F00090E0E0914A07F0914B0720E030E0A0E032
:103A0000B0E0309739F14081518148175907B8F03B
:103A10004817590771F482819381109729F0139602
:103A20009C938E9312972CC090934B0780934A07D8
:103A300027C02115310531F04217530718F0A901AD
:103A4000DB0101C0EF019A01BD01DF010280F381BA
:103A5000E02DD7CF21153105F9F0281B390B243083
:103A6000310580F48A819B816115710521F0FB018C
:103A70009383828304C090934B0780934A07FE018F
:103A8000329644C0FE01E20FF31F819391932250BE
:103A90003109398328833AC020914807309149077A
:103AA000232B41F420910202309103023093490705
:103AB0002093480720910002309101022115310521
:103AC00041F42DB73EB74091040250910502241BEA
:103AD000350BE0914807F0914907E217F307A0F48E
:103AE0002E1B3F0B2817390778F0AC014E5F5F4F54
:103AF0002417350748F04E0F5F1F50934907409336
:103B000048078193919302C0E0E0F0E0CF01DF919C
:103B1000CF910895CF93DF93009709F487C0FC01FC
:103B2000329713821282C0914A07D0914B07209797
:103B300081F420813181280F391F809148079091AD
:103B400049078217930779F5F0934907E0934807EF
:103B50006DC0DE0120E030E0AE17BF0750F41296D2
:103B60004D915C9113979D014115510509F1DA01C1
:103B7000F3CFB383A28340815181840F951F8A17AD
:103B80009B0771F48D919C911197840F951F02965C
:103B90009183808312968D919C9113979383828356
:103BA0002115310529F4F0934B07E0934A073EC0F5
:103BB000D9011396FC93EE9312974D915D91A40F4A
:103BC000B51FEA17FB0779F480819181840F951F57
:103BD0000296D90111969C938E93828193811396BC
:103BE0009C938E931297E0E0F0E08A819B8100978E
:103BF00019F0FE01EC01F9CFCE010296288139813E
:103C0000820F931F209148073091490728173907E1
:103C100069F4309729F410924B0710924A0702C0BA
:103C200013821282D0934907C0934807DF91CF9146
:063C30000895F894FFCF97
:103C360000004C0780000100260028002A002C0006
:103C46002E0030003200210034011F002300250021
:103C5600170019001B0016001A001800270029007B
:103C66002D002BFF646973706C61795F6E756D3A18
:103C76002000416363757374617420656E746572A8
:103C860053746174653A20002020616E616C6F6721
:103C96005265616428616941636869657665645047
:103CA600696E292069732077616B65696E67206983
:103CB6007420757000703A20006C617374526561EF
:103CC600643A200020646973706C61793A2000FCC4
:103CD60060DAF266B6BEE0FEF602496E697420430B
:103CE60068617267652053797374656D206E6577B8
:103CF6002073746174653A202000207365745461E2
:103D06007267657450657263656E743A200020743C
:103D1600617267657450726573737572653A2000D7
:103D26002061695072656368617267655072657378
:103D3600737572653A20002050425320686561729F
:103D46007462656174206368616E676564205042C1
:103D5600532053746174653A206C656674207369E8
:103D66006E6B696E672C206E6F772072616973695E
:103D76006E67200030300030250073003D3D3D2049
:103D8600544F57494E47204D4F4445203D3D3D0039
:103D96005265736572766F697220507265737375BA
:103DA60072653A002A2A20504F57455220445249FC
:103DB60056494E47202A2A005468726573686F6C0C
:103DC600643A002B2B2B2B20494E44495649445527
:103DD600414C202B2B2B2B002B2B2B2B20205452F2
:103DE60041494E494E4720202B2B2B2B0020535464
:103DF60052454E47544820545241494E494E472059
:103E060000446966666963756C74793A0044757234
:103E16006174696F6E3A004348415247494E470004
:103E2600535543434553530053485554444F574EF7
:103E360000544F4F204849474800544F4F204641B1
:103E4600535400544F4F204D554348003F3F2000E8
:103E5600203F3F003E003C00000000001B153A17C3
:103E660000000000CB153A17201539152B15AA1599
:00000001FF
