:1000000015C1000044C1000042C1000040C1000011
:100010003EC100003CC100003AC1000038C10000F0
:1000200036C1000034C1000032C1000030C1000000
:100030002EC100002CC100002AC1000028C1000010
:1000400026C1000024C1000022C1000020C1000020
:100050000C94D40E1CC100001AC100000C94491865
:1000600016C100000C9446160C947C1610C10000BA
:100070000EC100000CC100000AC1000008C1000050
:1000800006C1000004C1000002C1000000C1000060
:10009000FEC00000FCC00000FAC00000F8C0000074
:1000A000F6C00000F4C00000F2C00000F0C0000084
:1000B000EEC00000ECC00000EAC00000E8C0000094
:1000C000E6C00000E4C00000E2C00000E0C00000A4
:1000D000DEC00000DCC00000DAC00000D8C00000B4
:1000E000D6C0000090199319821986198C19CA1963
:1000F00097199B19A119A519A919AF19B319B719FE
:10010000CA19BD19C119C51900000A0B02090C0D45
:100110000E080703040100000000000000000000BA
:1001200000000000000000000000000000000000CF
:10013000000000001211100000000000000000008C
:1001400000000000000000000000000000000102AC
:1001500010202008081020401020408002010201D9
:100160000804020101020408102040808040201091
:1001700008040201800402018040201008040201EA
:100180000804020101020408102040800102040852
:10019000102040800505050507050808080802022B
:1001A00002020A0A08080404040401010101010111
:1001B00001010303030303030303040707070C0CF4
:1001C0000C0C0C0C0C0C02020202060606060606BB
:1001D00006060B0B0B0B0B0B0B0B00002000230078
:1001E000260029002C002F0032000001000003012E
:1001F0000601090100002200250028002B002E0026
:100200003100340002010000050108010B0100006B
:100210002100240027002A002D00300033000101B6
:100220000000040107010A01AC0DAE1611241FBE27
:10023000CFEFD1E2DEBFCDBF00E00CBF14E0A0E005
:10024000B2E0E4EAFBE300E00BBF02C007900D92CE
:10025000A234B107D9F727E0A2E4B4E001C01D92AF
:10026000A533B207E1F712E0CCE2D2E000E006C02D
:1002700022970109FE010BBF0E94821CC832D107E0
:1002800080E00807A9F70E943C180C94D01DB8CE56
:10029000CF93DF93EC0160E085E20E94041A8CA901
:1002A0008150823020F48AAD9BAD99AF88AF88AD84
:1002B00099AD2EA93FA92817390744F49FAB8EABFF
:1002C00084E08093430481E080934204CE5BDF4F5F
:1002D000188283E396E0DF91CF9186C661E085E2E4
:1002E0000E94CB1960E085E20C94041A60914304EB
:1002F000662399F0809142049FEF980F90934204F7
:10030000823078F4615060934304617085E20E940A
:10031000041A81E080934204089560E085E20C9421
:10032000041A0895DF92EF92FF920F931F93CF93D9
:10033000DF93EC01C9318CEFD8073CF0C031E7E224
:10034000DE075CF4D7FF0BC002C0C9E1DCEFD1953A
:10035000C195D1099AE0D92E0CC0CFE0D7E2CE01E9
:1003600060E177E20E94251C68EE73E00E94251C84
:10037000D62E61E086E10E94041A8AE0E82EF12C74
:10038000CE01B7010E94251C8F599D4FFC01208191
:1003900040E068E18AE10E94611A04E610E0CE01C3
:1003A000B8010E94251CB7010E94251C6F597D4F82
:1003B000FB01208140E068E18AE10E94611ACE01E0
:1003C00068EE73E00E94251CB8010E94251C6F593D
:1003D0007D4FFB01208140E068E18AE10E94611AC3
:1003E000ED2DF0E0EF59FD4F208140E068E18AE11A
:1003F0000E94611A60E086E10E94041A64E070E0E5
:1004000080E090E0DF91CF911F910F91FF90EF90EE
:10041000DF900C94C2180F931F93CF93DF938C013E
:10042000EC01CE5BDF4F8881F801811103C086A902
:1004300097A902C080AD91AD75DFF801EF5BFF4F6A
:100440008081823018F0815080830BC084E08083EB
:100450008881833020F0833021F4188202C08F5FBE
:100460008883DF91CF911F910F910895CF93DF93F0
:10047000EC01A5D233DFFE01E05CFF4F108219AE24
:1004800018AE1BAE1AAE1FAA1EAA1FAE1EAE319624
:100490001082319610821DAA1CAA1BAA1DAE1CAE8A
:1004A0001AAA19AA18AA1FA61EA6DF91CF9108950D
:1004B0008BE10E94391A21E0892B09F420E0822F78
:1004C00008950F931F93CF93DF931F92CDB7DEB79D
:1004D0008C016983EDDF6981882331F0611112C0DD
:1004E0008BE10E94041A09C0662361F061E08BE190
:1004F0000E94041A80E090E015DFF80113AAEE5B79
:10050000FF4F10820F90DF91CF911F910F910895AF
:10051000FC0111AE10AE17AA16AA60E085E20C9499
:10052000041AFC0113AAEE5BFF4F1082089521E02C
:10053000FC0123AB2FC2FC0164AB0895FC0122AD8A
:1005400033AD31AF20AF0895FC0163AB613059F09A
:1005500028F0623049F06330D9F00895FC01EE5B79
:10056000FF4F1082089516C2FC0115AAE05CFF4FF0
:1005700028E02083FC0126AD37AD35AF24AF13AEA4
:1005800012AE11AE10AEEE5BFF4F24E02083089553
:100590007FCE0F931F93CF93DF93EC0188ED95E00F
:1005A0000E943B0E81111AC086E30E9453198431C8
:1005B0009140A4F088ED95E00E940B0E64E372E098
:1005C0008BE896E00E942F1786E30E9453194AE0B9
:1005D00050E0BC018BE896E00E94FE17CE0168DF78
:1005E000882309F44BC08BA9882309F447C086E30C
:1005F0000E9453198C0188A9811107C00E94931889
:100600007FA76EA781E088AB09C00E9493182EA532
:100610003FA5621B730B7FA76EA718AAB801CE0176
:1006200079D1CE01CDD12BA9213019F02230B1F0F2
:1006300025C09801281B390B27303105ECF02CA977
:10064000211103C01FAF0EAF02C09FAF8EAF62E09B
:10065000CE01DF91CF911F910F9176CF2CA922234C
:1006600019F0233058F408C08EAD9FAD8017910764
:100670002CF41FAF0EAF02C09FAF8EAFDF91CF91B2
:100680001F910F910895CF92DF92EF92FF920F93F7
:100690001F93CF93DF93EC0129DECE01BCDE8BA943
:1006A000823079F0833009F009C181E08BABCE0153
:1006B000DF91CF911F910F91FF90EF90DF90CF903E
:1006C00069C10EAD1FAD89A99AA9081B190BC801F4
:1006D00026E0822728E1289FB001299F700D112470
:1006E000980145E024274CEC4203C001439F900D44
:1006F0001124680F791F980154E025274AE0429F92
:10070000C001439F900D1124680F791F882777FD42
:100710008095982F0E94361B6B017C01B80183E005
:100720006827882777FD8095982F0E94361B26EC36
:100730003CED45E35CE30E94C21B9B01AC01C70199
:10074000B6010E949F1A6B017C01B80122E062276A
:10075000882777FD8095982F0E94361B20E53CEF77
:1007600048EB5EE30E94C21B9B01AC01C701B601CE
:100770000E949E1A6B017C01B801882777FD809545
:10078000982F0E94361B21EC3AEC43E351E40E947F
:10079000C21B9B01AC01C701B6010E949F1A0E94B7
:1007A000031B8B0177FF04C000271127061B170BC3
:1007B0008CA9813069F018F0823041F153C088ADC6
:1007C00099AD801791070CF04DC019AF08AF4AC022
:1007D000073911050CF446C060E088E995E00E94F5
:1007E000C71024E6AC01249FC001259F900D112461
:1007F00080179107BCF58DA98823E9F08AAD9BADE0
:10080000801791077CF51BAF0AAF2CC00739110583
:100810004CF161E088E995E00E94C71024E6AC0144
:10082000249FC001259F900D112480179107D4F4B7
:100830008DA9811105C061E085E20E94041A12C0F1
:100840008AAD9BAD801791076CF41BAF0AAF88E9A6
:1008500095E00E945511833029F464E088E995E021
:100860000E94581188AD99AD2EA93FA928173907C4
:1008700044F49FAB8EAB84E08093430481E080938B
:100880004204FE01E05CFF4F8081882319F0815013
:10089000808314C08CA9882329F0833078F4023334
:1008A000110564F483E08BABCE01DF91CF911F91F2
:1008B0000F91FF90EF90DF90CF90EACCDF91CF9136
:1008C0001F910F91FF90EF90DF90CF900895FC0162
:1008D00083A90895FC0185A90895FC0165AB0895DD
:1008E0000F931F93CF93DF93EC0154D004E110E0FA
:1008F00086E30E945319BC01CE010CD001501109AE
:10090000B9F7CE015DD09AAB89ABDF91CF911F9142
:100910000F910895CF92DF92EF92FF920F931F9362
:10092000FC018B018181DF01A80FB11DA80FB11D52
:100930001296CD90DC901397EE24D7FCE094FE2C19
:1009400042A553A564A575A54C195D096E097F09DB
:1009500013961C930E931297222717FD2095322F82
:10096000400F511F621F731F42A753A764A775A7AB
:100970009081943110F49F5F90838F5F843110F4E5
:10098000818301C011821F910F91FF90EF90DF9042
:10099000CF900895FC011082118280E090E0DF0189
:1009A000A80FB91F13961C921E92129702968832B6
:1009B0009105A9F712A613A614A615A60895EACFC5
:1009C000FC01208130E040E050E062A573A584A5E1
:1009D00095A50E945A1CC9010895FC0110828CEB58
:1009E00092E0928381838CEA93E0948383831582DF
:1009F00008951F93CF93DF93EC0187E30E9453196F
:100A000018811130E9F030F0123061F1133009F43F
:100A100043C04DC029813A81821793077CF411E0CD
:100A20001093E40588ED95E00E940B0E61E080E3F1
:100A30000E94041A82E08D83188339C060E026C0CA
:100A40008D81823060F58EE10E94391A892B79F10F
:100A500060E080E30E94041A61E087E10E94041ACA
:100A600082E011C02B813C812817390774F460E0C3
:100A700087E10E94041A1092E40588ED95E00E9437
:100A80000B0E1D8383E0888312C061E087E1DF9154
:100A9000CF911F910C94041A8D81823018F08150EF
:100AA0008D8305C060E080E30E94041A1882DF9104
:100AB000CF911F910895CF93DF93EC0161E084E320
:100AC0000E94CB1960E084E30E94041A60E08EE18A
:100AD0000E94CB1918821982DF91CF910895CF938C
:100AE000FC012081211102C0C18101C0C1E08EE161
:100AF0000E94391ACC2369F081110DC061E08FE1A9
:100B00000E94041A84E30E94391A892B71F461E06F
:100B100008C08111F7CF84E30E94391A892B29F08C
:100B200060E084E3CF910C94041ACF910895FC0106
:100B300061830895FC0110820895CF92DF92EF92B5
:100B4000FF92CF93DF93EC016A017B018B859C853B
:100B5000AD85BE859A01AB01281B390B4A0B5B0B97
:100B6000DA01C90149815A816B817C81841795071B
:100B7000A607B707D8F08881813019F0823029F0B4
:100B80000CC0E985FA85199508C061E08885811156
:100B900060E068878F810E94041ACB86DC86ED8630
:100BA000FE868F8598890196988B8F878D819E818F
:100BB00097FD06C02F853889281739070CF0188251
:100BC000DF91CF91FF90EF90DF90CF900895FF924B
:100BD0000F931F93CF93DF93CDB7DEB7AD970FB6CB
:100BE000F894DEBF0FBECDBF62E08CE00E94CB194F
:100BF0008DE2E7E0F2E0DE01119601900D928A9518
:100C0000E1F710E0812F90E0E1E0F0E0EC0FFD1F54
:100C1000E80FF91FF0802FEFF21689F0E2E0F0E024
:100C2000EC0FFD1FE80FF91F008161E0802F0E948B
:100C3000CB196F2D802F0E94041A1E5FE3CFAD9653
:100C40000FB6F894DEBF0FBECDBFDF91CF911F91DD
:100C50000F91FF9008958DE30E94531921E0843F86
:100C600091400CF020E0822F0895CF93DF93EC01A8
:100C70006D2F661F6627661F81E20E94041A61E0DD
:100C80001C161D060CF060E082E3DF91CF910C94FE
:100C9000041ACF93DF93EC018130910579F460E081
:100CA00086E20E94041A61E088E20E94041A6BE462
:100CB00070E080E090E00E94C2180BC06D2F661FAC
:100CC0006627661F86E20E94041A61E01C161D0654
:100CD0000CF060E088E2DF91CF910C94041A682F49
:100CE00089E10C94041AFC01138212821182108291
:100CF00008951F93CF93DF93EC01162F6CE672E0FB
:100D00008BE896E00E942F174AE050E0612F8BE8B5
:100D100096E00E9426181883113049F028F012300E
:100D200061F48FEF9FEF05C080E090E002C081E0AA
:100D300090E0DF91CF911F9198CFDF91CF911F91DC
:100D40000895CF93DF93EC018EE30E94531928811D
:100D5000213019F0223059F00FC02A813B818217CF
:100D6000930754F060E0CE01DF91CF91C2CF2A818A
:100D70003B8128173907B4F7DF91CF910895CF93BE
:100D8000DF93EC018981662341F081110CC060E0A2
:100D9000CE01AFDF81E0898306C0882321F060E0C7
:100DA000CE01A7DF1982DF91CF910895EF92FF92D4
:100DB0000F931F93CF93DF93EC016536710514F009
:100DC00064E670E08B0177FF02C000E010E0B8013C
:100DD000882777FD8095982F0E94361B23E333E305
:100DE00043E350E40E94C21B20E030E040E253E4C1
:100DF0000E949F1A0E94031B7B836A838EE30E94DA
:100E000053197C016CE872E08BE896E00E942F1782
:100E10004AE050E0B8018BE896E00E94F71760EADC
:100E200072E08BE896E00E942F176A817B814AE08E
:100E300050E08BE896E00E94FE1762EB72E08BE8D0
:100E400096E00E942F174AE050E0B7018BE896E049
:100E50000E94F7178A819B81E816F90614F461E075
:100E600004C08E159F054CF462E0CE01DF91CF9156
:100E70001F910F91FF90EF903CCFDF91CF911F9189
:100E80000F91FF90EF900895FC0182E087A715AACB
:100E900016AA17AA10AE11AE108211821282138206
:100EA00011AA12AA13AA14AA16A681E080AB158271
:100EB0001482138A128A17821682178E168E13A630
:100EC00012A615A614A608950F931F93CF93DF9330
:100ED000EC01C1DE98A9882359F09230B1F082E08C
:100EE00088AB60E088E995E00E94581160E00AC094
:100EF000913059F081E088AB6FA588E995E00E94B8
:100F0000581161E08BE10E94041A88E995E00E9483
:100F10005511082F88ED95E0AED6182F002391F0DB
:100F2000813081F461E080EF95E0CBDA61E08BED18
:100F300095E0A2D3033008F443C061E086EE95E06B
:100F40001EDF3EC08CE00E94391A892B61F460E0FC
:100F500080EF95E0B6DA60E08BED95E08DD360E050
:100F600086EE95E00CDF61E0111101C060E08EE2D9
:100F70000E94041A8EA5882319F0853091F022C0B2
:100F800060E08AE20E94041A87E30E945319AC01D0
:100F900064E088E995E0DF91CF911F910F910C9467
:100FA000761089AD9FEF980F99AF823058F463E0C7
:100FB00088E995E0DF91CF911F910F910C94581122
:100FC00061E0D5CFDF91CF911F910F910895CF931D
:100FD000DF93EC0180EF95E0AADA1DAA1EAA1FAAF2
:100FE00018AEDF91CF910895FC0115AA16AA17AA91
:100FF00010AE67A5623021F088E995E00C94581195
:101000000895CF93DF93EC016EA78FEF860F8330A7
:1010100008F46FA76330C9F058F4613081F0623092
:1010200009F043C02CE731E045E451E060E024C022
:10103000643039F16530C9F588E089AF36C02CE7F6
:1010400031E045E451E061E017C061E086EE95E0F3
:1010500096DE62E088E995E00E94C7102AE0289FAA
:10106000B001299F700D112486EE95E09FDE2AE4E1
:1010700031E045E451E062E08BED95E0DF91CF9106
:10108000A0C30E94931869AB7AAB8BAB9CAB63E0B7
:1010900088E995E00E94C71028EE33E0DC010E9449
:1010A0007C1C6DAB7EAB8FAB98AFDF91CF91089579
:1010B000623049F48AE0849FB001859F700D11244D
:1010C00086EE95E073CE0895FC01138A128A60E0E3
:1010D00070E0DB011496AA0FBB1FAE0FBF1F2D914E
:1010E0003C9182899389820F931F938B828B6F5FD0
:1010F0007F4F6530710569F7828993890E94251CAD
:10110000CB010895FC01178E168E60E070E0DB01C4
:101110001A96AA0FBB1FAE0FBF1F2D913C91868D53
:10112000978D820F931F978F868F6F5F7F4F6530EC
:10113000710569F7868D978D0E94251CCB01089556
:101140000F931F93CF93DF93EC010C811D8182E4F9
:101150000E94531925E0AC01249FC001259F900DEA
:101160001124F8013496EE0FFF1FEC0FFD1F918341
:101170008083EC81FD813496EE0FFF1FEC0FFD1F85
:10118000808191818935924064F4EC81FD813496AF
:10119000EE0FFF1FEC0FFD1F808191818232914085
:1011A0007CF48C819D81892BB9F4EC81FD81888947
:1011B00099893496EE0FFF1FEC0FFD1F91838083FA
:1011C0008C819D8101969D838C838C819D81059767
:1011D00079F41D821C820CC0EC81FD81AC81BD8143
:1011E0001396AA0FBB1FAC0FBD1F8D919C91E1CF31
:1011F000DF91CF911F910F9108950F931F93CF937C
:10120000DF93EC010E811F8183E40E94531925E0D6
:10121000AC01249FC001259F900D1124F8013A963E
:10122000EE0FFF1FEC0FFD1F91838083EE81FF8186
:101230003A96EE0FFF1FEC0FFD1F808191818935DB
:10124000924064F4EE81FF813A96EE0FFF1FEC0F9F
:10125000FD1F80819181823291407CF48E819F813B
:10126000892BB9F4EE81FF818C8D9D8D3A96EE0F1E
:10127000FF1FEC0FFD1F918380838E819F8101965C
:101280009F838E838E819F81059779F41F821E82B2
:101290000CC0EE81FF81AE81BF811996AA0FBB1FE2
:1012A000AC0FBD1F8D919C91E1CFDF91CF911F912C
:1012B0000F910895CF92DF92EF92FF920F931F93B9
:1012C000CF93DF93EC0182EE95E0BFD1882321F02C
:1012D000CE0136DFCE0191DF8DA99EA9AFA9B8ADB1
:1012E000181619061A061B060CF073C0F8940AA506
:1012F0001BA5789486E30E945319073821E0120752
:101300004CF01DAA1EAA1FAA18AEA80146585140AB
:1013100061E00CC0813921E09207A4F01DAA1EAA49
:101320001FAA18AEAC014059514063E088E995E02E
:10133000DF91CF911F910F91FF90EF90DF90CF90B1
:101340000C9478120E949318C9A8DAA8EBA8FCA8FC
:101350008B019C010C191D092E093F09C616D706E1
:10136000E806F90624F0015011092109310969AB99
:101370007AAB8BAB9CAB4DA95EA96FA978AD401B36
:10138000510B620B730B4DAB5EAB6FAB78AF77FF5E
:1013900020C01DAA1EAA1FAA18AE61E083E20E9407
:1013A000041A0E949318688379838A839B8340E0A0
:1013B00050E064E088E995E00E94781280EF95E0C3
:1013C000DF91CF911F910F91FF90EF90DF90CF9021
:1013D000B5C8DF91CF911F910F91FF90EF90DF90F3
:1013E000CF900895BF92CF92DF92EF92FF920F932A
:1013F0001F93CF93DF938C01CC24CA94DC2CE12C77
:10140000F12CE5E0BE2E82E40E9453199C01B29EAD
:10141000C001B39E900D1124E701CC0FDD1FC00F5A
:10142000D11F9987888783E40E945319FC01BE9ECF
:10143000C001BF9E900D11249D8B8C8B8885998552
:10144000893592402CF4888599858232914044F404
:10145000E114F10461F5F801808991899187808711
:101460008C899D89893592402CF48C899D898232A2
:10147000914044F4E114F10429F5F801848D958D2F
:10148000958B848BFFEFEF1AFF0A2FEFC21AD20A57
:1014900035E0E316F10409F0B6CFDF91CF911F914B
:1014A0000F91FF90EF90DF90CF90BF900895F601DD
:1014B0003496EE0FFF1FE00FF11F80819181998715
:1014C0008887CECFF6013A96EE0FFF1FE00FF11F8F
:1014D000808191819D8B8C8BD5CFFC0186A5089551
:1014E000FC01118221E0208308950895CF93DF93BA
:1014F000EC0189818823A1F061111AC019828BE265
:101500000E94041A60E08DE20E94041A60E089E201
:101510000E94041A60E087E2DF91CF910C94041AD4
:10152000662331F081E0898383E396E05BDF1882F4
:10153000DF91CF9108950F931F93CF93DF9300D046
:101540001F92CDB7DEB78C01FC018081811105C0EF
:101550008BED95E046D1882359F0F80181818823ED
:1015600009F46AC08BED95E03CD18823D9F064C0C2
:1015700061E08DE20E94041A61E087E20E94041A91
:1015800062E370E080E090E00E94C21860E08DE2CB
:101590000E94041A60E087E20E94041A81E0F801C8
:1015A0008083DBCF83E396E08FDD9C838B8383E3B3
:1015B00096E0A8DD9A8389838B819C811816190691
:1015C000DCF589819A8118161906B4F58B819C8106
:1015D00029813A81821B930B863F9F4FACF461E0D7
:1015E0008DE20E94041A6EE170E080E090E00E94BB
:1015F000C21860E08DE20E94041A68EC70E080E09E
:1016000090E00E94C21818C08B819C8129813A8188
:10161000821B930B60E00B9724F08DE20E94041A6A
:101620000BC0C80163DF64E670E080E090E00E94D8
:10163000C21880EF95E054D90F900F900F900F9043
:10164000DF91CF911F910F910895FC018181089541
:1016500060E08AE20E94041A80EF95E00E94910205
:101660008FEF9FEF16CBFC0114821382128211823E
:101670001082168215820895FC018581662329F067
:1016800081110AC081E085830895882329F015829D
:10169000148280E090E0FDCA0895CF93DF93EC01BF
:1016A0006C83613081F050F0623081F06330B9F4C6
:1016B00080E090E0EEDA82E08E8311C080E090E07E
:1016C000DF91CF91E6CADF91CF91C2CF81E090E068
:1016D000E0DA61E082EE95E0DF91CF9107CFDF9114
:1016E000CF910895FF920F931F93CF93DF93EC0157
:1016F000F89400915D0610915E067894FC8082E07B
:10170000F816C1F083E0F81609F443C081E0F8123E
:1017100052C088819981801791070CF44CC061E018
:101720008AE20E94041A69EC72E08BE896E00E945B
:10173000491727C066E073E08BE896E00E942F17F8
:101740006A817B814AE050E08BE896E00E94F717BF
:1017500067E173E08BE896E00E942F174AE050E0C3
:10176000B8018BE896E00E94FE178A819B810817DA
:1017700019073CF083E08C8380E090E08ADAFE82F7
:101780001AC062E0CE01DF91CF911F910F91FF90BF
:1017900084CF8E819FEF980F9E8381110CC01C8295
:1017A00080E090E076DA83E396E0DF91CF911F91BD
:1017B0000F91FF900CCCDF91CF911F910F91FF9073
:1017C0000895CF93DF93EC01598348833B832A83A9
:1017D00080EF95E00E949B0281E08C83DF91CF91A6
:1017E00037CFFC01848108958CE20E94391A61E0B0
:1017F000892B09F060E08CE20C94041ACF92DF92FE
:10180000EF92FF920E9493186B017C0180EF95E0AC
:101810000E9443038AEE95E0ECD886EE95E091DADB
:1018200084EE95E05CD983E396E04EDB82EE95E0B2
:101830005CDE8BED95E056DF88ED95E00BD288E914
:1018400095E018D50E9493186C197D0970939B053B
:1018500060939A05FF90EF90DF90CF900895CF931B
:10186000DF93E0915F06F0916006EE0FFF1FED5AE7
:10187000F94FC081D18184E40E94531925E0AC0165
:10188000249FC001259F900D11249C0122523140BC
:101890002F363105D0F080915F0690916006E0917F
:1018A0005F06F0916006892B29F480915B06909188
:1018B0005C060FC0A0915F06B0916006AA0FBB1F27
:1018C000AF5AB94F8D919C9104C0E0915F06F091A1
:1018D0006006EE0FFF1FED5AF94F91838083E09170
:1018E0005F06F0916006EE0FFF1FED5AF94F808101
:1018F000918120915D0630915E0665E070E00E9466
:10190000251CFB01CE016BEF7FEF0E94251CE60F2B
:10191000F71F2E0F3F1F30935E0620935D068091C8
:101920005F069091600601969093600680935F0633
:1019300080915F0690916006059721F410926006F1
:1019400010925F0680EF95E00E9467048230D9F420
:1019500080EF95E00E946A04811115C0F8948FE32E
:101960000E9453198634910544F080E40E94531973
:101970008634910514F0789406C061E080EF95E01C
:101980000E946D04F8CFDF91CF910895CF92DF923E
:10199000EF92FF920F931F930E9493186B017C01AB
:1019A00088E995E0F7D580EF95E00E94C90282EEC4
:1019B00095E0C1DD8091330690913406A091350603
:1019C000B0913606181619061A061B062CF50E9449
:1019D000931800913306109134062091350630910A
:1019E0003606601B710B820B930B97FF04C061508E
:1019F000710981099109693E73408105910564F07F
:101A000060E083E20E94041A1092330610923406BA
:101A1000109235061092360683E396E04BDC0E9466
:101A200093186C197D0970939905609398058EEE53
:101A300094E057D184E494E01F910F91FF90EF90D0
:101A4000DF90CF904EC1FF920F931F93CF93DF9300
:101A5000C0E0D0E0B5E0FB2E05E010E084E40E9499
:101A600053199C01F29EC001F39E900D1124FE01BA
:101A7000EE0FFF1FED5AF94F918380838081918192
:101A800020915D0630915E06B8010E94251C260F4C
:101A9000371F30935E0620935D0683E40E9453193E
:101AA0009C01F29EC001F39E900D1124FE01EE0FE9
:101AB000FF1FE95BF94F9183808382E40E945319F1
:101AC0009C01F29EC001F39E900D1124FE01EE0FC9
:101AD000FF1FE55CF94F918380832196C530D105C6
:101AE00009F0BCCFDF91CF911F910F91FF90089526
:101AF0006ED826E040E855E260E070E08BE896E0C2
:101B00000E94E61520E044E064E18DE696E0A5D66B
:101B10002EEF3BE04AEF50E060E070E08EEE94E0A4
:101B20003BD124EF3BE040E85EEE66E370E084E406
:101B300094E032D188DF40E75BE062E070E085E866
:101B400096E0C5D12FEF3FEFA9016FE27CE085E879
:101B500096E0CCD178940895CF92EF920F9307E05E
:101B6000C02E86E0E82E05E024E043E062E08DE64A
:101B700096E0F9D683E396E087D980EF95E00E945E
:101B800036028AEE95E00E94ED0486EE95E0ABD831
:101B900084EE95E00E945B0582EE95E0A1DC8BED82
:101BA00095E061DD88ED95E03AD06DE676E088E974
:101BB00095E024D28EEE94E061D084E494E00F911D
:101BC000EF90CF905BC0CF93DF93EC0188E995E075
:101BD0006CD3833028F061E084EE95E00E94970595
:101BE00061E08FE10E94041A80E19EE09A8389837C
:101BF0008CE00E94391A019759F48DE30E94531921
:101C0000019731F461E08BE1DF91CF910C94041ADC
:101C1000DF91CF91089521E0FC012083D4CFFBCF49
:101C2000FC016083662319F0613099F0089560E04B
:101C30008BE10E94041A8EE10E94391A892B29F047
:101C400060E084EE95E00E94970560E08FE10C94DF
:101C5000041AB9CFFC012081213061F42181328145
:101C6000121613062CF42150310932832183089572
:101C700060E0D6CF0895FC01808108950F931F93F3
:101C8000CF93DF93EC018C0106551F4FCE010E94CC
:101C90009A056196C017D107C9F7DF91CF911F91BF
:101CA0000F910895CF92DF92EF92FF921F93CF93FF
:101CB000DF936A017B01EC011AE08881882329F017
:101CC000B701A601CE010E949D0511506196111128
:101CD000F4CFDF91CF911F91FF90EF90DF90CF90E5
:101CE0000895CF93DF93EC010E949318AB01BC01E0
:101CF000CE01DF91CF91D6CF20E0FC01308133239C
:101D000031F02F5F41962A30C1F78FEF0895822F6F
:101D10000895CF92DF92EF92FF920F931F93CF938C
:101D2000DF9300D01F92CDB7DEB76C0179014983F4
:101D30005A836B837C83E0DF282F49815A816B8132
:101D40007C818F3FD9F081E12802C00CD11C112485
:101D500081E0F60180834183528363837483168319
:101D60000583F286E18629830E949318F601638732
:101D7000748785879687108A17862981822F0F900E
:101D80000F900F900F90DF91CF911F910F91FF90C7
:101D9000EF90DF90CF9008950F931F930FEF1FEFF9
:101DA000B8DF1F910F9108951F920F920FB60F92F7
:101DB00011240BB60F922F933F934F935F936F9322
:101DC0007F938F939F93AF93BF93EF93FF93E09194
:101DD0008906F0918A061995FF91EF91BF91AF9115
:101DE0009F918F917F916F915F914F913F912F9133
:101DF0000F900BBE0F900FBE0F901F901895FC0117
:101E0000A3E0440F551F661F771FAA95D1F7411510
:101E1000510581E06807710514F481E00EC033E0DC
:101E200075956795579547953A95D1F741155105A1
:101E300081E0680771051CF482E0828331C023E0F1
:101E400075956795579547952A95D1F74115510591
:101E500081E06807710514F483E0EFCF92E0759597
:101E60006795579547959A95D1F74115510581E0AA
:101E70006807710514F484E0E0CF82E075956795FA
:101E8000579547958A95D1F785E08283411551058D
:101E900081E06807710524F04FEF5FEF60E070E0CC
:101EA0008FB78383F8945183408350938700409386
:101EB000860083818FBF80918100887F809381001D
:101EC000809181009281892B8093810008951092E6
:101ED000800020E12093810092CFE1E8F0E02081B2
:101EE000DC0112968C91282B208308950F931F9369
:101EF000CF93DF93EC018B01BA01A90114161506EB
:101F0000160617060CF47BDF1D830C8381E080939B
:101F10006F00CE01DF91CF911F910F91DECFCF9354
:101F2000DF93EC01862F688362E00E94CB191A824E
:101F30001B821C821D821982DF91CF910895EF923E
:101F4000FF920F931F93CF93DF9300D01F92CDB7D3
:101F5000DEB77C01FC01808149835A836B837C83DB
:101F60000E94391AF7010281138124813581498148
:101F70005A816B817C81892BF1F4400F511F621FC4
:101F8000731F4283538364837583413A564861408B
:101F900071053CF140EA56E861E070E0F7014283E8
:101FA000538364837583818181111BC081E08183A8
:101FB00081E090E018C0041B150B260B370BF701CE
:101FC000028313832483358337FF0BC0128213826D
:101FD000148215828181882321F011828FEF9FEF77
:101FE00002C080E090E00F900F900F900F90DF9173
:101FF000CF911F910F91FF90EF900895EF92FF9274
:102000000F931F93CF93DF93EC017B0186E090E069
:102010000E9448188C016BE082DF1B870A8786E0EC
:1020200090E00E9448188C016AE079DF1D870C87D8
:1020300086E090E00E9448188C0169E070DF1F87FD
:102040000E8786E090E00E9448188C0168E067DF08
:10205000198B088BFB8AEA8A5FE05C8B61E0698FF1
:1020600042E04E8F8AE090E09CA38BA323E030E017
:102070003EA72DA79EAB8DAB5D8B6A8F4F8F9EA326
:102080008DA338AB2FA798AF8FAB5E8B4B8F48A338
:1020900022E030E038A72FA321E030E03AAB29ABB3
:1020A0009AAF89AF5F8B83E08C8F49A385E090E086
:1020B0009AA789A73CAB2BAB84E190E09CAF8BAF98
:1020C00087E0888F4D8F84E08AA387E30E945319AD
:1020D0009CA78BA78A899B899DD38A899B89DF913D
:1020E000CF911F910F91FF90EF90AAC3CF93DF93F1
:1020F000FC012481862F90E0DC01AA0FBB1FEF01B9
:10210000CA0FDB1F211115C02DA53EA5421753078D
:1021100014F45EA74DA7AE0FBF1FD5962D913C912D
:10212000D69724173507B4F4D6965C934E93D5977B
:1021300011C02DA53EA5241735070CF49A01AE0F4A
:10214000BF1FD5960D90BC91A02DA901A217B30772
:102150000CF4AD019C01220F331FDF01A20FB31F4E
:10216000C1E093960D90BC91A02DA417B50709F47A
:10217000C0E0E20FF31F54A343A3CC2321F083E379
:1021800096E00E9458088C2FDF91CF910895860F1A
:10219000911D860F911DFC0183A194A10895DF92EA
:1021A000EF92FF920F931F93CF93DF93EC01D62E04
:1021B000062F10E07C01E00EF11EF701418D6489CD
:1021C0008A899B892CD3F801EE0FFF1FEC0FFD1FAE
:1021D00003A114A1F701E68CF12C81E090E00A3014
:1021E000110514F480E090E0E81AF90A81E090E02B
:1021F0000436110514F480E090E0E81AF90A81E051
:1022000090E0083EF3E01F0714F480E090E0E81A45
:10221000F90A21E0E21AF1088A899B891E141F0439
:102220001CF460E21DD6F5CF4AE050E0B801DFD6DD
:1022300082E0D81659F0D81630F0E3E0DE1212C072
:1022400066E273E005C060E273E002C063E273E03F
:102250008A899B89DF91CF911F910F91FF90EF9019
:10226000DF90FDC5DF91CF911F910F91FF90EF900F
:10227000DF900895CF93DF93EC018C81813069F07A
:1022800050F0833079F461E0CE0189DF62E0CE0165
:1022900086DF63E003C064E001C060E0CE01DF914F
:1022A000CF917DCFDF91CF910895FC018481089576
:1022B0000F931F93CF93DF931F92CDB7DEB78C019F
:1022C0008FEFF801858388ED95E06983A4DCF80140
:1022D00082899389BBD2F801828993899BD26981D3
:1022E000F80164836230B1F1C8F46623F9F061301B
:1022F00009F0E8C060E084EE95E00E94970560E593
:1023000073E0F80182899389AAD541E063E0F8017E
:102310008289938984D264E673E02FC0643009F423
:1023200060C080F1653009F473C0CCC060E084EE19
:1023300095E00E94970568E273E0F801828993892D
:102340008ED541E060E0F8018289938968D26CE320
:1023500073E013C060E084EE95E00E9497056FE69D
:1023600073E0F801828993897AD541E060E0F80151
:102370008289938954D264E873E0F8018289938951
:102380006ED5A0C080E00E946F0661E084EE95E00B
:102390000E94970569E973E0F801828993895FD506
:1023A00041E062E0F8018289938939D264E673E002
:1023B000F8018289938953D542E062E0F80182896D
:1023C00093892DD26DEA73E0F8018289938947D50C
:1023D00043E062E0F8018289938921D269EB73E0DE
:1023E000CCCF60E086EE95E00E94BF0681E00E94BF
:1023F0006F0669E973E0F8018289938930D542E07C
:1024000066E0F801828993890AD263EC73E0B5CF64
:1024100080E00E946F0660E084EE95E00E949705E0
:1024200069E973E0F8018289938919D5F80125AD2E
:1024300082899389243031F442E066E0F0D16CEC7B
:1024400073E09BCF41E066E0EAD164ED73E0F80110
:102450008289938904D542E066E0F80182899389F4
:10246000DED1F80125AD82899389223039F02330FD
:1024700041F0213049F46DED73E015C064E074E083
:1024800012C066E174E00FC06EE174E0E8D44AE087
:1024900050E0F80165AD82899389D2D562E274E09B
:1024A000F80182899389DBD443E068E0F8018289EE
:1024B0009389B5D1F80166AD77AD4AE050E08289E5
:1024C000938995D583E396E008D8F801648186174F
:1024D00049F083E396E00F90DF91CF911F910F9128
:1024E0000C9401080F90DF91CF911F910F910895E7
:1024F000FC0165AF57AF46AF65E0DACE1F93CF93CF
:10250000DF93EC01162F8D818F3FE9F0FE01E80F7C
:10251000F11D64896F5F418D8A899B8980D16AE84A
:1025200072E08A899B899BD48D81FE01E80FF11DA1
:1025300064896C5F418D8A899B8971D16AE872E0F8
:102540008A899B898CD41D831F3F01F1FE01E10F15
:10255000F11D64896F5F418D8A899B8960D166E234
:1025600074E08A899B897BD48D81FE01E80FF11D7F
:1025700064896C5F418D8A899B8951D168E274E0DE
:102580008A899B89DF91CF911F9169C4DF91CF9197
:102590001F910895AF92BF92CF92DF92EF92FF9278
:1025A0000F931F93CF93DF93EC01C9D5CE80DF80CB
:1025B000E884F9849B01AC012C193D094E095F099F
:1025C00069017A0157FF06C031E0C31AD108E1085A
:1025D000F10804C06E837F8388879987B701A601BD
:1025E0008A859B85ACDCAA24A394181619060CF0E6
:1025F000A12CB701A60188899989A1DCBB24B394D9
:10260000181619060CF0B12CB701A6018C859D8512
:1026100096DC31E020E0181619060CF030E0032FAC
:10262000122FB701A6018E859F8589DC1816190621
:1026300014F401501109AA2049F0BB2069F00115DA
:10264000110531F088ED95E0E6DA02C0BB2021F0FB
:1026500080EF95E00E9488028C81813019F08230F1
:1026600061F00FC0AA2011F063E00EC0BB2039F169
:102670008D818823F9F060E020C0AA2001F161E09B
:1026800003C0AA2041F062E0CE0112DE80EF95E0A7
:102690000E94880214C0833091F4BB2081F08D81A8
:1026A000823031F0833031F0813031F462E005C0A6
:1026B00063E003C06FEF01C061E0CE011FDF0115D1
:1026C0001105C1F06D816F3FA9F0FE01E60FF11D0C
:1026D000E60FF11D43A154A1400F511FCE01DF9120
:1026E000CF911F910F91FF90EF90DF90CF90BF900F
:1026F000AF90FCCCDF91CF911F910F91FF90EF90A5
:10270000DF90CF90BF90AF900895CF93DF93EC010F
:1027100060E08E8179D681E090E059D561E08E81CC
:1027200073D681E090E053D560E08E816DD684E66B
:1027300090E0DF91CF914BC5EF92FF920F931F93E3
:10274000CF93DF938C01C0E0D0E0E62EF12CB701EF
:102750000C2E02C0759567950A94E2F76170F80136
:10276000EC0FFD1F878150D62196C430D10579F733
:10277000C801DF91CF911F910F91FF90EF90C5CFCE
:10278000EF92FF920F931F93CF93DF938C01C0E0E2
:10279000D0E0E62EF12CB7010C2E02C0759567959E
:1027A0000A94E2F76170F801EC0FFD1F87812CD6C7
:1027B0002196C830D10579F7C801DF91CF911F91DB
:1027C0000F91FF90EF90A1CF1F93CF93DF93EC0178
:1027D000162F642F8C8118D68D818F3F11F060E009
:1027E00013D68F85612F84FF05C0CE01DF91CF9175
:1027F0001F91C6CF70E084E0759567958A95E1F7E3
:10280000CE019ADF612FCE01DF91CF911F9194CF3E
:1028100040E0DACF61E0FCDF80ED97E0D8C44430DF
:1028200008F043E0FC012389421710F04FEF420FFC
:10283000FC01E40FF11D2489260F2068622FE8CFE8
:10284000FC0160896B7F608B6860E2CFFC0160896E
:10285000262F2460208B6C60DBCF0F931F93CF93C8
:10286000DF93EC01423018F08F8588608F874B8BA7
:102870001C8A80E48D8B6E8B70E0605C7F4F6F8B69
:10288000222329F0413019F48F8584608F8761E01D
:102890008C8181D58D818F3F11F061E07CD561E025
:1028A0008E8179D500E010E08F8584FF03C088E039
:1028B00090E002C084E090E0081719074CF4FE0194
:1028C000E00FF11F61E0878166D50F5F1F4FECCFEE
:1028D00080E593EC7CD460E08C8196D560E08E81BD
:1028E00093D58D818F3F11F060E08ED56F8564FDAB
:1028F00016C063E0CE0120DF84E991E168D463E093
:10290000CE011ADF84E991E162D463E0CE0114DFE5
:1029100086E990E05CD462E0CE010EDF11C0606217
:10292000CE0176DF84E991E152D46F856062CE01F9
:102930006FDF86E990E04BD46F856062CE0168DF7F
:102940006F856062CE0164DF84E0888BCE017EDF1C
:10295000CE0160DF82E0898B66E0CE01DF91CF910E
:102960001F910F9155CFCF92EF920F93FC011382DD
:1029700012828EE294E09183808364838FEF85835B
:10298000468327830087E186C286138614861586D0
:102990001686178620E041E060E1CF010F91EF90AD
:1029A000CF905BCF41E010DF81E090E00895FC0123
:1029B000818D228D90E0805C9F4F821B91098F73E7
:1029C00099270895FC01918D828D981731F0828DA1
:1029D000E80FF11D858D90E008958FEF9FEF08952A
:1029E000FC01918D828D981761F0828DDF01A80F17
:1029F000B11D5D968C91928D9F5F9F73928F90E039
:102A000008958FEF9FEF089585EA96E1892B39F0BD
:102A100080E090E0892B19F098D1811125C080E0E9
:102A200090E0892B41F080E090E0892B21F00E941A
:102A3000000081111CC080E090E0892B41F080E013
:102A400090E0892B21F00E940000811113C080E0EA
:102A500090E0892BA1F080E090E0892B81F00E942A
:102A6000000081110AC008950E940000D8CF0E9482
:102A70000000E1CF0E940000EACF0C94000008950E
:102A8000FC01848DDF01A80FB11DA35ABF4F2C910B
:102A9000848D90E001968F739927848FA689B789DA
:102AA0002C93A089B1898C9180648C93938D848DB3
:102AB000981306C00288F389E02D80818F7D808382
:102AC0000895CF93DF93EC01888D8823C1F0EA89C4
:102AD000FB89808185FD05C0A889B9898C9186FD17
:102AE0000EC00FB607FCF5CF808185FFF2CFA88915
:102AF000B9898C9185FFEDCFCE01C2DFE8CFDF91A0
:102B0000CF910895CF92DF92FF920F931F93CF93AF
:102B1000DF931F92CDB7DEB76C01DC015B969C9111
:102B20005B975C968C915C97981307C05096ED91DB
:102B3000FC915197808185FD31C0F601038D10E035
:102B40000F5F1F4F0F731127F02EF601848DF812BF
:102B500010C00FB607FCF9CFD6015096ED91FC914D
:102B60005197808185FFF1CFC601698389DF698133
:102B7000ECCF838DE80FF11DE35AFF4F6083D60140
:102B80005B960C935B975296ED91FC9153978081E5
:102B90008062808381E058968C930DC0D601569652
:102BA000ED91FC91579760835096ED91FC91519770
:102BB00080818064808381E090E00F90DF91CF91ED
:102BC0001F910F91FF90DF90CF900895BF92CF9209
:102BD000DF92EF92FF92CF93DF93EC016A017B01CA
:102BE000B22EE889F98982E08083411581EE580789
:102BF0006105710599F060E079E08DE390E0A7014F
:102C0000960136D62150310941095109569547950B
:102C100037952795211580E1380790F0E889F989E3
:102C2000108260E874E88EE190E0A701960120D65A
:102C300021503109410951095695479537952795F6
:102C4000EC85FD853083EE85FF852083188EEC8929
:102C5000FD89B082EA89FB89808180618083EA896D
:102C6000FB89808188608083EA89FB898081806814
:102C70008083EA89FB8980818F7D8083DF91CF917A
:102C8000FF90EF90DF90CF90BF9008951F920F922A
:102C90000FB60F9211240BB60F922F938F939F9321
:102CA000EF93FF93E0919B06F0919C068081E09169
:102CB000A106F091A20682FD12C090818091A40627
:102CC0008F5F8F732091A506821751F0E091A406C3
:102CD000F0E0E557F94F958F8093A40601C08081FD
:102CE000FF91EF919F918F912F910F900BBE0F90BD
:102CF0000FBE0F901F9018951F920F920FB60F9254
:102D000011240BB60F922F933F934F935F936F93C2
:102D10007F938F939F93AF93BF93EF93FF938BE832
:102D200096E0AEDEFF91EF91BF91AF919F918F91B1
:102D30007F916F915F914F913F912F910F900BBEBB
:102D40000F900FBE0F901F9018958BE896E02FDE26
:102D500021E0892B09F420E0822F089510928E063D
:102D600010928D0688EE93E0A0E0B0E080938F068D
:102D700090939006A0939106B093920686E394E018
:102D800090938C0680938B0685EC90E09093980648
:102D90008093970684EC90E090939A06809399062E
:102DA00080EC90E090939C0680939B0681EC90E0F1
:102DB00090939E0680939D0682EC90E09093A006EF
:102DC00080939F0686EC90E09093A2068093A106E4
:102DD0001092A4061092A5061092A6061092A706BD
:102DE0000895CF92DF92EF92FF920F931F93CF93AC
:102DF000DF936C017A01EB01E60EF71E00E010E0B4
:102E0000CE15DF0561F06991D601ED91FC9101903D
:102E1000F081E02DC6011995080F191FF1CFC801E7
:102E2000DF91CF911F910F91FF90EF90DF90CF90A6
:102E300008956115710581F0DB010D900020E9F71F
:102E4000AD0141505109461B570BDC01ED91FC913E
:102E50000280F381E02D199480E090E00895E9CF9D
:102E6000DC01ED91FC910190F081E02D19940F931C
:102E70001F93CF93DF93EC016DE0F2DF8C016AE0EA
:102E8000CE01EEDF800F911FDF91CF911F910F9147
:102E900008950F931F93CF93DF93EC01CADF8C014A
:102EA000CE01E5DF800F911FDF91CF911F910F9130
:102EB00008958F929F92AF92BF92CF92DF92EF923E
:102EC000FF920F931F93CF93DF93CDB7DEB7A197F8
:102ED0000FB6F894DEBF0FBECDBF7C01C42EE52F28
:102EE000CB01D22E19A221E02D1510F02AE0D22E0E
:102EF0008E010F5D1F4F8D2C912CA12CB12C6C2DB0
:102F00007E2FA5019401B4D48C2DD29E801911245A
:102F1000015011098A3014F4805D01C0895CF80108
:102F20008083211531054105510521F0C22EE32F83
:102F3000CA01E5CFB801C7017CDFA1960FB6F894AE
:102F4000DEBF0FBECDBFDF91CF911F910F91FF90DC
:102F5000EF90DF90CF90BF90AF909F908F900895AB
:102F6000CF92DF92EF92FF920F931F93CF93DF9355
:102F7000EC016A017B012115310579F4E881F981C1
:102F80000190F081E02D642FDF91CF911F910F917F
:102F9000FF90EF90DF90CF9019942A303105D9F44B
:102FA00077FF18C06DE25CDF8C0144275527BA011A
:102FB0004C195D096E097F092AE0CE017ADF800F86
:102FC000911FDF91CF911F910F91FF90EF90DF90B4
:102FD000CF9008952AE0B701A601CE01DF91CF91ED
:102FE0001F910F91FF90EF90DF90CF9062CF9A01E9
:102FF000AB01662757FD6095762FB2CF0F931F93D5
:10300000CF93DF93EC019A01AB01662757FD6095E2
:10301000762FA6DF8C01CE012ADF800F911FDF9172
:10302000CF911F910F9108952115310541F4DC01D5
:10303000ED91FC910190F081E02D642F199439CF2E
:103040009A01462F50E060E070E0EECF0F931F939F
:10305000CF93DF93EC019A01462F50E060E070E0DF
:10306000E3DF8C01CE0103DF800F911FDF91CF9151
:103070001F910F9108950895B4D0FDDF0E94780D3F
:10308000C4E0D5E10E94C60C2097E1F3BDDCFACF85
:1030900060C41F920F920FB60F9211242F933F938B
:1030A0008F939F93AF93BF938091290790912A07A5
:1030B000A0912B07B0912C073091280723E0230F14
:1030C0002D3720F40196A11DB11D05C026E8230F60
:1030D0000296A11DB11D2093280780932907909384
:1030E0002A07A0932B07B0932C0780912D0790916E
:1030F0002E07A0912F07B09130070196A11DB11D99
:1031000080932D0790932E07A0932F07B09330073D
:10311000BF91AF919F918F913F912F910F900FBED3
:103120000F901F9018952FB7F89460912907709110
:103130002A0780912B0790912C072FBF08953FB746
:10314000F89480912D0790912E07A0912F07B091B0
:10315000300726B5A89B05C02F3F19F00196A11D89
:10316000B11D3FBF6627782F892F9A2F620F711DDF
:10317000811D911D42E0660F771F881F991F4A9598
:10318000D1F70895CF92DF92EF92FF92CF93DF9322
:103190006B017C01D4DFEB01C114D104E104F10423
:1031A00079F0CBD1CCDF6C1B7D0B683E7340A0F374
:1031B00081E0C81AD108E108F108C851DC4FECCF12
:1031C000DF91CF91FF90EF90DF90CF90089501971E
:1031D00039F0880F991F880F991F02970197F1F70F
:1031E0000895789484B5826084BD84B5816084BD7F
:1031F00085B5826085BD85B5816085BDEEE6F0E070
:10320000808181608083E1E8F0E0108280818260CB
:103210008083808181608083E0E8F0E0808181604C
:103220008083E1EBF0E0808184608083E0EBF0E07C
:10323000808181608083E1E9F0E080818260808329
:10324000808181608083E0E9F0E08081816080831B
:10325000E1EAF0E080818260808380818160808308
:10326000E0EAF0E0808181608083E1E2F1E080814A
:1032700082608083808181608083E0E2F1E08081F0
:1032800081608083EAE7F0E08081846080838081D0
:103290008260808380818160808380818068808378
:1032A0001092C1000895863308F0865320917B0068
:1032B000982F9870277F922B90937B008770209196
:1032C000060290E4299F90011124822B80937C00B8
:1032D00080917A00806480937A0080917A0086FDE4
:1032E000FCCF809178002091790090E0922B089596
:1032F00090E0FC013197E231F10508F04BC0EE5847
:10330000FF4FF4C2809180008F7703C080918000CE
:103310008F7D80938000089580918000877FF9CF12
:1033200084B58F7702C084B58F7D84BD0895809168
:10333000B0008F7703C08091B0008F7D8093B00084
:103340000895809190008F7707C0809190008F7DC5
:1033500003C080919000877F8093900008958091B2
:10336000A0008F7707C08091A0008F7D03C080915F
:10337000A000877F8093A0000895809120018F771F
:1033800007C0809120018F7D03C080912001877F3D
:10339000809320010895CF93DF9390E0FC01E25BDE
:1033A000FE4F2491FC01EC56FE4F8491882349F195
:1033B00090E0880F991FFC01E25FFD4FA591B49149
:1033C0008C509E4FFC01C591D4919FB7611108C0EC
:1033D000F8948C91209582238C93888182230AC053
:1033E000623051F4F8948C91322F309583238C9372
:1033F0008881822B888304C0F8948C91822B8C93D3
:103400009FBFDF91CF9108950F931F93CF93DF93C9
:103410001F92CDB7DEB7282F30E0F901E85FFE4FED
:103420008491F901E25BFE4F1491F901EC56FE4FD5
:1034300004910023C1F0882319F0698359DF698161
:10344000E02FF0E0EE0FFF1FEC50FE4FA591B4917E
:103450009FB7F8948C91611103C01095812301C02E
:10346000812B8C939FBF0F90DF91CF911F910F9174
:103470000895CF93DF93282F30E0F901E85FFE4FE6
:103480008491F901E25BFE4FD491F901EC56FE4FB5
:10349000C491CC2389F081112BDFEC2FF0E0EE0FEB
:1034A000FF1FE652FE4FA591B4912C912D2381E090
:1034B00090E021F480E002C080E090E0DF91CF91C5
:1034C0000895BF92CF92DF92EF92FF920F931F93D6
:1034D000CF93DF93C82ED62EB42EC7E0D0E0022FB4
:1034E00010E087E0E82EF12CB1100AC0F701EC1BC8
:1034F000FD0BB80102C075956795EA95E2F707C024
:10350000B8010C2E02C0759567950A94E2F76170B8
:1035100077278C2D79DF61E08D2D76DF60E08D2DB2
:1035200073DF219708F7DF91CF911F910F91FF90E3
:10353000EF90DF90CF90BF90089508955058BB272B
:10354000AA270ED0E5C0D6D030F0DBD020F031F481
:103550009F3F11F41EF4CBC00EF4E095E7FBC1C011
:10356000E92FE7D080F3BA1762077307840795073E
:1035700018F071F49EF5FFC00EF4E0950B2EBA2FF3
:10358000A02D0B01B90190010C01CA01A001112469
:10359000FF27591B99F0593F50F4503E68F11A1615
:1035A000F040A22F232F342F4427585FF3CF4695A6
:1035B00037952795A795F0405395C9F77EF41F16C8
:1035C000BA0B620B730B840BBAF09150A1F0FF0F92
:1035D000BB1F661F771F881FC2F70EC0BA0F621F7E
:1035E000731F841F48F4879577956795B795F7956E
:1035F0009E3F08F0B3CF9395880F08F09927EE0F00
:1036000097958795089504D06894B111B5C0089531
:1036100098D088F09F5790F0B92F9927B751A0F014
:10362000D1F0660F771F881F991F1AF0BA95C9F756
:1036300012C0B13081F09FD0B1E008959CC0672FD7
:10364000782F8827B85F39F0B93FCCF38695779506
:103650006795B395D9F73EF49095809570956195EF
:103660007F4F8F4F9F4F0895E89409C097FB3EF41A
:1036700090958095709561957F4F8F4F9F4F9923BF
:10368000A9F0F92F96E9BB279395F695879577953D
:103690006795B795F111F8CFFAF4BB0F11F460FFFD
:1036A0001BC06F5F7F4F8F4F9F4F16C0882311F055
:1036B00096E911C0772321F09EE8872F762F05C069
:1036C000662371F096E8862F70E060E02AF09A9504
:1036D000660F771F881FDAF7880F9695879597F9F9
:1036E000089597F99F6780E870E060E008959FEF84
:1036F00080EC089500240A94161617061806090689
:10370000089500240A941216130614060506089557
:10371000092E0394000C11F4882352F0BB0F40F4DF
:10372000BF2B11F460FF04C06F5F7F4F8F4F9F4F1F
:10373000089557FD9058440F551F59F05F3F71F0A1
:103740004795880F97FB991F61F09F3F79F0879508
:103750000895121613061406551FF2CF4695F1DF91
:1037600008C0161617061806991FF1CF8695710521
:10377000610508940895E894BB2766277727CB0155
:1037800097F908950BD0C4CFB5DF28F0BADF18F051
:10379000952309F0A6CFABCF1124EECFCADFA0F35B
:1037A000959FD1F3950F50E0551F629FF001729FD6
:1037B000BB27F00DB11D639FAA27F00DB11DAA1FF5
:1037C000649F6627B00DA11D661F829F2227B00D42
:1037D000A11D621F739FB00DA11D621F839FA00DCD
:1037E000611D221F749F3327A00D611D231F849F1D
:1037F000600D211D822F762F6A2F11249F57504074
:103800008AF0E1F088234AF0EE0FFF1FBB1F661F0E
:10381000771F881F91505040A9F79E3F510570F0C7
:1038200060CFAACF5F3FECF3983EDCF386957795A7
:103830006795B795F795E7959F5FC1F7FE2B880FC2
:10384000911D9695879597F9089597FB072E16F485
:10385000009406D077FD08D059D007FC05D03EF47F
:10386000909581959F4F0895709561957F4F08952C
:10387000A1E21A2EAA1BBB1BFD010DC0AA1FBB1F74
:10388000EE1FFF1FA217B307E407F50720F0A21BE6
:10389000B30BE40BF50B661F771F881F991F1A9453
:1038A00069F760957095809590959B01AC01BD017D
:1038B000CF010895052E97FB16F400940FD057FD05
:1038C00005D0D6DF07FC02D046F408C050954095DD
:1038D000309521953F4F4F4F5F4F089590958095BC
:1038E000709561957F4F8F4F9F4F0895EE0FFF1F8B
:1038F0000590F491E02D19941DD0B7FF0895821B17
:10390000930B08950790F691E02D1994AA1BBB1B09
:1039100051E107C0AA1FBB1FA617B70710F0A61BCF
:10392000B70B881F991F5A95A9F780959095BC01F0
:10393000CD010895A29FB001B39FC001A39F700D58
:10394000811D1124911DB29F700D811D1124911DA7
:103950000895CF93DF938230910510F482E090E0D8
:10396000E0913307F091340720E030E0A0E0B0E0D0
:10397000309739F14081518148175907B8F04817FD
:10398000590771F482819381109729F013969C93C3
:103990008E9312972CC0909334078093330727C0DF
:1039A0002115310531F04217530718F0A901DB0149
:1039B00001C0EF019A01BD01DF010280F381E02D1A
:1039C000D7CF21153105F9F0281B390B24303105EB
:1039D00080F48A819B816115710521F0FB0193833D
:1039E000828304C09093340780933307FE0132969C
:1039F00044C0FE01E20FF31F8193919322503109DD
:103A0000398328833AC02091310730913207232B24
:103A100041F4209102023091030230933207209347
:103A2000310720910002309101022115310541F446
:103A30002DB73EB74091040250910502241B350B6F
:103A4000E0913107F0913207E217F307A0F42E1B43
:103A50003F0B2817390778F0AC014E5F5F4F2417F2
:103A6000350748F04E0F5F1F5093320740933107E0
:103A70008193919302C0E0E0F0E0CF01DF91CF911C
:103A80000895CF93DF93009709F487C0FC01329724
:103A900013821282C0913307D0913407209781F4AA
:103AA00020813181280F391F809131079091320791
:103AB0008217930779F5F0933207E09331076DC0D1
:103AC000DE0120E030E0AE17BF0750F412964D91B2
:103AD0005C9113979D014115510509F1DA01F3CF6E
:103AE000B383A28340815181840F951F8A179B075E
:103AF00071F48D919C911197840F951F029691837B
:103B0000808312968D919C911397938382832115C4
:103B1000310529F4F0933407E09333073EC0D9010F
:103B20001396FC93EE9312974D915D91A40FB51FE0
:103B3000EA17FB0779F480819181840F951F029623
:103B4000D90111969C938E938281938113969C93B5
:103B50008E931297E0E0F0E08A819B81009719F044
:103B6000FE01EC01F9CFCE01029628813981820F46
:103B7000931F20913107309132072817390769F4D4
:103B8000309729F4109234071092330702C0138241
:103B90001282D0933207C0933107DF91CF910895FD
:043BA000F894FFCFC7
:103BA4000000350780000100260028002A002C00B0
:103BB4002E0030003200210034011F0023002500B4
:103BC400170019001B0016001A001800270029000E
:103BD4002D002BFF2020616E616C6F67526561645C
:103BE400286169416368696576656450696E292056
:103BF40069732077616B65696E67206974207570DD
:103C040000FC60DAF266B6BEE0FEF602496E697444
:103C1400204368617267652053797374656D206E03
:103C240065772073746174653A202000207365748D
:103C340054617267657450657263656E743A2000EE
:103C44002074617267657450726573737572653A36
:103C54002000206169507265636861726765507203
:103C64006573737572653A2000205042532068656D
:103C740061727462656174206368616E6765642053
:103C84005042532053746174653A206C6566742005
:103C940073696E6B696E672C206E6F772072616931
:103CA40073696E67200020207265616479526169CE
:103CB4007365546F3D20002020736F6E203D2000FB
:103CC40030300030250073003D3D3D20544F5749AE
:103CD4004E47204D4F4445203D3D3D0052657365A0
:103CE40072766F69722050726573737572653A00EB
:103CF4002A2A20504F5745522044524956494E478C
:103D0400202A2A005468726573686F6C643A002B29
:103D14002B2B2B20494E444956494455414C202BCA
:103D24002B2B2B002B2B2B2B2020545241494E495B
:103D34004E4720202B2B2B2B0020535452454E470B
:103D4400544820545241494E494E47200044696624
:103D5400666963756C74793A004475726174696F4D
:103D64006E3A004348415247494E47005355434336
:103D74004553530053485554444F574E00446966C5
:103D8400666963756C747920697320736574207433
:103D94006F2068696768206164756A75737420644C
:103DA4006F776E00486F6C6420736372756D206C5E
:103DB4006F6E6765720052656475636520003F3FEE
:103DC4002000203F3F003E003C0000000000D214D1
:103DD400F116000000008215F116D714F014E21455
:023DE400611567
:00000001FF
