:1000000015C1000044C1000042C1000040C1000011
:100010003EC100003CC100003AC1000038C10000F0
:1000200036C1000034C1000032C1000030C1000000
:100030002EC100002CC100002AC1000028C1000010
:1000400026C1000024C1000022C1000020C1000020
:100050000C94E1101CC100001AC100000C94D41BC8
:1000600016C100000C94F9180C942F1910C100004F
:100070000EC100000CC100000AC1000008C1000050
:1000800006C1000004C1000002C1000000C1000060
:10009000FEC00000FCC00000FAC00000F8C0000074
:1000A000F6C00000F4C00000F2C00000F0C0000084
:1000B000EEC00000ECC00000EAC00000E8C0000094
:1000C000E6C00000E4C00000E2C00000E0C00000A4
:1000D000DEC00000DCC00000DAC00000D8C00000B4
:1000E000D6C000001B1D1E1D0D1D111D171D551D09
:1000F000221D261D2C1D301D341D3A1D3E1D421D86
:10010000551D481D4C1D501D00000A0B02090C0D09
:100110000E080703040100000000000000000000BA
:1001200000000000000000000000000000000000CF
:10013000000000001211100000000000000000008C
:1001400000000000000000000000000000000102AC
:1001500010202008081020401020408002010201D9
:100160000804020101020408102040808040201091
:1001700008040201800402018040201008040201EA
:100180000804020101020408102040800102040852
:10019000102040800505050507050808080802022B
:1001A00002020A0A08080404040401010101010111
:1001B00001010303030303030303040707070C0CF4
:1001C0000C0C0C0C0C0C02020202060606060606BB
:1001D00006060B0B0B0B0B0B0B0B00002000230078
:1001E000260029002C002F0032000001000003012E
:1001F0000601090100002200250028002B002E0026
:100200003100340002010000050108010B0100006B
:100210002100240027002A002D00300033000101B6
:100220000000040107010A01B90F611911241FBE62
:10023000CFEFD1E2DEBFCDBF00E00CBF17E0A0E002
:10024000B2E0EAEEF3E400E00BBF02C007900D92CB
:10025000A83BB107D9F72CE0A8EBB7E001C01D928D
:10026000A834B207E1F712E0CCE2D2E000E006C029
:1002700022970109FE010BBF0E94A520C832D107B9
:1002800080E00807A9F70E94C71B0C94F321B8CEA1
:1002900061E085E20E94561D60E085E20C948F1DAE
:1002A000CF93DF938091410B882321F0833008F0B6
:1002B0005FC02DC06091B907662311F18091B80726
:1002C0009FEF980F9093B807823008F051C06150AB
:1002D0006093B907617085E20E948F1D68EE73E03C
:1002E0008EE99BE00E94E2194AE050E06091B90774
:1002F0008EE99BE00E94D91A81E08093B80738C04C
:1003000060E085E20E948F1D10923D0B31C080910C
:10031000310B882369F18EE19BE066D520913E0B7D
:1003200030913F0B821B930B880F991F8659964F74
:10033000FC01C081D18160E08EE099E00E94D6127C
:1003400024E6AC01249FC001259F900D1124C817FD
:10035000D90774F460E085E20E948F1D1092310B82
:1003600065EF73E08EE99BE0DF91CF910C94FC196F
:10037000DF91CF910895DF92EF92FF920F931F9339
:10038000CF93DF93EC01C9318CEFD8073CF0C0313B
:10039000E7E2DE075CF4D7FF0BC002C0C9E1DCEF87
:1003A000D195C195D1094AE0D42E0CC0CFE0D7E257
:1003B000CE0160E177E20E94482068EE73E00E947F
:1003C0004820D62E61E086E10E948F1D3AE0E32EA0
:1003D000F12CCE01B7010E944820855D9A4FFC01A7
:1003E000208140E068E18AE10E94EC1D04E610E013
:1003F000CE01B8010E944820B7010E944820655DE7
:100400007A4FFB01208140E068E18AE10E94EC1D07
:10041000CE0168EE73E00E944820B8010E94482097
:10042000655D7A4FFB01208140E068E18AE10E942E
:10043000EC1DED2DF0E0E55DFA4F208140E068E134
:100440008AE10E94EC1D60E086E10E948F1D64E05D
:1004500070E080E090E0DF91CF911F910F91FF90CD
:10046000EF90DF900C944D1C0F931F93CF93DF936D
:100470008C01FC01E553FE4F20813181EC01C55216
:10048000DE4F2115310509F418828881811106C0DB
:10049000F801E753FE4F8081918101C0C9016BDFF4
:1004A000F801E652FE4F8081823018F0815080833F
:1004B0000BC088E280838881833020F0833021F470
:1004C000188202C08F5F8883DF91CF911F910F91B7
:1004D0000895CF93DF93EC0184EB91E0E7E0F2E045
:1004E000DE0101900D920197E1F7CE018C549E4FF1
:1004F0007AD4CEDEFE01E752FE4F10823E97118283
:1005000010823296118210823497118210823896AE
:1005100011821082399610823196108233971082A0
:100520003197108231971082379711821082359659
:10053000118210823E971082329711821082339678
:1005400010823C961082C853DE4F1882DF91CF9103
:1005500008958BE10E94C41D21E0892B09F420E05D
:10056000822F0895FC01E553FE4F118210823297CD
:100570001182108264E174E08EE99BE00E94FC1914
:1005800060E085E20C948F1D89529E4FFC016083D0
:100590000895FC01E553FE4FDC01A353BE4F8D913E
:1005A0009C9191838083089588529E4FFC016083C3
:1005B0000895EF92FF920F931F93CF93DF937C01E7
:1005C000EC01CC54DE4FCE01FCD305E010E086E315
:1005D0000E94DE1CBC01CE01B4D301501109B9F751
:1005E000CE0102D4F701EC52FE4F91838083DF915C
:1005F000CF911F910F91FF90EF900895FF920F936D
:100600001F93CF93DF93EC01F62E8C010A521E4FFD
:10061000F801608365E474E08EE99BE00E94E219D2
:100620004AE050E06F2D8EE99BE00E94D91AF80154
:100630008081813051F028F0823081F0833079F16F
:1006400072C0C552DE4F18826EC0CE018C549E4FD0
:10065000DF91CF911F910F91FF90B3C3FE01E9523B
:10066000FE4F8081882319F081E03F978083FE014F
:10067000E752FE4F88E080833A97DE01AF52BE4FCB
:100680008D919C9191838083329711821082329751
:1006900011821082C552DE4F84E0888344C060E03E
:1006A00085E20E948F1D8E0109521E4FF801808144
:1006B00081503C97823038F4DE01A353BE4F8D91B8
:1006C0009C919183808380819181FE01E753FE4F4D
:1006D000208131812817390774F4918380836BE579
:1006E00074E08EE99BE00E94E21984E08093B907F0
:1006F00081E08093B807FE01E552FE4F108286E448
:100700009BE099D6F8018081882369F06AEF70E058
:1007100080E090E00E944D1CCE01DF91CF911F91AF
:100720000F91FF9046CFDF91CF911F910F91FF90D6
:100730000895AF92BF92CF92DF92EF92FF920F9304
:100740001F93CF93DF93EC0182E599E00E9448105C
:1007500081111AC086E30E94DE1C84319140A4F00E
:1007600082E599E00E94181066E874E08EE99BE04B
:100770000E94E21986E30E94DE1C4AE050E0BC01C0
:100780008EE99BE00E94B11ACE01E3DE882309F4D2
:10079000BCC07E013AE2E31A3EEFF30AF701808122
:1007A000882309F4B2C086E30E94DE1CBC018E01DE
:1007B0000C541E4FC801C5D2C80116D38C01F701D5
:1007C0008081813021F5FE01EC52FE4F80819181C4
:1007D0009801281B390B33977F01243031050CF425
:1007E00091C08CE599E00E94670D81118BC0F701E3
:1007F0001183008362E0CE01DF91CF911F910F91B1
:10080000FF90EF90DF90CF90BF90AF90F7CE823007
:1008100009F07BC0FE01E952FE4F8081882321F060
:10082000833008F072C00BC0CF52DE4F88819981AF
:10083000801791070CF069C01983088366C0FE0118
:10084000E353FE4F808191817E01F5E3EF1AFEEFC5
:10085000FF0AF701208131812817390714F49183A9
:100860008083FE01EF52FE4F118300838E010852F8
:100870001E4FF8018081882309F447C086E30E9457
:10088000DE1CFE01EC52FE4F20813181F701A08079
:10089000B180821B930B97FF02C080E090E0FC01C7
:1008A000EE0FFF1FEC0FFD1F60817181882777FD20
:1008B0008095982F0E942D1F6B017C01B501882720
:1008C00077FD8095982F0E942D1F9B01AC01C701D9
:1008D000B6010E94921E2AE939E949E15FE30E94CC
:1008E0008E1E87FF12C01A141B047CF463E0CE0135
:1008F00085DE63EB74E08EE99BE00E94FC19F80151
:10090000108203C0F70111830083DF91CF911F9103
:100910000F91FF90EF90DF90CF90BF90AF90089530
:100920000F931F93CF93DF931F92CDB7DEB78C0148
:1009300069830FDE6981882331F0611115C08BE175
:100940000E948F1D09C0662379F061E08BE10E944F
:100950008F1D80E090E00FDD60E0C8010F90DF9117
:10096000CF911F910F914ACE0F90DF91CF911F91A0
:100970000F91089560E042CE61E040CE4F925F92C9
:100980006F927F928F929F92AF92BF92CF92DF929F
:10099000EF92FF920F931F93CF93DF93EC0180DCD4
:1009A000CE0162DDFE01EA52FE4F8081823029F0E5
:1009B000833009F0AFC161E09BC14E014FE2841A60
:1009C0004EEF940A7E015CE2E51A5EEFF50AF4014F
:1009D00080819181F70120813181821B930B97FFE8
:1009E00002C080E090E0FC01EE0FFF1FEC0FFD1F46
:1009F000C080D1805E01F9E2AF1AFEEFBF0AF501B7
:100A000070808E0105531E4FF1E07F1641F07F1676
:100A100020F042E07416B1F166C0F8011CC0F2E3A8
:100A2000CF16D1040CF45FC060E08EE099E00E9424
:100A3000D61224E6AC01249FC001259F900D1124FD
:100A4000FE018C159D0584F0E852FE4F80818823BD
:100A500009F449C03B97808191818C159D050CF06C
:100A600042C0D182C0823FC0E853FE4F80818823BC
:100A7000D1F161E085E20E948F1DFE01E953FE4F36
:100A8000708231C052E3C516D1046CF161E08EE092
:100A900099E00E94D61224E6FC012E9FC0012F9FF0
:100AA000900D11248C159D05F4F4FE01E852FE4FC3
:100AB00080818823A1F03B97808191818C159D05D1
:100AC00094F4D182C0828EE099E00E946413833056
:100AD00051F464E08EE099E00E94671304C061E085
:100AE00085E20E948F1DF80180819181FE01E7530C
:100AF000FE4F2081318128173907ECF491838083E0
:100B000067EC74E08EE99BE00E94E2194AE050E055
:100B10006091400B8EE99BE00E94D91AFE01ED52D4
:100B2000FE4F8081811107C081E0808394E0909323
:100B3000B9078093B807F5018081811115C0F801CC
:100B400080819181181619060CF0E4C0CE018C54F6
:100B50009E4F4AD1F70120813181821B930B06976A
:100B60000CF0D8C063E0C4C0FE01E752FE4F908194
:100B7000992319F091509083CDC08150823008F0B4
:100B8000C9C0FE01E353FE4F80819181F8012081AD
:100B900031812817390714F49183808386E30E94FA
:100BA000DE1CF70120813181F801A080B180821B19
:100BB000930B97FF02C080E090E0FC01EE0FFF1F57
:100BC000EC0FFD1F60817181882777FD8095982F3C
:100BD0000E942D1F2B013C01B501882777FD8095D0
:100BE000982F0E942D1F9B01AC01C301B2010E94EE
:100BF000921E2B013C012AE939E949E15FE30E9499
:100C00008E1E87FF87C06E01F8E2CF1AFEEFDF0A63
:100C1000F6018081882309F47DC01A141B040CF0AE
:100C200079C061EE74E08EE99BE00E94E21922E057
:100C300030E0B301A2018EE99BE00E94C51B69EE82
:100C400074E08EE99BE00E94E219F601608170E099
:100C50004AE050E08EE99BE00E94AA1A67EF74E038
:100C60008EE99BE00E94E219F401608171814AE003
:100C700050E08EE99BE00E94AA1A64E075E08EE9DC
:100C80009BE00E94E219F701608171814AE050E027
:100C90008EE99BE00E94AA1A60E175E08EE99BE074
:100CA0000E94E219F801608171814AE050E08EE90A
:100CB0009BE00E94AA1A6DE175E08EE99BE00E941C
:100CC000E219FE01E853FE4F608170E04AE050E017
:100CD0008EE99BE00E94B11A63E0CE018FDC63EBEA
:100CE00074E08EE99BE00E94FC19F601108212C0AC
:100CF000CE01DF91CF911F910F91FF90EF90DF9088
:100D0000CF90BF90AF909F908F907F906F905F90AB
:100D10004F9074CCDF91CF911F910F91FF90EF9086
:100D2000DF90CF90BF90AF909F908F907F906F900B
:100D30005F904F9008958C529E4FFC01808191816D
:100D40000895CF92DF92EF92FF920F931F93FC01D1
:100D50008B018181DF01A80FB11DA80FB11D129673
:100D6000CD90DC901397EE24D7FCE094FE2C4485C4
:100D70005585668577854C195D096E097F0913963F
:100D80001C930E931297222717FD2095322F400FA8
:100D9000511F621F731F448755876687778790812D
:100DA000953010F49F5F90838F5F853010F48183BE
:100DB00001C011821F910F91FF90EF90DF90CF90B3
:100DC0000895FC011082118213821282158214820E
:100DD000178216821186108613861286148615864F
:100DE000168617860895EDCFFC01208130E040E0A3
:100DF00050E064857585868597850E947D20C901B0
:100E00000895FC0110828CEB92E0928381838CEA3E
:100E100093E094838383158208951F93CF93DF9388
:100E2000EC0187E30E94DE1C18811130E9F030F0FC
:100E3000123061F1133009F443C04DC029813A8169
:100E4000821793077CF411E010935E0982E599E024
:100E50000E94181061E080E30E948F1D82E08D8364
:100E6000188339C060E026C08D81823060F58EE144
:100E70000E94C41D892B79F160E080E30E948F1DE0
:100E800061E087E10E948F1D82E011C02B813C81CF
:100E90002817390774F460E087E10E948F1D1092D3
:100EA0005E0982E599E00E9418101D8383E0888323
:100EB00012C061E087E1DF91CF911F910C948F1DEB
:100EC0008D81823018F081508D8305C060E080E311
:100ED0000E948F1D1882DF91CF911F910895CF93AB
:100EE000DF93EC0161E084E30E94561D60E084E33F
:100EF0000E948F1D60E08EE10E94561D18821982AB
:100F0000DF91CF910895CF93FC012081211102C080
:100F1000C18101C0C1E08EE10E94C41DCC2369F0F3
:100F200081110DC061E08FE10E948F1D84E30E945A
:100F3000C41D892B71F461E008C08111F7CF84E3EF
:100F40000E94C41D892B29F060E084E3CF910C94AA
:100F50008F1DCF910895FC0161830895FC011082DB
:100F60000895CF92DF92EF92FF92CF93DF93EC013F
:100F70006A017B018B859C85AD85BE859A01AB019D
:100F8000281B390B4A0B5B0BDA01C90149815A81D5
:100F90006B817C8184179507A607B707D8F08881F5
:100FA000813019F0823029F00CC0E985FA85199555
:100FB00008C061E08885811160E068878F810E94A8
:100FC0008F1DCB86DC86ED86FE868F8598890196FF
:100FD000988B8F878D819E8197FD06C02F853889DC
:100FE000281739070CF01882DF91CF91FF90EF900E
:100FF000DF90CF900895FF920F931F93CF93DF93CD
:10100000CDB7DEB7AD970FB6F894DEBF0FBECDBF3C
:1010100060E08CE00E94561D8DE2EBEBF3E0DE0118
:10102000119601900D928A95E1F710E0812F90E0E2
:10103000E1E0F0E0EC0FFD1FE80FF91FF0802FEF6B
:10104000F21689F0E2E0F0E0EC0FFD1FE80FF91F67
:10105000008161E0802F0E94561D6F2D802F0E941D
:101060008F1D1E5FE3CFAD960FB6F894DEBF0FBEA7
:10107000CDBFDF91CF911F910F91FF9008958DE328
:101080000E94DE1C21E0883C91050CF020E0822FBC
:101090000895CF93DF93EC016D2F661F6627661FBF
:1010A00081E20E948F1D61E01C161D060CF060E0BD
:1010B00082E3DF91CF910C948F1DCF93DF93EC01EE
:1010C00081309105D1F460E086E20E948F1D61E0DD
:1010D00088E20E948F1D62E370E080E090E00E9451
:1010E0004D1C60E088E20E948F1D62E370E080E0AA
:1010F00090E0DF91CF910C944D1C6D2F661F6627F9
:10110000661F86E20E948F1D61E01C161D060CF012
:1011100060E088E2DF91CF910C948F1D682F89E108
:101120000C948F1DFC01138212821182108208958B
:101130001F93CF93DF93EC01162F66E375E08EE9E2
:101140009BE00E94E2194AE050E0612F8EE99BE0AB
:101150000E94D91A1883113049F028F0123061F436
:101160008FEF9FEF05C080E090E002C081E090E04B
:10117000DF91CF911F918DCFDF91CF911F91089576
:10118000CF93DF93EC018EE30E94DE1C2881213097
:1011900019F0223059F00FC02A813B818217930742
:1011A00054F060E0CE01DF91CF91C2CF2A813B8124
:1011B00028173907B4F7DF91CF910895CF93DF93C4
:1011C000EC018981662341F081110CC060E0CE0101
:1011D000AFDF81E0898306C0882321F060E0CE0183
:1011E000A7DF1982DF91CF910895EF92FF920F93BD
:1011F0001F93CF93DF93EC016536710514F064E61D
:1012000070E08B0177FF02C000E010E0B801882792
:1012100077FD8095982F0E942D1F23E333E343E34E
:1012200050E40E94E11F20E030E040E253E40E94DD
:101230002A1E0E94FA1E7B836A838EE30E94DE1CB4
:101240007C0166E575E08EE99BE00E94E2194AE0C8
:1012500050E0B8018EE99BE00E94AA1A6AE675E0A8
:101260008EE99BE00E94E2196A817B814AE050E0AE
:101270008EE99BE00E94B11A6CE775E08EE99BE075
:101280000E94E2194AE050E0B7018EE99BE00E941B
:10129000AA1A8A819B81E816F90614F461E004C059
:1012A0008E159F054CF462E0CE01DF91CF911F9126
:1012B0000F91FF90EF903CCFDF91CF911F910F9155
:1012C000FF90EF900895FC0182E087A715AA16AA67
:1012D00017AA10AE11AE108211821282138211AAC7
:1012E00012AA13AA14AA16A680AB15821482138A16
:1012F000128A17821682178E168E13A612A615A6AC
:1013000014A608950F931F93CF93DF93EC01B7DEDC
:101310008823A9F0B4DE882331F188A9823019F13D
:1013200082E088AB63E975E08EE99BE00E94FC19DE
:1013300060E08EE099E00E94671360E011C088A928
:10134000813089F081E088AB6FA58EE099E00E9442
:10135000671368EA75E08EE99BE00E94FC1961E082
:101360008BE10E948F1D8EE099E00E946413082F8C
:1013700082E599E08DD6182F002391F0813081F419
:1013800061E08AE699E0CCDA61E085E599E0B6D3E0
:10139000033008F443C061E080E699E00FDF3EC00F
:1013A0008CE00E94C41D892B61F460E08AE699E01C
:1013B000B7DA60E085E599E0A1D360E080E699E0E6
:1013C000FDDE61E0111101C060E08EE20E948F1D20
:1013D0008EA5882319F0853091F022C060E08AE262
:1013E0000E948F1D87E30E94DE1CAC0164E08EE04A
:1013F00099E0DF91CF911F910F910C94851289ADE7
:101400009FEF980F99AF823058F463E08EE099E037
:10141000DF91CF911F910F910C94671361E0D5CFAD
:10142000DF91CF911F910F910895FC0115AA16AA83
:1014300017AA10AE0895CF93DF93EC011DAA1EAA40
:101440001FAA18AE6FA5623021F18EE099E00E94CC
:1014500067136BEC75E08EE99BE00E94E2194AE0AD
:1014600050E06FA58EE99BE00E94D31A68ED75E00D
:101470008EE99BE00E94E2198EE099E00E946413DD
:101480004AE050E0682F8EE99BE0DF91CF910C9409
:10149000D91ADF91CF910895CF93DF93EC016EA716
:1014A0008FEF860F833008F46FA76330C9F058F4CC
:1014B000613081F0623009F043C02BE430E04DE34D
:1014C00050E060E024C0643039F16530C9F588E04F
:1014D00089AF36C02BE430E04DE350E061E017C047
:1014E00061E080E699E06ADE62E08EE099E00E94C9
:1014F000D6122AE0289FB001299F700D112480E6A2
:1015000099E073DE21E430E04DE350E062E085E5F0
:1015100099E0DF91CF9178C30E941E1C69AB7AAB32
:101520008BAB9CAB63E08EE099E00E94D61228EE74
:1015300033E0DC010E949F206DAB7EAB8FAB98AF98
:10154000DF91CF910895623049F48AE0849FB00121
:10155000859F700D112480E699E047CE0895FC0127
:10156000138A128A60E070E0DB011496AA0FBB1F99
:10157000AE0FBF1F2D913C9182899389820F931FDB
:10158000938B828B6F5F7F4F6530710569F782891E
:1015900093890E944820CB010895FC01178E168E76
:1015A00060E070E0DB011A96AA0FBB1FAE0FBF1FF1
:1015B0002D913C91868D978D820F931F978F868FEB
:1015C0006F5F7F4F6530710569F7868D978D0E943B
:1015D0004820CB0108950F931F93CF93DF93EC0125
:1015E0000C811D8182E40E94DE1CF8013496EE0F0E
:1015F000FF1FEC0FFD1F91838083EC81FD813496EA
:10160000EE0FFF1FEC0FFD1F80819181893791053F
:101610005CF4EC81FD813496EE0FFF1FEC0FFD1F93
:1016200080819181CA977CF48C819D81892BB9F44A
:10163000EC81FD81888999893496EE0FFF1FEC0FAC
:10164000FD1F918380838C819D8101969D838C8376
:101650008C819D81059779F41D821C820CC0EC81E0
:10166000FD81AC81BD811396AA0FBB1FAC0FBD1FBE
:101670008D919C91E1CFDF91CF911F910F910895B2
:101680000F931F93CF93DF93EC010E811F8183E4AF
:101690000E94DE1CF8013A96EE0FFF1FEC0FFD1FB3
:1016A00091838083EE81FF813A96EE0FFF1FEC0F4E
:1016B000FD1F80819181893791055CF4EE81FF8166
:1016C0003A96EE0FFF1FEC0FFD1F80819181CA97A4
:1016D0007CF48E819F81892BB9F4EE81FF818C8D02
:1016E0009D8D3A96EE0FFF1FEC0FFD1F91838083B7
:1016F0008E819F8101969F838E838E819F81059726
:1017000079F41F821E820CC0EE81FF81AE81BF8101
:101710001996AA0FBB1FAC0FBD1F8D919C91E1CFF5
:10172000DF91CF911F910F9108958F929F92AF9269
:10173000BF92CF92DF92EF92FF920F931F93CF93BE
:10174000DF931F921F92CDB7DEB78C018CE599E035
:10175000BED1882321F0C8013EDFC80191DFF80126
:1017600085A996A9A7A9B0AD181619061A061B06D1
:101770000CF070C0F894F80182A593A59A83898330
:10178000789486E30E94DE1C29813A812F3431054A
:101790005CF0F80115AA16AA17AA10AE49815A8161
:1017A0004E54510961E00DC08139F1E09F0774F09A
:1017B000F80115AA16AA17AA10AEAC01405951405B
:1017C00063E08EE099E00E949B1444C00E941E1CBE
:1017D000F80181A892A8A3A8B4A86B017C01C8183D
:1017E000D908EA08FB0886169706A806B9062CF061
:1017F000F1E0CF1AD108E108F108F80161AB72AB52
:1018000083AB94AB45A956A967A970AD4C195D0986
:101810006E097F0945AB56AB67AB70AF77FF1AC057
:1018200015AA16AA17AA10AE61E083E20E948F1DC6
:101830000E941E1CF801608371838283938340E0C1
:1018400050E064E08EE099E00E949B148AE699E003
:101850000E94C9020F900F90DF91CF911F910F91BD
:10186000FF90EF90DF90CF90BF90AF909F908F90C0
:101870000895CF92DF92EF92FF920F931F93CF9331
:10188000DF938C01CC24CA94DC2CE12CF12C82E473
:101890000E94DE1CE701CC0FDD1FC00FD11F99870E
:1018A000888783E40E94DE1C9D8B8C8B88859985BC
:1018B0008937910524F488859985CA9744F4E11401
:1018C000F10449F5F80180899189918780878C8995
:1018D0009D898937910524F48C899D89CA9744F4A0
:1018E000E114F10419F5F801848D958D958B848BA5
:1018F000FFEFEF1AFF0A8FEFC81AD80AE5E0EE16DD
:10190000F10429F6DF91CF911F910F91FF90EF9095
:10191000DF90CF900895F6013496EE0FFF1FE00F91
:10192000F11F8081918199878887D1CFF6013A96FE
:10193000EE0FFF1FE00FF11F808191819D8B8C8B3B
:10194000D7CFFC0186A50895FC01118221E02083F8
:1019500008950895CF93DF93EC0189818823A1F046
:1019600061111AC019828BE20E948F1D60E08DE226
:101970000E948F1D60E089E20E948F1D60E087E277
:10198000DF91CF910C948F1D662331F081E0898324
:1019900086E49BE06EDF1882DF91CF9108950F936C
:1019A0001F93CF93DF9300D01F92CDB7DEB78C018A
:1019B000FC018081811105C085E599E035D188233E
:1019C00059F0F8018181882309F478C085E599E010
:1019D0002BD18823D9F072C061E08DE20E948F1D67
:1019E00061E087E20E948F1D62E370E080E090E09A
:1019F0000E944D1C60E08DE20E948F1D60E087E236
:101A00000E948F1D81E0F8018083DBCF86E49BE09C
:101A1000A6DD9C838B8386E49BE0BFDD9A8389836C
:101A20008B819C81181619060CF048C089819A8117
:101A3000181619060CF042C08B819C8129813A81CD
:101A4000821B930B8F3F9F4FACF461E08DE20E94AD
:101A50008F1D62E370E080E090E00E944D1C60E02A
:101A60008DE20E948F1D68EC70E080E090E00E94A3
:101A70004D1C24C08B819C8129813A81821B930B50
:101A800002972CF060E08DE20E948F1D17C060EE7F
:101A900075E08EE99BE00E94FC198AE699E00E94BD
:101AA000BC0464E670E080E090E00E944D1C8AE691
:101AB00099E00E94D90260E0C8014CDF0F900F90BE
:101AC0000F900F90DF91CF911F910F910895FC011E
:101AD0008181089560E08AE20E948F1D8AE699E084
:101AE0000E94BA048FEF9FEFE8CAFC0114821382B0
:101AF000128211821082168215820895FC0185815E
:101B0000662329F081110AC081E085830895882326
:101B100029F01582148280E090E0CFCA0895CF9317
:101B2000DF93EC016C83613081F050F0623081F022
:101B30006330B9F480E090E0C0DA82E08E8311C0B7
:101B400080E090E0DF91CF91B8CADF91CF91C2CF12
:101B500081E090E0B2DA61E08CE599E0DF91CF912D
:101B6000F9CEDF91CF9108950F931F93CF93DF9319
:101B700000D0CDB7DEB78C01F8948091700B9091B6
:101B8000710B9A8389837894F8014481423081F003
:101B9000433021F1413081F589819A812081318161
:101BA000281739074CF161E08AE20E948F1D12C0AC
:101BB00089819A81F801228133818217930754F039
:101BC00083E0848380E090E04B8377DA4B81F801F7
:101BD000468312C062E0C801A2DF0EC0F801868110
:101BE0009FEF980F9683811107C0148280E090E0E8
:101BF00064DA86E49BE019DC0F900F900F90DF9180
:101C0000CF911F910F910895CF93DF93EC015983EA
:101C100048833B832A838AE699E00E94C40281E0DC
:101C20008C83DF91CF9156CFFC01848108958CE2A3
:101C30000E94C41D61E0892B09F060E08CE20C94E5
:101C40008F1DCF92DF92EF92FF920E941E1C6B01BC
:101C50007C018AE699E00E94BE0484E699E0DDD822
:101C600080E699E08DDA8EE599E04DD986E49BE037
:101C700049DB8CE599E06DDE85E599E075DF82E56D
:101C800099E0F5D18EE099E004D50E941E1C6C19F4
:101C90007D097093110960931009FF90EF90DF9018
:101CA000CF900895CF93DF93E091720BF091730B77
:101CB000EE0FFF1FEA59F44FC081D18184E40E94E6
:101CC000DE1C9C012A53310927313105D0F0809167
:101CD000720B9091730BE091720BF091730B892B47
:101CE00029F480916E0B90916F0B0FC0A091720B35
:101CF000B091730BAA0FBB1FAC59B44F8D919C913F
:101D000004C0E091720BF091730BEE0FFF1FEA59C4
:101D1000F44F91838083E091720BF091730BEE0F7F
:101D2000FF1FEA59F44F808191812091700B30910F
:101D3000710B65E070E00E944820FB01CE016BEF63
:101D40007FEF0E944820E60FF71F2E0F3F1F3093B2
:101D5000710B2093700B8091720B9091730B019615
:101D60009093730B8093720B8091720B9091730B15
:101D7000059721F41092730B1092720B8091320B25
:101D8000882329F1F8948FE30E94DE1C86349105A4
:101D900044F080E40E94DE1C8634910514F07894AF
:101DA00016C08FE30E94DE1C9093130980931209E2
:101DB00080E40E94DE1C909315098093140961E071
:101DC0008AE699E00E94D4021092320BE8CFDF91AC
:101DD000CF910895CF92DF92EF92FF920F931F93CE
:101DE0000E941E1C6B017C018EE099E0F9D58AE609
:101DF00099E00E9499038CE599E0D1DD8091460B32
:101E00009091470BA091480BB091490B18161906F9
:101E10001A061B062CF50E941E1C0091460B109101
:101E2000470B2091480B3091490B601B710B820BC3
:101E3000930B97FF04C06150710981099109693EB4
:101E400073408105910564F060E083E20E948F1D7C
:101E50001092460B1092470B1092480B1092490BB0
:101E600086E49BE062DC0E941E1C6C197D09709365
:101E70000F0960930E0984E698E040D18AEB97E061
:101E80001F910F91FF90EF90DF90CF9037C10F938C
:101E90001F93CF93DF93C0E0D0E005E010E084E42F
:101EA0000E94DE1CFE01EE0FFF1FEA59F44F9183E2
:101EB0008083808191812091700B3091710BB801EA
:101EC0000E944820260F371F3093710B2093700B10
:101ED00083E40E94DE1CFE01EE0FFF1FE65AF44F62
:101EE0009183808382E40E94DE1CFE01EE0FFF1FBF
:101EF000E25BF44F918380832196C530D10579F65A
:101F0000DF91CF911F910F91089575D826E040E899
:101F100055E260E070E08EE99BE00E94991820E0B5
:101F200044E064E180E89BE04BD721E23EE049E1F8
:101F300050E060E070E084E698E03BD127E13EE0CD
:101F400040E85EEE66E370E08AEB97E032D19FDF17
:101F500040E75BE062E070E088E99BE0C5D12FEFED
:101F60003FEFA90162E57EE088E99BE0CCD178945F
:101F70000895CF92EF920F93B7E0CB2E06E0E02EBC
:101F800005E024E043E062E080E89BE09FD786E440
:101F90009BE099D98AE699E00E94690284E699E07B
:101FA0000E94010780E699E0BDD88EE599E00E9485
:101FB0006F078CE599E0C8DC85E599E096DD82E560
:101FC00099E03AD060E87BE08EE099E024D284E6A4
:101FD00098E061D08AEB97E00F91EF90CF905BC0D3
:101FE000CF93DF93EC018EE099E06ED3833028F03D
:101FF00061E08EE599E00E94AB0761E08FE10E940D
:102000008F1D80E596E49A8389838CE00E94C41D2D
:10201000019759F48DE30E94DE1C019731F461E0D1
:102020008BE1DF91CF910C948F1DDF91CF910895BB
:1020300021E0FC012083D4CFFBCFFC016083662329
:1020400019F0613099F0089560E08BE10E948F1DD6
:102050008EE10E94C41D892B29F060E08EE599E095
:102060000E94AB0760E08FE10C948F1DB9CFFC019B
:102070002081213061F421813281121613062CF463
:102080002150310932832183089560E0D6CF08952D
:10209000FC01808108950F931F93CF93DF93EC0190
:1020A0008C0106551F4FCE010E94AE076196C017E6
:1020B000D107C9F7DF91CF911F910F910895CF926A
:1020C000DF92EF92FF921F93CF93DF936A017B0120
:1020D000EC011AE08881882329F0B701A601CE011E
:1020E0000E94B107115061961111F4CFDF91CF9189
:1020F0001F91FF90EF90DF90CF900895CF93DF93E3
:10210000EC010E941E1CAB01BC01CE01DF91CF91FE
:10211000D6CF20E0FC013081332331F02F5F419690
:102120002A30C1F78FEF0895822F0895CF92DF9262
:10213000EF92FF920F931F93CF93DF9300D01F92E4
:10214000CDB7DEB76C01790149835A836B837C83F9
:10215000E0DF282F49815A816B817C818F3FD9F044
:1021600081E12802C00CD11C112481E0F60180839A
:10217000418352836383748316830583F286E186E9
:1021800029830E941E1CF6016387748785879687C2
:10219000108A17862981822F0F900F900F900F9031
:1021A000DF91CF911F910F91FF90EF90DF90CF9033
:1021B00008950F931F930FEF1FEFB8DF1F910F913B
:1021C00008951F920F920FB60F9211240BB60F9223
:1021D0002F933F934F935F936F937F938F939F932F
:1021E000AF93BF93EF93FF93E0919C0BF0919D0B06
:1021F0001995FF91EF91BF91AF919F918F917F9131
:102200006F915F914F913F912F910F900BBE0F9067
:102210000FBE0F901F901895FC01A3E0440F551FAF
:10222000661F771FAA95D1F74115510581E0680710
:10223000710514F481E00EC033E0759567955795EC
:1022400047953A95D1F74115510581E06807710529
:102250001CF482E0828331C023E075956795579521
:1022600047952A95D1F74115510581E06807710519
:1022700014F483E0EFCF92E07595679557954795F5
:102280009A95D1F74115510581E06807710514F45D
:1022900084E0E0CF82E075956795579547958A95DC
:1022A000D1F785E082834115510581E0680771050A
:1022B00024F04FEF5FEF60E070E08FB78383F89416
:1022C00051834083509387004093860083818FBF62
:1022D00080918100887F809381008091810092812C
:1022E000892B8093810008951092800020E1209333
:1022F000810092CFE1E8F0E02081DC0112968C9120
:10230000282B208308950F931F93CF93DF93EC0125
:102310008B01BA01A90114161506160617060CF44E
:102320007BDF1D830C8381E080936F00CE01DF9102
:10233000CF911F910F91DECFCF93DF93EC01862FCA
:10234000688362E00E94561D1A821B821C821D82D5
:102350001982DF91CF910895EF92FF920F931F930F
:10236000CF93DF9300D01F92CDB7DEB77C01FC0185
:10237000808149835A836B837C830E94C41DF7014B
:10238000028113812481358149815A816B817C814D
:10239000892BF1F4400F511F621F731F4283538337
:1023A00064837583413A5648614071053CF140EAC7
:1023B00056E861E070E0F7014283538364837583DC
:1023C000818181111BC081E0818381E090E018C090
:1023D000041B150B260B370BF70102831383248391
:1023E000358337FF0BC012821382148215828181DC
:1023F000882321F011828FEF9FEF02C080E090E0F0
:102400000F900F900F900F90DF91CF911F910F9130
:10241000FF90EF900895EF92FF920F931F93CF9349
:10242000DF93EC017B0186E090E00E94D31B8C01DE
:102430006BE082DF1F870E8786E090E00E94D31B4F
:102440008C016AE079DF198B088B86E090E00E94AE
:10245000D31B8C0169E070DF1B8B0A8B86E090E058
:102460000E94D31B8C0168E067DF1D8B0C8BFF8AF9
:10247000EE8A5FE0588F61E06D8F42E04AA38AE008
:1024800090E098A78FA323E030E03AAB29AB9AAF56
:1024900089AF598F6E8F4BA39AA789A73CAB2BAB03
:1024A0009CAF8BAF5A8F4F8F4CA322E030E03CA7FC
:1024B0002BA721E030E03EAB2DAB9EAF8DAF5B8F05
:1024C00083E088A34DA385E090E09EA78DA738AF59
:1024D0002FABFE01FF9684E190E09183808387E03B
:1024E0008C8F49A384E08EA387E30E94DE1C98AB07
:1024F0008FA78E899F8941D48E899F89DF91CF9143
:102500001F910F91FF90EF904EC4CF93DF93FC018A
:102510002085862F90E0DC01AA0FBB1FEF01CA0FB8
:10252000DB1F211115C029A93AA94217530714F43A
:102530005AAB49ABAE0FBF1FD9962D913C91DA979C
:1025400024173507B4F4DA965C934E93D99711C0EB
:1025500029A93AA9241735070CF49A01AE0FBF1F19
:10256000D9960D90BC91A02DA901A217B3070CF428
:10257000AD019C01220F331FDF01A20FB31FC1E089
:1025800097960D90BC91A02DA417B50709F4C0E053
:10259000E20FF31F50A747A3CC2321F086E49BE072
:1025A0000E94A30A8C2FDF91CF910895860F911D71
:1025B000860F911DFC0187A190A50895DF92EF92EF
:1025C000FF920F931F93CF93DF93EC01D62E062F2C
:1025D00010E07C01E00EF11EF701458D608D8E89C3
:1025E0009F89D0D3F801EE0FFF1FEC0FFD1F07A14D
:1025F00010A5F701E2A0F12C81E090E00A3011056E
:1026000014F480E090E0E81AF90A81E090E00436E2
:10261000110514F480E090E0E81AF90A81E090E0F6
:10262000083EF3E01F0714F480E090E0E81AF90A8E
:1026300021E0E21AF1088E899F891E141F041CF400
:1026400060E2C1D6F5CF4AE050E0B80183D782E01E
:10265000D81659F0D81630F0E3E0DE1212C067EF5A
:1026600075E005C061EF75E002C064EF75E08E892A
:102670009F89DF91CF911F910F91FF90EF90DF9095
:10268000A1C6DF91CF911F910F91FF90EF90DF9046
:102690000895CF93DF93EC018885813069F050F085
:1026A000833079F461E0CE0189DF62E0CE0186DF1C
:1026B00063E003C064E001C060E0CE01DF91CF9130
:1026C0007DCFDF91CF910895FC0180850895EF9231
:1026D000FF920F931F93CF93DF931F92CDB7DEB777
:1026E0007C018FEFF701818782E599E06983A0DCA7
:1026F000F701868997895DD3F701868997893DD34C
:102700006981F70160876230B1F1C8F46623F9F09E
:10271000613009F0F1C060E08EE599E00E94AB07FE
:1027200061E276E0F701868997894CD641E063E063
:10273000F7018689978926D365E376E02FC0643058
:1027400009F460C080F1653009F473C0D5C060E061
:102750008EE599E00E94AB0769EF75E0F701868985
:10276000978930D641E060E0F701868997890AD3DE
:102770006DE076E013C060E08EE599E00E94AB0763
:1027800060E476E0F701868997891CD641E060E035
:10279000F70186899789F6D265E576E0F7018689A3
:1027A000978910D6A9C080E00E948E0861E08EE56E
:1027B00099E00E94AB076AE676E0F701868997897F
:1027C00001D641E062E0F70186899789DBD265E3B3
:1027D00076E0F70186899789F5D542E062E0F70156
:1027E00086899789CFD26EE776E0F7018689978947
:1027F000E9D543E062E0F70186899789C3D26AE8A8
:1028000076E0CCCF60E080E699E00E94DE0881E0CF
:102810000E948E086AE676E0F70186899789D2D50C
:1028200042E066E0F70186899789ACD264E976E0F8
:10283000B5CF80E00E948E0860E08EE599E00E94AE
:10284000AB076AE676E0F70186899789BBD58701F1
:102850000F5B1F4FF8012081F7018689978924308B
:1028600031F442E066E08ED26DE976E097CF41E048
:1028700066E088D265EA76E0F70186899789A2D575
:1028800042E066E0F701868997897CD2F8012081D1
:10289000F70186899789223039F0233041F02130C1
:1028A00049F46EEA76E016C065ED76E013C067EE97
:1028B00076E010C06FEE76E085D54AE050E0F80192
:1028C0006081F701868997896ED663EF76E0F7011C
:1028D0008689978977D543E068E0F70186899789EB
:1028E00051D2F701EE5BFF4F608171814AE050E009
:1028F000F701868997892ED686E49BE022D8F701D6
:102900006085861781F086E49BE00E944C0A67EFA1
:1029100076E08EE99BE00F90DF91CF911F910F91B0
:10292000FF90EF9069C50F90DF91CF911F910F91AC
:10293000FF90EF900895FC01EF5BFF4F60833196AD
:102940005183408365E0C3CE1F93CF93DF93EC01A7
:10295000162F89858F3FE9F0FE01E80FF11D608D8C
:102960006F5F458D8E899F890DD261E277E08E89F8
:102970009F8928D58985FE01E80FF11D608D6C5F68
:10298000458D8E899F89FED161E277E08E899F898E
:1029900019D519871F3F01F1FE01E10FF11D608D6F
:1029A0006F5F458D8E899F89EDD16AE077E08E89D2
:1029B0009F8908D58985FE01E80FF11D608D6C5F48
:1029C000458D8E899F89DED16CE077E08E899F8965
:1029D000DF91CF911F91F6C4DF91CF911F910895A0
:1029E000AF92BF92CF92DF92EF92FF920F931F931D
:1029F000CF93DF93EC0143E060E08E899F89C2D1E1
:102A00006EE077E08E899F89DDD443E060E08E89B7
:102A10009F89B8D18AE699E00E949B064AE050E07F
:102A2000BC018E899F8996D561E277E08E899F8966
:102A3000C9D46091330B7091340B4AE050E08E8919
:102A40009F8988D561E277E08E899F89BBD46091A8
:102A5000350B7091360B4AE050E08E899F897AD50C
:102A600061E277E08E899F89ADD46091370B7091D8
:102A7000380B4AE050E08E899F896CD561E277E09F
:102A80008E899F899FD460913B0B70913C0B4AE0EB
:102A900050E08E899F895ED542E060E08E899F89F3
:102AA00071D16EE077E08E899F898CD442E060E03E
:102AB0008E899F8967D186E381D74AE050E0BC01C7
:102AC0008E899F8947D561E277E08E899F897AD484
:102AD0006C817D814AE050E08E899F893BD561E21F
:102AE00077E08E899F896ED46E817F814AE050E0C5
:102AF0008E899F892FD5AED6CA84DB84EC84FD8471
:102B00009B01AC012C193D094E095F0969017A014D
:102B100057FF06C031E0C31AD108E108F10804C02C
:102B20006A877B878C879D87B701A6018E859F85E5
:102B300013DCAA24A394181619060CF0A12CB701D3
:102B4000A6018C899D8908DCBB24B394181619064C
:102B50000CF0B12CB701A60188899989FDDB31E021
:102B600020E0181619060CF030E0032F122FB701E1
:102B7000A6018A899B89F0DB1816190614F4015006
:102B80001109AA2049F0BB2069F00115110531F0A7
:102B900082E599E04DDA02C0BB2021F08AE699E097
:102BA0000E94B2028885813019F0823081F017C00E
:102BB000AA2031F063E0CE018ADD63E277E016C03F
:102BC000BB2081F18985882341F160E029C0AA20DA
:102BD00049F161E0CE017BDD68E477E007C0AA201F
:102BE00069F062E0CE0173DD6BE677E08EE99BE091
:102BF00003D48AE699E00E94B20214C0833091F4B3
:102C0000BB2081F08985823031F0833031F0813012
:102C100031F462E005C063E003C06FEF01C061E022
:102C2000CE0192DE01151105C1F069856F3FA9F053
:102C3000FE01E60FF11DE60FF11D47A150A5400F63
:102C4000511FCE01DF91CF911F910F91FF90EF9017
:102C5000DF90CF90BF90AF9058CCDF91CF911F9174
:102C60000F91FF90EF90DF90CF90BF90AF900895BD
:102C7000CF93DF93EC0160E08E8151D781E090E04B
:102C800031D661E08E814BD781E090E02BD660E0B9
:102C90008E8145D784E690E0DF91CF9123C6EF92F5
:102CA000FF920F931F93CF93DF938C01C0E0D0E08E
:102CB000E62EF12CB7010C2E02C0759567950A948B
:102CC000E2F76170F801EC0FFD1F878128D721968C
:102CD000C430D10579F7C801DF91CF911F910F91D1
:102CE000FF90EF90C5CFEF92FF920F931F93CF937A
:102CF000DF938C01C0E0D0E0E62EF12CB7010C2E62
:102D000002C0759567950A94E2F76170F801EC0FBF
:102D1000FD1F878104D72196C830D10579F7C801F6
:102D2000DF91CF911F910F91FF90EF90A1CF1F9353
:102D3000CF93DF93EC01162F642F8C81F0D68D8119
:102D40008F3F11F060E0EBD68F85612F84FF05C0C7
:102D5000CE01DF91CF911F91C6CF70E084E07595D1
:102D600067958A95E1F7CE019ADF612FCE01DF9159
:102D7000CF911F9194CF40E0DACF61E0FCDF80ED8E
:102D800097E0B0C5443008F043E0FC0123894217C6
:102D900010F04FEF420FFC01E40FF11D2489260FC4
:102DA0002068622FE8CFFC0160896B7F608B6860D0
:102DB000E2CFFC016089262F2460208B6C60DBCF82
:102DC0000F931F93CF93DF93EC01423018F08F8560
:102DD00088608F874B8B1C8A80E48D8B6E8B70E0B4
:102DE000605C7F4F6F8B222329F0413019F48F856F
:102DF00084608F8761E08C8159D68D818F3F11F07F
:102E000061E054D661E08E8151D600E010E08F85FC
:102E100084FF03C088E090E002C084E090E00817DF
:102E200019074CF4FE01E00FF11F61E087813ED6E7
:102E30000F5F1F4FECCF80E593EC54D560E08C81A1
:102E40006ED660E08E816BD68D818F3F11F060E091
:102E500066D66F8564FD16C063E0CE0120DF84E98D
:102E600091E140D563E0CE011ADF84E991E13AD5E2
:102E700063E0CE0114DF86E990E034D562E0CE0154
:102E80000EDF11C06062CE0176DF84E991E12AD5C0
:102E90006F856062CE016FDF86E990E023D56F8594
:102EA0006062CE0168DF6F856062CE0164DF84E01E
:102EB000888BCE017EDFCE0160DF82E0898B66E009
:102EC000CE01DF91CF911F910F9155CFCF92EF920D
:102ED0000F93FC011382128286E997E0918380832D
:102EE00064838FEF8583468327830087E186C286CC
:102EF0001386148615861686178620E041E060E169
:102F0000CF010F91EF90CF905BCF41E010DF81E0D8
:102F100090E00895FC01818D228D90E0805C9F4FB0
:102F2000821B91098F7399270895FC01918D828DE1
:102F3000981731F0828DE80FF11D858D90E008958E
:102F40008FEF9FEF0895FC01918D828D981761F0AE
:102F5000828DDF01A80FB11D5D968C91928D9F5FD0
:102F60009F73928F90E008958FEF9FEF089588E50B
:102F700099E1892B39F080E090E0892B19F098D104
:102F8000811125C080E090E0892B41F080E090E045
:102F9000892B21F00E94000081111CC080E090E08C
:102FA000892B41F080E090E0892B21F00E94000005
:102FB000811113C080E090E0892BA1F080E090E0C7
:102FC000892B81F00E94000081110AC008950E949F
:102FD0000000D8CF0E940000E1CF0E940000EACF9D
:102FE0000C9400000895FC01848DDF01A80FB11D31
:102FF000A35ABF4F2C91848D90E001968F7399272F
:10300000848FA689B7892C93A089B1898C9180641B
:103010008C93938D848D981306C00288F389E02DDC
:1030200080818F7D80830895CF93DF93EC01888D1D
:103030008823C1F0EA89FB89808185FD05C0A889C4
:10304000B9898C9186FD0EC00FB607FCF5CF808143
:1030500085FFF2CFA889B9898C9185FFEDCFCE018C
:10306000C2DFE8CFDF91CF910895CF92DF92FF9238
:103070000F931F93CF93DF931F92CDB7DEB76C01F1
:10308000DC015B969C915B975C968C915C979813A6
:1030900007C05096ED91FC915197808185FD31C01C
:1030A000F601038D10E00F5F1F4F0F731127F02EF5
:1030B000F601848DF81210C00FB607FCF9CFD601C7
:1030C0005096ED91FC915197808185FFF1CFC6011B
:1030D000698389DF6981ECCF838DE80FF11DE35AA5
:1030E000FF4F6083D6015B960C935B975296ED91F0
:1030F000FC91539780818062808381E058968C9305
:103100000DC0D6015696ED91FC915797608350966D
:10311000ED91FC91519780818064808381E090E003
:103120000F90DF91CF911F910F91FF90DF90CF9083
:103130000895BF92CF92DF92EF92FF92CF93DF93E9
:10314000EC016A017B01B22EE889F98982E0808373
:10315000411581EE58076105710599F060E079E04D
:103160008DE390E0A7019601A6D7215031094109CE
:1031700051095695479537952795211580E13807D0
:1031800090F0E889F989108260E874E88EE190E0B7
:10319000A701960190D7215031094109510956954F
:1031A000479537952795EC85FD853083EE85FF851E
:1031B0002083188EEC89FD89B082EA89FB898081A1
:1031C00080618083EA89FB89808188608083EA89C5
:1031D000FB89808180688083EA89FB8980818F7D7B
:1031E0008083DF91CF91FF90EF90DF90CF90BF90E1
:1031F00008951F920F920FB60F9211240BB60F92E3
:103200002F938F939F93EF93FF93E091AE0BF091E9
:10321000AF0B8081E091B40BF091B50B82FD12C031
:1032200090818091B70B8F5F8F732091B80B8217BD
:1032300051F0E091B70BF0E0E256F44F958F809398
:10324000B70B01C08081FF91EF919F918F912F91DA
:103250000F900BBE0F900FBE0F901F9018951F92EE
:103260000F920FB60F9211240BB60F922F933F932C
:103270004F935F936F937F938F939F93AF93BF937E
:10328000EF93FF938EE99BE0AEDEFF91EF91BF914C
:10329000AF919F918F917F916F915F914F913F91EE
:1032A0002F910F900BBE0F900FBE0F901F9018958F
:1032B0008EE99BE02FDE21E0892B09F420E0822FAC
:1032C00008951092A10B1092A00B88EE93E0A0E05D
:1032D000B0E08093A20B9093A30BA093A40BB093A8
:1032E000A50B8EE997E090939F0B80939E0B85EC46
:1032F00090E09093AB0B8093AA0B84EC90E09093BA
:10330000AD0B8093AC0B80EC90E09093AF0B80936F
:10331000AE0B81EC90E09093B10B8093B00B82ECFC
:1033200090E09093B30B8093B20B86EC90E0909377
:10333000B50B8093B40B1092B70B1092B80B109290
:10334000B90B1092BA0B0895CF92DF92EF92FF92D1
:103350000F931F93CF93DF936C017A01EB01E60E7D
:10336000F71E00E010E0CE15DF0561F06991D6018F
:10337000ED91FC910190F081E02DC6011995080FA7
:10338000191FF1CFC801DF91CF911F910F91FF90CD
:10339000EF90DF90CF9008956115710581F0DB010A
:1033A0000D900020E9F7AD0141505109461B570B24
:1033B000DC01ED91FC910280F381E02D199480E015
:1033C00090E00895E9CFDC01ED91FC910190F0814E
:1033D000E02D19940F931F93CF93DF93EC016DE0D1
:1033E000F2DF8C016AE0CE01EEDF800F911FDF91EA
:1033F000CF911F910F9108950F931F93CF93DF9358
:10340000EC01CADF8C01CE01E5DF800F911FDF9157
:10341000CF911F910F9108958F929F92AF92BF927B
:10342000CF92DF92EF92FF920F931F93CF93DF9390
:10343000CDB7DEB7A1970FB6F894DEBF0FBECDBFF4
:103440007C01C42EE52FCB01D22E19A221E02D152F
:1034500010F02AE0D22E8E010F5D1F4F8D2C912C83
:10346000A12CB12C6C2D7E2FA501940124D68C2D7E
:10347000D29E80191124015011098A3014F4805D04
:1034800001C0895CF8018083211531054105510592
:1034900021F0C22EE32FCA01E5CFB801C7017CDFBE
:1034A000A1960FB6F894DEBF0FBECDBFDF91CF91CE
:1034B0001F910F91FF90EF90DF90CF90BF90AF9052
:1034C0009F908F900895CF92DF92EF92FF920F938B
:1034D0001F93CF93DF93EC016A017B012115310526
:1034E00079F4E881F9810190F081E02D642FDF917A
:1034F000CF911F910F91FF90EF90DF90CF90199493
:103500002A303105D9F477FF18C06DE25CDF8C01F9
:1035100044275527BA014C195D096E097F092AE035
:10352000CE017ADF800F911FDF91CF911F910F9114
:10353000FF90EF90DF90CF9008952AE0B701A601A9
:10354000CE01DF91CF911F910F91FF90EF90DF900F
:10355000CF9062CF9A01AB01662757FD6095762F19
:10356000B2CF0F931F93CF93DF93EC019A01AB017E
:10357000662757FD6095762FA6DF8C01CE012ADFE6
:10358000800F911FDF91CF911F910F910895211509
:10359000310541F4DC01ED91FC910190F081E02DC9
:1035A000642F199439CF9A01462F50E060E070E003
:1035B000EECF0F931F93CF93DF93EC019A01462F29
:1035C00050E060E070E0E3DF8C01CE0103DF800FAC
:1035D000911FDF91CF911F910F9108954F925F92AC
:1035E0006F927F928F929F92AF92BF92CF92DF9213
:1035F000EF92FF920F931F93CF93DF93EC016A0139
:103600007B01B22E9A01AB01C701B6013DD58823DB
:1036100019F06AEA77E024C026013701E89477F8C8
:103620002FEF3FEF4FE75FE7C301B2012DD58111C7
:103630000CC02FEF3FEF4FE75FE7C301B2016ED33E
:1036400018161CF46EEA77E00BC02FEF3FEF4FE740
:103650005FE4C701B601B1D41816A4F462EB77E0B9
:10366000CE01DF91CF911F910F91FF90EF90DF90EE
:10367000CF90BF90AF909F908F907F906F905F9012
:103680004F908ACE2FEF3FEF4FE75FECC701B601B7
:1036900045D387FDE3CF20E030E0A901C701B601A3
:1036A0003DD387FF09C06DE2CE018DDE8C01F7FAB4
:1036B000F094F7F8F09402C000E010E0A12C60E074
:1036C00070E080E09FE3AB1439F020E030E040E2AE
:1036D00051E428D3A394F7CF9B01AC01C701B601F5
:1036E000B9D26B017C018BD32B013C01B4D39B017C
:1036F000AC01C701B601ADD26B017C012AE0B30178
:10370000A201CE0189DE080F191FBB2031F066EB44
:1037100077E0CE0141DE080F191F7B2C772019F1CD
:1037200020E030E040E251E4C701B6014AD46B0129
:103730007C0160D34B01AA2497FCA094BA2C2AE008
:1037400030E0B501A401CE01BEDE080F191FC5018E
:10375000B40183D39B01AC01C701B6017AD26B01DE
:103760007C017A94DBCFC801DF91CF911F910F913B
:10377000FF90EF90DF90CF90BF90AF909F908F9091
:103780007F906F905F904F90089528CF0895B4D0A8
:10379000FDDF0E94850FC7EBD7E10E94EA0E20975C
:1037A000E1F3E5DBFACFF8C41F920F920FB60F9248
:1037B00011242F933F938F939F93AF93BF93809147
:1037C0003C0C90913D0CA0913E0CB0913F0C30917F
:1037D0003B0C23E0230F2D3720F40196A11DB11DD2
:1037E00005C026E8230F0296A11DB11D20933B0CB6
:1037F00080933C0C90933D0CA0933E0CB0933F0CF7
:103800008091400C9091410CA091420CB091430CDE
:103810000196A11DB11D8093400C9093410CA09383
:10382000420CB093430CBF91AF919F918F913F9108
:103830002F910F900FBE0F901F9018952FB7F894EF
:1038400060913C0C70913D0C80913E0C90913F0C2E
:103850002FBF08953FB7F8948091400C9091410C90
:10386000A091420CB091430C26B5A89B05C02F3FF8
:1038700019F00196A11DB11D3FBF6627782F892F32
:103880009A2F620F711D811D911D42E0660F771FF7
:10389000881F991F4A95D1F70895CF92DF92EF9232
:1038A000FF92CF93DF936B017C01D4DFEB01C11456
:1038B000D104E104F10479F0CBD1CCDF6C1B7D0B9A
:1038C000683E7340A0F381E0C81AD108E108F1080E
:1038D000C851DC4FECCFDF91CF91FF90EF90DF909C
:1038E000CF900895019739F0880F991F880F991F7D
:1038F00002970197F1F70895789484B5826084BDAA
:1039000084B5816084BD85B5826085BD85B58160E3
:1039100085BDEEE6F0E0808181608083E1E8F0E043
:103920001082808182608083808181608083E0E872
:10393000F0E0808181608083E1EBF0E08081846051
:103940008083E0EBF0E0808181608083E1E9F0E05A
:10395000808182608083808181608083E0E9F0E003
:10396000808181608083E1EAF0E0808182608083F1
:10397000808181608083E0EAF0E0808181608083E3
:10398000E1E2F1E0808182608083808181608083D8
:10399000E0E2F1E0808181608083EAE7F0E080810D
:1039A0008460808380818260808380818160808365
:1039B0008081806880831092C1000895863308F06A
:1039C000865320917B00982F9870277F922B90939D
:1039D0007B0087702091060290E4299F90011124BA
:1039E000822B80937C0080917A00806480937A009F
:1039F00080917A0086FDFCCF80917800209179003B
:103A000090E0922B089590E0FC013197E231F105AE
:103A100008F04BC0EE58FF4F8CC3809180008F7729
:103A200003C0809180008F7D8093800008958091F5
:103A30008000877FF9CF84B58F7702C084B58F7DF2
:103A400084BD08958091B0008F7703C08091B0004D
:103A50008F7D8093B0000895809190008F7707C08C
:103A6000809190008F7D03C080919000877F80932C
:103A7000900008958091A0008F7707C08091A000EA
:103A80008F7D03C08091A000877F8093A000089560
:103A9000809120018F7707C0809120018F7D03C026
:103AA00080912001877F809320010895CF93DF9339
:103AB00090E0FC01E25BFE4F2491FC01EC56FE4FCE
:103AC0008491882349F190E0880F991FFC01E25FFF
:103AD000FD4FA591B4918C509E4FFC01C591D4919E
:103AE0009FB7611108C0F8948C91209582238C9324
:103AF000888182230AC0623051F4F8948C91322F6D
:103B0000309583238C938881822B888304C0F8941A
:103B10008C91822B8C939FBFDF91CF9108950F934F
:103B20001F93CF93DF931F92CDB7DEB7282F30E0DE
:103B3000F901E85FFE4F8491F901E25BFE4F1491B9
:103B4000F901EC56FE4F04910023C1F0882319F0CF
:103B5000698359DF6981E02FF0E0EE0FFF1FEC5021
:103B6000FE4FA591B4919FB7F8948C91611103C059
:103B70001095812301C0812B8C939FBF0F90DF9103
:103B8000CF911F910F910895CF93DF93282F30E0AD
:103B9000F901E85FFE4F8491F901E25BFE4FD49199
:103BA000F901EC56FE4FC491CC2389F081112BDF33
:103BB000EC2FF0E0EE0FFF1FE652FE4FA591B491FF
:103BC0002C912D2381E090E021F480E002C080E080
:103BD00090E0DF91CF910895BF92CF92DF92EF9264
:103BE000FF920F931F93CF93DF93C82ED62EB42E40
:103BF000C7E0D0E0022F10E087E0E82EF12CB110F2
:103C00000AC0F701EC1BFD0BB80102C07595679562
:103C1000EA95E2F707C0B8010C2E02C075956795CA
:103C20000A94E2F7617077278C2D79DF61E08D2DA2
:103C300076DF60E08D2D73DF219708F7DF91CF915C
:103C40001F910F91FF90EF90DF90CF90BF9008955C
:103C500008955058BB27AA270ED075C166D130F001
:103C60006BD120F031F49F3F11F41EF45BC10EF4D0
:103C7000E095E7FB51C1E92F77D180F3BA176207CE
:103C800073078407950718F071F49EF58FC10EF441
:103C9000E0950B2EBA2FA02D0B01B90190010C015C
:103CA000CA01A0011124FF27591B99F0593F50F474
:103CB000503E68F11A16F040A22F232F342F4427CC
:103CC000585FF3CF469537952795A795F0405395C4
:103CD000C9F77EF41F16BA0B620B730B840BBAF094
:103CE0009150A1F0FF0FBB1F661F771F881FC2F7FF
:103CF0000EC0BA0F621F731F841F48F48795779513
:103D00006795B795F7959E3F08F0B3CF9395880FC9
:103D100008F09927EE0F979587950895D9D008F464
:103D200081E008950CD00FC107D140F0FED030F0F3
:103D300021F45F3F19F0F0C0511139C1F3C014D123
:103D400098F39923C9F35523B1F3951B550BBB2762
:103D5000AA2762177307840738F09F5F5F4F220F0F
:103D6000331F441FAA1FA9F333D00E2E3AF0E0E808
:103D700030D091505040E695001CCAF729D0FE2F54
:103D800027D0660F771F881FBB1F261737074807E6
:103D9000AB07B0E809F0BB0B802DBF01FF2793589C
:103DA0005F4F2AF09E3F510568F0B6C000C15F3FEB
:103DB000ECF3983EDCF3869577956795B795F79584
:103DC0009F5FC9F7880F911D9695879597F908957C
:103DD000E1E0660F771F881FBB1F62177307840718
:103DE000BA0720F0621B730B840BBA0BEE1F88F727
:103DF000E095089504D06894B111D9C00895BCD05D
:103E000088F09F5790F0B92F9927B751A0F0D1F0C3
:103E1000660F771F881F991F1AF0BA95C9F712C04D
:103E2000B13081F0C3D0B1E00895C0C0672F782FC2
:103E30008827B85F39F0B93FCCF3869577956795B9
:103E4000B395D9F73EF490958095709561957F4F25
:103E50008F4F9F4F0895E89409C097FB3EF49095CB
:103E60008095709561957F4F8F4F9F4F9923A9F053
:103E7000F92F96E9BB279395F695879577956795E2
:103E8000B795F111F8CFFAF4BB0F11F460FF1BC026
:103E90006F5F7F4F8F4F9F4F16C0882311F096E9B9
:103EA00011C0772321F09EE8872F762F05C0662367
:103EB00071F096E8862F70E060E02AF09A95660F20
:103EC000771F881FDAF7880F9695879597F90895D9
:103ED000990F0008550FAA0BE0E8FEEF161617061B
:103EE000E807F907C0F012161306E407F50798F083
:103EF000621B730B840B950B39F40A2661F0232B9C
:103F0000242B252B21F408950A2609F4A140A69517
:103F10008FEF811D811D089597F99F6780E870E0FC
:103F200060E008959FEF80EC089500240A9416162F
:103F3000170618060906089500240A941216130697
:103F4000140605060895092E0394000C11F4882325
:103F500052F0BB0F40F4BF2B11F460FF04C06F5F41
:103F60007F4F8F4F9F4F089557FD9058440F551F17
:103F700059F05F3F71F04795880F97FB991F61F0EB
:103F80009F3F79F087950895121613061406551F62
:103F9000F2CF4695F1DF08C0161617061806991FCE
:103FA000F1CF86957105610508940895E894BB27C3
:103FB00066277727CB0197F908958ADF08F48FEFFA
:103FC00008950BD0C0CFB1DF28F0B6DF18F09523ED
:103FD00009F0A2CFA7CF1124EACFC6DFA0F3959FA7
:103FE000D1F3950F50E0551F629FF001729FBB27E0
:103FF000F00DB11D639FAA27F00DB11DAA1F649F8C
:104000006627B00DA11D661F829F2227B00DA11D3E
:10401000621F739FB00DA11D621F839FA00D611DC4
:10402000221F749F3327A00D611D231F849F600DE5
:10403000211D822F762F6A2F11249F5750408AF01E
:10404000E1F088234AF0EE0FFF1FBB1F661F771FAA
:10405000881F91505040A9F79E3F510570F05CCFEA
:10406000A6CF5F3FECF3983EDCF386957795679596
:10407000B795F795E7959F5FC1F7FE2B880F911DC8
:104080009695879597F9089523DF880B990B0895E6
:1040900097FB072E16F4009406D077FD08D059D070
:1040A00007FC05D03EF4909581959F4F089570953B
:1040B00061957F4F0895A1E21A2EAA1BBB1BFD013B
:1040C0000DC0AA1FBB1FEE1FFF1FA217B307E407F7
:1040D000F50720F0A21BB30BE40BF50B661F771F4F
:1040E000881F991F1A9469F760957095809590952F
:1040F0009B01AC01BD01CF010895052E97FB16F47D
:1041000000940FD057FD05D0D6DF07FC02D046F44F
:1041100008C050954095309521953F4F4F4F5F4FC8
:10412000089590958095709561957F4F8F4F9F4F23
:104130000895EE0FFF1F0590F491E02D19941DD006
:10414000B7FF0895821B930B08950790F691E02D19
:104150001994AA1BBB1B51E107C0AA1FBB1FA617BE
:10416000B70710F0A61BB70B881F991F5A95A9F720
:1041700080959095BC01CD010895A29FB001B39F99
:10418000C001A39F700D811D1124911DB29F700D60
:10419000811D1124911D0895CF93DF9382309105E5
:1041A00010F482E090E0E091460CF091470C20E0A2
:1041B00030E0A0E0B0E0309739F1408151814817FC
:1041C0005907B8F04817590771F482819381109705
:1041D00029F013969C938E9312972CC09093470CC2
:1041E0008093460C27C02115310531F04217530743
:1041F00018F0A901DB0101C0EF019A01BD01DF0147
:104200000280F381E02DD7CF21153105F9F0281B6D
:10421000390B2430310580F48A819B816115710549
:1042200021F0FB019383828304C09093470C809319
:10423000460CFE01329644C0FE01E20FF31F81934B
:10424000919322503109398328833AC02091440C3C
:104250003091450C232B41F420910202309103024E
:104260003093450C2093440C2091000230910102C0
:104270002115310541F42DB73EB74091040250910C
:104280000502241B350BE091440CF091450CE2171C
:10429000F307A0F42E1B3F0B2817390778F0AC0169
:1042A0004E5F5F4F2417350748F04E0F5F1F509346
:1042B000450C4093440C8193919302C0E0E0F0E000
:1042C000CF01DF91CF910895CF93DF93009709F449
:1042D00087C0FC01329713821282C091460CD091A4
:1042E000470C209781F420813181280F391F80915C
:1042F000440C9091450C8217930779F5F093450C87
:10430000E093440C6DC0DE0120E030E0AE17BF0743
:1043100050F412964D915C9113979D0141155105F2
:1043200009F1DA01F3CFB383A28340815181840F75
:10433000951F8A179B0771F48D919C911197840F9B
:10434000951F02969183808312968D919C9113976D
:10435000938382832115310529F4F093470CE09370
:10436000460C3EC0D9011396FC93EE9312974D91E3
:104370005D91A40FB51FEA17FB0779F48081918145
:10438000840F951F0296D90111969C938E9382817A
:10439000938113969C938E931297E0E0F0E08A81CC
:1043A0009B81009719F0FE01EC01F9CFCE01029636
:1043B00028813981820F931F2091440C3091450C44
:1043C0002817390769F4309729F41092470C109296
:1043D000460C02C013821282D093450CC093440C49
:0A43E000DF91CF910895F894FFCF0C
:1043EA000000480C80000100000A0014001D00278C
:1043FA000031003B0045004E00580062006C007618
:10440A00007F00890093009D00A000A300A600A9D8
:10441A0000AC00AF00B200B500B800BB00BE00C1DE
:10442A0000C400D300E200F10000010F011E012EBA
:10443A00013D014C015B016A01790188019901A9D9
:10444A0001BA01CA01DA01EA01FB010B021B022BC4
:10445A00023B024C02630278028F02A402BA02D023
:10446A0002E502FB02110325033B03510367037DA7
:10447A00039303A903BF03D503FD0323044B04726B
:10448A00049904B504D104ED040905250541055D27
:10449A000576058E05A705BF05D805F105F30503C1
:1044AA00061306230633064306530663067306837A
:1044BA00069306A306B306E6060E0735075C0783CE
:1044CA0007AA07C607E207FE071A08360852086E47
:1044DA000887089F08B808D008E90801091A0932AC
:1044EA0009450959096D0980099409A709BB09CE2B
:1044FA0009E209F609650A6F0A7A0A830A8E0A9896
:10450A000AA20AAC0ABA0ACD0ADC0AEB0AFA0A09B2
:10451A000B180B280B370B460B550B640B730B7FD1
:10452A000B900B9D0BAB0BB80BC50BD20BDF0BEC37
:10453A000BF90B060C130C200C2D0C3B0C430C5CDA
:10454A000C720C880C9E0CB40CCA0CDF0CF50C0710
:10455A000D110D210D320D420D520D620D730D8399
:10456A000D930DA40DB40DCB0DD50DE60DF60D066C
:10457A000E170E270E370E480E580E690E790E903A
:10458A000EA30EB30EC20ED10EE00EEF0EFE0E0DEE
:10459A000F1C0F2B0F3A0F490F540F00260028004B
:1045AA002A002C002E0030003200210034011F00A6
:1045BA0023002500170019001B0016001A00180016
:1045CA00270029002D002BFF626565706572546F04
:1045DA00446F203A0020202624252324255E2065C6
:1045EA0061726C7920707573682062656570206FDE
:1045FA006666200041434355535441542052455363
:10460A004554205448452053455353494F4E205052
:10461A0045414B20414E442043555252454E542069
:10462A005045414B00416363757374617420656E34
:10463A0074657253746174653A200041535F504F38
:10464A00535448495420494E5349444520454E54F1
:10465A00455253544154452043414C4C45442062F1
:10466A006565702829002020616E616C6F6752654C
:10467A006164286169416368696576656450696E39
:10468A00292069732077616B65696E6720697420D8
:10469A00757000206861735365656E62616C6C2089
:1046AA0066616C736520002063757272656E742092
:1046BA0061636375737461742073746174653A20FD
:1046CA000025446966663A200020205365656E20FD
:1046DA0042616C6C3A200020206C617374526561EF
:1046EA00643A200020204E41545F5052453A20003F
:1046FA002020637572725065616B3A200020204C4D
:10470A006F6F6B20466C61673A2000FC60DAF266D4
:10471A00B6BEE0FEF602496E6974204368617267AC
:10472A00652053797374656D206E657720737461A3
:10473A0074653A2020002073657454617267657449
:10474A0050657263656E743A200020746172676501
:10475A007450726573737572653A200020616950EE
:10476A0072656368617267655072657373757265A5
:10477A003A20004D41535F4C54535F4F4E206672AE
:10478A006F6D2068657265006578697420746F774B
:10479A00207377697463682063616C6C2075692E75
:1047AA00656E746572537461746500206C6173740C
:1047BA005374617465203A005549537461746500F5
:1047CA0020696E42616C616E636546616C73652037
:1047DA000030300030250073003D3D3D20544F57D6
:1047EA00494E47204D4F4445203D3D3D005265739B
:1047FA006572766F69722050726573737572653A65
:10480A00002A2A20504F5745522044524956494EB1
:10481A0047202A2A005468726573686F6C643A00EC
:10482A002B2B2B2B20494E444956494455414C20A9
:10483A002B2B2B2B002B2B2B2B2020545241494E58
:10484A00494E4720202B2B2B2B0020535452454EE8
:10485A0047544820545241494E494E472000446922
:10486A0066666963756C74793A0044757261746935
:10487A006F6E3A004348415247494E4700535543E9
:10488A00434553530053485554444F574E004469C7
:10489A0066666963756C7479206973207365742020
:1048AA00746F2068696768206164756A757374201B
:1048BA00646F776E00486F6C6420736372756D2045
:1048CA006C6F6E6765720052656475636520003FA0
:1048DA003F2000203F3F0075692E4946286C6173CE
:1048EA0074213D537461746529003E003C00202008
:1048FA0020202020202020202020202020202020AE
:10490A002020005549535F534352554D5F504F572E
:10491A0045522063616C6C65642075692E656E74FE
:10492A0065725374617465005549535F5343525518
:10493A004D5F494E442063616C6C65642075692E35
:10494A00656E746572537461746500646566617539
:10495A006C74207569206C6F6F70206361736520B9
:10496A0063616C6C656420656E74657253746174FE
:10497A006500000000008517A41900000000351822
:10498A00A4198A17A317951714186E616E00696E19
:08499A0066006F7666002E0036
:00000001FF
