:1000000015C1000044C1000042C1000040C1000011
:100010003EC100003CC100003AC1000038C10000F0
:1000200036C1000034C1000032C1000030C1000000
:100030002EC100002CC100002AC1000028C1000010
:1000400026C1000024C1000022C1000020C1000020
:100050000C9438131CC100001AC100000C94CB1C76
:1000600016C100000C94C81A0C94FE1A10C10000AE
:100070000EC100000CC100000AC1000008C1000050
:1000800006C1000004C1000002C1000000C1000060
:10009000FEC00000FCC00000FAC00000F8C0000074
:1000A000F6C00000F4C00000F2C00000F0C0000084
:1000B000EEC00000ECC00000EAC00000E8C0000094
:1000C000E6C00000E4C00000E2C00000E0C00000A4
:1000D000DEC00000DCC00000DAC00000D8C00000B4
:1000E000D6C00000121E151E041E081E0E1E4C1E39
:1000F000191E1D1E231E271E2B1E311E351E391EC6
:100100004C1E3F1E431E471E00000A0B02090C0D29
:100110000E080703040100000000000000000000BA
:1001200000000000000000000000000000000000CF
:10013000000000001211100000000000000000008C
:1001400000000000000000000000000000000102AC
:1001500010202008081020401020408002010201D9
:100160000804020101020408102040808040201091
:1001700008040201800402018040201008040201EA
:100180000804020101020408102040800102040852
:10019000102040800505050507050808080802022B
:1001A00002020A0A08080404040401010101010111
:1001B00001010303030303030303040707070C0CF4
:1001C0000C0C0C0C0C0C02020202060606060606BB
:1001D00006060B0B0B0B0B0B0B0B00002000230078
:1001E000260029002C002F0032000001000003012E
:1001F0000601090100002200250028002B002E0026
:100200003100340002010000050108010B0100006B
:100210002100240027002A002D00300033000101B6
:100220000000040107010A010212301B11241FBE45
:10023000CFEFD1E2DEBFCDBF00E00CBF19E0A0E000
:10024000B2E0E8EAF4E400E00BBF02C007900D92D0
:10025000AA3EB107D9F72EE0AAEEB9E001C01D927F
:10026000A438B207E1F712E0CCE2D2E000E006C029
:1002700022970109FE010BBF0E940421C832D10759
:1002800080E00807A9F70E94BE1C0C945222B8CE49
:1002900061E085E20E944D1E60E085E20C94861EBE
:1002A00080917A0D882321F0833008F044C022C069
:1002B0006091EB096623C9F18091EA099FEF980FDD
:1002C0009093EA098230B8F561506093EB09617050
:1002D00085E20E94861E68EE73E08AED9DE00E9432
:1002E000B11B4AE050E06091EB098AED9DE00E946D
:1002F000A81C13C06091EB09662399F08091EA096C
:100300009FEF980F9093EA098230A8F461506093B0
:10031000EB09617085E20E94861E8AE08093EA09FB
:1003200008958091660D811106C060E085E20E940B
:10033000861E1092730D0895DF92EF92FF920F9335
:100340001F93CF93DF93EC01C9318CEFD8073CF0BA
:10035000C031E7E2DE075CF4D7FF0BC002C0C9E1A1
:10036000DCEFD195C195D1099AE0D92E0CC0CFE030
:10037000D7E2CE0160E177E20E94A72068EE73E049
:100380000E94A720D62E61E086E10E94861E8AE0A8
:10039000E82EF12CCE01B7010E94A7208E519A4F72
:1003A000FC01208140E068E18AE10E94E31E04E64E
:1003B00010E0CE01B8010E94A720B7010E94A7203B
:1003C0006E517A4FFB01208140E068E18AE10E9492
:1003D000E31ECE0168EE73E00E94A720B8010E94E0
:1003E000A7206E517A4FFB01208140E068E18AE14D
:1003F0000E94E31EED2DF0E0EE51FA4F208140E027
:1004000068E18AE10E94E31E60E086E10E94861EA8
:1004100064E070E080E090E0DF91CF911F910F9158
:10042000FF90EF90DF900C94441D0F931F93CF9398
:10043000DF938C01FC01E453FE4F20813181EC01FC
:10044000C152DE4F2115310509F4188288818111CE
:1004500006C0F801E653FE4F8081918101C0C901B9
:100460006BDFF801E252FE4F8081823018F081503C
:1004700080830BC088E280838881833020F08330C2
:1004800021F4188202C08F5F8883DF91CF911F9182
:100490000F910895CF93DF93EC0184EB91E0E7E0B7
:1004A000F2E0DE0101900D920197E1F7CE018C544C
:1004B0009E4F01D5EDDEFE01E352FE4F1082719793
:1004C000118210823296118210823497118210822A
:1004D0003896118210823C961082319610823397A2
:1004E000108231971082319710823A9711821082D0
:1004F0003896118210827297108232971182108280
:10050000339610823D9610823C971082319610826D
:100510003C96108231961082C952DE4F1882DF91CC
:10052000CF9108958BE10E94BB1E21E0892B09F435
:1005300020E0822F0895FC01E453FE4F11821082C7
:1005400032971182108210924A0B1092490B65EF7C
:1005500073E08AED9DE00E94CB1B60E085E20C9485
:10056000861E85529E4FFC0160830895FC01E45372
:10057000FE4FDC01A253BE4F8D919C9191838083ED
:10058000089585529E4FFC018081089586529E4FAA
:10059000FC018081089584529E4FFC016083089580
:1005A000CF93DF93EC018C549E4F86D4C852DE4F1C
:1005B0009983888366E274E08AED9DE00E94B11B16
:1005C000688179814AE050E08AED9DE0DF91CF912A
:1005D0000C94801CFF920F931F93CF93DF93EC0139
:1005E000F62E8C0106521E4FF80160836EE274E015
:1005F0008AED9DE00E94B11B4AE050E06F2D8AED2C
:100600009DE00E94A81CF8018081813049F028F00B
:10061000823069F0833061F195C0C152DE4F7BC0FA
:10062000CE01DF91CF911F910F91FF90B9CFFE01C5
:10063000E552FE4F8081882319F081E07397808313
:10064000FE01E352FE4F88E080833D97DE01AE520B
:10065000BE4F8D919C91918380833297118210823D
:10066000329711821082C152DE4F84E088836AC0C3
:1006700060E085E20E94861EFE01E552FE4F808109
:1006800081503F97823050F4DE01A253BE4F8D91CE
:100690009C9111979183808317961C928081918100
:1006A000FE01E653FE4F2081318128173907F4F40B
:1006B0009183808364E474E08AED9DE00E94CB1B0B
:1006C0008E010C521E4FF801808181110FC060E72E
:1006D00074E08AED9DE00E94CB1B81E0F8018083ED
:1006E00084E08093EB098AE08093EA09FE01E152FD
:1006F000FE4F108239978081C952DE4F81110DC0A3
:10070000888181110AC08FE79DE0DF91CF911F9111
:100710000F91FF901FC7188215C088818111FBCFF0
:1007200063E080E49BE00E942A15AC01415051092E
:1007300062E080E49BE0DF91CF911F910F91FF90E9
:100740000C94DE16DF91CF911F910F91FF900895C9
:10075000CF92DF92EF92FF920F931F93CF93DF938D
:10076000EC0187E89BE00E949F1281111AC086E38A
:100770000E94D51D84319140A4F087E89BE00E943F
:100780009C1260E874E08AED9DE00E94B11B86E354
:100790000E94D51D4AE050E0BC018AED9DE00E9418
:1007A000801CCE01BFDE882309F48EC07E0186E264
:1007B000E81A8EEFF80AF7018081882309F484C0D3
:1007C00086E30E94D51DBC018E010C541E4FC8014A
:1007D00020D3C80171D38C01F7018081813009F0E9
:1007E00044C06E01F8E2CF1AFEEFDF0AF601808105
:1007F00091817801E81AF90A369711830083FBE0AA
:10080000EF16F1040CF460C081E99BE00E94990EA0
:1008100081115AC06CEB74E08AED9DE00E94B11B1F
:100820004AE050E0B8018AED9DE00E94791C63EC3B
:1008300074E08AED9DE00E94B11BF6016081718138
:100840004AE050E08AED9DE00E94801CF0924A0B45
:10085000E092490B62E0CE01DF91CF911F910F91A1
:10086000FF90EF90DF90CF90B5CE823069F5FE011A
:10087000E552FE4F8081882319F1833028F5FE016F
:10088000E253FE4F808191817E0124E3E21A2EEF34
:10089000F20AF70120813181281739078CF49183FE
:1008A00080836DEA74E08AED9DE00E94B11BF70140
:1008B000608171814AE050E08AED9DE00E94801CD9
:1008C000CE52DE4F19830883DF91CF911F910F9194
:1008D000FF90EF90DF90CF9008950F931F93CF93E9
:1008E000DF931F92CDB7DEB78C0169831BDE698170
:1008F000882359F0611120C08BE10E94861E60E0C0
:10090000C80168DE67ED74E00EC06623A9F061E0FF
:100910008BE10E94861E80E090E00EDD60E0C80161
:1009200059DE6AEF74E08AED9DE00F90DF91CF9180
:100930001F910F910C94CB1B0F90DF91CF911F91C2
:100940000F91089560E046DE66E175E08AED9DE076
:100950000C94CB1B61E03ECE6F927F928F929F9260
:10096000AF92BF92CF92DF92EF92FF920F931F93BD
:10097000CF93DF933C0194DCC30157DD730126E282
:10098000E21A2EEFF20AF7018081823021F08330E3
:1009900009F41DC22FC26301FEE2CF1AFEEFDF0A87
:1009A000530128E2A21A2EEFB20AF601808191814A
:1009B000F50120813181821B930B97FF02C080E0FB
:1009C00090E0FC01EE0FFF1FE60DF71DC081D18105
:1009D000830105521E4FF8019080F1E09F1659F1F6
:1009E0009F1628F022E0921609F456C0C5C0F30104
:1009F000E453FE4F808191818C179D0714F4D183BD
:100A0000C08380819181F301E653FE4F20813181C3
:100A1000281739070CF0B0C0918380833A96808103
:100A20008111AAC081E0808384E08093EB098AE091
:100A30008093EA09A1C0CC33D1050CF49DC060E0DD
:100A400080E49BE00E942A1524E6AC01249FC001AB
:100A5000259F900D11248C179D0774F0430159E3D5
:100A6000851A5EEF950AF40180818823E9F160E040
:100A700085E20E94861E36C0F301E853FE4F808156
:100A8000882309F467C061E085E20E94861EF301B5
:100A9000E953FE4F908270C0CC33D1050CF46CC08A
:100AA00061E080E49BE00E942A1524E6AC01249FCB
:100AB000C001259F900D11248C179D0774F14301EF
:100AC00059E3851A5EEF950AF4018081882361F06D
:100AD00060E085E20E94861E6BE375E08AED9DE092
:100AE0000E94CB1BF4011082F301E452FE4F80817F
:100AF000882309F441C04301F7E38F1AFEEF9F0AF0
:100B0000F4018081882331F160E375E08AED9DE096
:100B10000E94CB1BF40110821DC0F301E853FE4F6D
:100B200080818823B9F04301F9E38F1AFEEF9F0A11
:100B3000F4018081811120C061E085E20E94861E5F
:100B400060E775E08AED9DE00E94CB1B81E0F40137
:100B5000808312C0F301E253FE4F808191818C1794
:100B60009D0754F4D183C0833297808191818C1783
:100B70009D0714F4D183C08386E30E94D51D4301F1
:100B8000FCE48F1AFEEF9F0ABC01C40142D1F801B8
:100B90008081F301811114C0E453FE4F8081918163
:100BA000181619060CF026C1C40186D1F501208162
:100BB0003181821B930B06970CF01CC163E008C1C6
:100BC000E352FE4F9081992311F091509083813030
:100BD00021F0823009F45EC00DC1F301E253FE4FF3
:100BE00080819181830104531E4FF801208131815E
:100BF0002817390724F5918380836DEA74E08AED24
:100C00009DE00E94B11BF801608171814AE050E0D3
:100C10008AED9DE00E94791C6DE975E08AED9DE00A
:100C20000E94B11BF601608171814AE050E08AEDBB
:100C30009DE00E94801CF801808191817DDBF7019D
:100C40008081823009F0D6C07301F4E2EF1AFEEF22
:100C5000FF0AF7018081882309F4CCC0F801808164
:100C60009181181619060CF0C5C0C40125D1F501F3
:100C700020813181821B930B06970CF0BBC0F801D9
:100C800080819181C817D9070CF0B4C063E0C3011B
:100C9000A1DCAEC05301F2E3AF1AFEEFBF0AF501CB
:100CA00080819181830104531E4FF801208131819D
:100CB0002817390724F5918380836DEA74E08AED63
:100CC0009DE00E94B11BF801608171814AE050E013
:100CD0008AED9DE00E94791C6DE975E08AED9DE04A
:100CE0000E94B11BF601608171814AE050E08AEDFB
:100CF0009DE00E94801CF801808191811DDBF7013D
:100D00008081823009F076C07301F4E2EF1AFEEFC1
:100D1000FF0AF7018081882309F445C08091B20D54
:100D2000882331F063E0C30155DC1092B20D60C03E
:100D3000F8018081918197FD0196959587958C1793
:100D40009D070CF457C0F50111821082F301EA529D
:100D5000FE4F81E08083F701108263E0C3013ADC3B
:100D60006DEA75E08AED9DE00E94CB1B68E873E1B7
:100D700080E090E00E94441D63E080E49BE00E94DC
:100D8000BC1561E08AE89BE0DF91CF911F910F9144
:100D9000FF90EF90DF90CF90BF90AF909F908F909B
:100DA0007F906F90D2C7F8018081918197FD019665
:100DB000959587958C179D07ECF0F50111821082AF
:100DC000F301E853FE4F10823F9681E0808361E09B
:100DD000C301DF91CF911F910F91FF90EF90DF90B2
:100DE000CF90BF90AF909F908F907F906F90F2CBFD
:100DF000F7011082DF91CF911F910F91FF90EF903B
:100E0000DF90CF90BF90AF909F908F907F906F902A
:100E10000895CF92DF92EF92FF920F931F93FC0100
:100E20008B018181DF01A80FB11DA80FB11D1296A2
:100E3000CD90DC901397EE24D7FCE094FE2C4485F3
:100E40005585668577854C195D096E097F0913966E
:100E50001C930E931297222717FD2095322F400FD7
:100E6000511F621F731F448755876687778790815C
:100E7000953010F49F5F90838F5F853010F48183ED
:100E800001C011821F910F91FF90EF90DF90CF90E2
:100E90000895FC011082118213821282158214823D
:100EA000178216821186108613861286148615867E
:100EB000168617860895EDCFFC01208130E040E0D2
:100EC00050E064857585868597850E94DC20C90180
:100ED0000895FC0110828CEB92E0928381838CEA6E
:100EE00093E09483838315820895CF93C62FFC01EA
:100EF00060836DEE75E08AED9DE00E94B11B4AE0D3
:100F000050E06C2F8AED9DE0CF910C94A81CCF93FC
:100F1000DF93EC0161E084E30E944D1E60E084E316
:100F20000E94861E60E08EE10E944D1E188219828A
:100F3000DF91CF910895CF93FC012081211102C050
:100F4000C18101C0C1E08EE10E94BB1ECC2369F0CB
:100F500081110DC061E08FE10E94861E84E30E9432
:100F6000BB1E892B71F461E008C08111F7CF84E3C7
:100F70000E94BB1E892B29F060E084E3CF910C9482
:100F8000861ECF910895FC0160836CE076E08AEDC7
:100F90009DE00E94CB1B87E89BE00E949F1281117D
:100FA00004C087E89BE00C949C120895EF92FF9296
:100FB0000F931F93CF93DF931F92CDB7DEB77C01C2
:100FC00087E30E94D51D8C01F701818192819C01EC
:100FD00024563109021713070CF48C01F701208104
:100FE000213031F130F02230B9F1233009F453C00F
:100FF00067C008171907D4F461E083E99BE0C3DFF9
:1010000067E376E08AED9DE00E94B11B4AE050E084
:10101000B8018AED9DE00E94801C61E080E30E949F
:10102000861E82E0F701858361E041C060E029C04F
:10103000F7018581823098F58EE10E94BB1E892BD5
:1010400009F43EC060E080E30E94861E61E087E113
:101050000E94861E62E02BC0F70183819481801775
:10106000910774F460E087E129830E94861E60E0A6
:1010700083E99BE088DF2981F701258363E017C0BE
:1010800061E087E10F90DF91CF911F910F91FF9069
:10109000EF900C94861EF7018581823018F0815004
:1010A00085830EC060E080E30E94861E60E0C70179
:1010B0000F90DF91CF911F910F91FF90EF9015CF7F
:1010C0000F90DF91CF911F910F91FF90EF900895B6
:1010D000FC0161830895FC0110820895CF92DF9294
:1010E000EF92FF92CF93DF93EC016A017B018B8536
:1010F0009C85AD85BE859A01AB01281B390B4A0B37
:101100005B0BDA01C90149815A816B817C818417AB
:101110009507A607B707D8F08881813019F082308B
:1011200029F00CC0E985FA85199508C061E0888529
:10113000811160E068878F810E94861ECB86DC86E5
:10114000ED86FE868F8598890196988B8F878D8195
:101150009E8197FD06C02F853889281739070CF026
:101160001882DF91CF91FF90EF90DF90CF9008959C
:10117000FF920F931F93CF93DF93CDB7DEB7AD9759
:101180000FB6F894DEBF0FBECDBF60E08CE00E94CA
:101190004D1E8DE2EBEBF3E0DE01119601900D9216
:1011A0008A95E1F710E0812F90E0E1E0F0E0EC0FAC
:1011B000FD1FE80FF91FF0802FEFF21689F0E2E033
:1011C000F0E0EC0FFD1FE80FF91F008161E0802FB8
:1011D0000E944D1E6F2D802F0E94861E1E5FE3CF42
:1011E000AD960FB6F894DEBF0FBECDBFDF91CF91A5
:1011F0001F910F91FF9008958DE30E94D51D21E06E
:10120000883C91050CF020E0822F0895CF93DF9366
:10121000EC016D2F661F6627661F81E20E94861E05
:1012200061E01C161D060CF060E082E3DF91CF91B7
:101230000C94861ECF93DF93EC0181309105D1F49D
:1012400060E086E20E94861E61E088E20E94861EBF
:1012500062E370E080E090E00E94441D60E088E27C
:101260000E94861E62E370E080E090E0DF91CF9103
:101270000C94441D6D2F661F6627661F86E20E9430
:10128000861E61E01C161D060CF060E088E2DF910E
:10129000CF910C94861ECF93C82F682F89E10E94AE
:1012A000861E81E08093740DC13039F46CE476E0E1
:1012B0008AED9DE0CF910C94CB1BCF910895FC015A
:1012C000138212821182108208951F93CF93DF93AD
:1012D000EC01162F6AE576E08AED9DE00E94B11BD5
:1012E0004AE050E0612F8AED9DE00E94A81C18831F
:1012F000113049F028F0123061F48FEF9FEF05C0F4
:1013000080E090E002C081E090E0DF91CF911F91FA
:101310007DCFDF91CF911F910895CF93DF93EC01A3
:101320008EE30E94D51D2881213019F0223059F01A
:101330000FC02A813B818217930754F060E0CE01F1
:10134000DF91CF91C2CF2A813B8128173907B4F7AB
:10135000DF91CF910895CF93DF93EC0189816623CC
:1013600041F081110CC060E0CE01AFDF81E08983E4
:1013700006C0882321F060E0CE01A7DF1982DF914B
:10138000CF910895CF93DF93EC016536710514F08A
:1013900064E670E077FF02C060E070E0882777FDC8
:1013A0008095982F0E94B81F23E333E343E350E472
:1013B0000E94442020E030E040E253E40E94211FDC
:1013C0000E94851F7B836A838EE30E94D51D2A813C
:1013D0003B818217930714F461E004C02817390792
:1013E0002CF462E0CE01DF91CF916FCFDF91CF91EE
:1013F0000895FC0182E086AB16A617A610AA11AAD2
:1014000014AE108211821282138210AE11AE12AE8F
:1014100013AE15AA87AB15821482138A128A17821B
:101420001682178E168E13A612A615A614A612AA39
:1014300013AA14AA08950F931F93CF93DF93EC017F
:10144000DBDE8823A9F0D8DE882301F18FA9823062
:10145000E9F082E08FAB6AE776E08AED9DE00E94DA
:10146000CB1B60E080E49BE00E94BC1560E00BC0F9
:101470008FA9813059F081E08FAB6EA980E49BE0A9
:101480000E94BC1561E08BE10E94861E80E49BE017
:101490000E94B915082F87E89BE00E949F12182F21
:1014A000002391F0813081F461E08FE99BE015DA4F
:1014B00061E08AE89BE0D3D4033008F43EC061E0E9
:1014C00085E99BE048DF39C08CE00E94BB1E892B78
:1014D00061F460E08FE99BE000DA60E08AE89BE07D
:1014E000BED460E085E99BE036DF61E0111101C008
:1014F00060E08EE20E94861E8DA9882319F0853057
:1015000091F01DC060E08AE20E94861E87E30E947F
:10151000D51DAC0164E080E49BE0DF91CF911F9189
:101520000F910C94E2148CA9882349F063E080E4C5
:101530009BE00E94BC151CAA02C061E0DACFDF91DB
:10154000CF911F910F910895FC0116A617A610AA1E
:1015500011AA0895CF93DF93EC011EA61FA618AA27
:1015600019AA6EA9623021F180E49BE00E94BC15AB
:101570006FE876E08AED9DE00E94B11B4AE050E002
:101580006EA98AED9DE00E94A21C6CE976E08AEDCE
:101590009DE00E94B11B80E49BE00E94B9154AE0E7
:1015A00050E0682F8AED9DE0DF91CF910C94A81C4C
:1015B000DF91CF910895CF93DF93EC016DAB8FEF67
:1015C000860F833008F46EAB6330E1F058F461307D
:1015D00079F0623009F050C026E430E04DE350E08D
:1015E00060E00BC0643031F1653009F43FC044C0A5
:1015F00026E430E04DE350E061E08AE89BE0DF91D3
:10160000CF913DC461E085E99BE0A5DE62E080E426
:101610009BE00E942A152AE0289FB001299F700DA7
:10162000112485E99BE0AEDE2CE330E04DE350E091
:1016300062E0E3CF0E94151D68AF79AF8AAF9BAF20
:1016400063E080E49BE00E942A1528EE33E0DC0191
:101650000E94FE206EA77FA788AB99AB64EA76E074
:101660008AED9DE0DF91CF910C94CB1B8091750D9D
:10167000811102C088E08CAFDF91CF910895623074
:1016800049F48AE0849FB001859F700D112485E99B
:101690009BE078CE0895FC01138A128A60E070E026
:1016A000DB011496AA0FBB1FAE0FBF1F2D913C91FB
:1016B00082899389820F931F938B828B6F5F7F4FF9
:1016C0006530710569F7828993890E94A720CB0153
:1016D0000895FC01178E168E60E070E0DB011A960B
:1016E000AA0FBB1FAE0FBF1F2D913C91868D978D0A
:1016F000820F931F978F868F6F5F7F4F65307105C5
:1017000069F7868D978D0E94A720CB0108950F93CE
:101710001F93CF93DF93EC010C811D8182E40E9423
:10172000D51DF8013496EE0FFF1FEC0FFD1F9183BE
:101730008083EC81FD813496EE0FFF1FEC0FFD1FBF
:1017400080819181893791055CF4EC81FD8134962B
:10175000EE0FFF1FEC0FFD1F80819181CA977CF473
:101760008C819D81892BB9F4EC81FD8188899989CF
:101770003496EE0FFF1FEC0FFD1F918380838C8149
:101780009D8101969D838C838C819D81059779F441
:101790001D821C820CC0EC81FD81AC81BD81139641
:1017A000AA0FBB1FAC0FBD1F8D919C91E1CFDF91A4
:1017B000CF911F910F9108950F931F93CF93DF93B4
:1017C000EC010E811F8183E40E94D51DF8013A9639
:1017D000EE0FFF1FEC0FFD1F91838083EE81FF81D1
:1017E0003A96EE0FFF1FEC0FFD1F80819181893724
:1017F00091055CF4EE81FF813A96EE0FFF1FEC0F2E
:10180000FD1F80819181CA977CF48E819F81892BF5
:10181000B9F4EE81FF818C8D9D8D3A96EE0FFF1FFE
:10182000EC0FFD1F918380838E819F8101969F83A2
:101830008E838E819F81059779F41F821E820CC052
:10184000EE81FF81AE81BF811996AA0FBB1FAC0F3D
:10185000BD1F8D919C91E1CFDF91CF911F910F9191
:1018600008958F929F92AF92BF92CF92DF92EF92A4
:10187000FF920F931F93CF93DF931F921F92CDB7C9
:10188000DEB78C0181E99BE054D2882321F0C801A6
:101890003EDFC80191DFF80186A597A5A0A9B1A9EF
:1018A000892B8A2B8B2B09F40BC181E08093B10D1E
:1018B00082A593A59A8389831092B10D86E30E9435
:1018C000D51D7C018139F1E09F07A4F069EC76E039
:1018D0008AED9DE00E94CB1BF80116A617A610AA60
:1018E00011AAA7014059514063E080E49BE00E94A7
:1018F000DE16E6C00E94151D4B015C01F80180ADAB
:1019000091ADA2ADB3AD88169906AA06BB0698F4B0
:10191000C0ACD1ACE2ACF3ACC094D094E094F09401
:10192000C80CD91CEA1CFB1C6BEE76E08AED9DE02E
:101930000E94CB1B0BC0F80180AD91ADA2ADB3AD41
:1019400075016401C81AD90AEA0AFB0AF80180AED7
:1019500091AEA2AEB3AE86A597A5A0A9B1A98C19E8
:101960009D09AE09BF0986A797A7A0ABB1AB86A515
:1019700097A5A0A9B1A9C297A105B10508F0A0C07B
:1019800016A617A610AA11AA61E083E20E94861E7D
:101990001092B30D66EF76E08AED9DE00E94CB1BBE
:1019A0006BE177E08AED9DE00E94B11B6091B20D82
:1019B00070E04AE050E08AED9DE00E94791C6CE204
:1019C00077E08AED9DE00E94B11B6091B30D70E05D
:1019D0004AE050E08AED9DE00E94791C6CE377E0DC
:1019E0008AED9DE00E94B11B6091740D70E04AE0A9
:1019F00050E08AED9DE00E94791C6DE477E08AED6D
:101A00009DE00E94B11B6091730D70E04AE050E0D0
:101A10008AED9DE00E94791C6BE577E08AED9DE000
:101A20000E94B11B8FE99BE00E94C6024AE050E091
:101A3000682F8AED9DE00E94A21C61E677E08AEDA6
:101A40009DE00E94B11B8AE89BE02FD24AE050E063
:101A5000682F8AED9DE00E94A21C67E677E08AED80
:101A60009DE00E94B11B87E89BE069D54AE050E009
:101A7000682F8AED9DE00E94A21C6DE677E08AED5A
:101A80009DE00E94B11B80E49BE00E94B9154AE0F2
:101A900050E0682F8AED9DE00E94A81C0E94151D51
:101AA000F801608371838283938340E050E064E0B7
:101AB00080E49BE00E94DE168FE99BE00E94B60264
:101AC0000F900F90DF91CF911F910F91FF90EF90AA
:101AD000DF90CF90BF90AF909F908F900895CF925E
:101AE000DF92EF92FF920F931F93CF93DF938C01BE
:101AF000CC24CA94DC2CE12CF12C82E40E94D51D6C
:101B0000E701CC0FDD1FC00FD11F9987888783E4C1
:101B10000E94D51D9D8B8C8B888599858937910571
:101B200024F488859985CA9744F4E114F10449F5B1
:101B3000F80180899189918780878C899D8989376F
:101B4000910524F48C899D89CA9744F4E114F10429
:101B500019F5F801848D958D958B848BFFEFEF1A25
:101B6000FF0A8FEFC81AD80AE5E0EE16F10429F64D
:101B7000DF91CF911F910F91FF90EF90DF90CF9069
:101B80000895F6013496EE0FFF1FE00FF11F8081DC
:101B9000918199878887D1CFF6013A96EE0FFF1F82
:101BA000E00FF11F808191819D8B8C8BD7CFFC0141
:101BB00085A90895FC01118221E0208308950895EC
:101BC000CF93DF93EC0189818823A1F061111AC0C2
:101BD00019828BE20E94861E60E08DE20E94861EC2
:101BE00060E089E20E94861E60E087E2DF91CF918B
:101BF0000C94861E662331F081E089838FE79DE097
:101C00006EDF1882DF91CF9108950F931F93CF93CA
:101C1000DF9300D01F92CDB7DEB78C01FC0180812D
:101C2000811105C08AE89BE040D1882359F0F80172
:101C30008181882309F474C08AE89BE036D1882327
:101C4000D9F06EC061E08DE20E94861E61E087E2FD
:101C50000E94861E62E370E080E090E00E94441DD6
:101C600060E08DE20E94861E60E087E20E94861E90
:101C700081E0F8018083DBCF8FE79DE00CDD9C8362
:101C80008B838FE79DE025DD9A8389838B819C81FF
:101C9000181619060CF044C089819A811816190685
:101CA0000CF03EC08B819C8129813A81821B930B71
:101CB0008F3F9F4FACF461E08DE20E94861E62E38D
:101CC00070E080E090E00E94441D60E08DE20E94A0
:101CD000861E66E970E080E090E00E94441D20C00E
:101CE0008B819C8129813A81821B930B02972CF076
:101CF00060E08DE20E94861E13C064E777E08AED03
:101D00009DE00E94CB1B8FE99BE00E94AA0464E641
:101D100070E080E090E00E94441D60E0C80150DF68
:101D20000F900F900F900F90DF91CF911F910F9117
:101D30000895FC0181810895FC01148213821282AE
:101D400011821082168215820895CF93DF93EC01E1
:101D50006C8365E877E08AED9DE00E94B11B4AE064
:101D600050E06C818AED9DE00E94A81C8C8181303E
:101D700099F078F0823019F1833021F580E090E01D
:101D800059DA82E08E8361E081E99BE0DF91CF91B7
:101D900017CF80E090E010C060E08AE20E94861ECB
:101DA00062E977E08AED9DE00E94CB1B8FE99BE022
:101DB0000E94A2048FEF9FEFDF91CF913BCA81E099
:101DC00090E0FACFDF91CF9108950F931F93CF93B7
:101DD000DF931F921F92CDB7DEB78C0181E0809315
:101DE000B10D8091A90D9091AA0D9A8389831092CB
:101DF000B10DF8018481823081F08330E1F08130CF
:101E000039F589819A81208131812817390704F1B8
:101E100061E08AE20E94861E0CC089819A81F801E5
:101E2000228133818217930724F063E0C8018DDF9C
:101E30000FC062E0FBCFF80186819FEF980F968379
:101E4000811106C060E0C80180DF8FE79DE07CDB88
:101E50000F900F90DF91CF911F910F910895FC018A
:101E60002581662329F0211109C021E025830895E9
:101E7000222321F0FC01158260E067CF0895CF9303
:101E8000DF93EC01598348833B832A838FE99BE0EE
:101E90000E94B10261E0CE0158DF66EB77E08AED87
:101EA0009DE0DF91CF910C94CB1BFC0184810895C0
:101EB0008CE20E94BB1E61E0892B09F060E08CE29D
:101EC0000C94861ECF92DF92EF92FF920E94151D16
:101ED0006B017C018FE99BE00E94AC0489E99BE0E7
:101EE00065D885E99BE019DA83E99BE024D88FE780
:101EF0009DE0A1DA81E99BE062DE8AE89BE065DF94
:101F000087E89BE008D380E49BE018D60E94151D6B
:101F10006C197D097093430B6093420BFF90EF9017
:101F2000DF90CF9008958091B10D8111E8C086E3D4
:101F30000E94D51DBC0183E59DE00E940907E09148
:101F4000AB0DF091AC0DEE0FFF1FE156F24F80810B
:101F500091812091A90D3091AA0D65E070E00E9459
:101F6000A720261B370B3093AA0D2093A90D84E4DC
:101F70000E94D51D9C012A53310927313105D0F02B
:101F80008091AB0D9091AC0DE091AB0DF091AC0D4B
:101F9000892B29F48091A70D9091A80D0FC0A091D5
:101FA000AB0DB091AC0DAA0FBB1FA356B24F8D91D4
:101FB0009C9104C0E091AB0DF091AC0DEE0FFF1FB2
:101FC000E156F24F91838083E091AB0DF091AC0D1F
:101FD000EE0FFF1FE156F24F808191812091A90DF4
:101FE0003091AA0D65E070E00E94A720260F371FF0
:101FF0003093AA0D2093A90D80E49BE0BAD58430DC
:1020000009F041C08FE99BE00E94C1028230D9F5FE
:102010008FE99BE00E94C6028230A9F5E091AB0DEA
:10202000F091AC0DEE0FFF1FE156F24F80819181D0
:102030008F34910544F11092AD0D1092AE0D1092B7
:10204000AF0D1092B00D60E08FE99BE00E94CB02D3
:1020500069ED77E08AED9DE00E94CB1B40E050E007
:1020600061E080E49BE0AAD668E873E180E090E05C
:102070000E94441D63E08FE99BE00E94EA0261E058
:102080008AE89BE062DE8091670D882321F18FE36F
:102090000E94D51D8634910534F080E40E94D51D40
:1020A00086349105C4F461E08FE99BE00E94CB0285
:1020B0001092670D81E08093680D8FE99BE00E948C
:1020C000C102823041F464E08FE79DE074DA64E09D
:1020D00080E49BE051D58091AB0D9091AC0D0196C1
:1020E0009093AC0D8093AB0D8091AB0D9091AC0DA6
:1020F000059729F41092AC0D1092AB0D0895089538
:102100008F929F92AF92BF92CF92DF92EF92FF9207
:102110000F931F930E94151D6B017C0180E49BE0CF
:10212000A2D68FE99BE00E94A80381E99BE001DE33
:10213000882319F081E99BE068DD80917F0D909103
:10214000800DA091810DB091820D892B8A2B8B2B54
:1021500009F4CAC00E94151D00917F0D1091800DD9
:102160002091810D3091820D061717072807390736
:1021700088F400917F0D1091800D2091810D309198
:10218000820D4B015C01801A910AA20AB30A9501E3
:10219000840110C000917F0D1091800D2091810D60
:1021A0003091820D0095109520953095060F171FE0
:1021B000281F391F093813412105310508F494C03F
:1021C00060E083E20E94861E10927F0D1092800DC7
:1021D0001092810D1092820D81E08093B20D809358
:1021E000B30D61E078E08AED9DE00E94CB1B6BE1CE
:1021F00077E08AED9DE00E94B11B6091B20D70E026
:102200004AE050E08AED9DE00E94791C6CE277E0A4
:102210008AED9DE00E94B11B6091B30D70E04AE031
:1022200050E08AED9DE00E94791C6CE377E08AED36
:102230009DE00E94B11B6091740D70E04AE050E097
:102240008AED9DE00E94791C6DE477E08AED9DE0C7
:102250000E94B11B6091730D70E04AE050E08AED7E
:102260009DE00E94791C6BE577E08AED9DE00E947D
:10227000B11B8FE99BE00E94C6024AE050E0682F44
:102280008AED9DE00E94A21C61E677E08AED9DE068
:102290000E94B11B8AE89BE008DE4AE050E0682F0C
:1022A0008AED9DE00E94A21C67E677E08AED9DE042
:1022B0000E94B11B87E89BE042D14AE050E0682FC2
:1022C0008AED9DE00E94A21C6DE677E08AED9DE01C
:1022D0000E94B11B80E49BE04CD44AE050E0682FA0
:1022E0008AED9DE00E94A81C8FE79DE0BADA0E946B
:1022F000151D6C197D097093410B6093400B86E9A5
:102300009AE053D18CEE99E01F910F91FF90EF90DE
:10231000DF90CF90BF90AF909F908F9046C10F936A
:102320001F93CF93DF93C0E0D0E005E010E084E49A
:102330000E94D51DFE01EE0FFF1FE156F24F918363
:102340008083808191812091A90D3091AA0DB801DF
:102350000E94A720260F371F3093AA0D2093A90DA6
:1023600083E40E94D51DFE01EE0FFF1FED56F24FD4
:102370009183808382E40E94D51DFE01EE0FFF1F32
:10238000E957F24F918380832196C530D10579F6C4
:10239000DF91CF911F910F9108950E94B80826E018
:1023A00040E855E260E070E08AED9DE00E94681A26
:1023B00020E044E064E18CEB9DE0D1D622E63FE0F2
:1023C00049E150E060E070E086E99AE049D128E513
:1023D0003FE040E85EEE66E370E08CEE99E040D1CD
:1023E0009EDF40E75BE062E070E084ED9DE0D3D1EA
:1023F0002FEF3FEFA90163E97FE084ED9DE0DAD1A3
:1024000078940895CF92EF920F93B7E0CB2E06E029
:10241000E02E05E024E043E062E08CEB9DE025D770
:102420008FE79DE00E94F9098FE99BE00E944A0234
:1024300089E99BE00E94690785E99BE00E945F09AA
:1024400083E99BE00E94870781E99BE0B3DB8AE890
:102450009BE072DC87E89BE071D06CEB7DE080E470
:102460009BE030D286E99AE06DD08CEE99E00F9136
:10247000EF90CF9067C01F93CF93DF93EC01162F9F
:1024800068E278E08AED9DE00E94B11B4AE050E0EE
:10249000612F8AED9DE00E94A81C1883112319F07A
:1024A000113091F034C060E08BE10E94861E8EE115
:1024B0000E94BB1E892B29F060E083E99BE00E940B
:1024C000680860E08FE11EC080E49BE052D3833057
:1024D00028F061E083E99BE00E94680861E08FE1F9
:1024E0000E94861E80E596E49A8389838CE00E9490
:1024F000BB1E019761F48DE30E94D51D019739F44D
:1025000061E08BE1DF91CF911F910C94861EDF91EA
:10251000CF911F910895FC012081213061F4218128
:102520003281121613062CF4215031093283218393
:10253000089560E0A0CF089561E09DCFFDCFFC013C
:10254000808108950F931F93CF93DF93EC018C014B
:1025500006551F4FCE010E946B086196C017D10728
:10256000C9F7DF91CF911F910F910895CF92DF921C
:10257000EF92FF921F93CF93DF936A017B01EC01EF
:102580001AE08881882329F0B701A601CE010E94B4
:102590006E08115061961111F4CFDF91CF911F9108
:1025A000FF90EF90DF90CF900895CF93DF93EC01F1
:1025B0000E94151DAB01BC01CE01DF91CF91D6CF9A
:1025C00020E0FC013081332331F02F5F41962A3027
:1025D000C1F78FEF0895822F0895CF92DF92EF9287
:1025E000FF920F931F93CF93DF9300D01F92CDB72D
:1025F000DEB76C01790149835A836B837C83E0DF0A
:10260000282F49815A816B817C818F3FD9F081E1EC
:102610002802C00CD11C112481E0F6018083418383
:1026200052836383748316830583F286E18629834C
:102630000E94151DF6016387748785879687108A27
:1026400017862981822F0F900F900F900F90DF91A6
:10265000CF911F910F91FF90EF90DF90CF90089551
:102660000F931F930FEF1FEFB8DF1F910F91089586
:102670001F920F920FB60F9211240BB60F922F9349
:102680003F934F935F936F937F938F939F93AF93FA
:10269000BF93EF93FF93E091D80DF091D90D199569
:1026A000FF91EF91BF91AF919F918F917F916F912A
:1026B0005F914F913F912F910F900BBE0F900FBEE6
:1026C0000F901F901895FC01A3E0440F551F661F43
:1026D000771FAA95D1F74115510581E0680771056B
:1026E00014F481E00EC033E07595679557954795D2
:1026F0003A95D1F74115510581E0680771051CF441
:1027000082E0828331C023E07595679557954795A0
:102710002A95D1F74115510581E06807710514F438
:1027200083E0EFCF92E075956795579547959A9519
:10273000D1F74115510581E06807710514F484E073
:10274000E0CF82E075956795579547958A95D1F7C3
:1027500085E082834115510581E06807710524F009
:102760004FEF5FEF60E070E08FB78383F8945183A1
:102770004083509387004093860083818FBF809170
:102780008100887F80938100809181009281892BD4
:102790008093810008951092800020E120938100B1
:1027A00092CFE1E8F0E02081DC0112968C91282B99
:1027B000208308950F931F93CF93DF93EC018B0138
:1027C000BA01A90114161506160617060CF47BDFCC
:1027D0001D830C8381E080936F00CE01DF91CF9148
:1027E0001F910F91DECFCF93DF93EC01862F68838B
:1027F00062E00E944D1E1A821B821C821D82198279
:10280000DF91CF910895EF92FF920F931F93CF9393
:10281000DF9300D01F92CDB7DEB77C01FC01808131
:1028200049835A836B837C830E94BB1EF70102811C
:1028300013812481358149815A816B817C81892B67
:10284000F1F4400F511F621F731F4283538364834F
:102850007583413A5648614071053CF140EA56E8BB
:1028600061E070E0F7014283538364837583818163
:1028700081111BC081E0818381E090E018C0041BBE
:10288000150B260B370BF701028313832483358343
:1028900037FF0BC012821382148215828181882334
:1028A00021F011828FEF9FEF02C080E090E00F9047
:1028B0000F900F900F90DF91CF911F910F91FF908C
:1028C000EF900895EF92FF920F931F93CF93DF93B2
:1028D000EC017B0186E090E00E94CA1C8C016BE059
:1028E00082DF1A8B098B86E090E00E94CA1C8C0163
:1028F0006AE079DF1C8B0B8B86E090E00E94CA1C9B
:102900008C0169E070DF1E8B0D8B86E090E00E94E9
:10291000CA1C8C0168E067DF188F0F8BFA8EE98E76
:102920005FE05B8F61E068A342E04DA38AE090E046
:102930009BA78AA723E030E03DAB2CAB9DAF8CAFCB
:102940005C8F69A34EA39DA78CA73FAB2EAB9FAF17
:102950008EAF5D8F4AA34FA322E030E03FA72EA7A2
:1029600021E030E039AF28AFFE01E05CFF4F9183FA
:1029700080835E8F83E08BA348A785E090E099ABCE
:1029800088AB3BAF2AAF329684E190E0918380839D
:1029900087E08F8F4CA384E089A787E30E94D51D31
:1029A0009BAB8AAB898D9A8DB7D3898D9A8DCAD30B
:1029B00018861A861986DF91CF911F910F91FF908B
:1029C000EF900895CF93FC017385262F30E07111AD
:1029D00014C0F901EE0FFF1FE80FF91FA4A9B5A954
:1029E0004A175B0714F455AB44ABA4ADB5ADA417BF
:1029F000B507CCF455AF44AF16C0D901AA0FBB1F21
:102A0000A80FB91FD496ED91FC91D597E417F5075F
:102A10000CF4FA01DC960D90BC91A02DAF01AE171D
:102A2000BF070CF4AD01F901EE0FFF1FE80FF91F0E
:102A3000C1E022A533A52417350709F4C0E053A748
:102A400042A7CC2321F08FE79DE00E943F0B8C2F03
:102A5000CF910895860F911D860F911DFC0182A5CF
:102A600093A50895DF92EF92FF920F931F93CF9358
:102A7000DF93EC01D62E062F10E07C01E00EF11E54
:102A8000F70140A1638D898D9A8D4BD3F80175961E
:102A9000EE0FFF1FEC0FFD1F00811181F701E5A074
:102AA000F12C81E090E00A30110514F480E090E010
:102AB000E81AF90A81E090E00436110514F480E088
:102AC00090E0E81AF90A81E090E0083EF3E01F0781
:102AD00014F480E090E0E81AF90A21E0E21AF10823
:102AE000898D9A8D1E141F041CF460E23BD6F5CF2D
:102AF0004AE050E0B801FDD682E0D81659F0D81669
:102B000030F0E3E0DE1212C067E478E005C061E473
:102B100078E002C064E478E0898D9A8DDF91CF91EE
:102B20001F910F91FF90EF90DF901BC6DF91CF9127
:102B30001F910F91FF90EF90DF900895CF93DF9357
:102B4000EC018B85813069F050F0833079F461E0DD
:102B5000CE0188DF62E0CE0185DF63E003C064E080
:102B600001C060E0CE01DF91CF917CCFDF91CF91AA
:102B70000895FC01838508950F931F93CF93DF93EE
:102B8000EC01162F8FEF8C8787E89BE0D8DC811152
:102B900003C087E89BE0D0DC69E478E08AED9DE043
:102BA000E0D54AE050E0612F8AED9DE0D1D6898DD5
:102BB0009A8DCED2898D9A8DAFD21B87123091F12A
:102BC000B8F41123E9F0113009F0D9C060E083E9CD
:102BD0009BE00E94680867E878E0898D9A8DC1D5EE
:102BE00041E063E0898D9A8D9CD26BE978E02BC03F
:102BF000143009F455C058F1153009F466C0BFC04F
:102C000060E083E99BE00E9468086FE578E0898DC9
:102C10009A8DA7D541E060E0898D9A8D82D263E7D5
:102C200078E011C060E083E99BE00E94680866EAF2
:102C300078E0898D9A8D95D541E060E0898D9A8DF7
:102C400070D26BEB78E0898D9A8D8BD598C080E03F
:102C50000E944B0961E083E99BE00E94680860EDF7
:102C600078E0898D9A8D7DD541E062E0898D9A8DDD
:102C700058D26BE978E0898D9A8D73D542E062E095
:102C8000898D9A8D4ED264EE78E0898D9A8D69D5C2
:102C900043E062E0898D9A8D44D260EF78E0D3CF33
:102CA00060E085E99BE00E94AB0981E00E944B094E
:102CB00060ED78E0898D9A8D54D542E066E0898D8B
:102CC0009A8D2FD26AEF78E0BECF80E00E944B0948
:102CD00060E083E99BE00E94680860ED78E0898D00
:102CE0009A8D3FD58E010C5B1F4FF8012081898D95
:102CF0009A8D243031F442E066E013D264E079E04A
:102D0000A2CF41E066E00DD26CE079E0898D9A8D2A
:102D100028D542E060E0898D9A8D03D2F8012081A8
:102D2000898D9A8D223039F0233041F0213049F4D9
:102D300065E179E014C065E279E011C067E379E00C
:102D40000EC06FE379E00DD54AE050E0F8016081F4
:102D5000898D9A8DF7D563E479E0898D9A8D01D5B7
:102D600043E068E0898D9A8DDCD1FE01EB5BFF4F7B
:102D7000608171814AE050E0898D9A8DBAD58FE7E4
:102D80009DE00E94D70D6B85861799F08FE79DE037
:102D90000E94DB0A67E479E08AED9DE0E2D44AE034
:102DA00050E06B858AED9DE0DF91CF911F910F91EF
:102DB000CFC5DF91CF911F910F910895FC01EC5B7E
:102DC000FF4F608331965183408365E0D5CE1F93DA
:102DD000CF93DF93EC01162F8C858F3FE9F0FE0136
:102DE000E80FF11D638D6F5F40A1898D9A8D99D198
:102DF0006FEF77E0898D9A8DB4D48C85FE01E80F52
:102E0000F11D638D6C5F40A1898D9A8D8AD16FEF22
:102E100077E0898D9A8DA5D41C871F3F01F1FE01B3
:102E2000E10FF11D638D6F5F40A1898D9A8D79D17E
:102E30006EE579E0898D9A8D94D48C85FE01E80F3A
:102E4000F11D638D6C5F40A1898D9A8D6AD160E61A
:102E500079E0898D9A8DDF91CF911F9182C4DF91A6
:102E6000CF911F910895AF92BF92CF92DF92EF92D0
:102E7000FF920F931F93CF93DF93EC01E2D5CD84A4
:102E8000DE84EF84F8889B01AC012C193D094E09C2
:102E90005F0969017A0157FF06C031E0C31AD10802
:102EA000E108F10804C06D877E878F87988BB70192
:102EB000A60189899A89A7DCAA24A3941816190661
:102EC0000CF0A12CB701A6018F89988D9CDCBB2446
:102ED000B394181619060CF0B12CB701A6018B8912
:102EE0009C8991DC31E020E0181619060CF030E0E6
:102EF000032F122FB701A6018D899E8984DC181635
:102F0000190614F401501109AA2071F0BB2091F0A8
:102F10000115110559F087E89BE011DB811106C00E
:102F200087E89BE009DB02C0BB2021F08FE99BE032
:102F30000E949B028B85813019F08230B9F01EC04F
:102F4000AA2069F08FE99BE00E949B0263E0CE011A
:102F500013DE62E679E08AED9DE01DD432C0BB202D
:102F600081F18C85882341F160E029C0AA2049F1D4
:102F700061E0CE0101DE67E879E007C0AA2069F0D0
:102F800062E0CE01F9DD6AEA79E08AED9DE003D4E2
:102F90008FE99BE00E949B0214C0833091F4BB2018
:102FA00081F08C85823031F0833031F0813031F422
:102FB00062E005C063E003C06FEF01C061E0CE01D5
:102FC00006DF01151105C1F06C856F3FA9F0FE0108
:102FD000E60FF11DE60FF11D42A553A5400F511F4D
:102FE000CE01DF91CF911F910F91FF90EF90DF9075
:102FF000CF90BF90AF90E6CCDF91CF911F910F9112
:10300000FF90EF90DF90CF90BF90AF900895CF9357
:10301000DF93EC0160E08E8179D681E090E059D5B4
:1030200061E08E8173D681E090E053D560E08E81BF
:103030006DD684E690E0DF91CF914BC5EF92FF9281
:103040000F931F93CF93DF938C01C0E0D0E0E62E67
:10305000F12CB7010C2E02C0759567950A94E2F722
:103060006170F801EC0FFD1F878150D62196C430A6
:10307000D10579F7C801DF91CF911F910F91FF9092
:10308000EF90C5CFEF92FF920F931F93CF93DF93F3
:103090008C01C0E0D0E0E62EF12CB7010C2E02C06E
:1030A000759567950A94E2F76170F801EC0FFD1FC2
:1030B00087812CD62196C830D10579F7C801DF91D8
:1030C000CF911F910F91FF90EF90A1CF1F93CF93BE
:1030D000DF93EC01162F642F8C8118D68D818F3FE2
:1030E00011F060E013D68F85612F84FF05C0CE01FB
:1030F000DF91CF911F91C6CF70E084E07595679501
:103100008A95E1F7CE019ADF612FCE01DF91CF9151
:103110001F9194CF40E0DACF61E0FCDF80ED97E0D3
:10312000D8C4443008F043E0FC012389421710F072
:103130004FEF420FFC01E40FF11D2489260F206898
:10314000622FE8CFFC0160896B7F608B6860E2CF03
:10315000FC016089262F2460208B6C60DBCF0F93ED
:103160001F93CF93DF93EC01423018F08F85886076
:103170008F874B8B1C8A80E48D8B6E8B70E0605C3C
:103180007F4F6F8B222329F0413019F48F858460A3
:103190008F8761E08C8181D58D818F3F11F061E057
:1031A0007CD561E08E8179D500E010E08F8584FFC9
:1031B00003C088E090E002C084E090E0081719079F
:1031C0004CF4FE01E00FF11F61E0878166D50F5FCF
:1031D0001F4FECCF80E593EC7CD460E08C8196D5DA
:1031E00060E08E8193D58D818F3F11F060E08ED5A8
:1031F0006F8564FD16C063E0CE0120DF84E991E1B4
:1032000068D463E0CE011ADF84E991E162D463E01F
:10321000CE0114DF86E990E05CD462E0CE010EDFDF
:1032200011C06062CE0176DF84E991E152D46F85EE
:103230006062CE016FDF86E990E04BD46F856062FB
:10324000CE0168DF6F856062CE0164DF84E0888B29
:10325000CE017EDFCE0160DF82E0898B66E0CE01A9
:10326000DF91CF911F910F9155CFCF92EF920F9396
:10327000FC011382128285ED99E09183808364833F
:103280008FEF8583468327830087E186C286138676
:10329000148615861686178620E041E060E1CF018E
:1032A0000F91EF90CF905BCF41E010DF81E090E095
:1032B0000895FC01818D228D90E0805C9F4F821BE0
:1032C00091098F7399270895FC01918D828D98172C
:1032D00031F0828DE80FF11D858D90E008958FEF1C
:1032E0009FEF0895FC01918D828D981761F0828D7A
:1032F000DF01A80FB11D5D968C91928D9F5F9F732A
:10330000928F90E008958FEF9FEF089587E29BE101
:10331000892B39F080E090E0892B19F098D1811148
:1033200025C080E090E0892B41F080E090E0892B7F
:1033300021F00E94000081111CC080E090E0892BE8
:1033400041F080E090E0892B21F00E940000811183
:1033500013C080E090E0892BA1F080E090E0892B01
:1033600081F00E94000081110AC008950E940000AF
:10337000D8CF0E940000E1CF0E940000EACF0C9459
:1033800000000895FC01848DDF01A80FB11DA35A30
:10339000BF4F2C91848D90E001968F739927848F75
:1033A000A689B7892C93A089B1898C9180648C936C
:1033B000938D848D981306C00288F389E02D808157
:1033C0008F7D80830895CF93DF93EC01888D8823D0
:1033D000C1F0EA89FB89808185FD05C0A889B9898A
:1033E0008C9186FD0EC00FB607FCF5CF808185FF5E
:1033F000F2CFA889B9898C9185FFEDCFCE01C2DFCC
:10340000E8CFDF91CF910895CF92DF92FF920F9393
:103410001F93CF93DF931F92CDB7DEB76C01DC0112
:103420005B969C915B975C968C915C97981307C018
:103430005096ED91FC915197808185FD31C0F60148
:10344000038D10E00F5F1F4F0F731127F02EF60151
:10345000848DF81210C00FB607FCF9CFD601509634
:10346000ED91FC915197808185FFF1CFC601698371
:1034700089DF6981ECCF838DE80FF11DE35AFF4F9F
:103480006083D6015B960C935B975296ED91FC910D
:10349000539780818062808381E058968C930DC021
:1034A000D6015696ED91FC91579760835096ED9119
:1034B000FC91519780818064808381E090E00F903F
:1034C000DF91CF911F910F91FF90DF90CF900895E2
:1034D000BF92CF92DF92EF92FF92CF93DF93EC01F6
:1034E0006A017B01B22EE889F98982E08083411567
:1034F00081EE58076105710599F060E079E08DE390
:1035000090E0A701960136D62150310941095109B1
:103510005695479537952795211580E1380790F006
:10352000E889F989108260E874E88EE190E0A701EB
:10353000960120D6215031094109510956954795E8
:1035400037952795EC85FD853083EE85FF852083B3
:10355000188EEC89FD89B082EA89FB8980818061BF
:103560008083EA89FB89808188608083EA89FB897E
:10357000808180688083EA89FB8980818F7D808358
:10358000DF91CF91FF90EF90DF90CF90BF900895A3
:103590001F920F920FB60F9211240BB60F922F931A
:1035A0008F939F93EF93FF93E091EA0DF091EB0DD2
:1035B0008081E091F00DF091F10D82FD12C09081BB
:1035C0008091F30D8F5F8F732091F40D821751F06E
:1035D000E091F30DF0E0E652F24F958F8093F30DFA
:1035E00001C08081FF91EF919F918F912F910F905A
:1035F0000BBE0F900FBE0F901F9018951F920F9249
:103600000FB60F9211240BB60F922F933F934F9347
:103610005F936F937F938F939F93AF93BF93EF933A
:10362000FF938AED9DE0AEDEFF91EF91BF91AF91E8
:103630009F918F917F916F915F914F913F912F91CA
:103640000F900BBE0F900FBE0F901F9018958AED34
:103650009DE02FDE21E0892B09F420E0822F0895E0
:103660001092DD0D1092DC0D88EE93E0A0E0B0E04A
:103670008093DE0D9093DF0DA093E00DB093E10DEC
:103680008DED99E09093DB0D8093DA0D85EC90E061
:103690009093E70D8093E60D84EC90E09093E90D14
:1036A0008093E80D80EC90E09093EB0D8093EA0D11
:1036B00081EC90E09093ED0D8093EC0D82EC90E026
:1036C0009093EF0D8093EE0D86EC90E09093F10DCA
:1036D0008093F00D1092F30D1092F40D1092F50DF1
:1036E0001092F60D0895CF92DF92EF92FF920F9312
:1036F0001F93CF93DF936C017A01EB01E60EF71E67
:1037000000E010E0CE15DF0561F06991D601ED9182
:10371000FC910190F081E02DC6011995080F191F49
:10372000F1CFC801DF91CF911F910F91FF90EF90E2
:10373000DF90CF9008956115710581F0DB010D9048
:103740000020E9F7AD0141505109461B570BDC0140
:10375000ED91FC910280F381E02D199480E090E0DE
:103760000895E9CFDC01ED91FC910190F081E02D0D
:1037700019940F931F93CF93DF93EC016DE0F2DF69
:103780008C016AE0CE01EEDF800F911FDF91CF91B7
:103790001F910F9108950F931F93CF93DF93EC0127
:1037A000CADF8C01CE01E5DF800F911FDF91CF9141
:1037B0001F910F9108958F929F92AF92BF92CF92D7
:1037C000DF92EF92FF920F931F93CF93DF93CDB7CA
:1037D000DEB7A1970FB6F894DEBF0FBECDBF7C0158
:1037E000C42EE52FCB01D22E19A221E02D1510F009
:1037F0002AE0D22E8E010F5D1F4F8D2C912CA12C13
:10380000B12C6C2D7E2FA5019401B4D48C2DD29EA9
:1038100080191124015011098A3014F4805D01C00F
:10382000895CF8018083211531054105510521F09E
:10383000C22EE32FCA01E5CFB801C7017CDFA196F4
:103840000FB6F894DEBF0FBECDBFDF91CF911F91B1
:103850000F91FF90EF90DF90CF90BF90AF909F902F
:103860008F900895CF92DF92EF92FF920F931F9364
:10387000CF93DF93EC016A017B012115310579F4C7
:10388000E881F9810190F081E02D642FDF91CF91E3
:103890001F910F91FF90EF90DF90CF9019942A30F5
:1038A0003105D9F477FF18C06DE25CDF8C01442745
:1038B0005527BA014C195D096E097F092AE0CE012E
:1038C0007ADF800F911FDF91CF911F910F91FF90B1
:1038D000EF90DF90CF9008952AE0B701A601CE01C6
:1038E000DF91CF911F910F91FF90EF90DF90CF90DC
:1038F00062CF9A01AB01662757FD6095762FB2CF54
:103900000F931F93CF93DF93EC019A01AB016627CE
:1039100057FD6095762FA6DF8C01CE012ADF800F40
:10392000911FDF91CF911F910F91089521153105BE
:1039300041F4DC01ED91FC910190F081E02D642FC8
:10394000199439CF9A01462F50E060E070E0EECF35
:103950000F931F93CF93DF93EC019A01462F50E012
:1039600060E070E0E3DF8C01CE0103DF800F911F88
:10397000DF91CF911F910F9108950895B4D0FDDF8D
:103980000E94CD11C6E8D9E10E9480102097E1F392
:10399000BDDCFACF60C41F920F920FB60F921124B4
:1039A0002F933F938F939F93AF93BF938091780E04
:1039B0009091790EA0917A0EB0917B0E3091770E96
:1039C00023E0230F2D3720F40196A11DB11D05C062
:1039D00026E8230F0296A11DB11D2093770E809338
:1039E000780E9093790EA0937A0EB0937B0E80910F
:1039F0007C0E90917D0EA0917E0EB0917F0E01966F
:103A0000A11DB11D80937C0E90937D0EA0937E0E20
:103A1000B0937F0EBF91AF919F918F913F912F9166
:103A20000F900FBE0F901F9018952FB7F8946091CC
:103A3000780E7091790E80917A0E90917B0E2FBF47
:103A400008953FB7F89480917C0E90917D0EA091DF
:103A50007E0EB0917F0E26B5A89B05C02F3F19F0B2
:103A60000196A11DB11D3FBF6627782F892F9A2F80
:103A7000620F711D811D911D42E0660F771F881F27
:103A8000991F4A95D1F70895CF92DF92EF92FF9256
:103A9000CF93DF936B017C01D4DFEB01C114D10420
:103AA000E104F10479F0CBD1CCDF6C1B7D0B683ED7
:103AB0007340A0F381E0C81AD108E108F108C851A9
:103AC000DC4FECCFDF91CF91FF90EF90DF90CF9064
:103AD0000895019739F0880F991F880F991F029751
:103AE0000197F1F70895789484B5826084BD84B518
:103AF000816084BD85B5826085BD85B5816085BDE9
:103B0000EEE6F0E0808181608083E1E8F0E0108201
:103B1000808182608083808181608083E0E8F0E042
:103B2000808181608083E1EBF0E08081846080832C
:103B3000E0EBF0E0808181608083E1E9F0E080816A
:103B400082608083808181608083E0E9F0E0808111
:103B500081608083E1EAF0E08081826080838081FF
:103B600081608083E0EAF0E0808181608083E1E22F
:103B7000F1E0808182608083808181608083E0E2E7
:103B8000F1E0808181608083EAE7F0E080818460F9
:103B90008083808182608083808181608083808156
:103BA000806880831092C1000895863308F08653A0
:103BB00020917B00982F9870277F922B90937B0009
:103BC00087702091060290E4299F90011124822B96
:103BD00080937C0080917A00806480937A00809149
:103BE0007A0086FDFCCF809178002091790090E0EA
:103BF000922B089590E0FC013197E231F10508F035
:103C00004BC0EE58FF4FF4C2809180008F7703C005
:103C1000809180008F7D8093800008958091800046
:103C2000877FF9CF84B58F7702C084B58F7D84BD3F
:103C300008958091B0008F7703C08091B0008F7D90
:103C40008093B0000895809190008F7707C0809195
:103C500090008F7D03C080919000877F80939000BB
:103C600008958091A0008F7707C08091A0008F7D7C
:103C700003C08091A000877F8093A0000895809169
:103C800020018F7707C0809120018F7D03C0809134
:103C90002001877F809320010895CF93DF9390E0E8
:103CA000FC01E25BFE4F2491FC01EC56FE4F849137
:103CB000882349F190E0880F991FFC01E25FFD4FD6
:103CC000A591B4918C509E4FFC01C591D4919FB7A2
:103CD000611108C0F8948C91209582238C9388817F
:103CE00082230AC0623051F4F8948C91322F3095BF
:103CF00083238C938881822B888304C0F8948C91D1
:103D0000822B8C939FBFDF91CF9108950F931F93C8
:103D1000CF93DF931F92CDB7DEB7282F30E0F901A4
:103D2000E85FFE4F8491F901E25BFE4F1491F901C7
:103D3000EC56FE4F04910023C1F0882319F06983EB
:103D400059DF6981E02FF0E0EE0FFF1FEC50FE4FCE
:103D5000A591B4919FB7F8948C91611103C010950F
:103D6000812301C0812B8C939FBF0F90DF91CF9156
:103D70001F910F910895CF93DF93282F30E0F90121
:103D8000E85FFE4F8491F901E25BFE4FD491F901A7
:103D9000EC56FE4FC491CC2389F081112BDFEC2F20
:103DA000F0E0EE0FFF1FE652FE4FA591B4912C916B
:103DB0002D2381E090E021F480E002C080E090E0DB
:103DC000DF91CF910895BF92CF92DF92EF92FF9251
:103DD0000F931F93CF93DF93C82ED62EB42EC7E038
:103DE000D0E0022F10E087E0E82EF12CB1100AC0DD
:103DF000F701EC1BFD0BB80102C075956795EA95BC
:103E0000E2F707C0B8010C2E02C0759567950A94B9
:103E1000E2F7617077278C2D79DF61E08D2D76DFF9
:103E200060E08D2D73DF219708F7DF91CF911F910F
:103E30000F91FF90EF90DF90CF90BF90089508957D
:103E40005058BB27AA270ED0E5C0D6D030F0DBD023
:103E500020F031F49F3F11F41EF4CBC00EF4E09536
:103E6000E7FBC1C0E92FE7D080F3BA1762077307F9
:103E70008407950718F071F49EF5FFC00EF4E095E5
:103E80000B2EBA2FA02D0B01B90190010C01CA0114
:103E9000A0011124FF27591B99F0593F50F4503EBF
:103EA00068F11A16F040A22F232F342F4427585FB1
:103EB000F3CF469537952795A795F0405395C9F7C9
:103EC0007EF41F16BA0B620B730B840BBAF0915081
:103ED000A1F0FF0FBB1F661F771F881FC2F70EC020
:103EE000BA0F621F731F841F48F4879577956795F3
:103EF000B795F7959E3F08F0B3CF9395880F08F0DC
:103F00009927EE0F97958795089504D06894B1117D
:103F1000B5C0089598D088F09F5790F0B92F992791
:103F2000B751A0F0D1F0660F771F881F991F1AF0C4
:103F3000BA95C9F712C0B13081F09FD0B1E00895B1
:103F40009CC0672F782F8827B85F39F0B93FCCF332
:103F5000869577956795B395D9F73EF490958095BA
:103F6000709561957F4F8F4F9F4F0895E89409C0DA
:103F700097FB3EF490958095709561957F4F8F4F9C
:103F80009F4F9923A9F0F92F96E9BB279395F695B2
:103F9000879577956795B795F111F8CFFAF4BB0F30
:103FA00011F460FF1BC06F5F7F4F8F4F9F4F16C094
:103FB000882311F096E911C0772321F09EE8872F1E
:103FC000762F05C0662371F096E8862F70E060E0DA
:103FD0002AF09A95660F771F881FDAF7880F969553
:103FE000879597F9089597F99F6780E870E060E0FA
:103FF00008959FEF80EC089500240A941616170682
:1040000018060906089500240A94121613061406C9
:1040100005060895092E0394000C11F4882352F02C
:10402000BB0F40F4BF2B11F460FF04C06F5F7F4FE4
:104030008F4F9F4F089557FD9058440F551F59F0CB
:104040005F3F71F04795880F97FB991F61F09F3F85
:1040500079F087950895121613061406551FF2CFAE
:104060004695F1DF08C0161617061806991FF1CFFE
:1040700086957105610508940895E894BB27662725
:104080007727CB0197F908950BD0C4CFB5DF28F07F
:10409000BADF18F0952309F0A6CFABCF1124EECFED
:1040A000CADFA0F3959FD1F3950F50E0551F629F93
:1040B000F001729FBB27F00DB11D639FAA27F00D81
:1040C000B11DAA1F649F6627B00DA11D661F829FA8
:1040D0002227B00DA11D621F739FB00DA11D621F8D
:1040E000839FA00D611D221F749F3327A00D611DAA
:1040F000231F849F600D211D822F762F6A2F11248C
:104100009F5750408AF0E1F088234AF0EE0FFF1FDE
:10411000BB1F661F771F881F91505040A9F79E3F15
:10412000510570F060CFAACF5F3FECF3983EDCF30F
:10413000869577956795B795F795E7959F5FC1F752
:10414000FE2B880F911D9695879597F9089597FBFB
:10415000072E16F4009406D077FD08D059D007FC3E
:1041600005D03EF4909581959F4F08957095619587
:104170007F4F0895A1E21A2EAA1BBB1BFD010DC0A3
:10418000AA1FBB1FEE1FFF1FA217B307E407F50707
:1041900020F0A21BB30BE40BF50B661F771F881FE3
:1041A000991F1A9469F760957095809590959B0179
:1041B000AC01BD01CF010895052E97FB16F40094C4
:1041C0000FD057FD05D0D6DF07FC02D046F408C05B
:1041D00050954095309521953F4F4F4F5F4F089533
:1041E00090958095709561957F4F8F4F9F4F089563
:1041F000EE0FFF1F0590F491E02D19941DD0B7FF2D
:104200000895821B930B08950790F691E02D199461
:10421000AA1BBB1B51E107C0AA1FBB1FA617B707EC
:1042200010F0A61BB70B881F991F5A95A9F7809508
:104230009095BC01CD010895A29FB001B39FC0012C
:10424000A39F700D811D1124911DB29F700D811DC2
:104250001124911D0895CF93DF938230910510F4BE
:1042600082E090E0E091820EF091830E20E030E059
:10427000A0E0B0E0309739F14081518148175907EB
:10428000B8F04817590771F482819381109729F08B
:1042900013969C938E9312972CC09093830E8093C9
:1042A000820E27C02115310531F04217530718F04F
:1042B000A901DB0101C0EF019A01BD01DF0102800C
:1042C000F381E02DD7CF21153105F9F0281B390BEB
:1042D0002430310580F48A819B816115710521F0BC
:1042E000FB019383828304C09093830E8093820E9C
:1042F000FE01329644C0FE01E20FF31F81939193B9
:1043000022503109398328833AC02091800E3091A0
:10431000810E232B41F4209102023091030230934D
:10432000810E2093800E2091000230910102211510
:10433000310541F42DB73EB740910402509105027A
:10434000241B350BE091800EF091810EE217F307EC
:10435000A0F42E1B3F0B2817390778F0AC014E5FF5
:104360005F4F2417350748F04E0F5F1F5093810EA3
:104370004093800E8193919302C0E0E0F0E0CF0182
:10438000DF91CF910895CF93DF93009709F487C011
:10439000FC01329713821282C091820ED091830E5B
:1043A000209781F420813181280F391F8091800E60
:1043B0009091810E8217930779F5F093810EE09327
:1043C000800E6DC0DE0120E030E0AE17BF0750F474
:1043D00012964D915C9113979D014115510509F17C
:1043E000DA01F3CFB383A28340815181840F951FFB
:1043F0008A179B0771F48D919C911197840F951FDB
:1044000002969183808312968D919C91139793834A
:1044100082832115310529F4F093830EE093820EF7
:104420003EC0D9011396FC93EE9312974D915D9186
:10443000A40FB51FEA17FB0779F480819181840FDF
:10444000951F0296D90111969C938E938281938138
:1044500013969C938E931297E0E0F0E08A819B8103
:10446000009719F0FE01EC01F9CFCE0102962881E8
:104470003981820F931F2091800E3091810E281771
:10448000390769F4309729F41092830E1092820E46
:1044900002C013821282D093810EC093800EDF91EE
:0844A000CF910895F894FFCFBD
:1044A8000000840E80000100000A0014001D00278F
:1044B8000031003B0045004E00580062006C007659
:1044C800007F00890093009D00A000A300A600A91A
:1044D80000AC00AF00B200B500B800BB00BE00C120
:1044E80000C400D300E200F10000010F011E012EFC
:1044F800013D014C015B016A01790188019901A91B
:1045080001BA01CA01DA01EA01FB010B021B022B05
:10451800023B024C02630278028F02A402BA02D064
:1045280002E502FB02110325033B03510367037DE8
:10453800039303A903BF03D503FD0323044B0472AC
:10454800049904B504D104ED040905250541055D68
:104558000576058E05A705BF05D805F105F3050302
:1045680006130623063306430653066306730683BB
:10457800069306A306B306E6060E0735075C07830F
:1045880007AA07C607E207FE071A08360852086E88
:104598000887089F08B808D008E90801091A0932ED
:1045A80009450959096D0980099409A709BB09CE6C
:1045B80009E209F609650A6F0A7A0A830A8E0A98D7
:1045C8000AA20AAC0ABA0ACD0ADC0AEB0AFA0A09F4
:1045D8000B180B280B370B460B550B640B730B7F13
:1045E8000B900B9D0BAB0BB80BC50BD20BDF0BEC79
:1045F8000BF90B060C130C200C2D0C3B0C430C5C1C
:104608000C720C880C9E0CB40CCA0CDF0CF50C0751
:104618000D110D210D320D420D520D620D730D83DA
:104628000D930DA40DB40DCB0DD50DE60DF60D06AD
:104638000E170E270E370E480E580E690E790E907B
:104648000EA30EB30EC20ED10EE00EEF0EFE0E0D2F
:104658000F1C0F2B0F3A0F490F540F00260028008C
:104668002A002C002E0030003200210034011F00E7
:1046780023002500170019001B0016001A00180057
:10468800270029002D002BFF626565706572546F45
:10469800446F203A004143435553544154205245F6
:1046A800534554205448452053455353494F4E20B1
:1046B8005045414B20414E442043555252454E549B
:1046C800205045414B004E41545F505245004163D4
:1046D80063757374617420656E7465725374617464
:1046E800653A20002073657373696F6E5065616B5E
:1046F8002073657420696E736964652061636375EE
:10470800737461742E656E74657253746174650098
:1047180062656570464C4147203D2074727565009E
:104728002020616E616C6F67526561642861694120
:104738006368696576656450696E292069732077B6
:10474800616B65696E6720697420757000206375F8
:104758007272656E745065616B3A200020617667ED
:104768003A2000206E61747572616C7072656368BE
:10477800617267653A2000204163637573746174E0
:104788003A3A656E61626C656E2063616C6C656453
:104798002041535F517569657400204163637573E7
:1047A8007461743A3A656E61626C656E2041535F5C
:1047B8005175696574002041636375737461743A57
:1047C8003A70617573652041535F5175696574006E
:1047D8002062616C6C207472756500205F5F5F5F9A
:1047E8005F5F5F5F5F5F5F5F5F5F5F5F5F5F5F5FD1
:1047F8005F5F5F5F5F646973703C7468726573685C
:104808002C207475726E206F666620626565700074
:104818005F5F5F5F5F5F5F5F5F5F5F5F5F5F5F5FA0
:104828005F5F5F5F5F5F5F5F5F53657420656172A5
:104838006C79507573682054727565200020206C5F
:1048480061737452656164696E673A2000202020A4
:104858002020202020202020202020202020202050
:104868002020524553455420424543415553452045
:104878004F462050524553535552452044524F50AD
:104888002000FC60DAF266B6BEE0FEF602436F6D09
:1048980070726573736F722053797374656D2065D8
:1048A8006E74657253746174653A2000206E656594
:1048B8006465644279436F6D70726573736F7220BB
:1048C80063616C6C656420736C6565702E77616BD1
:1048D80065757028292000207265736572766F6986
:1048E8007250726573737572653A200020204149D1
:1048F800522044554D5045442000496E6974204368
:1049080068617267652053797374656D206E657789
:104918002073746174653A2020004D41535F4C54F4
:10492800535F4F4E2066726F6D2068657265002078
:104938006C6173745374617465203A0055495374FB
:104948006174650020737472656E6774684368618A
:1049580072676554696D656F75744D696C6C6973C0
:10496800207761732073657400746F6F206D7563B1
:1049780068207072657373757265202D2074696D77
:10498800656F75742072657365740020524F4C4CC6
:104998004F56455220005F5F5F5F5F5F5F5F5F5FFD
:1049A8005F5F5F53554343455353204F4E5F5F5FEF
:1049B8005F5F5F5F5F5F5F5F5F5F00204153206FF6
:1049C8007665722020666C61673A20002055492080
:1049D8006F76657220666C61673A20002064756D99
:1049E8007056616C7665466C61673A200020626596
:1049F80065706572466C61673A20002041533A2021
:104A0800002050423A20002053533A2000205549B4
:104A1800533A200020696E42616C616E636546619D
:104A28006C73652000706273206E65772073743A2A
:104A38002000205042535F5245414459315F534949
:104A48004E4B494E472063617573652041535F5152
:104A580075696574200020656E74657220746F2016
:104A68006561726C79205042535F52454144593117
:104A78005F53494E4B494E470020202020202020DC
:104A8800202020202020454D455247454E4359209F
:104A980053485554444F574E202020202020202092
:104AA800005F5F5F5F5F5F5F5F5F5F5F5F5F5F5F6D
:104AB8005F5F5F5F5F535543434553535F4F5645B1
:104AC800525F5F5F5F5F5F0020536C65657053796D
:104AD8007374656D206E65772073746174653A2010
:104AE8000030300030250073002055495379737425
:104AF800656D206E65772073746174653A20003D9A
:104B08003D3D20544F57494E47204D4F4445203D89
:104B18003D3D005265736572766F6972205072650B
:104B280073737572653A002A2A20504F57455220F0
:104B380044524956494E47202A2A005468726573E0
:104B4800686F6C643A002B2B2B2B20494E44495636
:104B5800494455414C202B2B2B2B002B2B2B2B2046
:104B680020545241494E494E4720202B2B2B2B00D5
:104B780020535452454E47544820545241494E49B7
:104B88004E472000446966666963756C74793A001B
:104B98004475726174696F6E3A00434841524749DF
:104BA8004E472000535543434553530053485554EB
:104BB800444F574E005265647563652044757261B1
:104BC80074696F6E00486F6C6420736372756D2032
:104BD8006C6F6E6765720052656475636520003F8F
:104BE8003F2000203F3F0020656E746572205549C4
:104BF8004D6F64654368616E6765643A20003E00E6
:104C08003C005549535F534352554D5F504F5745EC
:104C1800522063616C6C65642075692E656E7465DD
:104C2800725374617465005549535F534352554D2F
:104C38005F494E442063616C6C65642075692E651C
:104C48006E74657253746174650064656661756C31
:104C580074207569206C6F6F7020636173652063C1
:104C6800616C6C656420656E7465725374617465FB
:104C780000000000005419731B00000000041A73A0
:0A4C88001B591972196419E3190091
:00000001FF
